:0200000460009A
:100000004643464200000156000000000101020084
:1000100000000000000000000000000000000000E0
:1000200000000000000000000000000000000000D0
:1000300000000000000000000000000000000000C0
:1000400000000000010406010000000000000000A4
:100050000000800000000000000000000000000020
:100060000000000000000000000000000000000090
:100070000000000000000000000000000000000080
:10008000EB04180AFF1E04320126000000000000E5
:100090000000000000000000000000000000000060
:1000A0000000000000000000000000000000000050
:1000B0000000000000000000000000000000000040
:1000C0000000000000000000000000000000000030
:1000D0000000000000000000000000000000000020
:1000E0000000000000000000000000000000000010
:1000F0000000000000000000000000000000000000
:1001000000000000000000000000000000000000EF
:1001100000000000000000000000000000000000DF
:1001200000000000000000000000000000000000CF
:1001300000000000000000000000000000000000BF
:1001400000000000000000000000000000000000AF
:10015000000000000000000000000000000000009F
:10016000000000000000000000000000000000008F
:10017000000000000000000000000000000000007F
:10018000000000000000000000000000000000006F
:10019000000000000000000000000000000000005F
:1001A000000000000000000000000000000000004F
:1001B000000000000000000000000000000000003F
:1001C000000100000010000001000000000000001D
:1001D000000001000000000000000000000000001E
:1001E000000000000000000000000000000000000F
:1001F00000000000000000000000000000000000FF
:10020000FFFFFFFFFFFFFFFFFFFFFFFFFFFFFFFFFE
:10021000FFFFFFFFFFFFFFFFFFFFFFFFFFFFFFFFEE
:10100000D1002043F1150060000000000000000046
:10101000201000600010006000C4026000000000AA
:101020000000006000D0020000000000FFFFFFFF92
:10103000FFFFFFFFFFFFFFFFFFFFFFFFFFFFFFFFC0
:10104000FFFFFFFFFFFFFFFFFFFFFFFFFFFFFFFFB0
:10105000FFFFFFFFFFFFFFFFFFFFFFFFFFFFFFFFA0
:10106000FFFFFFFFFFFFFFFFFFFFFFFFFFFFFFFF90
:10140000824205D051F8043B40F8043B8242F9D8AF
:10141000704700BF044A05494FF0000342F8043BFF
:101420009142FBD8704700BFC03A002040540020D2
:1014300008B5BFF34F8F00F047F9544C544B0820C8
:101440005449C3F85401544AC3F800115348C3F82F
:10145000F0405349FFF7D4FF524A53495348FFF72E
:10146000CFFF534CFFF7D6FF4FF470004FF0E02151
:101470000023504AC1F8880D44F823200133B02BD3
:10148000FAD14D4B80214D4A03F8011B9342FBD109
:101490004FF0E0254A4E4B4A4FF0FF31C5F8084D5A
:1014A000D5F8243D43F4E023C5F8243DF36923F047
:1014B0007F0343F04003F361736A23F07F0343F03B
:1014C000400373629166D1661167516700F004F9B9
:1014D0003D4A3E4BA2636322E36300246A61032317
:1014E0003B4AAC612B61C5F8202DD5F8FC2D394B5A
:1014F00042F080723849C5F8FC2D1A6842F00102AA
:101500001A605B680B6000F0B7FA344800F058FCD2
:10151000F16E334B334A41F44051F1661C60C3F81D
:101520000841C3F81841C3F82841C3F83841936B08
:10153000DB0708D442F615632B4951651365936B9D
:1015400043F001039363274A284C936843F0011347
:10155000936000F04FF900F0FBFB00F02DFC00F071
:10156000BDFA00F0B3F82368132BFCD900F052FB4E
:101570002368B3F5967FFBD300F0ACF800F0A8F831
:1015800000F026FC00F02CFC30BFFDE70C0D111321
:1015900000800D401B101820F864020000000000BD
:1015A00098200060C03A002094850260000000206E
:1015B0000038002055BF010000E400E0A0E400E096
:1015C00000C00F4000C00A4079A201007DA20100C6
:1015D00000002020001000E0C05300200046C3237C
:1015E0000040084000400D400000C056C453002099
:1015F000054B4FF42A01054A05485A641864054A08
:1016000099639546FFF714FF00C00A40FFABAAAAF2
:101610000700200000800520294A00210123C2F88C
:10162000A000C2F8A410C2F8B0305369D907FCD5A5
:1016300001234FF4803C22495361C2F8A000C2F854
:10164000A4C0C2F8B0304B69DB07FCD501234FF4CE
:10165000003C1B4A4B61C1F8A000C1F8A4C0C1F80E
:10166000B0305369D907FCD50123DFF858C01449BD
:101670005361C2F8A000C2F8A4C0C2F8B0304B69F0
:10168000DB07FCD5D1F8003145F60D504FF0210CA9
:101690009AB2C1F814C0824210D045F69D518A42D8
:1016A0000AD1C3F34253032B08D0A3F10403B3FAC6
:1016B00083F35B09180170470020704708207047CA
:1016C00000402A4004000300704700BF704700BF7D
:1016D000704700BF00BF70474FF0E02300214FF07C
:1016E000100C3448C3F8941DC3F89CCD4FF0110C76
:1016F000C3F8A00D3048C3F89CCD4FF0120CC3F8CE
:10170000A00D2E48C3F89CCD2D4AC3F8A00DDFF8DC
:10171000D0C042F015022B48C3F89CCDC3F8A00DF1
:10172000DFF8C0C02848C3F89CCDC3F8A00DDFF88F
:10173000B8C0C3F89C2D2548254AC3F8A0CDC3F8EE
:101740009C0DC3F8A02D02F5A022DFF8A0C00C323A
:101750002048C3F89CCDC3F8A02D1F4AC3F89C0DA8
:10176000C3F8A02D02F14062DFF884C002321B48AA
:10177000C3F89CCDC3F8A02D0A32C3F89C0DC3F862
:10178000A02D00BF00BF00BF00BF00BF0122C3F8F3
:10179000942DBFF34F8FBFF36F8FC3F8501FBFF36C
:1017A0004F8FBFF36F8FD3F8142D42F44032C3F83C
:1017B000142D70473F000010250008070900100095
:1017C00040540020210002072500081316002020A5
:1017D00027000B13180000602F000B071A00008071
:1017E0001300200014000020090000101700004022
:1017F0001900007030B5864B85B0DFF874E218220E
:10180000844D0120C3F85CE28349C3F86052A5F51A
:101810008055DFF860C2814CC3F864E2C3F86852B7
:101820002125C3F86CC2C3F870C2C3F874C2C3F8F0
:1018300078C248F20C7CDA661A675A679A67DA67E8
:10184000C3F88020C3F88420C3F88820C1F82C0393
:10185000734AC1F83003C1F83403C1F83803C1F842
:101860003C03C1F85003A1696E4B0A406E486F49B2
:1018700013436F4AA361D4F8843043F00C03C4F8D7
:1018800084304FF0FF34036843F0020303600368C1
:1018900003EA0C031A43674B026044608A68664C93
:1018A0001340664A43F000538360C36823F0780313
:1018B000C360036A23401A43604B0262026A2240FB
:1018C0005F4C1343002243628462C46240F20564A9
:1018D000D1F8B83023F03F0343F00103C0F8B8302B
:1018E000D1F8BC30574923F03F0343F00103C0F85F
:1018F000BC3002610567C0F880404567C0F884408D
:101900000224036823F00203036081614E4B4F49B8
:10191000C46143F8042B8B42FBD1434C236843F052
:1019200001032360256815F00105FBD1454802221B
:1019300040F2F561A06140F29940E26140F26642F6
:10194000C4F8001242F20141C4F81022404AC4F81F
:101950002002C4F8302240F23542C4F834123D4827
:10196000C4F840223C4AC4F850022846C4F8542225
:1019700042F201223949C4F86012C4F86422FFF728
:101980004BFE0246002839D0810201234FF480200B
:1019900021662549C4F8A050C4F8A400C4F8B030AA
:1019A0004B69D807FCD515050124039228464C61E4
:1019B000FFF732FE039A2A4B0244D2B21A7080B16A
:1019C000194980024FF4802348660846C1F8A050A8
:1019D000C1F8A430C1F8B0404369DB07FCD501234E
:1019E000436120490024204801230094401A00EB61
:1019F00002521E4800F0F0F905B030BD1B4B1849EB
:101A000018600870D860C3E9010005B030BD00BFA0
:101A100000801F40F910010000841F4000C00F40EB
:101A2000FFFCFF1F0003008000402A4000802A4086
:101A30001200FFFFFF37F70000FFF07C400000803E
:101A4000FF000F83F05AF05A00422A4000432A4018
:101A50009F041830EB06180A063201263806180AC9
:101A60000554002000000070000000704C5300205E
:101A7000F9B00100F970010010B5174A4FF4805415
:101A80004FF4005E4FF4404C4FF4803043F242017B
:101A9000136913F0020F0DD113F4005F0FD013F48C
:101AA000805F0FD0002BF3DA13F4803F0CD15B067C
:101AB0000ED510BDC2F818C050619161E8E7C2F8B8
:101AC00014E0E5E75461E3E74FF480339361DFE727
:101AD00040235361DCE700BF00800D40414A0320F2
:101AE0004149F3EE095AD2F880309FED406A23F065
:101AF00001039FED3F5ADFF814C100B5C2F88030F2
:101B0000C2F89000D1F8E010DFF804E1CBB2394818
:101B1000CEF8003007EE903A0B0DC1F30B21F8EE32
:101B2000E77A06EE903A07EE101A334BB8EEC77A12
:101B3000CCF80010F8EEE66A304937EEC66A37EEA8
:101B4000C55A76EEC76A77EEE57A26EE266AC3EDC9
:101B5000006A25EE265AD2F8803067EEA64AC0ED1C
:101B6000007AC6EE275A264885EE276AC4EEA76A91
:101B700075EE875AFCEEE55A36EE076A15EE90CA06
:101B8000BCEEC66A43EA0C5376EE877AC2F8803020
:101B900016EE103AD2F890C1FCEEE77A01EA034162
:101BA00041EA0C014FF0000C17EE903AC2F8901188
:101BB000C3F30B03D2F890110B431249C2F89031D2
:101BC000D2F8803043F00203C2F880300E4B80F828
:101BD00040C0C1F840314FF0E0230122C3F8082192
:101BE00000BD00BF00810D4000441F400000AA421C
:101BF0000000B442B4530020B85300200000FF0F8F
:101C000000E400E00038002039C10100AC5300209E
:101C1000B0530020314B40F6617210B5C3F820215B
:101C200040F2044400F0C4F82D4A2E49D2F8803026
:101C30002D4843F00303C2F880302C4BC1F86041BB
:101C400002681A4203D1D1F8A8319A071BD0254A5D
:101C50004FF00041244B5963D2F8403143F0020366
:101C6000C2F84031D2F840319B07FBD44FF400302A
:101C70004FF0E0211C4B4FF00042C1F88C021920BC
:101C80009A6300F0B1F8184B0021164C4FF08042D7
:101C90000A209A634FF420721960C4F8A80114480E
:101CA00000F092F84FF4800203464FF4810040F2B6
:101CB00043111860C4F858311A640E4B0E4AC4F828
:101CC0004811C3F804224FF0E0224FF40031012301
:101CD000C2F80C11C4F8403110BD00BF00800D40A7
:101CE00000C00F4000002E4000900D40001C1E0060
:101CF00000000020003800203DC3010008B50E4B55
:101D00001B6E9B0700D4FBBE72B60C4B00200C4A26
:101D1000C3F8400103F160430A49A3F55F2311644E
:101D20009D46BFF34F8F4FF40013074A0748DB6906
:101D300002609B68984700BF00441F4000002E408F
:101D400000C00A4003002000000012EB00802020A9
:101D50000F4B40F2376C0F4AA020D96E41F440314E
:101D6000D966D96E41F44071D966C2F844C0906416
:101D7000936C1B06FCD4084A40F23761A0235164DF
:101D80009364936C13F08003FBD1044A1370704783
:101D900000C00F4000400C4000800C400454002064
:101DA000F8B500BFF8BC08BC9E46704700000000B4
:101DB0005FF800F0A9CA01005FF800F03DBE010025
:101DC0005FF800F09DB101005FF800F099F60100A6
:101DD0005FF800F0ADF901005FF800F029D60100CE
:101DE0005FF800F0DDB801005FF800F0B1B4010069
:101DF00005010000811F0000CD1F00005975000083
:101E000029810000F18F0000714A01006186010004
:0C1E1000319F010089B00100ADD5010038
:101E1C006CC00F40030000000E0D0000018200009A
:101E2C002A3600001400000013000000010000001E
:101E3C00F4841F402B32000014000000130000003B
:101E4C0001000000F8841F402D3100001400000038
:101E5C001300000001000000F0841F402CFFFF0065
:101E6C001400000000000000000000000100000051
:101E7C0000000000EC841F40000000000000000087
:101E8C006CC00F4030000000100F000001820000F9
:101E9C0001270000170000001200000000010000E4
:101EAC0014851F401AFF0000120000000000000003
:101EBC000100000018851F401BFF000012000000ED
:101ECC00000000000100000010851F400026FF00EC
:101EDC0017000000120000000000000001010000CB
:101EEC00010000000C851F400C851F400000000005
:101EFC006CC00F40C0000000504F0000D5820000A5
:101F0C000CFF0000130000000000000000000000A7
:101F1C0024851F400BFF0000130000000000000090
:101F2C000000000028851F400DFF0000130000007A
:101F3C00000000000000000020851F400A2524003E
:101F4C001300000012000000120000000102030048
:101F5C000000000000000000000000000000000075
:101F6C00090180961180FF3A81550A3601082A042E
:101F7C00000000F02B040000014021800A13800AAD
:101F8C002980FF0016035500530042002000530027
:101F9C0065007200690061006C00000018035400B9
:101FAC00650065006E0073007900640075006900BF
:101FBC006E006F000403090409026200030100C0F3
:101FCC0032080B00020202010009040000010202A7
:101FDC00010005240010010524010101042402065E
:101FEC0005240600010705820310001009040100F6
:101FFC00020A0000000705030240000007058402E6
:10200C004000000904020002FF6AFF00070581027C
:10201C0040000107050102400001000009026200B6
:10202C00030100C032080B00020202010009040087
:10203C000001020201000524001001052401010128
:10204C00042402060524060001070582031000057E
:10205C0009040100020A0000000705030200020047
:10206C00070584020002000904020002FF6AC7008F
:10207C0007058102000201070501020002010000B0
:0C208C000A060002EF0201400100000003
:102098000000000000000000000000000000000038
:1020A8000000000000000000000000000000000028
:1020B800F8B54FF084439D695A6915400DD0254FF6
:1020C80001269D6195FAA5F4B4FA84F457F82430F2
:1020D80006FA04F49847A543F4D11F4B9D695A6941
:1020E80015400DD01D4F01269D6195FAA5F4B4FA4F
:1020F80084F457F8243006FA04F49847A543F4D139
:10210800174B9D695A6915400DD0164F01269D61E0
:1021180095FAA5F4B4FA84F457F8243006FA04F4CE
:102128009847A543F4D1104B9D695A6915400DD0C5
:102138000E4F01269D6195FAA5F4B4FA84F457F878
:10214800243006FA04F49847A543F4D1BFF34F8F1F
:10215800F8BD00BF5C32002000400042DC320020A5
:10216800008000425C33002000C00042DC330020C5
:102178000548064B1B1AD90F01EBA301491002D0E1
:10218800034B03B118477047C03A0020C03A0020FB
:102198000000000008B5054B1BB105490548AFF321
:1021A8000080BDE80840FFF7E3BF00BF0000000063
:1021B8005C53002000D0026000207047704700BFC9
:1021C800036D0BB101207047406DC01A18BF012084
:1021D800704700BF0346806D80B100B583B001939E
:1021E8001DF0C0FA0022019B9A651A6D62B103F1D5
:1021F800180003B05DF804EB0DF064BC1A6D42B131
:1022080003F118000DF05EBC5A6D002AEFD103B03F
:1022180000BD5A6D002AF3D1704700BF10B5046D98
:102228006CB10BB1002010BD114620460BF01CFA12
:102238000028F7D02046BDE810400BF017BF446DCA
:10224800002CEFD0204609F0DDF80028EAD020461F
:10225800BDE8104009F098BF8A79A2F150031B0627
:1022680028D4D0F850C002F26C7230B54B7985B0E2
:1022780091F804E001338C784D78DBB20978BCF131
:10228800000F0AD060460194CDF800E0CDE9025174
:1022980002210BF075FE05B030BD406D0028FAD064
:1022A8000194CDF800E0CDE90251022109F0A2FE27
:1022B80005B030BD00207047816D09B108467047F0
:1022C80000B583B001904FF480701DF043FA019B74
:1022D80001469865B8B10022186D0A7040B14FF4F4
:1022E80080720DF043F8019B996D084603B000BD5C
:1022F800586D0028F9D04FF4807201930AF076FCEB
:10230800019B996DF1E7024A11469A65EDE700BF16
:10231800035400200246006D0B4600B585B040B35B
:1023280001910DF10E0203A90BF008FE019B58B3B1
:10233800BDF80C20BDF80E1052EA010024D0C1F3FC
:10234800451E01F01F00C90AC2F3431C400083F870
:1023580001E09970510A0CF1FF3C02F01F0201F5EF
:10236800EA611870012083F805C01A71997105B0E7
:1023780000BD506D40B10DF10E0203A9019308F0A4
:10238800EFFE019B0028D3D1002005B000BD00BF9F
:102398000246006D0B4600B585B040B301910DF1C2
:1023A8000E0203A90BF0A8FD019B58B3BDF80C2041
:1023B800BDF80E1052EA010024D0C1F3451E01F009
:1023C8001F00C90AC2F3431C400083F801E099705A
:1023D800510A0CF1FF3C02F01F0201F5EA61187086
:1023E800012083F805C01A71997105B000BD506DC0
:1023F80040B10DF10E0203A9019308F09FFE019B65
:102408000028D3D1002005B000BD00BF10B5036976
:1024180082B08DF80710C3B11968114AC968914292
:102428000C4615D1186D30B101220DF107010BF0E2
:102438005BFE02B010BD586D0028FAD001220DF1E4
:10244800070109F015FF02B010BD184602B010BD13
:1024580001220DF107011846A04702B010BD00BFC8
:1024680065070000036963B11A68074992698A42DF
:1024780008D1186D08B10BF021BA586D08B109F0F0
:1024880035BC70471846104751070000006990B1E5
:102498000368154A1B69934225D1036D63B1187807
:1024A80010F0080007D0D8695B69C01A48BF6FF000
:1024B8000040704718467047436D002BFAD093F8D8
:1024C800310010F00800F6D0186919685A69401AE6
:1024D8005B6862EB0303B0F1004F73F10003EAD3CA
:1024E8006FF000407047184709080000036D13B1EA
:1024F800586900217047436D13B1D3E90001704753
:1025080018461946704700BF036D13B1D8690021FA
:102518007047436D13B1D3E9040170471846194653
:10252800704700BF036D13B118460BF01FB8406D1C
:1025380008B108F051BF4FF0FF307047026D82B10B
:10254800137813F0700F00D1704700B583B00021E5
:10255800019010460BF088F8019B586D70B903B0D4
:1025680000BD406D0028EFD090F8313013F0500FC7
:1025780003D00022002308F045BF70470022002343
:1025880003B05DF804EB08F03DBF00BF036973B109
:102598001A68084952698A4207D1186D08B10AF0C9
:1025A800E5BF586D18B108F017BF184610474FF02F
:1025B800FF30704795040000836C13B118460AF089
:1025C800D5BFC06C08B108F007BF4FF0FF307047A7
:1025D80070B59FED297B94B000224FF47A76284D90
:1025E8000446183104A88DF80C200095CDE9012681
:1025F8008DED127B0DF0CAFA129B002B2FD05C20B8
:102608001BF056FA1F49002206460160183001994E
:1026180040F8142C40F80C1C1B4940F8101C029977
:1026280040F8081C9DF80C1000F8041C04A90DF0D3
:1026380003FA00224FF47A71B560B26562602273C2
:10264800124AA16022607268266101327260104BE2
:1026580004A800930DF036FA204614B070BD139B01
:10266800002BCCD1094A237322602361C4E90136C7
:10267800EDE700BFAFF3008000000000000000009D
:102688003417002058170020C4190020081700200C
:10269800D0140020036D13B118460AF07DBE406DBA
:1026A80008B108F0CFBD4FF0FF307047836C00B51C
:1026B80083B05BB101220DF1070118460AF06CFEE8
:1026C80001280BD19DF8070003B000BDC06C28B1EC
:1026D80001220DF1070108F0B5FDF1E74FF0FF30D9
:1026E800F2E700BF036D33B11B7813F0700F14BF0E
:1026F800012000207047406D30B190F8313013F060
:10270800500F14BF01200020704700BF03693BB37E
:1027180018680021144A10B5846882B094428DF874
:10272800071014D1186D48B101220DF107010AF004
:1027380033FE90B19DF8070002B010BD586D002817
:10274800FAD001220DF1070108F07CFDF1E7012222
:102758000DF107011846A047EBE74FF0FF30EBE714
:102768004FF0FF30704700BF050600008A79A2F1DC
:1027780050031B0628D4D0F850C002F26C7230B552
:102788004B7985B091F804E001338C784D78DBB251
:102798000978BCF1000F0AD060460194CDF800E03A
:1027A800CDE9025104210BF0EBFB05B030BD406DC3
:1027B8000028FAD00194CDF800E0CDE902510421B7
:1027C80009F018FC05B030BD00207047836C13B1C8
:1027D80018460BF073B8C06C08B109F087BA704797
:1027E800036D13B118460BF069B8406D08B109F0D4
:1027F8007DBA7047036D13B118460BF075BC406D78
:1028080008B109F035BD7047836C13B118460BF059
:102818006BBCC06C08B109F02BBD704700B5836C68
:1028280083B08DF807103BB101220DF1070118465E
:102838000BF05AFC03B000BDC06C0028FAD001228E
:102848000DF1070109F014FD03B000BD836C53B10D
:10285800187810F008000DD0D8695B69C01A48BF15
:102868006FF000407047C36CA3B193F8310010F0CB
:10287800080000D17047186919685A69401A5B68DE
:1028880062EB0303B0F1004F73F10003F2D36FF072
:10289800004070471846EDE7036D53B1187810F003
:1028A80008000DD0D8695B69C01A48BF6FF00040B6
:1028B8007047436DA3B193F8310010F0080000D1C0
:1028C8007047186919685A69401A5B6862EB030314
:1028D800B0F1004F73F10003F2D36FF0004070477E
:1028E8001846EDE70369CBB10D4810B51C68D4F85C
:1028F8000CE086450DD1186D18B1BDE810400BF0FD
:10290800F3BB586D18B1BDE8104009F0B1BC002008
:1029180010BD18467346BDE81040184700207047A0
:102928006507000010B5104B0446806D82B0236027
:1029380018B11CF017FF0023A365236D73B104F1D0
:102948001803184601930DF0BDF8019B074A184675
:10295800A2600DF0B7F8204602B010BD636D002BE1
:10296800EDD104F11803F1E758170020D014002026
:1029780010B5124B0446806D82B0236018B11CF06C
:10298800F1FE0023A365236D93B104F118031846E3
:1029980001930DF097F8019B094A1846A2600DF0C3
:1029A80091F820465C211BF089F8204602B010BD42
:1029B800636D002BE9D104F11803EDE758170020E7
:1029C800D014002010B5029994469E4629B10129D9
:1029D8001ED002290FD0002010BD046D0CB34FF09B
:1029E800FF33934271EB0E03F5D320461146BDE841
:1029F80010400AF039BE036D23B3D96989184EF126
:102A08000002002AE7D11846BDE810400AF02CBEA3
:102A1800036D6BB1596989184EF10002002ADAD1A9
:102A2800F1E7406D0028D6D0BDE8104008F0EABCB8
:102A3800406D0028CFD0D0E900231CEB020243EB05
:102A48000E03F1E7406D0028C5D0D0E904231CEB44
:102A5800020243EB0E03BDE8104008F0D3BC00BFF0
:102A68003649034602690160002A50D0516801398D
:102A7800516000294BD1324810B5146884B0E46A1B
:102A880084424AD1906D40B10391CDE901231CF0F5
:102A980069FE019A0399029B9165116D002938D04E
:102AA80002F1180001930DF00DF8019B1A695AB351
:102AB80011682448496881423AD12349906D1160D0
:102AC80038B1CDE901231CF04DFE0021019A029B8B
:102AD8009165116D31B302F1180103930292084612
:102AE80001910CF0EFFF0199DDE90223DFF85CC0EA
:102AF80008460293C2F808C001920CF0E3FF5C217B
:102B080001981AF0DBFF029B184604B010BD184666
:102B18007047516D0029C3D1C8E701931046A047FB
:102B2800019BC3E7516D0029D5D102F11801DDE7FA
:102B3800019310468847019BE6E700BF081700206D
:102B480045010000E108000058170020D0140020BB
:102B58002F4A036910B5044682B00260002B3FD0AB
:102B68005A68013A5A60002A3AD119682948C96A4C
:102B7800814240D1986D30B1CDE900321CF0F2FDB0
:102B8800DDE900329A651A6D002A30D003F1180089
:102B98000CF098FF23691BB31A681F4952688A42D0
:102BA80032D11E4A986D1A6028B100931CF0DAFDE4
:102BB8000022009B9A651A6D02B303F11802019373
:102BC800104600920CF07EFFDDE900231449104600
:102BD800009399600CF076FF5C2100981AF06EFF64
:102BE800204614211AF06AFF204602B010BD5A6D23
:102BF800002ACBD1CEE718468847CBE75A6D002A82
:102C0800DBD103F11802E1E718469047E8E700BF77
:102C18000817002045010000E108000058170020AF
:102C2800D014002008B5FE21024808F0A5F9024B8F
:102C3800187008BDE43F002000540020014B1878AC
:102C4800704700BF005400208A4B2DE9F0411F78DF
:102C580096B0002F00F095800124874E08E002937B
:102C68000AF014FFE8B1013442F210739C4218D004
:102C78002346824A102182481EF09EFBD6F88454CF
:102C88007F4A02A800232946002DE8D1D6F88814E7
:102C98002B467B4A02A821B10E9508F0A5FE002814
:102CA800E1D144F20223764A764902A80DF01AF8D7
:102CB800149B002B00F094805C2000251AF0F8FE8D
:102CC800039B714A0446C36006A9049B6F4E0361C7
:102CD8009DF81430C0E900256D4A183000F8043C0E
:102CE80040F8102C0CF0A8FE63686A4A06A8013365
:102CF800A565A2606360684B984602930CF0E2FEFB
:102D08003569002D42D06B68013B6B60002B3DD1CB
:102D18002B68624ADB6A934240F09E80A86D18B126
:102D28001CF020FD0023AB652B6D002B00F08F807D
:102D380005F118000CF0C6FE356905B32B68584A32
:102D48005B68934240F092804F4BA86D2B6018B19E
:102D58001CF008FD0023AB652B6D002B7FD005F11F
:102D68001803184601930CF0ADFE019B1846C5F8F0
:102D780008800CF0A7FE5C2128461AF09FFE3461FB
:102D88002CB90027384616B0BDE8F08134612368B5
:102D9800444A1B6B93423CD1236D002B35D03369D9
:102DA800BBB11A684049D4688C4244D1186D0028D8
:102DB8003AD007223D490BF097F933694BB11A68AD
:102DC8003B4992698A423FD1186D002826D00AF003
:102DD80075FD384B002238461A6016B0BDE8F08100
:102DE800159C002C7FF468AF2B4B06A8274E9846FD
:102DF80002930CF067FE3569002DC2D06B68013B69
:102E08006B60002B84D03461BBE7636D002BC6D1A7
:102E1800B7E7204698470028B3D0C0E7586D002888
:102E2800D7D008F063FFD4E7586D48B107221F498F
:102E380009F01EFAC1E7072218461C49A047BCE75B
:102E480092691B498A42E9D018469047C1E76B6DE1
:102E5800002B7FF46DAF6FE7284698476CE76B6DE2
:102E6800002B7FF47CAF05F118037FE728469847CD
:102E780085E700BF00540020E43F0020A40800209C
:102E8800244F0020E83F002058170020A42F0020DE
:102E9800C419002034170020D01400204501000078
:102EA800E108000031010000650700005814002007
:102EB80051070000344F002000487047244F00207D
:102EC800F0B5A64D89B02B698DF80F10002B00F0D6
:102ED800D9801A680446A249126B8A4240F0C5801C
:102EE8001A6D002A00F0D180F6EE007A94ED407A4F
:102EF800F2EE045AD4ED416AD4F80C21B0EE676AB8
:102F080094F8FF10E0EEA57A079227EE257A8DF85F
:102F18001510A0EE256AFDEEE66ABDEEC77AFCEE56
:102F2800E77A16EE902A17EE101ABCEEC66A8DF8EC
:102F38001420ADF81A1017EE902A16EE101AADF8F4
:102F48001820ADF81610002B00F086801A68854E00
:102F5800D268B242174640F0F780186D002800F09A
:102F68009980042207A90BF0BFF82B69002B73D0B6
:102F78001A68D268B242174640F01081186D0028CE
:102F880000F0D38002220DF116010BF0ADF82B6989
:102F9800002B61D01A68D268B242174640F0F88018
:102FA800186D002800F0B08001220DF10F010BF020
:102FB8009BF82B69002B4FD01A68D268B24217468B
:102FC80040F0E180186D002800F0A780022206A9D1
:102FD8000BF08AF82B69002B3ED01A68D268B242EF
:102FE800174640F0CA80186D002800F0848002223D
:102FF8000DF11A010BF078F82B69002B2CD01A6808
:10300800D268B242174640F0B380186D00286AD0E3
:10301800012205A90BF068F82B69EBB11A68D26890
:10302800B242174640F08A80186D002852D001221B
:103038000DF115010BF058F82B699DF815205BB1BF
:103048001968C968B1420F4640F08380186D00289E
:1030580039D021460BF048F8434A1368013313600E
:103068001B0720D0012009B0F0BDCDED020A18469B
:103078008DED010A90479DED010ADDED020A002859
:1030880040F0A780002009B0F0BD5A6D002A7FF4F7
:103098002BAFF7E7586D00283FF470AF042207A95B
:1030A80009F0E6F861E72B69002BDBD01A682F4995
:1030B80092698A4240F08F80186D002800F0828063
:1030C8000AF0FCFBCEE7586D0028C5D0214609F070
:1030D800CFF8C1E7586D002870D001220DF1150115
:1030E80009F0C6F8A8E7586D002861D0012205A9A3
:1030F80009F0BEF890E7586D002855D002220DF16E
:103108001A0109F0B5F877E7586D002852D0012266
:103118000DF10F0109F0ACF84BE7586D002845D0C8
:10312800022206A909F0A4F854E7586D002843D0F4
:1031380002220DF1160109F09BF828E71846012232
:103148000DF11501B84777E71846042207A9B847D3
:103158000BE721461846B8477EE700BFA42F00209A
:103168003101000065070000344F002051070000BE
:103178001846012205A9B8474EE7184602220DF164
:103188001A01B84738E71846022206A9B84721E7C6
:10319800184601220DF10F01B8470AE71846022226
:1031A8000DF11601B847F2E62B6928E72B6914E7F9
:1031B8002B6933E72B69FFE62B69EBE69DF81520B1
:1031C8002B693DE7586D00283FF44CAF08F08EFDA1
:1031D80048E72B6988E61846904743E710B5534CF3
:1031E80082B0206900286CD0036851491A6B8A4262
:1031F80074D1026D002A69D09B694E4A93427ED1F0
:10320800036D002B72D018460AF058FB2369002B77
:1032180057D01A684849D26A8A427AD1986D28B13B
:1032280000931CF09FFA0022009B9A651A6D002AF1
:1032380061D003F118000CF045FC22695368013B8A
:103248005360002B3BD111683B48C96A814267D162
:10325800906D30B1CDE900231CF084FADDE900233C
:103268009365136D002B57D002F118000CF02AFC5F
:10327800236923B31A68314952688A4253D1304AC4
:10328800986D1A6028B100931CF06CFA0022009B1C
:103298009A651A6D002A36D003F118020193104678
:1032A80000920CF00FFCDDE900232649104600933C
:1032B80099600CF007FC5C2100981AF0FFFB0023D2
:1032C8002361214B00221A7002B010BD426D002A02
:1032D800F7D09B69174A934292D010E09047002894
:1032E800EFD020690028ECD0036885E7406D40B135
:1032F80008F0FCFC8AE75A6D002A9AD19DE79847A6
:1033080084E7236985E75A6D002AC5D103F11802BD
:10331800CBE71846904790E7536D002BA4D1A7E759
:1033280010468847A4E718469047C8E7A42F00200E
:10333800310100005107000045010000E1080000CC
:1033480058170020D0140020244F00208E4BF0B5D1
:103358001D7899B01DB90025284619B0F0BD024660
:1033680000238A4904A80CF0BDFC169B002B00F032
:1033780023815C201AF09CFB0023854A044608A997
:10338800C0E90023059A183040F80C2C814A40F80F
:10339800102C069A40F8082C9DF81C2000F8042CE4
:1033A8000CF04AFB002308A8A36563680133636037
:1033B800794B04931E46794BA3600CF083FB784B42
:1033C8001A692AB1516801395160002900F08880D2
:1033D8001C6122687349126B8A4240F00481226D95
:1033E800002A00F0CB801C69002CB4D022686E49FA
:1033F80090688842074640F01681206D002800F04A
:10340800FA8004A90722019309F0C6FF019B072847
:1034180004D1664A0499914200F0F8801C69002C96
:1034280099D02268D26A62498A4240F01981A06D17
:1034380028B101931CF096F90022019BA265226D28
:10344800002A00F0018104F1180001930CF03AFB06
:10345800019B1D696C68013C6C60002C3DD12A6899
:103468005349D26A8A4240F00A81A86D20B101937B
:103478001CF078F9019BAC652A6D002A00F0FA80EF
:1034880005F1180001930CF01DFB019B1C6924B386
:103498002268484952688A4240F0FD803C4AA06D43
:1034A800226028B101931CF05DF90022019BA265FE
:1034B800226D002A00F0E88004F1180501932846DF
:1034C8000CF000FB019B2846A66001930CF0FAFA69
:1034D8005C2120461AF0F2FA019B00221A613AE7B1
:1034E80011683348C96A814240F0A980906D38B1AB
:1034F800CDE901231CF036F90021019A029B916560
:10350800116D002900F0968002F1180001930CF06B
:10351800D9FA019B1A69002A2BD0116825484968F5
:10352800814240F0A2801A49906D116038B1CDE90E
:1035380001231CF017F90021019A029B9165116D76
:10354800002900F0868002F11801039302920846D0
:1035580001910CF0B7FA0199DDE90223084696605B
:10356800029301920CF0AEFA01985C211AF0A6FAC7
:10357800029B1C61002C3FF4EEAE2AE7626D002A24
:103588007FF431AFE7E600BF00540020E83F002099
:1035980058170020C4190020D01400203417002028
:1035A800B82F002031010000050600004C504341AF
:1035B80045010000E1080000179C002C7FF4D9AEFB
:1035C800374B08A81E4604930CF07CFA354B1A6951
:1035D800002A3FF4C0AE51680139516000293FF418
:1035E8007FAF1C61B7E6019320469047019B0028F6
:1035F8003FF4B1AEF7E6606D00283FF413AF04A9BD
:103608000722019307F01EFE019B00E7BDF8141086
:1036180043F2501291427FF401AF9DF816200A2A16
:103628007FF4FCAE98E6019304A920460722B84728
:10363800019BECE6516D00297FF466AF6AE70193C0
:1036480010468847019B65E7626D002A7FF4FBAE50
:10365800FFE6516D00297FF476AF02F118017DE78E
:10366800019320469047019BF3E601931046884753
:10367800019B7EE76A6D002A7FF402AF06E701939B
:1036880028469047019B01E7626D002A7FF414AF3A
:1036980004F1180517E7019320469047019B1CE7A2
:1036A800D0140020B82F0020F0B52E4C85B0236927
:1036B800002B31D01A680D4606462B48116B814203
:1036C80025D1196D59B39268284917468A4232D1D3
:1036D800186D40B30D22694609F05EFE0D281BD116
:1036E8009DF80C202A70BAB12369002B2ED01968D6
:1036F8008C681E498C422BD1186D08B3314609F0ED
:103708004BFE2B78181AB0FA80F0400905E01846ED
:10371800884708B1236913BB002005B0F0BD596D77
:103728000029D0D1F8E7586D0028F5D00D22694658
:1037380007F088FDD2E718460D226946B847CDE75D
:10374800586D48B1314607F07DFDDAE71846E4E7E1
:1037580031461846A047D4E74FF0FF30D1E71A6842
:10376800B1E700BFB82F00203101000005060000B6
:1037780010B5484C82B02369002B60D019684648C0
:103788000A6B824265D1186D00285AD0C96A434A2B
:1037980091426BD1986D28B100931BF0E3FF002193
:1037A800009B9965196D00295CD003F118000CF095
:1037B80089F921694B68013B4B60002B3DD10868B2
:1037C800C26A364882425ED1886D30B1CDE90013B5
:1037D8001BF0C8FFDDE900138B650B6D002B4ED085
:1037E80001F118000CF06EF9236933B319682C48FD
:1037F800496881424AD12B49986D196028B10093D4
:103808001BF0B0FF0021009B9965196D002930D08D
:1038180003F118010193084600910CF053F9DDE912
:103828000013DFF884C008460093C3F808C00CF002
:1038380049F95C2100981AF041F90023236102B08C
:1038480010BD586D0028FAD0C96A144A9142A1D017
:103858000CE0184690470028F1D02369002BEED0E1
:10386800196893E7596D00299FD1A2E71846884740
:103878009FE7596D0029CBD103F11801D1E74B6DB2
:10388800002BADD1B0E708469047ADE7184688470A
:10389800D3E700BFB82F0020310100004501000028
:1038A800E108000058170020D01400200000000094
:1038B800044B2DE9F04F1E78A3B02EB9304623B043
:1038C800BDE8F08F00540020002302908A46A44AE5
:1038D800A4490EA80CF006FA209B002B00F0FF82EA
:1038E8005C2000241AF0E4F89F4B054612A90360F7
:1038F8000F9B4460C3609D4B9D4F8360109BDFF816
:103908008C9203619DF84430037500F11803184642
:1039180001930CF091F86B6812A8AC650133AF60A5
:10392800CDF838906B600CF0CDF82B6891491A6B84
:103938008A4240F007832A6D002A00F0B581DB6BCC
:103948008D4A934240F0058300224FF47A7401991E
:1039580012A80E970F928DF8442010949FED7E7B4D
:103968008DED207B0CF012F9209B002B00F00983D1
:103978005C2000261AF09CF87B4B044646600360E6
:1039880012A97A4B183040F8103C0F9B40F80C3CB9
:10399800109B40F8083C9DF8443000F8043C0CF0BB
:1039A8004BF86368A7600133A665059663604FF41A
:1039B8007A738DF81C600693704B0894049312A8D0
:1039C800CDF838900CF07EF80898002800F0C982ED
:1039D8000026DFF8BC81AB460368664A1B6B93423E
:1039E80040F02082036D002B00F09C81B245089CBA
:1039F80040F38C82002C66D02368614A5B6B93424B
:103A080040F01E82A36D002B00F0418225685D49BD
:103A1800AA6B8A4240F02782226D002A00F0DB81DF
:103A2800127812F0700F00F04B82EB6A434540F0B9
:103A3800F681A06D18B11BF095FE0023A365236DD8
:103A4800002B00F0C38104F118000CF03BF8089D2E
:103A58006C68013C6C60002C33D12B68DB6A4345F1
:103A680040F04782A86D10B11BF07CFEAC652B6D51
:103A7800002B00F02F8205F118000CF023F8089CA9
:103A8800FCB12368404A5B68934240F04482364B5D
:103A9800A06D236018B11BF065FE0023A365236D9C
:103AA80004F11805002B00F02C8228460CF00AF8C7
:103AB8002846C4F808900CF005F820465C2119F057
:103AC800FDFF00230893DBF800302B4ADB6B9342A1
:103AD80040F0D88100224FF47A74019912A80E9709
:103AE8000F928DF8442010949FED1B7B8DED207B69
:103AF8000CF04CF8209B002B00F05C815C2000252A
:103B080019F0D6FF184B04464560036012A9174BFD
:103B1800183040F8103C0F9B40F80C3C109B40F8C4
:103B2800083C9DF8443000F8043C0BF085FF6368BE
:103B3800A7600133A5650A9563604FF47A738DF821
:103B480030500B930D4B0D94099312A8CDF8389073
:103B58000BF0B8FF1EE000BF0000000000000000EE
:103B6800A00A0020E83F002058170020C4190020B0
:103B7800341700203101000041050000081700201B
:103B88002902000055060000E1080000D0140020BA
:103B980045010000089C002C38D06568013D65602F
:103BA800002D33D12368DB6A434540F0B181A06D15
:103BB80010B11BF0D7FDA565236D002B00F09C818B
:103BC80004F118000BF07EFF089CFCB12368974AAB
:103BD8005B68934240F0B381954BA06D236018B1A8
:103BE8001BF0C0FD0023A365236D04F11805002B0D
:103BF80000F0A08128460BF065FF2846C4F808901D
:103C08000BF060FF20465C2119F058FF0D980890D2
:103C180000287FF4E1AE5D462B68DB6A434540F03F
:103C2800C181A86D18B11BF09DFD0023AB652B6DFC
:103C3800002B00F0B28101980BF044FF6C68013C46
:103C48006C60002C7FF43AAE2B68DB6A434540F089
:103C5800BC81A86D10B11BF085FDAC652B6D002BE8
:103C680000F0858101980BF02DFF2B686F4A5B6887
:103C7800934240F0B5816E4BA86D2B6018B11BF0D4
:103C880071FD0023AB652B6D002B00F0A18101981D
:103C98000BF018FF0198C5F808900BF013FF5C2192
:103CA800284619F00BFF09E66A6D002A7FF447AE33
:103CB8006C68013C6C60002C2FD12B685D4ADB6A74
:103CC800934240F07781A86D10B11BF04BFDAC65B5
:103CD8002B6D002B00F0698101980BF0F3FE2B6827
:103CE800524A5B68934240F06D81514BA86D2B603E
:103CF80018B11BF037FD0023AB652B6D002B00F0CE
:103D08005C8101980BF0DEFE0198C5F808900BF075
:103D1800D9FE5C21284619F0D1FE0026304623B092
:103D2800BDE8F08F436D002B7FF460AE5D46089CC4
:103D3800414B0493002C3FF46FAF6768013F676005
:103D4800002F7FF469AF2368DB6A434540F0458163
:103D5800A06D10B11BF006FDA765236D002B00F0C8
:103D68000B8104F118000BF0ADFE089C002C3FF409
:103D780053AF23682D4A5B68934240F039812C4B3E
:103D8800A06D236018B11BF0EDFC0023A365236D23
:103D980004F11807002B00F0268138460BF092FE3C
:103DA8003846C4F808900BF08DFE20465C2119F0C7
:103DB80085FE31E7219B002B7FF4A0AE8DF83030D3
:103DC8000D93CDE90A341C4B0993BEE6636D002BB5
:103DD8007FF439AE3BE6626D2AB192F8312012F0D9
:103DE800500F7FF422AE18460422144903931DF0A5
:103DF80003FD039B00287FF418AE1946029B0F228F
:103E080003EB061001361DF033FD0022C273002CAF
:103E18003FF459AE2568EB6A43453FF40AAE2046A5
:103E2800984714E69847002880D0DFE5E1080000AD
:103E3800581700204501000008170020B40800208A
:103E480020469847089C0346002C7FF4DFAD0422E7
:103E58006A49184603931DF0CFFC00287FF433AE5F
:103E6800089C039BC9E7204603939047089C0028B9
:103E7800CDD10422614903981DF0BEFC039B0028A4
:103E8800C5D1BAE70022594609A8984782E64FF4F7
:103E9800807003931BF05EFC0146A065002800F0CB
:103EA800AA80039B0370206D002837D04FF48072DE
:103EB8000BF05CFAA36D089C002C7FF4A7ADC6E755
:103EC800184604224D4903931DF096FC039B0028D5
:103ED800A0D192E76B6D002B7FF4CDADCFE5219B90
:103EE800002B7FF4FDAC464B12A80E930BF0EAFDB5
:103EF80013E728469847C2E5636D002B7FF460AE50
:103F080062E6636D002B7FF4D0ADD1E55D460FE727
:103F18002046984758E620469847D2E5606D20B37A
:103F28004FF4807208F062FEA36D089C002C7FF4A9
:103F38006DAD8CE7636D002B7FF45CAE5DE62046CB
:103F4800984763E62846904700283FF4B1AE2B68AF
:103F5800F5E404A8002229469847089800287FF429
:103F680037AD0646DFF8A48056E6A36D4EE56B6DC7
:103F7800002B7FF477AE78E6636D002B7FF4F1AE0B
:103F8800F3E6219B002B7FF4F3AC8DF81C300893EB
:103F9800CDE905341B4B049311E56B6D002B7FF4C1
:103FA8004AAE4BE62846984748E66B6D002B7FF4EF
:103FB80093AE94E62846984791E66B6D002B7FF404
:103FC800A0AEA1E628469847A7E6284698474CE6BB
:103FD8006B6D002B7FF45BAE5CE620469847C4E629
:103FE800284698476AE4636D002B7FF4D6AED7E67F
:103FF8002046984710E6044BA36507E5B40800205F
:10400800D0140020081700200354002045010000A8
:10401800064A0749074808B51BF08EFB034A0449BE
:104028000548BDE808401BF087BB00BFD82F00201B
:10403800D1090000A42F0020B82F002010B5054C8E
:104048000548217881F0010121700FF0A1FE207848
:1040580010BD00BFFA530020A449002005230922FF
:104068000A21014812F0D2BEA449002008B5012156
:10407800062019F019FB9FED0F0A062019F0B4FE6F
:10408800FF21062019F04CFE00234FF4A072F02106
:10409800094812F089FF0321074812F053FD074B26
:1040A800054819780FF074FE00210348BDE8084060
:1040B8000FF05EBE00409C46A4490020FA53002041
:1040C80010B54FF4A07386B0002216210446264886
:1040D800CDE9001311460FF069FC4FF4A0724FF4BC
:1040E800FC61214810F0C4F802221F48114610F064
:1040F800B3F80023032204211B4810F051F83CB107
:1041080020461DF045FD21460246174812F0E2FB05
:1041180005F0B8FFB7EEC00A0C21144A8DED000B6C
:104128000DEB01001DF048F94FF4A0724FF4BC618B
:104138000D4810F09DF803A81DF02AFD0023A0EB00
:10414800800103220848890001F59E7109B210F028
:1041580027F803A81DF01CFD03A90246024812F027
:10416800B9FB06B010BD00BFA4490020BC08002060
:1041780070B506460D461A48002114460FF0F8FDA2
:104188003046FFF79DFF02221548114610F064F8EB
:1041980000224FF4BC61124810F06AF86DB13C225D
:1041A800062100230E480FF0FBFF28461DF0F0FC07
:1041B800294602460A4812F08DFB7CB15A22062194
:1041C800002307480FF0ECFF20461DF0E1FC2146D4
:1041D80002460348BDE8704012F07CBB70BD00BFCA
:1041E800A44900202DE9F0413D4C8AB04FF0B808B1
:1041F80002AB05AD02AF05AE94E807000C3403C36B
:104208001A800FCC0FC523680024002135482B6085
:104218000FF0AEFD37F8025B3F23002221B2314890
:10422800CDE900850FF0C2FB01222E48114610F09F
:1042380013F84FF6FF7200212A4810F019F8A11C54
:1042480028480023BC2209B20FF0AAFF56F8045BE5
:10425800284635B11DF09CFC29460246214812F03B
:1042680039FB4034A4B2B4F5A07FD3D102221D4853
:1042780011460FF0F1FF00224FF4FC6119480FF0CE
:10428800F7FF0023C822042116480FF089FF0E22E9
:104298001549144812F01EFB0122124811460FF06E
:1042A800DBFF00224FF6FF710E480FF0E1FF0023FD
:1042B800E42204210B480FF073FF0C4B1B783BB131
:1042C80009220B4907480AB0BDE8F04112F002BBC9
:1042D8000A22084903480AB0BDE8F04112F0FABAC8
:1042E80098030020A4490020DC080020FA5300208D
:1042F800C4080020D00800202DE9F04F834695B06F
:10430800002956D102225048DFF850914FF000089A
:10431800114622244D4E0FF09FFF25E00027CDE9DE
:1043280000570FF043FB3A464FF4BC6146480FF084
:104338009FFF0E213B4622B243480FF031FF314622
:104348000222414812F0C6FA59F8045F284635B1EE
:104358001DF01EFC294602463B4812F0BBFA1A34EF
:1043680008F10108D82C21D0E21EC3454FF01805EA
:104378004FF4A07334484FF0000112B2CED1182385
:104388004FF44875CDE900354FF4A0730FF00EFBDC
:104398002A464AF6E5712C480FF06AFF0E2122B230
:1043A800002329480FF0FCFE2949C9E715B0BDE8EC
:1043B800F08F00214FF4487423480FF0D9FC2548AA
:1043C800FFF77EFE4FF4A0730094DC2200211E4804
:1043D8000FF0FCF901221C4811460FF03DFF214661
:1043E800002219480FF044FF0023E2220421164856
:1043F8000FF0D6FE05F06AFE05F074FE054605F0DE
:1044080047FE044605F04AFEB7EEC00A8DED060BDE
:1044180005F04AFE064605F04DFE2B460E4A3021B1
:1044280000949DED060BCDE9046008A88DED020B04
:104438001CF0C2FF08A81DF0ABFB08A90246024801
:1044480012F048FA5EE700BFA4490020F0080020F7
:10445800EC080020F4080020FC0800204408002094
:104468002DE9F04305460F4690462DED088BB0EE3A
:1044780040AA83B0F0EE60AA002B40F0E180012250
:10448800002473480A2611460FF0E6FE00224FF476
:10449800BC616F480FF0ECFE2C23D52206216C4836
:1044A800CDE900640FF082FA2346D5220621684838
:1044B8000FF076FEB7EECA0A0121654818F050FBE6
:1044C8002C23D5224FF48A716148CDE900640FF09E
:1044D8006DFA2346D5224FF48C715D480FF060FECB
:1044E80007EE907AB0EE4A0A0121B8EEE78A5848FA
:1044F800A8EE2A0AB7EEC00A18F032FBB0234FF430
:10450800487206215248CDE900324FF49A732222AC
:104518000FF01AFEAE23232207214D48CDE90034BF
:104528004FF499730FF042FAA7424CDD4FF4997695
:10453800013D9FED48BA4AF6E579DFED479A9FEDD0
:10454800479ADFED478A96FBF7F6022EB8BF022698
:10455800013E36B215F9013F07EE904AA0450CBF5F
:104568004A464FF4FC62013406EE903AF8EEE77AD8
:1045780001923346F8EEE66A354887EE887A76EE99
:10458800A96AC6EE897A27EE0B7ABDEEC77A17EECE
:10459800101A67EEA87A073109B2FDEEE77A17EE2E
:1045A80090CABCF1AE0FA8BF4FF0AE0C2CEAEC7C61
:1045B800CCF1D1020FFA8CFC12B2CDF800C00FF08A
:1045C800F5F9A742C6D100240A21BE23D5222048E6
:1045D800CDE900145A210FF0E9F9A04504DA03B037
:1045E800BDEC088BBDE8F0830122194811460FF095
:1045F80033FE22464AF6E57115480FF039FE234688
:10460800D5225A2112480FF0CBFD05221549104832
:1046180012F060F907EE908A02210D48F8EEE77A69
:10462800A7EEAAAAB7EECA0A18F09AFA03220E4908
:10463800074803B0BDEC088BBDE8F04312F04AB957
:10464800002103480FF094FB0848FFF739FD16E7EF
:10465800A449002000009943000000430000C44220
:1046680000002E43240900202C0900201C090020EA
:104678002DE9F041054684B00E469046002B5FD1E7
:1046880002224948002411460FF0E6FD1023222299
:1046980048214548CDE90034F8230FF087F9224630
:1046A8004FF4FC6140480FF0E3FD234622224821E5
:1046B8003D480FF075FD234629460A223A4818F06E
:1046C8003FFA8E224FF4A07321463748CDE90024E3
:1046D8004E220FF06BF90122334811460FF0BCFD52
:1046E80022464FF4BC6130480FF0C2FDB8F1000F0C
:1046F80023D0013E5027062516F8013F04212B4AF6
:1047080003A81CF059FE002329B227483AB21235F3
:104718000FF046FD03A81DF03BFA03A90246224804
:10472800013412F0D7F8B5F5977FE4B201DD0C3704
:104738000625A04501D9402CDED104B0BDE8F081A2
:10474800002119480FF014FB1948FFF7B9FC0222A1
:10475800154811460FF080FD00224FF448711248A9
:104768000FF086FD0023222206210F480FF018FDC6
:10477800052210490C4812F0ADF801220A481146EA
:104788000FF06AFD00224FF4487107480FF070FDE2
:1047980000234022062104480FF002FD0D2206499D
:1047A800014812F097F86BE7A4490020500900204F
:1047B80030090020380900204009002070B506465D
:1047C80082B0002947D1022200241025474811460B
:1047D8000FF042FDF023562206214448CDE900544B
:1047E8000FF0E4F822464FF4BC6140480FF040FD5A
:1047F8002346562206213D480FF0D2FC05F05AFC0C
:1048080001463A4818F068F90D223949374812F03C
:1048180061F8782370226C213448CDE900540FF0F8
:10482800C5F822464FF4BC6130480FF021FD2346FD
:1048380070226C212D480FF0B3FC314623460A2222
:104848002A4818F07DF901222A49284802B0BDE813
:10485800704012F03FB8002124480FF089FA26482A
:10486800FFF72EFC0322214811460FF0F5FC002229
:104878004FF478411D480FF0FBFC002328221E212D
:104888001A480FF08DFC05221C49184812F022F82E
:104898000222164811460FF0DFFC00224FF448713F
:1048A80012480FF0E5FC0023702206210F480FF094
:1048B80077FC082212490D4812F00CF801220B4827
:1048C80011460FF0C9FC00224FF4784107480FF059
:1048D800CFFC0023CE22062104480FF061FC1122F0
:1048E8000849024811F0F6FF6DE700BFA44900200F
:1048F8008409002094090020580900205C09002040
:10490800640900207009002030B5054683B01ABB41
:1049180002223848002411460FF09EFC1021F8238B
:104928005E223448CDE9001448210FF03FF82246B2
:104938004FF4FC612F480FF09BFC23465E22482170
:104948002C480FF02DFC23460A222946294803B09B
:10495800BDE8304018F0F4B80C46264800210FF0A6
:1049680007FA2548FFF7ACFB0222224811460FF050
:1049780073FC00224FF4FC611E480FF079FC002301
:10498800222206211B480FF00BFC0D221B49194857
:1049980011F0A0FF00224FF4BC6116480FF068FC2C
:1049A8000222144811460FF057FC00233E2206212C
:1049B80010480FF0F5FBCCB120461DF0E9F802468F
:1049C80021460C4811F086FF00235E220621094883
:1049D8000FF0E6FB00224FF4487106480FF048FC40
:1049E80005220749034811F075FF91E70122054C9C
:1049F800E6E700BFA44900209C090020A409002084
:104A0800B4090020980900202DE9F04F8046A3B092
:104A18000E46002A40F0C680714D02AC4FF0000AE5
:104A28004FF016090FCD0FC495E8070084E807007A
:104A380005F028FBB7EEC00A6A4A0E2109A802ADA4
:104A48001E248DED000B1CF0B7FC05F03FFB05F0B4
:104A580049FB654A03460E210DF132001CF0ACFCFF
:104A680005F016FB614A03460E2110A81CF0A4FCB1
:104A780005F014FBB7EEC00A5D4A0E210DF14E0099
:104A88008DED000B1CF098FC05F00EFB574A034611
:104A98000E2117A81CF090FC05F00CFB534A0346A6
:104AA8000E210DF16A001CF087FC3346514A0E2195
:104AB8001EA81CF081FC02224F4811460FF0CCFBC7
:104AC8003DE00027CDE900970EF070FF3A464FF41D
:104AD800487149480FF0CCFB47483B46324606210F
:104AE8000FF05EFBD5F800B05846BBF1000F06D0BA
:104AF8001DF04EF8594602463F4811F0EBFE0022E1
:104B08004FF4BC613C481A340FF0B2FB3246B42172
:104B180000233948CAEBCA060FF042FB09AB0AF179
:104B2800010A043503EB460630461DF031F83146DC
:104B38000246314811F0CEFEBAF1070F2FD0A21E5F
:104B4800D0454FF4A0734FF0000112B22A4826B2A4
:104B5800B7D14FF4487BCDF80090CDF804B00EF0F3
:104B680025FF5A464AF6E57123480FF081FB0023DA
:104B78003246062120480FF013FBD5F800B0BBF1F0
:104B8800000F07D058461DF003F8594602461A4848
:104B980011F0A0FE4FF448724AF6E571B2E723B06F
:104BA800BDE8F08F002114480FF0E2F81348FFF732
:104BB80087FA0122104811460FF04EFB00224FF4ED
:104BC80048710D480FF054FB0023E42206210A48DF
:104BD8000FF0E6FA1F220A49074811F07BFE1BE78F
:104BE800B8030020E4090020EC090020F0090020A7
:104BF800F4090020FC090020A4490020BC09002079
:104C0800C409002070B50D4682B0164623BB0222A7
:104C18004C48002411460FF01FFB1022F8234821AE
:104C28004848CDE9002442220EF0C0FE22464FF447
:104C3800FC6144480FF01CFB2346422248214148AE
:104C48000FF0AEFA23460A2229463E4817F078FFAD
:104C5800002E36D102B070BD0021044639480FF04D
:104C680087F83948FFF72CFA0222364811460FF028
:104C7800F3FA00224FF4BC6132480FF0F9FA00232E
:104C8800222206212F480FF08BFA002C56D02046FE
:104C98001CF07EFF024621462A4811F01BFE002325
:104CA8004222062127480FF07BFA00224FF4487170
:104CB80024480FF0DDFA05222449224811F00AFEA3
:104CC800A5E7032222491F4811F004FE2346314676
:104CD8000A221C4817F034FF4FF448710E224FF493
:104CE8009A731848CDE90021622206210FF02CFAA8
:104CF80007EE905A9FED176A0C23F8EE676A07EEE5
:104D0800906A00934AF6E570F8EE677A632201909C
:104D180007210C4886EEA77A67EE067AFDEEE77A59
:104D280017EE903AB3F5997FA8BF4FF4997323EA29
:104D3800E3731BB20EF03AFE02B070BD0122064CBE
:104D4800A9E700BFA4490020040A00203809002070
:104D58000C0A002000009943980900202DE9F0432F
:104D680000248BB0984612234FF4487706460D4628
:104D7800594821469146DE22CDE900344FF4A0730C
:104D88000EF014FE4FF4A073DD222146524800971E
:104D98000EF01CFD0122504811460FF05DFAA045A7
:104DA80040F3898009F101034C4A1C2103A8CDF87E
:104DB80000801CF001FB3946224647480FF058FA9C
:104DC8002346E022022144480FF0EAF903A81CF028
:104DD800DFFE03A90246404811F07CFD03A81CF041
:104DE800D7FE02234FF006024AF6E57110FB0237A0
:104DF800224639480FF03CFA2346E02239B23648B9
:104E08000FF0CEF93EB130461CF0C2FE31460246E4
:104E1800314811F05FFD012231492F4811F05AFD48
:104E280030461CF0B5FE013000224FF4FC6100EB67
:104E3800400007EB400428480FF01AFA0023E11C51
:104E4800E022254809B20FF0ABF93DB128461CF025
:104E58009FFE29460246204811F03CFD129B0BB1EB
:104E68001B7813B90BB0BDE8F083129B18211D4ABB
:104E780003A81CF0A1FA03A81CF08AFE044600222D
:104E88004FF4FC6114480FF0F3F9002304EB4401DC
:104E9800E02211484900C1F59F7109B20FF080F96D
:104EA80003A81CF075FE03A902460B4811F012FD79
:104EB8000BB0BDE8F0832246394607480FF0D8F911
:104EC8002346E022022104480FF06AF90B22064922
:104ED800014811F0FFFCC1E7A4490020100A002096
:104EE8004C090020240A0020180A00202DE9F0436C
:104EF800994607460E4690462DED028BB0EE408A45
:104F080085B0002B40F01181022200241025A3480F
:104F180011460FF0A1F9F2231C224E219F48CDE93A
:104F280000540EF043FD22464FF4FC619B480FF0FD
:104F38009FF923461C224E2198480FF031F9234649
:104F48000A223946954817F0FBFDE02332226021FA
:104F58009248CDE900540EF029FD22464FF4FC6139
:104F68008E480FF085F93222234660218B480FF0D6
:104F780017F92146B7EEC80A884817F0F1FD042250
:104F88008749864811F0A6FC5EB1B8F1000F08D039
:104F9800844B1A68BA4225D105B0BDEC028BBDE836
:104FA800F083B8F1010FF7D0B9F1000FF4D0022265
:104FB8007A4811460FF050F9002354220621774809
:104FC8000FF0EEF800224FF4487174480FF050F9D2
:104FD8000C227549714805B0BDEC028BBDE8F04361
:104FE80011F078BC942148226C4801941F604FF45A
:104FF800A073009121460EF0D9FC022267481146A1
:105008000FF02AF923464A22062164480FF0C8F80F
:1050180022464FF4FC6161480FF02AF905226349E2
:105028005E4811F057FC96ED400A21465B48B7EE02
:10503800C00A17F095FD04225949584811F04AFC56
:1050480023466022062155480FF0AAF822464FF45D
:10505800BC6152480FF00CF9052255494F4811F030
:1050680039FC96ED410A01214C48B7EEC00A17F009
:1050780077FD03224F49494811F02CFC234676223C
:10508800062146480FF08CF822464FF448714348F1
:105098000FF0EEF804224849404811F01BFC0A22A0
:1050A800234696F8FF103D4817F04AFD96F8102160
:1050B800002A67D00122394811460FF0CDF80022A6
:1050C8004FF4BC6135480FF0D3F896F8FF30002B49
:1050D8003FF462AF00248C27062502E0302B3FF412
:1050E8005BAF335D0421354A03A81CF065F9002342
:1050F80029B22A483AB212350FF052F803A81CF028
:1051080047FD03A90246254811F0E4FB0134B5F533
:10511800977FE3B204DD0C370625D22F3FF73CAF6B
:1051280096F8FF209A42D9D836E700211B480EF09E
:105138001FFE2348FEF7C4FF0222184811460FF04D
:105148008BF800224FF4487114480FF091F80023AF
:105158001C22062111480FF023F8052219490F488F
:1051680011F0B8FB0023322206210C480FF018F882
:1051780006221549094811F0ADFB0A4B4FF0FF32E2
:105188001A60C1E64FF4784104480FF071F806221E
:105198000E49024811F09EFB8CE700BFA44900208D
:1051A8003C0A0020CC2F0020680A0020440A002076
:1051B8004C0A0020540A0020580A002050090020F8
:1051C8002C0A0020B4090020340A0020600A0020BC
:1051D8002DE9F04FC5B006460DF1E00A03AC1E21DB
:1051E8006FF0170017F0E2FF44F8040F5445F6D1AA
:1051F80000214E480EF0BCFD01224C4811460FF02C
:105208002BF84B4BD3F800801B68A3EB08039E4296
:1052180050D94FF0000B03AD0027CDE9028612E00C
:10522800B8F1EF0F4DD9EF2E7CD9B8F5987F2C60E7
:1052380005DD00216FF0170017F0B8FF286055450D
:1052480007F106071DD055F8044FE6000134A6F112
:105258005002A6F10808EF2AE2D808230FFA87F9C6
:1052680012B23248009349460623CDF804B00EF036
:105278009DFBB8F1EF0F26DD554507F106072C60B9
:10528800E1D12C4B2C4859682C4B1A6840F6AC538A
:10529800A0FB0202920CDDE9028603FB02F2254B19
:1052A8005B685B1A9A42FAD8214B1B68A3EB080388
:1052B800B342B0D300211D4845B0BDE8F04F0EF011
:1052C80057BD0FFA87F900224FF4487117480EF0BE
:1052D800CFFF00230FFA88F2494614480EF060FF0A
:1052E8005E2017F02BFF00F121011048C9B211F020
:1052F800F1FBEF2EC0D800224AF6E5710B480EF0FC
:10530800B7FF494632B2002308480EF049FF5E2035
:1053180017F014FF00F121010448C9B211F0DAFBBB
:105328002C608CE70FFA87F9E5E700BFA449002055
:10533800C4530020001000E083DE1B43942D00209E
:1053480000220449044808B517F0E4F8034B00228A
:105358001A8008BD40420F00982E0020E05300201C
:105368002DE9F84305468D4E8D4F8E4816F0F0FF17
:1053780003468C48002B51D017F03AF840F25622D9
:10538800C0B20D2818BF0A280CBF4FF001084FF013
:10539800000833D13C78002C47D13388002BE4D067
:1053A800002281488149C4542C706C60AA60A5F819
:1053B8000B4134801CF092FA064678B320467C49AB
:1053C8001CF08CFA044600285AD00378092B01D027
:1053D800202B05D114F8013F202BFBD0092BF9D045
:1053E800744930461CF0E4F920BB012320462B7099
:1053F8001AF0ACF968604046BDE8F88333880121AB
:10540800694C934203EB01020DD8E05465483280A1
:1054180016F09EFF03466348002BADD14FF00008FD
:105428004046BDE8F88339709FE700235B4A3B702C
:1054380013809AE7604930461CF0BAF9B8B15F4961
:1054480030461CF0B5F9A0B15D4930461CF0B0F902
:10545800002840F00D81042320462B701AF072F9C1
:10546800B7EEC00B404685ED020ABDE8F88302237B
:10547800F2E7032320462B701AF068F96860BAE750
:105488004C4930461CF094F981464C4930461CF092
:105498008FF90746B9F1000F4CD1C8B148493046D9
:1054A8001CF086F958B1474930461CF081F930B1F3
:1054B800454930461CF07CF9002840F005814349F5
:1054C80030461CF075F90028A8D108232B7092E704
:1054D8003B4930461CF06CF90028F0D03949304679
:1054E8001CF066F90028EAD0374930461CF060F90C
:1054F8000028E4D0364930461CF05AF90028DED09E
:10550800344930461CF054F90028D8D03249304686
:105518001CF04EF9002CD2D00028D0D10723172236
:10552800214605F586702B701CF0A2F9002385F83A
:10553800233160E7204930461CF03AF9002840F052
:10554800A380002FC4D01E4930461CF031F9002832
:10555800B5D01C4930461CF02BF90028AFD01A49A9
:1055680030461CF025F90028A9D0194930461CF00E
:105578001FF90028A3D0174930461CF019F9014635
:105588000028C3D1002C9AD006232B702378002B37
:1055980000F0AD8005F10C0646E000BFE0530020A6
:1055A80002540020982E0020B84A0020DC0A00206F
:1055B8008C110020E40A0020B41000208C0A00207E
:1055C800D0100020EC0A0020F00A0020080B002070
:1055D800F80A0020000B0020040A0020A3F1610053
:1055E800C0B205283CD9A3F14100C0B205283BD977
:1055F8000023A2F13000C0B2092823D9A2F161002A
:10560800C0B2052829D9A2F13700A2F1410743EA1F
:105618000002F8B2D2B2052898BF1346735401317C
:10562800A378C9B2B3B1023462789AB1FF2911D014
:10563800202B09D0A3F13000C0B20928CED8000130
:10564800C3B2D6E70343E9E7A0781346013402461C
:105658000028EDD185F80B11CDE6573A1343DDE765
:10566800573B1B01DBB2C4E7373B1B01DBB2C0E78A
:10567800204930461CF09CF8B8B9052320462B7009
:105688001AF064F86860B6E6002F3FF421AF1A49B3
:1056980030461CF08DF800283FF411AF154930460C
:1056A8001CF086F800283FF40AAF144930461CF075
:1056B8007FF848B9002C3FF402AF0A2320462B702C
:1056C8001AF044F8686096E60D4930461CF070F808
:1056D800014600287FF44FAF002C3FF4F0AE0923B9
:1056E800204610222B701BF061FD686083E6194686
:1056F800B0E700BFEC0A0020D0100020F00A00201C
:10570800F80A002010B5044604220949094817F090
:10571800BBF93CB120461CF03BFA2146024605483D
:1057280017F0B2F90348BDE8104017F0E1B900BF1F
:10573800100B0020982E002010B5044604220949B9
:10574800094817F0A1F93CB120461CF021FA21467E
:105758000246054817F098F90348BDE8104017F0CD
:10576800C7B900BF180B0020982E002030B52DEDCA
:10577800028B83B004220D4604462A49B0EE608AA3
:1057880029488DED001A8DED010A17F07DF99DED80
:10579800010A03212448B7EEC00A17F0E1F92021D5
:1057A800214817F08BF8B7EEC80A01211E4817F0F8
:1057B800D7F920211C4817F081F89DED001A012126
:1057C8001948B7EEC10A17F0CBF92021164817F08F
:1057D80075F8294600230A22134817F0B1F9202149
:1057E800114817F06BF89DB1254406E000231022FC
:1057F8000D4817F0A5F9AC420AD014F8011B0F297F
:10580800F4D83021084817F059F814F8011CEDE7CE
:105818000A21054803B0BDEC028BBDE8304017F003
:105828004DB800BF200B0020982E002000B52DEDAC
:10583800028B83B004221149B0EE608A10488DEDC6
:10584800010A17F021F99DED010A03210C48B7EE72
:10585800C00A17F085F92021094817F02FF8B7EE8C
:10586800C80A0121064817F07BF90A21044803B049
:10587800BDEC028B5DF804EB17F020B8280B002074
:10588800982E002070B506460D461446214904227C
:1058980021482DED028B82B0B0EE608A8DED010AB1
:1058A80017F0F2F800230A2231461B4817F048F98E
:1058B8002021194817F002F89DED010A0321164826
:1058C800B7EEC00A17F04CF92021134816F0F6FF7E
:1058D80000230A222946104817F032F920210E48E1
:1058E80016F0ECFFB7EEC80A01210B4817F038F99B
:1058F8002021094816F0E2FF2146074817F0ECF886
:105908000A21054802B0BDEC028BBDE8704016F0D4
:10591800D5BF00BF300B0020982E00200138062884
:105928004ED8DFE800F00C12223E2D3504004FF06F
:105938000A0C0023244881F800C01360704709232B
:105948000B700023214813607047092300B583B00A
:105958000B700192FDF7B0FA0378019A002B29D059
:105968001B4B1C48136003B000BD1B4B08201B7861
:105978000870012B19480CBF194B1A4B136070475C
:105988004FF0040C184B194881F800C01360704799
:10599800174B0C201B78087073B1114B1548136016
:1059A8007047154B02201B7808703BB1134B144805
:1059B80013607047134BD4E7134BEFE7134BF6E72D
:1059C80000230B70BDE700BFF4060020E4060020AA
:1059D800380B002030080020065400200007002063
:1059E800080B0020640B00206C0B0020F006002040
:1059F800F5530020D8060020EB530020500B002060
:105A0800D4060020440B0020600B0020580B002017
:105A180010B5044624482DED028B82B004F070F9CD
:105A280050B92249224A0B6810681B1AFA2B1BD856
:105A380002B0BDEC028B10BD01211E4A1E4B19702D
:105A480013680B44136004F01DFB174B93F8FF1009
:105A5800184693ED411AD3ED400AFFF787FE8CB93B
:105A6800164B01221A70DCE70B68136004F03CFA4D
:105A780013490122114B81ED000A1A7002B0BDECE6
:105A8800028B10BD04F0FEFAB0EE408A04F000FB71
:105A9800019004F003FB0199F0EE400A0248B0EED1
:105AA800480AFDF70DFADBE7C4460020C45300207E
:105AB80020500020C8450020EA530020B3340020BD
:105AC800F82E00201E4A1378012B00D070471D497C
:105AD80009780029FAD01C491C4809680068091A85
:105AE8001B4800688142F1D300B5C5B00DF10F0124
:105AF80004A80093FDF7D8FD009B78B9CDE90030E4
:105B0800FDF736FE009BDFF854C012490C4A019895
:105B18008CF8003010700B7045B000BD9DF80F1068
:105B280004A804F043F90C49074B0A681868074BA6
:105B3800013218600948009B0A600370ECE700BF57
:105B480006540020F6530020C4530020CC45002002
:105B5800902F0020B134002068490020B334002081
:105B680010B5164C207817F08DFD011E637818BF0C
:105B78000121134A9942D2F800C00BD06268ACEBFD
:105B88000202192A06D9C4F804C0617088B92072C3
:105B9800002010BD002BFBD1237A002BF8D16368BD
:105BA800ACEB030CBCF5FA7FF2D30123022023727D
:105BB80010BD207A80F0010010BD00BF6C2F0020BE
:105BC800C453002000B583B018F000FBDFED197A4C
:105BD800194BB4EEE70A83ED000AF1EE10FA19DA70
:105BE800DFED167AB4EEE70AF1EE10FA20DD30EEBA
:105BF800670A9FED137AB3EE076ADFED127AC0EEFB
:105C0800066AE6EE877AFCEEE77ACDED017A9DF832
:105C1800043000E0FF230C4902200C4A0978137075
:105C2800994238BF194603B05DF804EB18F078B80C
:105C38008C23F0E700009C426449002000005C428D
:105C48000000E64200000C43F3530020EE5300200E
:105C580038B5134C2378022B15D0042B18D0032BFE
:105C68001BD0104A0025104B022011781D7018F027
:105C780057F801230D490E4A25700B701370BDE8C3
:105C8800384004F01DB8FDF7A9FA2378042BE6D1B3
:105C980004F006F92378032BE3D1FDF769FDE0E76B
:105CA800F1530020EE530020F3530020B3340020BA
:105CB800B1340020F8B50122434D444E00232A7028
:105CC800441E3270424A434F1370434A38700220D0
:105CD8001360424A1360424A1370424B197818F015
:105CE8001FF8052C11D8DFE804F026110332362AF4
:105CF80000233D483D4A18213D4C03603D48237030
:105D08001360FDF7D5FD3C4B1860F8BDFCF796FF16
:105D180018B1FCF799FF002843D1384A3849394867
:105D2800FEF726FA4FF4966017F00AFC01230022CA
:105D380033702B703A70BDE8F84003F0C1BF002300
:105D480031483249324A03700B601370F8BD314B49
:105D580000221A70F8BD402280212F481BF0E4FC75
:105D68002E4B2F4993ED007AD1ED007A2D4A37EE6C
:105D7800677A2D4BD2ED006A4FF0FF32C7EE267AD4
:105D88001A60FDEEE77A17EE903A002B05DD402BFE
:105D980016DD264B40221A60F8BD244B01221A60FA
:105DA800F8BD03F08DFF0F4B0D4A022019788C23A4
:105DB8009942137038BF1946BDE8F84017F0B0BFD4
:105DC8001A4AC2ED007AF8BDB3340020B13400207D
:105DD800EA530020F1530020C8450020DC4700208A
:105DE800F3530020EE53002070490020684900203A
:105DF80006540020E4470020E0470020740B0020F0
:105E0800980B00209C090020F5530020BC45002079
:105E1800F4530020EB530020844600208C2F0020F0
:105E2800FC2E0020942F0020842F0020882F002093
:105E380030B5CDB003AC2046FFF792FAB0B1237865
:105E4800013B092B0DD8DFE803F01A052536495127
:105E58005E71771394ED020A03F04AFE4148FFF79A
:105E68006BFC01234049414A0B7013704DB030BDA3
:105E7800207903F0D3FE3E48FFF75EFCF1E7606847
:105E8800431E062BEDD8C0B2FFF714FF3948FFF7C1
:105E980053FCE6E7247904F001F98DED010A04F0DA
:105EA80003F99DED010A0146204603F04BFE3248F6
:105EB800FFF742FCD5E704F0EBF894ED020A05463B
:105EC8008DED010A04F0F0F89DED010A014628461F
:105ED80003F038FE2948FFF72FFCC2E794F90400C5
:105EE80003F0B2FE2648FFF727FCBAE7254B1B78DC
:105EF8007BB394F80B1106A803F058FF68B3224847
:105F0800FFF700FCADE70320FFF7D4FE46A8FDF736
:105F18001DFAD0B11D48012400231D491D4A0470F3
:105F28001D480B601360FFF707FC9AE7FFF790FE28
:105F38001A48FFF701FC94E72079194B187003F011
:105F480093FE1848FFF7F8FB8BE71748FFF7DAFBD3
:105F580087E71648FFF7D6FB83E71548FFF7ECFB02
:105F68007FE700BFB4100020B3340020B134002014
:105F7800F00A0020E40A00208C0A0020D01000203B
:105F8800EC0A0020F65300205C0B00200654002089
:105F980068490020CC450020040A0020080B002096
:105FA800B2340020F80A0020AC0B0020A40B00201B
:105FB800000B00201D4BD3F8D820106891680068AA
:105FC80010B40842137C546814BF0121002103F067
:105FD8000303D4F800C0D06843EA81031CEA000F29
:105FE80043F0080118BF0B469908013B11740D2BAB
:105FF8000BD8DFE803F0110C070C0A161111160A6A
:106008000C070C1153690233536110BC7047536974
:10601800013B10BC536170475369013310BC536195
:1060280070475369023B10BC53617047384F0020DA
:106038001D4BD3F8D42010689168006810B408424A
:10604800137C546814BF0121002103F00303D4F822
:1060580000C0D06843EA81031CEA000F43F008013E
:1060680018BF0B469908013B11740D2B0BD8DFE8BC
:1060780003F0110C070C0A161111160A0C070C1163
:1060880053690233536110BC70475369013B10BC1C
:10609800536170475369013310BC536170475369AA
:1060A800023B10BC53617047384F00201D4BD3F89A
:1060B800D02010689168006810B40842137C5468B6
:1060C80014BF0121002103F00303D4F800C0D068F5
:1060D80043EA81031CEA000F43F0080118BF0B468E
:1060E8009908013B11740D2B0BD8DFE803F0110C54
:1060F800070C0A161111160A0C070C115369023302
:10610800536110BC70475369013B10BC5361704721
:106118005369013310BC536170475369023B10BC8B
:1061280053617047384F00201D4BD3F8CC201068BE
:106138009168006810B40842137C546814BF0121A8
:10614800002103F00303D4F800C0D06843EA8103B8
:106158001CEA000F43F0080118BF0B469908013BE1
:1061680011740D2B0BD8DFE803F0110C070C0A167D
:106178001111160A0C070C1153690233536110BC34
:1061880070475369013B10BC536170475369013331
:1061980010BC536170475369023B10BC5361704790
:1061A800384F00201D4BD3F8C8201068916800684C
:1061B80010B40842137C546814BF0121002103F075
:1061C8000303D4F800C0D06843EA81031CEA000F37
:1061D80043F0080118BF0B469908013B11740D2BB9
:1061E8000BD8DFE803F0110C070C0A161111160A78
:1061F8000C070C1153690233536110BC7047536983
:10620800013B10BC536170475369013310BC5361A3
:1062180070475369023B10BC53617047384F0020E8
:106228001D4BD3F8C42010689168006810B4084268
:10623800137C546814BF0121002103F00303D4F830
:1062480000C0D06843EA81031CEA000F43F008014C
:1062580018BF0B469908013B11740D2B0BD8DFE8CA
:1062680003F0110C070C0A161111160A0C070C1171
:1062780053690233536110BC70475369013B10BC2A
:10628800536170475369013310BC536170475369B8
:10629800023B10BC53617047384F00201D4BD3F8A8
:1062A800C02010689168006810B40842137C5468D4
:1062B80014BF0121002103F00303D4F800C0D06803
:1062C80043EA81031CEA000F43F0080118BF0B469C
:1062D8009908013B11740D2B0BD8DFE803F0110C62
:1062E800070C0A161111160A0C070C115369023310
:1062F800536110BC70475369013B10BC5361704730
:106308005369013310BC536170475369023B10BC99
:1063180053617047384F00201D4BD3F8BC201068DC
:106328009168006810B40842137C546814BF0121B6
:10633800002103F00303D4F800C0D06843EA8103C6
:106348001CEA000F43F0080118BF0B469908013BEF
:1063580011740D2B0BD8DFE803F0110C070C0A168B
:106368001111160A0C070C1153690233536110BC42
:1063780070475369013B10BC53617047536901333F
:1063880010BC536170475369023B10BC536170479E
:10639800384F00201D4BD3F8B8201068916800686A
:1063A80010B40842137C546814BF0121002103F083
:1063B8000303D4F800C0D06843EA81031CEA000F45
:1063C80043F0080118BF0B469908013B11740D2BC7
:1063D8000BD8DFE803F0110C070C0A161111160A86
:1063E8000C070C1153690233536110BC7047536991
:1063F800013B10BC536170475369013310BC5361B2
:1064080070475369023B10BC53617047384F0020F6
:106418001D4BD3F8B42010689168006810B4084286
:10642800137C546814BF0121002103F00303D4F83E
:1064380000C0D06843EA81031CEA000F43F008015A
:1064480018BF0B469908013B11740D2B0BD8DFE8D8
:1064580003F0110C070C0A161111160A0C070C117F
:1064680053690233536110BC70475369013B10BC38
:10647800536170475369013310BC536170475369C6
:10648800023B10BC53617047384F00201D4BD3F8B6
:10649800B02010689168006810B40842137C5468F2
:1064A80014BF0121002103F00303D4F800C0D06811
:1064B80043EA81031CEA000F43F0080118BF0B46AA
:1064C8009908013B11740D2B0BD8DFE803F0110C70
:1064D800070C0A161111160A0C070C11536902331E
:1064E800536110BC70475369013B10BC536170473E
:1064F8005369013310BC536170475369023B10BCA8
:1065080053617047384F00201D4BD3F8AC201068FA
:106518009168006810B40842137C546814BF0121C4
:10652800002103F00303D4F800C0D06843EA8103D4
:106538001CEA000F43F0080118BF0B469908013BFD
:1065480011740D2B0BD8DFE803F0110C070C0A1699
:106558001111160A0C070C1153690233536110BC50
:1065680070475369013B10BC53617047536901334D
:1065780010BC536170475369023B10BC53617047AC
:10658800384F00201D4BD3F8A82010689168006888
:1065980010B40842137C546814BF0121002103F091
:1065A8000303D4F800C0D06843EA81031CEA000F53
:1065B80043F0080118BF0B469908013B11740D2BD5
:1065C8000BD8DFE803F0110C070C0A161111160A94
:1065D8000C070C1153690233536110BC704753699F
:1065E800013B10BC536170475369013310BC5361C0
:1065F80070475369023B10BC53617047384F002005
:106608001D4BD3F8A42010689168006810B40842A4
:10661800137C546814BF0121002103F00303D4F84C
:1066280000C0D06843EA81031CEA000F43F0080168
:1066380018BF0B469908013B11740D2B0BD8DFE8E6
:1066480003F0110C070C0A161111160A0C070C118D
:1066580053690233536110BC70475369013B10BC46
:10666800536170475369013310BC536170475369D4
:10667800023B10BC53617047384F00201D4BD3F8C4
:10668800A02010689168006810B40842137C546810
:1066980014BF0121002103F00303D4F800C0D0681F
:1066A80043EA81031CEA000F43F0080118BF0B46B8
:1066B8009908013B11740D2B0BD8DFE803F0110C7E
:1066C800070C0A161111160A0C070C11536902332C
:1066D800536110BC70475369013B10BC536170474C
:1066E8005369013310BC536170475369023B10BCB6
:1066F80053617047384F00201D4BD3F89C20106819
:106708009168006810B40842137C546814BF0121D2
:10671800002103F00303D4F800C0D06843EA8103E2
:106728001CEA000F43F0080118BF0B469908013B0B
:1067380011740D2B0BD8DFE803F0110C070C0A16A7
:106748001111160A0C070C1153690233536110BC5E
:1067580070475369013B10BC53617047536901335B
:1067680010BC536170475369023B10BC53617047BA
:10677800384F00201D4BD3F89820106891680068A6
:1067880010B40842137C546814BF0121002103F09F
:106798000303D4F800C0D06843EA81031CEA000F61
:1067A80043F0080118BF0B469908013B11740D2BE3
:1067B8000BD8DFE803F0110C070C0A161111160AA2
:1067C8000C070C1153690233536110BC70475369AD
:1067D800013B10BC536170475369013310BC5361CE
:1067E80070475369023B10BC53617047384F002013
:1067F8001D4BD3F8942010689168006810B40842C3
:10680800137C546814BF0121002103F00303D4F85A
:1068180000C0D06843EA81031CEA000F43F0080176
:1068280018BF0B469908013B11740D2B0BD8DFE8F4
:1068380003F0110C070C0A161111160A0C070C119B
:1068480053690233536110BC70475369013B10BC54
:10685800536170475369013310BC536170475369E2
:10686800023B10BC53617047384F00201D4BD3F8D2
:10687800902010689168006810B40842137C54682E
:1068880014BF0121002103F00303D4F800C0D0682D
:1068980043EA81031CEA000F43F0080118BF0B46C6
:1068A8009908013B11740D2B0BD8DFE803F0110C8C
:1068B800070C0A161111160A0C070C11536902333A
:1068C800536110BC70475369013B10BC536170475A
:1068D8005369013310BC536170475369023B10BCC4
:1068E80053617047384F00201D4BD3F88C20106837
:1068F8009168006810B40842137C546814BF0121E1
:10690800002103F00303D4F800C0D06843EA8103F0
:106918001CEA000F43F0080118BF0B469908013B19
:1069280011740D2B0BD8DFE803F0110C070C0A16B5
:106938001111160A0C070C1153690233536110BC6C
:1069480070475369013B10BC536170475369013369
:1069580010BC536170475369023B10BC53617047C8
:10696800384F00201D4BD3F88820106891680068C4
:1069780010B40842137C546814BF0121002103F0AD
:106988000303D4F800C0D06843EA81031CEA000F6F
:1069980043F0080118BF0B469908013B11740D2BF1
:1069A8000BD8DFE803F0110C070C0A161111160AB0
:1069B8000C070C1153690233536110BC70475369BB
:1069C800013B10BC536170475369013310BC5361DC
:1069D80070475369023B10BC53617047384F002021
:1069E8001D4BD3F8842010689168006810B40842E1
:1069F800137C546814BF0121002103F00303D4F869
:106A080000C0D06843EA81031CEA000F43F0080184
:106A180018BF0B469908013B11740D2B0BD8DFE802
:106A280003F0110C070C0A161111160A0C070C11A9
:106A380053690233536110BC70475369013B10BC62
:106A4800536170475369013310BC536170475369F0
:106A5800023B10BC53617047384F00201D4BD3F8E0
:106A6800802010689168006810B40842137C54684C
:106A780014BF0121002103F00303D4F800C0D0683B
:106A880043EA81031CEA000F43F0080118BF0B46D4
:106A98009908013B11740D2B0BD8DFE803F0110C9A
:106AA800070C0A161111160A0C070C115369023348
:106AB800536110BC70475369013B10BC5361704768
:106AC8005369013310BC536170475369023B10BCD2
:106AD80053617047384F00201D4BDA6F106891687A
:106AE800006810B40842137C546814BF01210021C7
:106AF80003F00303D4F800C0D06843EA81031CEA1A
:106B0800000F43F0080118BF0B469908013B1174A8
:106B18000D2B0BD8DFE803F0110C070C0A16111126
:106B2800160A0C070C1153690233536110BC7047E5
:106B38005369013B10BC536170475369013310BC62
:106B4800536170475369023B10BC5361704700BFE3
:106B5800384F00201D4B9A6F10689168006810B478
:106B68000842137C546814BF0121002103F0030379
:106B7800D4F800C0D06843EA81031CEA000F43F050
:106B8800080118BF0B469908013B11740D2B0BD84F
:106B9800DFE803F0110C070C0A161111160A0C078E
:106BA8000C1153690233536110BC70475369013BA0
:106BB80010BC536170475369013310BC536170476F
:106BC8005369023B10BC5361704700BF384F002027
:106BD8001D4B5A6F10689168006810B40842137C06
:106BE800546814BF0121002103F00303D4F800C046
:106BF800D06843EA81031CEA000F43F0080118BF7C
:106C08000B469908013B11740D2B0BD8DFE803F0F4
:106C1800110C070C0A161111160A0C070C115369EE
:106C28000233536110BC70475369013B10BC536178
:106C380070475369013310BC536170475369023B75
