:0200000460009A
:100000004643464200000156000000000101020084
:1000100000000000000000000000000000000000E0
:1000200000000000000000000000000000000000D0
:1000300000000000000000000000000000000000C0
:1000400000000000010406010000000000000000A4
:100050000000800000000000000000000000000020
:100060000000000000000000000000000000000090
:100070000000000000000000000000000000000080
:10008000EB04180AFF1E04320126000000000000E5
:100090000000000000000000000000000000000060
:1000A0000000000000000000000000000000000050
:1000B0000000000000000000000000000000000040
:1000C0000000000000000000000000000000000030
:1000D0000000000000000000000000000000000020
:1000E0000000000000000000000000000000000010
:1000F0000000000000000000000000000000000000
:1001000000000000000000000000000000000000EF
:1001100000000000000000000000000000000000DF
:1001200000000000000000000000000000000000CF
:1001300000000000000000000000000000000000BF
:1001400000000000000000000000000000000000AF
:10015000000000000000000000000000000000009F
:10016000000000000000000000000000000000008F
:10017000000000000000000000000000000000007F
:10018000000000000000000000000000000000006F
:10019000000000000000000000000000000000005F
:1001A000000000000000000000000000000000004F
:1001B000000000000000000000000000000000003F
:1001C000000100000010000001000000000000001D
:1001D000000001000000000000000000000000001E
:1001E000000000000000000000000000000000000F
:1001F00000000000000000000000000000000000FF
:10020000FFFFFFFFFFFFFFFFFFFFFFFFFFFFFFFFFE
:10021000FFFFFFFFFFFFFFFFFFFFFFFFFFFFFFFFEE
:10100000D1002043F1150060000000000000000046
:10101000201000600010006000C4026000000000AA
:101020000000006000D0020000000000FFFFFFFF92
:10103000FFFFFFFFFFFFFFFFFFFFFFFFFFFFFFFFC0
:10104000FFFFFFFFFFFFFFFFFFFFFFFFFFFFFFFFB0
:10105000FFFFFFFFFFFFFFFFFFFFFFFFFFFFFFFFA0
:10106000FFFFFFFFFFFFFFFFFFFFFFFFFFFFFFFF90
:10140000824205D051F8043B40F8043B8242F9D8AF
:10141000704700BF044A05494FF0000342F8043BFF
:101420009142FBD8704700BFC03A002040540020D2
:1014300008B5BFF34F8F00F047F9544C544B0820C8
:101440005449C3F85401544AC3F800115348C3F82F
:10145000F0405349FFF7D4FF524A53495348FFF72E
:10146000CFFF534CFFF7D6FF4FF470004FF0E02151
:101470000023504AC1F8880D44F823200133B02BD3
:10148000FAD14D4B80214D4A03F8011B9342FBD109
:101490004FF0E0254A4E4B4A4FF0FF31C5F8084D5A
:1014A000D5F8243D43F4E023C5F8243DF36923F047
:1014B0007F0343F04003F361736A23F07F0343F03B
:1014C000400373629166D1661167516700F004F9B9
:1014D0003D4A3E4BA2636322E36300246A61032317
:1014E0003B4AAC612B61C5F8202DD5F8FC2D394B5A
:1014F00042F080723849C5F8FC2D1A6842F00102AA
:101500001A605B680B6000F0B7FA344800F05CFCCE
:10151000F16E334B334A41F44051F1661C60C3F81D
:101520000841C3F81841C3F82841C3F83841936B08
:10153000DB0708D442F615632B4951651365936B9D
:1015400043F001039363274A284C936843F0011347
:10155000936000F04FF900F0FBFB00F039FC00F065
:10156000BDFA00F0B3F82368132BFCD900F052FB4E
:101570002368B3F5967FFBD300F0ACF800F0A8F831
:1015800000F032FC00F028FC30BFFDE70C0D111319
:1015900000800D401B10182038650200000000007C
:1015A00098200060C03A0020D4850260000000202E
:1015B00000380020A5BF010000E400E0A0E400E046
:1015C00000C00F4000C00A40C9A20100CDA2010026
:1015D00000002020001000E0C05300200046C3237C
:1015E0000040084000400D400000C056C453002099
:1015F000054B4FF42A01054A05485A641864054A08
:1016000099639546FFF714FF00C00A40FFABAAAAF2
:101610000700200000800520294A00210123C2F88C
:10162000A000C2F8A410C2F8B0305369D907FCD5A5
:1016300001234FF4803C22495361C2F8A000C2F854
:10164000A4C0C2F8B0304B69DB07FCD501234FF4CE
:10165000003C1B4A4B61C1F8A000C1F8A4C0C1F80E
:10166000B0305369D907FCD50123DFF858C01449BD
:101670005361C2F8A000C2F8A4C0C2F8B0304B69F0
:10168000DB07FCD5D1F8003145F60D504FF0210CA9
:101690009AB2C1F814C0824210D045F69D518A42D8
:1016A0000AD1C3F34253032B08D0A3F10403B3FAC6
:1016B00083F35B09180170470020704708207047CA
:1016C00000402A4004000300704700BF704700BF7D
:1016D000704700BF00BF70474FF0E02300214FF07C
:1016E000100C3448C3F8941DC3F89CCD4FF0110C76
:1016F000C3F8A00D3048C3F89CCD4FF0120CC3F8CE
:10170000A00D2E48C3F89CCD2D4AC3F8A00DDFF8DC
:10171000D0C042F015022B48C3F89CCDC3F8A00DF1
:10172000DFF8C0C02848C3F89CCDC3F8A00DDFF88F
:10173000B8C0C3F89C2D2548254AC3F8A0CDC3F8EE
:101740009C0DC3F8A02D02F5A022DFF8A0C00C323A
:101750002048C3F89CCDC3F8A02D1F4AC3F89C0DA8
:10176000C3F8A02D02F14062DFF884C002321B48AA
:10177000C3F89CCDC3F8A02D0A32C3F89C0DC3F862
:10178000A02D00BF00BF00BF00BF00BF0122C3F8F3
:10179000942DBFF34F8FBFF36F8FC3F8501FBFF36C
:1017A0004F8FBFF36F8FD3F8142D42F44032C3F83C
:1017B000142D70473F000010250008070900100095
:1017C00040540020210002072500081316002020A5
:1017D00027000B13180000602F000B071A00008071
:1017E0001300200014000020090000101700004022
:1017F0001900007030B5864B85B0DFF874E218220E
:10180000844D0120C3F85CE28349C3F86052A5F51A
:101810008055DFF860C2814CC3F864E2C3F86852B7
:101820002125C3F86CC2C3F870C2C3F874C2C3F8F0
:1018300078C248F20C7CDA661A675A679A67DA67E8
:10184000C3F88020C3F88420C3F88820C1F82C0393
:10185000734AC1F83003C1F83403C1F83803C1F842
:101860003C03C1F85003A1696E4B0A406E486F49B2
:1018700013436F4AA361D4F8843043F00C03C4F8D7
:1018800084304FF0FF34036843F0020303600368C1
:1018900003EA0C031A43674B026044608A68664C93
:1018A0001340664A43F000538360C36823F0780313
:1018B000C360036A23401A43604B0262026A2240FB
:1018C0005F4C1343002243628462C46240F20564A9
:1018D000D1F8B83023F03F0343F00103C0F8B8302B
:1018E000D1F8BC30574923F03F0343F00103C0F85F
:1018F000BC3002610567C0F880404567C0F884408D
:101900000224036823F00203036081614E4B4F49B8
:10191000C46143F8042B8B42FBD1434C236843F052
:1019200001032360256815F00105FBD1454802221B
:1019300040F2F561A06140F29940E26140F26642F6
:10194000C4F8001242F20141C4F81022404AC4F81F
:101950002002C4F8302240F23542C4F834123D4827
:10196000C4F840223C4AC4F850022846C4F8542225
:1019700042F201223949C4F86012C4F86422FFF728
:101980004BFE0246002839D0810201234FF480200B
:1019900021662549C4F8A050C4F8A400C4F8B030AA
:1019A0004B69D807FCD515050124039228464C61E4
:1019B000FFF732FE039A2A4B0244D2B21A7080B16A
:1019C000194980024FF4802348660846C1F8A050A8
:1019D000C1F8A430C1F8B0404369DB07FCD501234E
:1019E000436120490024204801230094401A00EB61
:1019F00002521E4800F0F4F905B030BD1B4B1849E7
:101A000018600870D860C3E9010005B030BD00BFA0
:101A100000801F40F910010000841F4000C00F40EB
:101A2000FFFCFF1F0003008000402A4000802A4086
:101A30001200FFFFFF37F70000FFF07C400000803E
:101A4000FF000F83F05AF05A00422A4000432A4018
:101A50009F041830EB06180A063201263806180AC9
:101A60000654002000000070000000704C5300205D
:101A7000F9B00100F970010010B5174A4FF4805415
:101A80004FF4005E4FF4404C4FF4803043F242017B
:101A9000136913F0020F0DD113F4005F0FD013F48C
:101AA000805F0FD0002BF3DA13F4803F0CD15B067C
:101AB0000ED510BDC2F818C050619161E8E7C2F8B8
:101AC00014E0E5E75461E3E74FF480339361DFE727
:101AD00040235361DCE700BF00800D40414A0320F2
:101AE0004149F3EE095AD2F880309FED406A23F065
:101AF00001039FED3F5ADFF814C100B5C2F88030F2
:101B0000C2F89000D1F8E010DFF804E1CBB2394818
:101B1000CEF8003007EE903A0B0DC1F30B21F8EE32
:101B2000E77A06EE903A07EE101A334BB8EEC77A12
:101B3000CCF80010F8EEE66A304937EEC66A37EEA8
:101B4000C55A76EEC76A77EEE57A26EE266AC3EDC9
:101B5000006A25EE265AD2F8803067EEA64AC0ED1C
:101B6000007AC6EE275A264885EE276AC4EEA76A91
:101B700075EE875AFCEEE55A36EE076A15EE90CA06
:101B8000BCEEC66A43EA0C5376EE877AC2F8803020
:101B900016EE103AD2F890C1FCEEE77A01EA034162
:101BA00041EA0C014FF0000C17EE903AC2F8901188
:101BB000C3F30B03D2F890110B431249C2F89031D2
:101BC000D2F8803043F00203C2F880300E4B80F828
:101BD00040C0C1F840314FF0E0230122C3F8082192
:101BE00000BD00BF00810D4000441F400000AA421C
:101BF0000000B442B4530020B85300200000FF0F8F
:101C000000E400E00038002089C10100AC5300204E
:101C1000B0530020314B40F6617210B5C3F820215B
:101C200040F2044400F0C4F82D4A2E49D2F8803026
:101C30002D4843F00303C2F880302C4BC1F86041BB
:101C400002681A4203D1D1F8A8319A071BD0254A5D
:101C50004FF00041244B5963D2F8403143F0020366
:101C6000C2F84031D2F840319B07FBD44FF400302A
:101C70004FF0E0211C4B4FF00042C1F88C021920BC
:101C80009A6300F099F8184B0021164C4FF08042EF
:101C90000A209A634FF420721960C4F8A80114480E
:101CA00000F08EF84FF4800203464FF4810040F2BA
:101CB00043111860C4F858311A640E4B0E4AC4F828
:101CC0004811C3F804224FF0E0224FF40031012301
:101CD000C2F80C11C4F8403110BD00BF00800D40A7
:101CE00000C00F4000002E4000900D40001C1E0060
:101CF00000000020003800208DC3010008B50E4B05
:101D00001B6E9B0700D4FBBE72B60C4B00200C4A26
:101D1000C3F8400103F160430A49A3F55F2311644E
:101D20009D46BFF34F8F4FF40013074A0748DB6906
:101D300002609B68984700BF00441F4000002E408F
:101D400000C00A4003002000000012EB00802020A9
:101D50000F4B40F2376C0F4AA020D96E41F440314E
:101D6000D966D96E41F44071D966C2F844C0906416
:101D7000936C1B06FCD4084A40F23761A0235164DF
:101D80009364936C13F08003FBD1044A1370704783
:101D900000C00F4000400C4000800C400554002063
:101DA000F8B500BFF8BC08BC9E46704700000000B4
:101DB0005FF800F0F9CA01005FF800F001B501001A
:101DC0005FF800F0E9F601005FF800F0EDB1010006
:101DD0005FF800F08DBE01005FF800F02DB9010042
:101DE0005FF800F079D601005FF800F0FDF901001E
:101DF00005010000811F0000CD1F0000A975000033
:101E00007981000041900000C14A0100B1860100C3
:0C1E1000819F0100D9B00100FDD5010048
:101E1C006CC00F40030000000E0D0000518200004A
:101E2C002A3600001400000013000000010000001E
:101E3C00F4841F402B32000014000000130000003B
:101E4C0001000000F8841F402D3100001400000038
:101E5C001300000001000000F0841F402CFFFF0065
:101E6C001400000000000000000000000100000051
:101E7C0000000000EC841F40000000000000000087
:101E8C006CC00F4030000000100F000051820000A9
:101E9C0001270000170000001200000000010000E4
:101EAC0014851F401AFF0000120000000000000003
:101EBC000100000018851F401BFF000012000000ED
:101ECC00000000000100000010851F400026FF00EC
:101EDC0017000000120000000000000001010000CB
:101EEC00010000000C851F400C851F400000000005
:101EFC006CC00F40C0000000504F00002583000054
:101F0C000CFF0000130000000000000000000000A7
:101F1C0024851F400BFF0000130000000000000090
:101F2C000000000028851F400DFF0000130000007A
:101F3C00000000000000000020851F400A2524003E
:101F4C001300000012000000120000000102030048
:101F5C000000000000000000000000000000000075
:101F6C00090180961180FF3A81550A3601082A042E
:101F7C00000000F02B040000014021800A13800AAD
:101F8C002980FF0016035500530042002000530027
:101F9C0065007200690061006C00000018035400B9
:101FAC00650065006E0073007900640075006900BF
:101FBC006E006F000403090409026200030100C0F3
:101FCC0032080B00020202010009040000010202A7
:101FDC00010005240010010524010101042402065E
:101FEC0005240600010705820310001009040100F6
:101FFC00020A0000000705030240000007058402E6
:10200C004000000904020002FF6AFF00070581027C
:10201C0040000107050102400001000009026200B6
:10202C00030100C032080B00020202010009040087
:10203C000001020201000524001001052401010128
:10204C00042402060524060001070582031000057E
:10205C0009040100020A0000000705030200020047
:10206C00070584020002000904020002FF6AC7008F
:10207C0007058102000201070501020002010000B0
:0C208C000A060002EF0201400100000003
:102098000000000000000000000000000000000038
:1020A8000000000000000000000000000000000028
:1020B800F8B54FF084439D695A6915400DD0254FF6
:1020C80001269D6195FAA5F4B4FA84F457F82430F2
:1020D80006FA04F49847A543F4D11F4B9D695A6941
:1020E80015400DD01D4F01269D6195FAA5F4B4FA4F
:1020F80084F457F8243006FA04F49847A543F4D139
:10210800174B9D695A6915400DD0164F01269D61E0
:1021180095FAA5F4B4FA84F457F8243006FA04F4CE
:102128009847A543F4D1104B9D695A6915400DD0C5
:102138000E4F01269D6195FAA5F4B4FA84F457F878
:10214800243006FA04F49847A543F4D1BFF34F8F1F
:10215800F8BD00BF5C32002000400042DC320020A5
:10216800008000425C33002000C00042DC330020C5
:102178000548064B1B1AD90F01EBA301491002D0E1
:10218800034B03B118477047C03A0020C03A0020FB
:102198000000000008B5054B1BB105490548AFF321
:1021A8000080BDE80840FFF7E3BF00BF0000000063
:1021B8005C53002000D0026000207047704700BFC9
:1021C800036D0BB101207047406DC01A18BF012084
:1021D800704700BF0346806D80B100B583B001939E
:1021E8001DF0E8FA0022019B9A651A6D62B103F1AD
:1021F800180003B05DF804EB0DF08CBC1A6D42B109
:1022080003F118000DF086BC5A6D002AEFD103B017
:1022180000BD5A6D002AF3D1704700BF10B5046D98
:102228006CB10BB1002010BD114620460BF044FAEA
:102238000028F7D02046BDE810400BF03FBF446DA2
:10224800002CEFD0204609F005F90028EAD02046F6
:10225800BDE8104009F0C0BF8A79A2F150031B06FF
:1022680028D4D0F850C002F26C7230B54B7985B0E2
:1022780091F804E001338C784D78DBB20978BCF131
:10228800000F0AD060460194CDF800E0CDE9025174
:1022980002210BF09DFE05B030BD406D0028FAD03C
:1022A8000194CDF800E0CDE90251022109F0CAFEFF
:1022B80005B030BD00207047816D09B108467047F0
:1022C80000B583B001904FF480701DF06BFA019B4C
:1022D80001469865B8B10022186D0A7040B14FF4F4
:1022E80080720DF06BF8019B996D084603B000BD34
:1022F800586D0028F9D04FF4807201930AF09EFCC3
:10230800019B996DF1E7024A11469A65EDE700BF16
:10231800045400200246006D0B4600B585B040B35A
:1023280001910DF10E0203A90BF030FE019B58B389
:10233800BDF80C20BDF80E1052EA010024D0C1F3FC
:10234800451E01F01F00C90AC2F3431C400083F870
:1023580001E09970510A0CF1FF3C02F01F0201F5EF
:10236800EA611870012083F805C01A71997105B0E7
:1023780000BD506D40B10DF10E0203A9019308F0A4
:1023880017FF019B0028D3D1002005B000BD00BF76
:102398000246006D0B4600B585B040B301910DF1C2
:1023A8000E0203A90BF0D0FD019B58B3BDF80C2019
:1023B800BDF80E1052EA010024D0C1F3451E01F009
:1023C8001F00C90AC2F3431C400083F801E099705A
:1023D800510A0CF1FF3C02F01F0201F5EA61187086
:1023E800012083F805C01A71997105B000BD506DC0
:1023F80040B10DF10E0203A9019308F0C7FE019B3D
:102408000028D3D1002005B000BD00BF10B5036976
:1024180082B08DF80710C3B11968114AC968914292
:102428000C4615D1186D30B101220DF107010BF0E2
:1024380083FE02B010BD586D0028FAD001220DF1BC
:10244800070109F03DFF02B010BD184602B010BDEB
:1024580001220DF107011846A04702B010BD00BFC8
:1024680065070000036963B11A68074992698A42DF
:1024780008D1186D08B10BF049BA586D08B109F0C8
:102488005DBC70471846104751070000006990B1BD
:102498000368154A1B69934225D1036D63B1187807
:1024A80010F0080007D0D8695B69C01A48BF6FF000
:1024B8000040704718467047436D002BFAD093F8D8
:1024C800310010F00800F6D0186919685A69401AE6
:1024D8005B6862EB0303B0F1004F73F10003EAD3CA
:1024E8006FF000407047184709080000036D13B1EA
:1024F800586900217047436D13B1D3E90001704753
:1025080018461946704700BF036D13B1D8690021FA
:102518007047436D13B1D3E9040170471846194653
:10252800704700BF036D13B118460BF047B8406DF4
:1025380008B108F079BF4FF0FF307047026D82B1E3
:10254800137813F0700F00D1704700B583B00021E5
:10255800019010460BF0B0F8019B586D70B903B0AC
:1025680000BD406D0028EFD090F8313013F0500FC7
:1025780003D00022002308F06DBF7047002200231B
:1025880003B05DF804EB08F065BF00BF036973B1E1
:102598001A68084952698A4207D1186D08B10BF0C8
:1025A8000DB8586D18B108F03FBF184610474FF0E6
:1025B800FF30704795040000836C13B118460AF089
:1025C800FDBFC06C08B108F02FBF4FF0FF30704757
:1025D80070B59FED297B94B000224FF47A76284D90
:1025E8000446183104A88DF80C200095CDE9012681
:1025F8008DED127B0DF0F2FA129B002B2FD05C2090
:102608001BF07EFA1F490022064601601830019926
:1026180040F8142C40F80C1C1B4940F8101C029977
:1026280040F8081C9DF80C1000F8041C04A90DF0D3
:102638002BFA00224FF47A71B560B265626022739A
:10264800124AA16022607268266101327260104BE2
:1026580004A800930DF05EFA204614B070BD139BD9
:10266800002BCCD1094A237322602361C4E90136C7
:10267800EDE700BFAFF3008000000000000000009D
:102688003417002058170020C4190020081700200C
:10269800D0140020036D13B118460AF0A5BE406D92
:1026A80008B108F0F7BD4FF0FF307047836C00B5F4
:1026B80083B05BB101220DF1070118460AF094FEC0
:1026C80001280BD19DF8070003B000BDC06C28B1EC
:1026D80001220DF1070108F0DDFDF1E74FF0FF30B1
:1026E800F2E700BF036D33B11B7813F0700F14BF0E
:1026F800012000207047406D30B190F8313013F060
:10270800500F14BF01200020704700BF03693BB37E
:1027180018680021144A10B5846882B094428DF874
:10272800071014D1186D48B101220DF107010AF004
:102738005BFE90B19DF8070002B010BD586D0028EF
:10274800FAD001220DF1070108F0A4FDF1E70122FA
:102758000DF107011846A047EBE74FF0FF30EBE714
:102768004FF0FF30704700BF050600008A79A2F1DC
:1027780050031B0628D4D0F850C002F26C7230B552
:102788004B7985B091F804E001338C784D78DBB251
:102798000978BCF1000F0AD060460194CDF800E03A
:1027A800CDE9025104210BF013FC05B030BD406D9A
:1027B8000028FAD00194CDF800E0CDE902510421B7
:1027C80009F040FC05B030BD00207047836C13B1A0
:1027D80018460BF09BB8C06C08B109F0AFBA704747
:1027E800036D13B118460BF091B8406D08B109F0AC
:1027F800A5BA7047036D13B118460BF09DBC406D28
:1028080008B109F05DBD7047836C13B118460BF031
:1028180093BCC06C08B109F053BD704700B5836C18
:1028280083B08DF807103BB101220DF1070118465E
:102838000BF082FC03B000BDC06C0028FAD0012266
:102848000DF1070109F03CFD03B000BD836C53B1E5
:10285800187810F008000DD0D8695B69C01A48BF15
:102868006FF000407047C36CA3B193F8310010F0CB
:10287800080000D17047186919685A69401A5B68DE
:1028880062EB0303B0F1004F73F10003F2D36FF072
:10289800004070471846EDE7036D53B1187810F003
:1028A80008000DD0D8695B69C01A48BF6FF00040B6
:1028B8007047436DA3B193F8310010F0080000D1C0
:1028C8007047186919685A69401A5B6862EB030314
:1028D800B0F1004F73F10003F2D36FF0004070477E
:1028E8001846EDE70369CBB10D4810B51C68D4F85C
:1028F8000CE086450DD1186D18B1BDE810400BF0FD
:102908001BBC586D18B1BDE8104009F0D9BC0020B7
:1029180010BD18467346BDE81040184700207047A0
:102928006507000010B5104B0446806D82B0236027
:1029380018B11CF03FFF0023A365236D73B104F1A8
:102948001803184601930DF0E5F8019B074A18464D
:10295800A2600DF0DFF8204602B010BD636D002BB9
:10296800EDD104F11803F1E758170020D014002026
:1029780010B5124B0446806D82B0236018B11CF06C
:1029880019FF0023A365236D93B104F118031846BA
:1029980001930DF0BFF8019B094A1846A2600DF09B
:1029A800B9F820465C211BF0B1F8204602B010BDF2
:1029B800636D002BE9D104F11803EDE758170020E7
:1029C800D014002010B5029994469E4629B10129D9
:1029D8001ED002290FD0002010BD046D0CB34FF09B
:1029E800FF33934271EB0E03F5D320461146BDE841
:1029F80010400AF061BE036D23B3D96989184EF1FE
:102A08000002002AE7D11846BDE810400AF054BE7B
:102A1800036D6BB1596989184EF10002002ADAD1A9
:102A2800F1E7406D0028D6D0BDE8104008F012BD8F
:102A3800406D0028CFD0D0E900231CEB020243EB05
:102A48000E03F1E7406D0028C5D0D0E904231CEB44
:102A5800020243EB0E03BDE8104008F0FBBC00BFC8
:102A68003649034602690160002A50D0516801398D
:102A7800516000294BD1324810B5146884B0E46A1B
:102A880084424AD1906D40B10391CDE901231CF0F5
:102A980091FE019A0399029B9165116D002938D026
:102AA80002F1180001930DF035F8019B1A695AB329
:102AB80011682448496881423AD12349906D1160D0
:102AC80038B1CDE901231CF075FE0021019A029B63
:102AD8009165116D31B302F1180103930292084612
:102AE80001910DF017F80199DDE90223DFF85CC0C8
:102AF80008460293C2F808C001920DF00BF85C2159
:102B080001981BF003F8029B184604B010BD184644
:102B18007047516D0029C3D1C8E701931046A047FB
:102B2800019BC3E7516D0029D5D102F11801DDE7FA
:102B3800019310468847019BE6E700BF081700206D
:102B480045010000E108000058170020D0140020BB
:102B58002F4A036910B5044682B00260002B3FD0AB
:102B68005A68013A5A60002A3AD119682948C96A4C
:102B7800814240D1986D30B1CDE900321CF01AFE87
:102B8800DDE900329A651A6D002A30D003F1180089
:102B98000CF0C0FF23691BB31A681F4952688A42A8
:102BA80032D11E4A986D1A6028B100931CF002FEBB
:102BB8000022009B9A651A6D02B303F11802019373
:102BC800104600920CF0A6FFDDE9002314491046D8
:102BD800009399600CF09EFF5C2100981AF096FF14
:102BE800204614211AF092FF204602B010BD5A6DFB
:102BF800002ACBD1CEE718468847CBE75A6D002A82
:102C0800DBD103F11802E1E718469047E8E700BF77
:102C18000817002045010000E108000058170020AF
:102C2800D014002008B5FE21024808F0CDF9024B67
:102C3800187008BDE43F002001540020014B1878AB
:102C4800704700BF015400208A4B2DE9F0411F78DE
:102C580096B0002F00F095800124874E08E002937B
:102C68000AF03CFFE8B1013442F210739C4218D0DC
:102C78002346824A102182481EF0C6FBD6F88454A7
:102C88007F4A02A800232946002DE8D1D6F88814E7
:102C98002B467B4A02A821B10E9508F0CDFE0028EC
:102CA800E1D144F20223764A764902A80DF042F8AF
:102CB800149B002B00F094805C2000251AF020FF64
:102CC800039B714A0446C36006A9049B6F4E0361C7
:102CD8009DF81430C0E900256D4A183000F8043C0E
:102CE80040F8102C0CF0D0FE63686A4A06A801333D
:102CF800A565A2606360684B984602930CF00AFFD2
:102D08003569002D42D06B68013B6B60002B3DD1CB
:102D18002B68624ADB6A934240F09E80A86D18B126
:102D28001CF048FD0023AB652B6D002B00F08F8055
:102D380005F118000CF0EEFE356905B32B68584A0A
:102D48005B68934240F092804F4BA86D2B6018B19E
:102D58001CF030FD0023AB652B6D002B7FD005F1F7
:102D68001803184601930CF0D5FE019B1846C5F8C8
:102D780008800CF0CFFE5C2128461AF0C7FE3461AB
:102D88002CB90027384616B0BDE8F08134612368B5
:102D9800444A1B6B93423CD1236D002B35D03369D9
:102DA800BBB11A684049D4688C4244D1186D0028D8
:102DB8003AD007223D490BF0BFF933694BB11A6885
:102DC8003B4992698A423FD1186D002826D00AF003
:102DD8009DFD384B002238461A6016B0BDE8F081D8
:102DE800159C002C7FF468AF2B4B06A8274E9846FD
:102DF80002930CF08FFE3569002DC2D06B68013B41
:102E08006B60002B84D03461BBE7636D002BC6D1A7
:102E1800B7E7204698470028B3D0C0E7586D002888
:102E2800D7D008F08BFFD4E7586D48B107221F4967
:102E380009F046FAC1E7072218461C49A047BCE733
:102E480092691B498A42E9D018469047C1E76B6DE1
:102E5800002B7FF46DAF6FE7284698476CE76B6DE2
:102E6800002B7FF47CAF05F118037FE728469847CD
:102E780085E700BF01540020E43F0020A40800209B
:102E8800244F0020E83F002058170020A42F0020DE
:102E9800C419002034170020D01400204501000078
:102EA800E108000031010000650700005814002007
:102EB80051070000344F002000487047244F00207D
:102EC800F0B5A64D89B02B698DF80F10002B00F0D6
:102ED800D9801A680446A249126B8A4240F0C5801C
:102EE8001A6D002A00F0D180F6EE007A94ED407A4F
:102EF800F2EE045AD4ED416AD4F80C21B0EE676AB8
:102F080094F8FF10E0EEA57A079227EE257A8DF85F
:102F18001510A0EE256AFDEEE66ABDEEC77AFCEE56
:102F2800E77A16EE902A17EE101ABCEEC66A8DF8EC
:102F38001420ADF81A1017EE902A16EE101AADF8F4
:102F48001820ADF81610002B00F086801A68854E00
:102F5800D268B242174640F0F780186D002800F09A
:102F68009980042207A90BF0E7F82B69002B73D08E
:102F78001A68D268B242174640F01081186D0028CE
:102F880000F0D38002220DF116010BF0D5F82B6961
:102F9800002B61D01A68D268B242174640F0F88018
:102FA800186D002800F0B08001220DF10F010BF020
:102FB800C3F82B69002B4FD01A68D268B242174663
:102FC80040F0E180186D002800F0A780022206A9D1
:102FD8000BF0B2F82B69002B3ED01A68D268B242C7
:102FE800174640F0CA80186D002800F0848002223D
:102FF8000DF11A010BF0A0F82B69002B2CD01A68E0
:10300800D268B242174640F0B380186D00286AD0E3
:10301800012205A90BF090F82B69EBB11A68D26868
:10302800B242174640F08A80186D002852D001221B
:103038000DF115010BF080F82B699DF815205BB197
:103048001968C968B1420F4640F08380186D00289E
:1030580039D021460BF070F8434A136801331360E6
:103068001B0720D0012009B0F0BDCDED020A18469B
:103078008DED010A90479DED010ADDED020A002859
:1030880040F0A780002009B0F0BD5A6D002A7FF4F7
:103098002BAFF7E7586D00283FF470AF042207A95B
:1030A80009F00EF961E72B69002BDBD01A682F496C
:1030B80092698A4240F08F80186D002800F0828063
:1030C8000AF024FCCEE7586D0028C5D0214609F047
:1030D800F7F8C1E7586D002870D001220DF11501ED
:1030E80009F0EEF8A8E7586D002861D0012205A97B
:1030F80009F0E6F890E7586D002855D002220DF146
:103108001A0109F0DDF877E7586D002852D001223E
:103118000DF10F0109F0D4F84BE7586D002845D0A0
:10312800022206A909F0CCF854E7586D002843D0CC
:1031380002220DF1160109F0C3F828E7184601220A
:103148000DF11501B84777E71846042207A9B847D3
:103158000BE721461846B8477EE700BFA42F00209A
:103168003101000065070000344F002051070000BE
:103178001846012205A9B8474EE7184602220DF164
:103188001A01B84738E71846022206A9B84721E7C6
:10319800184601220DF10F01B8470AE71846022226
:1031A8000DF11601B847F2E62B6928E72B6914E7F9
:1031B8002B6933E72B69FFE62B69EBE69DF81520B1
:1031C8002B693DE7586D00283FF44CAF08F0B6FD79
:1031D80048E72B6988E61846904743E710B5534CF3
:1031E80082B0206900286CD0036851491A6B8A4262
:1031F80074D1026D002A69D09B694E4A93427ED1F0
:10320800036D002B72D018460AF080FB2369002B4F
:1032180057D01A684849D26A8A427AD1986D28B13B
:1032280000931CF0C7FA0022009B9A651A6D002AC9
:1032380061D003F118000CF06DFC22695368013B62
:103248005360002B3BD111683B48C96A814267D162
:10325800906D30B1CDE900231CF0ACFADDE9002314
:103268009365136D002B57D002F118000CF052FC37
:10327800236923B31A68314952688A4253D1304AC4
:10328800986D1A6028B100931CF094FA0022009BF4
:103298009A651A6D002A36D003F118020193104678
:1032A80000920CF037FCDDE9002326491046009314
:1032B80099600CF02FFC5C2100981AF027FC002381
:1032C8002361214B00221A7002B010BD426D002A02
:1032D800F7D09B69174A934292D010E09047002894
:1032E800EFD020690028ECD0036885E7406D40B135
:1032F80008F024FD8AE75A6D002A9AD19DE798477D
:1033080084E7236985E75A6D002AC5D103F11802BD
:10331800CBE71846904790E7536D002BA4D1A7E759
:1033280010468847A4E718469047C8E7A42F00200E
:10333800310100005107000045010000E1080000CC
:1033480058170020D0140020244F00208E4BF0B5D1
:103358001D7899B01DB90025284619B0F0BD024660
:1033680000238A4904A80CF0E5FC169B002B00F00A
:1033780023815C201AF0C4FB0023854A044608A96F
:10338800C0E90023059A183040F80C2C814A40F80F
:10339800102C069A40F8082C9DF81C2000F8042CE4
:1033A8000CF072FB002308A8A3656368013363600F
:1033B800794B04931E46794BA3600CF0ABFB784B1A
:1033C8001A692AB1516801395160002900F08880D2
:1033D8001C6122687349126B8A4240F00481226D95
:1033E800002A00F0CB801C69002CB4D022686E49FA
:1033F80090688842074640F01681206D002800F04A
:10340800FA8004A90722019309F0EEFF019B07281F
:1034180004D1664A0499914200F0F8801C69002C96
:1034280099D02268D26A62498A4240F01981A06D17
:1034380028B101931CF0BEF90022019BA265226D00
:10344800002A00F0018104F1180001930CF062FBDE
:10345800019B1D696C68013C6C60002C3DD12A6899
:103468005349D26A8A4240F00A81A86D20B101937B
:103478001CF0A0F9019BAC652A6D002A00F0FA80C7
:1034880005F1180001930CF045FB019B1C6924B35E
:103498002268484952688A4240F0FD803C4AA06D43
:1034A800226028B101931CF085F90022019BA265D6
:1034B800226D002A00F0E88004F1180501932846DF
:1034C8000CF028FB019B2846A66001930CF022FB18
:1034D8005C2120461AF01AFB019B00221A613AE788
:1034E80011683348C96A814240F0A980906D38B1AB
:1034F800CDE901231CF05EF90021019A029B916538
:10350800116D002900F0968002F1180001930CF06B
:1035180001FB019B1A69002A2BD0116825484968CC
:10352800814240F0A2801A49906D116038B1CDE90E
:1035380001231CF03FF90021019A029B9165116D4E
:10354800002900F0868002F11801039302920846D0
:1035580001910CF0DFFA0199DDE902230846966033
:10356800029301920CF0D6FA01985C211AF0CEFA77
:10357800029B1C61002C3FF4EEAE2AE7626D002A24
:103588007FF431AFE7E600BF01540020E83F002098
:1035980058170020C4190020D01400203417002028
:1035A800B82F002031010000050600004C504341AF
:1035B80045010000E1080000179C002C7FF4D9AEFB
:1035C800374B08A81E4604930CF0A4FA354B1A6929
:1035D800002A3FF4C0AE51680139516000293FF418
:1035E8007FAF1C61B7E6019320469047019B0028F6
:1035F8003FF4B1AEF7E6606D00283FF413AF04A9BD
:103608000722019307F046FE019B00E7BDF814105E
:1036180043F2501291427FF401AF9DF816200A2A16
:103628007FF4FCAE98E6019304A920460722B84728
:10363800019BECE6516D00297FF466AF6AE70193C0
:1036480010468847019B65E7626D002A7FF4FBAE50
:10365800FFE6516D00297FF476AF02F118017DE78E
:10366800019320469047019BF3E601931046884753
:10367800019B7EE76A6D002A7FF402AF06E701939B
:1036880028469047019B01E7626D002A7FF414AF3A
:1036980004F1180517E7019320469047019B1CE7A2
:1036A800D0140020B82F0020F0B52E4C85B0236927
:1036B800002B31D01A680D4606462B48116B814203
:1036C80025D1196D59B39268284917468A4232D1D3
:1036D800186D40B30D22694609F086FE0D281BD1EE
:1036E8009DF80C202A70BAB12369002B2ED01968D6
:1036F8008C681E498C422BD1186D08B3314609F0ED
:1037080073FE2B78181AB0FA80F0400905E01846C5
:10371800884708B1236913BB002005B0F0BD596D77
:103728000029D0D1F8E7586D0028F5D00D22694658
:1037380007F0B0FDD2E718460D226946B847CDE735
:10374800586D48B1314607F0A5FDDAE71846E4E7B9
:1037580031461846A047D4E74FF0FF30D1E71A6842
:10376800B1E700BFB82F00203101000005060000B6
:1037780010B5484C82B02369002B60D019684648C0
:103788000A6B824265D1186D00285AD0C96A434A2B
:1037980091426BD1986D28B100931CF00BF8002171
:1037A800009B9965196D00295CD003F118000CF095
:1037B800B1F921694B68013B4B60002B3DD108688A
:1037C800C26A364882425ED1886D30B1CDE90013B5
:1037D8001BF0F0FFDDE900138B650B6D002B4ED05D
:1037E80001F118000CF096F9236933B319682C48D5
:1037F800496881424AD12B49986D196028B10093D4
:103808001BF0D8FF0021009B9965196D002930D065
:1038180003F118010193084600910CF07BF9DDE9EA
:103828000013DFF884C008460093C3F808C00CF002
:1038380071F95C2100981AF069F90023236102B03C
:1038480010BD586D0028FAD0C96A144A9142A1D017
:103858000CE0184690470028F1D02369002BEED0E1
:10386800196893E7596D00299FD1A2E71846884740
:103878009FE7596D0029CBD103F11801D1E74B6DB2
:10388800002BADD1B0E708469047ADE7184688470A
:10389800D3E700BFB82F0020310100004501000028
:1038A800E108000058170020D01400200000000094
:1038B800044B2DE9F04F1E78A3B02EB9304623B043
:1038C800BDE8F08F01540020002302908A46A44AE4
:1038D800A4490EA80CF02EFA209B002B00F0FF82C2
:1038E8005C2000241AF00CF99F4B054612A90360CE
:1038F8000F9B4460C3609D4B9D4F8360109BDFF816
:103908008C9203619DF84430037500F11803184642
:1039180001930CF0B9F86B6812A8AC650133AF607D
:10392800CDF838906B600CF0F5F82B6891491A6B5C
:103938008A4240F007832A6D002A00F0B581DB6BCC
:103948008D4A934240F0058300224FF47A7401991E
:1039580012A80E970F928DF8442010949FED7E7B4D
:103968008DED207B0CF03AF9209B002B00F00983A9
:103978005C2000261AF0C4F87B4B044646600360BE
:1039880012A97A4B183040F8103C0F9B40F80C3CB9
:10399800109B40F8083C9DF8443000F8043C0CF0BB
:1039A80073F86368A7600133A665059663604FF4F2
:1039B8007A738DF81C600693704B0894049312A8D0
:1039C800CDF838900CF0A6F80898002800F0C982C5
:1039D8000026DFF8BC81AB460368664A1B6B93423E
:1039E80040F02082036D002B00F09C81B245089CBA
:1039F80040F38C82002C66D02368614A5B6B93424B
:103A080040F01E82A36D002B00F0418225685D49BD
:103A1800AA6B8A4240F02782226D002A00F0DB81DF
:103A2800127812F0700F00F04B82EB6A434540F0B9
:103A3800F681A06D18B11BF0BDFE0023A365236DB0
:103A4800002B00F0C38104F118000CF063F8089D06
:103A58006C68013C6C60002C33D12B68DB6A4345F1
:103A680040F04782A86D10B11BF0A4FEAC652B6D29
:103A7800002B00F02F8205F118000CF04BF8089C81
:103A8800FCB12368404A5B68934240F04482364B5D
:103A9800A06D236018B11BF08DFE0023A365236D74
:103AA80004F11805002B00F02C8228460CF032F89F
:103AB8002846C4F808900CF02DF820465C211AF02E
:103AC80025F800230893DBF800302B4ADB6B934280
:103AD80040F0D88100224FF47A74019912A80E9709
:103AE8000F928DF8442010949FED1B7B8DED207B69
:103AF8000CF074F8209B002B00F05C815C20002502
:103B080019F0FEFF184B04464560036012A9174BD5
:103B1800183040F8103C0F9B40F80C3C109B40F8C4
:103B2800083C9DF8443000F8043C0BF0ADFF636896
:103B3800A7600133A5650A9563604FF47A738DF821
:103B480030500B930D4B0D94099312A8CDF8389073
:103B58000BF0E0FF1EE000BF0000000000000000C6
:103B6800A00A0020E83F002058170020C4190020B0
:103B7800341700203101000041050000081700201B
:103B88002902000055060000E1080000D0140020BA
:103B980045010000089C002C38D06568013D65602F
:103BA800002D33D12368DB6A434540F0B181A06D15
:103BB80010B11BF0FFFDA565236D002B00F09C8163
:103BC80004F118000BF0A6FF089CFCB12368974A83
:103BD8005B68934240F0B381954BA06D236018B1A8
:103BE8001BF0E8FD0023A365236D04F11805002BE5
:103BF80000F0A08128460BF08DFF2846C4F80890F5
:103C08000BF088FF20465C2119F080FF0D98089082
:103C180000287FF4E1AE5D462B68DB6A434540F03F
:103C2800C181A86D18B11BF0C5FD0023AB652B6DD4
:103C3800002B00F0B28101980BF06CFF6C68013C1E
:103C48006C60002C7FF43AAE2B68DB6A434540F089
:103C5800BC81A86D10B11BF0ADFDAC652B6D002BC0
:103C680000F0858101980BF055FF2B686F4A5B685F
:103C7800934240F0B5816E4BA86D2B6018B11BF0D4
:103C880099FD0023AB652B6D002B00F0A1810198F5
:103C98000BF040FF0198C5F808900BF03BFF5C2142
:103CA800284619F033FF09E66A6D002A7FF447AE0B
:103CB8006C68013C6C60002C2FD12B685D4ADB6A74
:103CC800934240F07781A86D10B11BF073FDAC658D
:103CD8002B6D002B00F0698101980BF01BFF2B68FE
:103CE800524A5B68934240F06D81514BA86D2B603E
:103CF80018B11BF05FFD0023AB652B6D002B00F0A6
:103D08005C8101980BF006FF0198C5F808900BF04C
:103D180001FF5C21284619F0F9FE0026304623B041
:103D2800BDE8F08F436D002B7FF460AE5D46089CC4
:103D3800414B0493002C3FF46FAF6768013F676005
:103D4800002F7FF469AF2368DB6A434540F0458163
:103D5800A06D10B11BF02EFDA765236D002B00F0A0
:103D68000B8104F118000BF0D5FE089C002C3FF4E1
:103D780053AF23682D4A5B68934240F039812C4B3E
:103D8800A06D236018B11BF015FD0023A365236DFA
:103D980004F11807002B00F0268138460BF0BAFE14
:103DA8003846C4F808900BF0B5FE20465C2119F09F
:103DB800ADFE31E7219B002B7FF4A0AE8DF83030AB
:103DC8000D93CDE90A341C4B0993BEE6636D002BB5
:103DD8007FF439AE3BE6626D2AB192F8312012F0D9
:103DE800500F7FF422AE18460422144903931DF0A5
:103DF8002BFD039B00287FF418AE1946029B0F2267
:103E080003EB061001361DF05BFD0022C273002C87
:103E18003FF459AE2568EB6A43453FF40AAE2046A5
:103E2800984714E69847002880D0DFE5E1080000AD
:103E3800581700204501000008170020B40800208A
:103E480020469847089C0346002C7FF4DFAD0422E7
:103E58006A49184603931DF0F7FC00287FF433AE37
:103E6800089C039BC9E7204603939047089C0028B9
:103E7800CDD10422614903981DF0E6FC039B00287C
:103E8800C5D1BAE70022594609A8984782E64FF4F7
:103E9800807003931BF086FC0146A065002800F0A3
:103EA800AA80039B0370206D002837D04FF48072DE
:103EB8000BF084FAA36D089C002C7FF4A7ADC6E72D
:103EC800184604224D4903931DF0BEFC039B0028AD
:103ED800A0D192E76B6D002B7FF4CDADCFE5219B90
:103EE800002B7FF4FDAC464B12A80E930BF012FE8C
:103EF80013E728469847C2E5636D002B7FF460AE50
:103F080062E6636D002B7FF4D0ADD1E55D460FE727
:103F18002046984758E620469847D2E5606D20B37A
:103F28004FF4807208F08AFEA36D089C002C7FF481
:103F38006DAD8CE7636D002B7FF45CAE5DE62046CB
:103F4800984763E62846904700283FF4B1AE2B68AF
:103F5800F5E404A8002229469847089800287FF429
:103F680037AD0646DFF8A48056E6A36D4EE56B6DC7
:103F7800002B7FF477AE78E6636D002B7FF4F1AE0B
:103F8800F3E6219B002B7FF4F3AC8DF81C300893EB
:103F9800CDE905341B4B049311E56B6D002B7FF4C1
:103FA8004AAE4BE62846984748E66B6D002B7FF4EF
:103FB80093AE94E62846984791E66B6D002B7FF404
:103FC800A0AEA1E628469847A7E6284698474CE6BB
:103FD8006B6D002B7FF45BAE5CE620469847C4E629
:103FE800284698476AE4636D002B7FF4D6AED7E67F
:103FF8002046984710E6044BA36507E5B40800205F
:10400800D0140020081700200454002045010000A7
:10401800064A0749074808B51BF0B6FB034A044996
:104028000548BDE808401BF0AFBB00BFD82F0020F3
:10403800D1090000A42F0020B82F002010B5054C8E
:104048000548217881F0010121700FF0C9FE207820
:1040580010BD00BFFB530020A449002005230922FE
:104068000A21014812F0FABEA449002008B501212E
:10407800062019F041FB9FED0F0A062019F0DCFE1F
:10408800FF21062019F074FE00234FF4A072F021DE
:10409800094812F0B1FF0321074812F07BFD074BD6
:1040A800054819780FF09CFE00210348BDE8084038
:1040B8000FF086BE00409C46A4490020FB53002018
:1040C80010B54FF4A07386B0002216210446264886
:1040D800CDE9001311460FF091FC4FF4A0724FF494
:1040E800FC61214810F0ECF802221F48114610F03C
:1040F800DBF80023032204211B4810F079F83CB1B7
:1041080020461DF065FD21460246174812F00AFCBC
:1041180005F0E0FFB7EEC00A0C21144A8DED000B44
:104128000DEB01001DF070F94FF4A0724FF4BC6163
:104138000D4810F0C5F803A81DF04AFD0023A0EBB8
:10414800800103220848890001F59E7109B210F028
:104158004FF803A81DF03CFD03A90246024812F0DF
:10416800E1FB06B010BD00BFA4490020BC08002038
:1041780070B506460D461A48002114460FF020FE79
:104188003046FFF79DFF02221548114610F08CF8C3
:1041980000224FF4BC61124810F092F86DB13C2235
:1041A800062100230E4810F023F828461DF010FDC4
:1041B800294602460A4812F0B5FB7CB15A2206216C
:1041C8000023074810F014F820461DF001FD214691
:1041D80002460348BDE8704012F0A4BB70BD00BFA2
:1041E800A44900202DE9F0413D4C8AB04FF0B808B1
:1041F80002AB05AD02AF05AE94E807000C3403C36B
:104208001A800FCC0FC523680024002135482B6085
:104218000FF0D6FD37F8025B3F23002221B2314868
:10422800CDE900850FF0EAFB01222E48114610F077
:104238003BF84FF6FF7200212A4810F041F8A11C04
:1042480028480023BC2209B20FF0D2FF56F8045BBD
:10425800284635B11DF0BCFC29460246214812F01B
:1042680061FB4034A4B2B4F5A07FD3D102221D482B
:10427800114610F019F800224FF4FC61194810F0AB
:104288001FF80023C822042116480FF0B1FF0E22A0
:104298001549144812F046FB01221248114610F045
:1042A80003F800224FF6FF710E4810F009F80023BA
:1042B800E42204210B480FF09BFF0C4B1B783BB109
:1042C80009220B4907480AB0BDE8F04112F02ABBA1
:1042D8000A22084903480AB0BDE8F04112F022BB9F
:1042E80098030020A4490020DC080020FB5300208C
:1042F800C4080020D00800202DE9F04F834695B06F
:10430800002956D102225048DFF850914FF000089A
:10431800114622244D4E0FF0C7FF25E00027CDE9B6
:1043280000570FF06BFB3A464FF4BC6146480FF05C
:10433800C7FF0E213B4622B243480FF059FF3146D2
:104348000222414812F0EEFA59F8045F284635B1C6
:104358001DF03EFC294602463B4812F0E3FA1A34A7
:1043680008F10108D82C21D0E21EC3454FF01805EA
:104378004FF4A07334484FF0000112B2CED1182385
:104388004FF44875CDE900354FF4A0730FF036FBB4
:104398002A464AF6E5712C480FF092FF0E2122B208
:1043A800002329480FF024FF2949C9E715B0BDE8C3
:1043B800F08F00214FF4487423480FF001FD254881
:1043C800FFF77EFE4FF4A0730094DC2200211E4804
:1043D8000FF024FA01221C4811460FF065FF214610
:1043E800002219480FF06CFF0023E222042116482E
:1043F8000FF0FEFE05F092FE05F09CFE054605F066
:104408006FFE044605F072FEB7EEC00A8DED060B8E
:1044180005F072FE064605F075FE2B460E4A302161
:1044280000949DED060BCDE9046008A88DED020B04
:104438001CF0EAFF08A81DF0CBFB08A902460248B9
:1044480012F070FA5EE700BFA4490020F0080020CF
:10445800EC080020F4080020FC0800204408002094
:104468002DE9F04305460F4690462DED088BB0EE3A
:1044780040AA83B0F0EE60AA002B40F0E180012250
:10448800002473480A2611460FF00EFF00224FF44D
:10449800BC616F480FF014FF2C23D52206216C480D
:1044A800CDE900640FF0AAFA2346D5220621684810
:1044B8000FF09EFEB7EECA0A0121654818F078FB96
:1044C8002C23D5224FF48A716148CDE900640FF09E
:1044D80095FA2346D5224FF48C715D480FF088FE7B
:1044E80007EE907AB0EE4A0A0121B8EEE78A5848FA
:1044F800A8EE2A0AB7EEC00A18F05AFBB0234FF408
:10450800487206215248CDE900324FF49A732222AC
:104518000FF042FEAE23232207214D48CDE9003497
:104528004FF499730FF06AFAA7424CDD4FF499766D
:10453800013D9FED48BA4AF6E579DFED479A9FEDD0
:10454800479ADFED478A96FBF7F6022EB8BF022698
:10455800013E36B215F9013F07EE904AA0450CBF5F
:104568004A464FF4FC62013406EE903AF8EEE77AD8
:1045780001923346F8EEE66A354887EE887A76EE99
:10458800A96AC6EE897A27EE0B7ABDEEC77A17EECE
:10459800101A67EEA87A073109B2FDEEE77A17EE2E
:1045A80090CABCF1AE0FA8BF4FF0AE0C2CEAEC7C61
:1045B800CCF1D1020FFA8CFC12B2CDF800C00FF08A
:1045C8001DFAA742C6D100240A21BE23D5222048BD
:1045D800CDE900145A210FF011FAA04504DA03B00E
:1045E800BDEC088BBDE8F0830122194811460FF095
:1045F8005BFE22464AF6E57115480FF061FE234638
:10460800D5225A2112480FF0F3FD0522154910480A
:1046180012F088F907EE908A02210D48F8EEE77A41
:10462800A7EEAAAAB7EECA0A18F0C2FA03220E49E0
:10463800074803B0BDEC088BBDE8F04312F072B92F
:10464800002103480FF0BCFB0848FFF739FD16E7C7
:10465800A449002000009943000000430000C44220
:1046680000002E43240900202C0900201C090020EA
:104678002DE9F041054684B00E469046002B5FD1E7
:1046880002224948002411460FF00EFE1023222270
:1046980048214548CDE90034F8230FF0AFF9224608
:1046A8004FF4FC6140480FF00BFE234622224821BC
:1046B8003D480FF09DFD234629460A223A4818F046
:1046C80067FA8E224FF4A07321463748CDE90024BB
:1046D8004E220FF093F90122334811460FF0E4FD02
:1046E80022464FF4BC6130480FF0EAFDB8F1000FE4
:1046F80023D0013E5027062516F8013F04212B4AF6
:1047080003A81CF081FE002329B227483AB21235CB
:104718000FF06EFD03A81DF05BFA03A902462248BC
:10472800013412F0FFF8B5F5977FE4B201DD0C37DC
:104738000625A04501D9402CDED104B0BDE8F081A2
:10474800002119480FF03CFB1948FFF7B9FC022279
:10475800154811460FF0A8FD00224FF44871124881
:104768000FF0AEFD0023222206210F480FF040FD76
:10477800052210490C4812F0D5F801220A481146C2
:104788000FF092FD00224FF4487107480FF098FD92
:1047980000234022062104480FF02AFD0D22064975
:1047A800014812F0BFF86BE7A44900205009002027
:1047B80030090020380900204009002070B506465D
:1047C80082B0002947D1022200241025474811460B
:1047D8000FF06AFDF023562206214448CDE9005423
:1047E8000FF00CF922464FF4BC6140480FF068FD09
:1047F8002346562206213D480FF0FAFC05F082FCBC
:1048080001463A4818F090F90D223949374812F014
:1048180089F8782370226C213448CDE900540FF0D0
:10482800EDF822464FF4BC6130480FF049FD2346AD
:1048380070226C212D480FF0DBFC314623460A22FA
:104848002A4818F0A5F901222A49284802B0BDE8EB
:10485800704012F067B8002124480FF0B1FA2648DA
:10486800FFF72EFC0322214811460FF01DFD002200
:104878004FF478411D480FF023FD002328221E2104
:104888001A480FF0B5FC05221C49184812F04AF8DE
:104898000222164811460FF007FD00224FF4487116
:1048A80012480FF00DFD0023702206210F480FF06B
:1048B8009FFC082212490D4812F034F801220B48D7
:1048C80011460FF0F1FC00224FF4784107480FF031
:1048D800F7FC0023CE22062104480FF089FC1122A0
:1048E8000849024812F01EF86DE700BFA4490020ED
:1048F8008409002094090020580900205C09002040
:10490800640900207009002030B5054683B01ABB41
:1049180002223848002411460FF0C6FC1021F82363
:104928005E223448CDE9001448210FF067F822468A
:104938004FF4FC612F480FF0C3FC23465E22482148
:104948002C480FF055FC23460A222946294803B073
:10495800BDE8304018F01CB90C46264800210FF07D
:104968002FFA2548FFF7ACFB0222224811460FF028
:104978009BFC00224FF4FC611E480FF0A1FC0023B1
:10498800222206211B480FF033FC0D221B4919482F
:1049980011F0C8FF00224FF4BC6116480FF090FCDC
:1049A8000222144811460FF07FFC00233E22062104
:1049B80010480FF01DFCCCB120461DF009F9024645
:1049C80021460C4811F0AEFF00235E22062109485B
:1049D8000FF00EFC00224FF4487106480FF070FCEF
:1049E80005220749034811F09DFF91E70122054C74
:1049F800E6E700BFA44900209C090020A409002084
:104A0800B4090020980900202DE9F04F8046A3B092
:104A18000E46002A40F0C680714D02AC4FF0000AE5
:104A28004FF016090FCD0FC495E8070084E807007A
:104A380005F050FBB7EEC00A6A4A0E2109A802AD7C
:104A48001E248DED000B1CF0DFFC05F067FB05F064
:104A580071FB654A03460E210DF132001CF0D4FCAF
:104A680005F03EFB614A03460E2110A81CF0CCFC61
:104A780005F03CFBB7EEC00A5D4A0E210DF14E0071
:104A88008DED000B1CF0C0FC05F036FB574A0346C1
:104A98000E2117A81CF0B8FC05F034FB534A034656
:104AA8000E210DF16A001CF0AFFC3346514A0E216D
:104AB8001EA81CF0A9FC02224F4811460FF0F4FB77
:104AC8003DE00027CDE900970EF098FF3A464FF4F5
:104AD800487149480FF0F4FB47483B4632460621E7
:104AE8000FF086FBD5F800B05846BBF1000F06D092
:104AF8001DF06EF8594602463F4811F013FF002298
:104B08004FF4BC613C481A340FF0DAFB3246B4214A
:104B180000233948CAEBCA060FF06AFB09AB0AF151
:104B2800010A043503EB460630461DF051F83146BC
:104B38000246314811F0F6FEBAF1070F2FD0A21E37
:104B4800D0454FF4A0734FF0000112B22A4826B2A4
:104B5800B7D14FF4487BCDF80090CDF804B00EF0F3
:104B68004DFF5A464AF6E57123480FF0A9FB00238A
:104B78003246062120480FF03BFBD5F800B0BBF1C8
:104B8800000F07D058461DF023F8594602461A4828
:104B980011F0C8FE4FF448724AF6E571B2E723B047
:104BA800BDE8F08F002114480FF00AF91348FFF709
:104BB80087FA0122104811460FF076FB00224FF4C5
:104BC80048710D480FF07CFB0023E42206210A48B7
:104BD8000FF00EFB1F220A49074811F0A3FE1BE73E
:104BE800B8030020E4090020EC090020F0090020A7
:104BF800F4090020FC090020A4490020BC09002079
:104C0800C409002070B50D4682B0164623BB0222A7
:104C18004C48002411460FF047FB1022F823482186
:104C28004848CDE9002442220EF0E8FE22464FF41F
:104C3800FC6144480FF044FB234642224821414886
:104C48000FF0D6FA23460A2229463E4817F0A0FF5D
:104C5800002E36D102B070BD0021044639480FF04D
:104C6800AFF83948FFF72CFA0222364811460FF000
:104C78001BFB00224FF4BC6132480FF021FB0023DC
:104C8800222206212F480FF0B3FA002C56D02046D6
:104C98001CF09EFF024621462A4811F043FE0023DD
:104CA8004222062127480FF0A3FA00224FF4487148
:104CB80024480FF005FB05222449224811F032FE52
:104CC800A5E7032222491F4811F02CFE234631464E
:104CD8000A221C4817F05CFF4FF448710E224FF46B
:104CE8009A731848CDE90021622206210FF054FA80
:104CF80007EE905A9FED176A0C23F8EE676A07EEE5
:104D0800906A00934AF6E570F8EE677A632201909C
:104D180007210C4886EEA77A67EE067AFDEEE77A59
:104D280017EE903AB3F5997FA8BF4FF4997323EA29
:104D3800E3731BB20EF062FE02B070BD0122064C96
:104D4800A9E700BFA4490020040A00203809002070
:104D58000C0A002000009943980900202DE9F0432F
:104D680000248BB0984612234FF4487706460D4628
:104D7800594821469146DE22CDE900344FF4A0730C
:104D88000EF03CFE4FF4A073DD22214652480097F6
:104D98000EF044FD0122504811460FF085FAA04557
:104DA80040F3898009F101034C4A1C2103A8CDF87E
:104DB80000801CF029FB3946224647480FF080FA4C
:104DC8002346E022022144480FF012FA03A81CF0FF
:104DD800FFFE03A90246404811F0A4FD03A81CF0F9
:104DE800F7FE02234FF006024AF6E57110FB023780
:104DF800224639480FF064FA2346E02239B2364891
:104E08000FF0F6F93EB130461CF0E2FE314602469C
:104E1800314811F087FD012231492F4811F082FDF8
:104E280030461CF0D5FE013000224FF4FC6100EB47
:104E3800400007EB400428480FF042FA0023E11C29
:104E4800E022254809B20FF0D3F93DB128461CF0FD
:104E5800BFFE29460246204811F064FD129B0BB1A3
:104E68001B7813B90BB0BDE8F083129B18211D4ABB
:104E780003A81CF0C9FA03A81CF0AAFE04460022E5
:104E88004FF4FC6114480FF01BFA002304EB4401B3
:104E9800E02211484900C1F59F7109B20FF0A8F945
:104EA80003A81CF095FE03A902460B4811F03AFD31
:104EB8000BB0BDE8F0832246394607480FF000FAE8
:104EC8002346E022022104480FF092F90B220649FA
:104ED800014811F027FDC1E7A4490020100A00206D
:104EE8004C090020240A0020180A00202DE9F0436C
:104EF800994607460E4690462DED028BB0EE408A45
:104F080085B0002B40F01181022200241025A3480F
:104F180011460FF0C9F9F2231C224E219F48CDE912
:104F280000540EF06BFD22464FF4FC619B480FF0D5
:104F3800C7F923461C224E2198480FF059F92346F9
:104F48000A223946954817F023FEE02332226021D1
:104F58009248CDE900540EF051FD22464FF4FC6111
:104F68008E480FF0ADF93222234660218B480FF0AE
:104F78003FF92146B7EEC80A884817F019FE0422FF
:104F88008749864811F0CEFC5EB1B8F1000F08D011
:104F9800844B1A68BA4225D105B0BDEC028BBDE836
:104FA800F083B8F1010FF7D0B9F1000FF4D0022265
:104FB8007A4811460FF078F90023542206217748E1
:104FC8000FF016F900224FF4487174480FF078F981
:104FD8000C227549714805B0BDEC028BBDE8F04361
:104FE80011F0A0BC942148226C4801941F604FF432
:104FF800A073009121460EF001FD02226748114678
:105008000FF052F923464A22062164480FF0F0F8BF
:1050180022464FF4FC6161480FF052F905226349BA
:105028005E4811F07FFC96ED400A21465B48B7EEDA
:10503800C00A17F0BDFD04225949584811F072FC06
:1050480023466022062155480FF0D2F822464FF435
:10505800BC6152480FF034F9052255494F4811F008
:1050680061FC96ED410A01214C48B7EEC00A17F0E1
:105078009FFD03224F49494811F054FC23467622EC
:10508800062146480FF0B4F822464FF448714348C9
:105098000FF016F904224849404811F043FC0A224F
:1050A800234696F8FF103D4817F072FD96F8102138
:1050B800002A67D00122394811460FF0F5F800227E
:1050C8004FF4BC6135480FF0FBF896F8FF30002B21
:1050D8003FF462AF00248C27062502E0302B3FF412
:1050E8005BAF335D0421354A03A81CF08DF900231A
:1050F80029B22A483AB212350FF07AF803A81CF000
:1051080067FD03A90246254811F00CFC0134B5F5EA
:10511800977FE3B204DD0C370625D22F3FF73CAF6B
:1051280096F8FF209A42D9D836E700211B480EF09E
:1051380047FE2348FEF7C4FF0222184811460FF025
:10514800B3F800224FF4487114480FF0B9F800235F
:105158001C22062111480FF04BF8052219490F4867
:1051680011F0E0FB0023322206210C480FF040F832
:1051780006221549094811F0D5FB0A4B4FF0FF32BA
:105188001A60C1E64FF4784104480FF099F80622F6
:105198000E49024811F0C6FB8CE700BFA449002065
:1051A8003C0A0020CC2F0020680A0020440A002076
:1051B8004C0A0020540A0020580A002050090020F8
:1051C8002C0A0020B4090020340A0020600A0020BC
:1051D8002DE9F04FC5B006460DF1E00A03AC1E21DB
:1051E8006FF0170018F00AF844F8040F5445F6D188
:1051F80000214E480EF0E4FD01224C4811460FF004
:1052080053F84B4BD3F800801B68A3EB08039E426E
:1052180050D94FF0000B03AD0027CDE9028612E00C
:10522800B8F1EF0F4DD9EF2E7CD9B8F5987F2C60E7
:1052380005DD00216FF0170017F0E0FF28605545E5
:1052480007F106071DD055F8044FE6000134A6F112
:105258005002A6F10808EF2AE2D808230FFA87F9C6
:1052680012B23248009349460623CDF804B00EF036
:10527800C5FBB8F1EF0F26DD554507F106072C6091
:10528800E1D12C4B2C4859682C4B1A6840F6AC538A
:10529800A0FB0202920CDDE9028603FB02F2254B19
:1052A8005B685B1A9A42FAD8214B1B68A3EB080388
:1052B800B342B0D300211D4845B0BDE8F04F0EF011
:1052C8007FBD0FFA87F900224FF4487117480EF096
:1052D800F7FF00230FFA88F2494614480EF088FFBA
:1052E8005E2017F053FF00F121011048C9B211F0F8
:1052F80019FCEF2EC0D800224AF6E5710B480EF0D3
:10530800DFFF494632B2002308480EF071FF5E20E5
:1053180017F03CFF00F121010448C9B211F002FC6A
:105328002C608CE70FFA87F9E5E700BFA449002055
:10533800C4530020001000E083DE1B43942D00209E
:1053480000220449044808B517F00CF9034B002261
:105358001A8008BD40420F00982E0020E05300201C
:105368002DE9F84305468D4E8D4F8E4817F018F8F5
:1053780003468C48002B51D017F062F840F25622B1
:10538800C0B20D2818BF0A280CBF4FF001084FF013
:10539800000833D13C78002C47D13388002BE4D067
:1053A800002281488149C4542C706C60AA60A5F819
:1053B8000B4134801CF0BAFA064678B320467C4983
:1053C8001CF0B4FA044600285AD00378092B01D0FF
:1053D800202B05D114F8013F202BFBD0092BF9D045
:1053E800744930461CF00CFA20BB012320462B7070
:1053F8001AF0D4F968604046BDE8F8833388012183
:10540800694C934203EB01020DD8E05465483280A1
:1054180016F0C6FF03466348002BADD14FF00008D5
:105428004046BDE8F88339709FE700235B4A3B702C
:1054380013809AE7604930461CF0E2F9B8B15F4939
:1054480030461CF0DDF9A0B15D4930461CF0D8F9B2
:10545800002840F00D81042320462B701AF09AF999
:10546800B7EEC00B404685ED020ABDE8F88302237B
:10547800F2E7032320462B701AF090F96860BAE728
:105488004C4930461CF0BCF981464C4930461CF06A
:10549800B7F90746B9F1000F4CD1C8B148493046B1
:1054A8001CF0AEF958B1474930461CF0A9F930B1A3
:1054B800454930461CF0A4F9002840F005814349CD
:1054C80030461CF09DF90028A8D108232B7092E7DC
:1054D8003B4930461CF094F90028F0D03949304651
:1054E8001CF08EF90028EAD0374930461CF088F9BC
:1054F8000028E4D0364930461CF082F90028DED076
:10550800344930461CF07CF90028D8D0324930465E
:105518001CF076F9002CD2D00028D0D1072317220E
:10552800214605F586702B701CF0CAF9002385F812
:10553800233160E7204930461CF062F9002840F02A
:10554800A380002FC4D01E4930461CF059F900280A
:10555800B5D01C4930461CF053F90028AFD01A4981
:1055680030461CF04DF90028A9D0194930461CF0E6
:1055780047F90028A3D0174930461CF041F90146E5
:105588000028C3D1002C9AD006232B702378002B37
:1055980000F0AD8005F10C0646E000BFE0530020A6
:1055A80003540020982E0020B84A0020DC0A00206E
:1055B8008C110020E40A0020B41000208C0A00207E
:1055C800D0100020EC0A0020F00A0020080B002070
:1055D800F80A0020000B0020040A0020A3F1610053
:1055E800C0B205283CD9A3F14100C0B205283BD977
:1055F8000023A2F13000C0B2092823D9A2F161002A
:10560800C0B2052829D9A2F13700A2F1410743EA1F
:105618000002F8B2D2B2052898BF1346735401317C
:10562800A378C9B2B3B1023462789AB1FF2911D014
:10563800202B09D0A3F13000C0B20928CED8000130
:10564800C3B2D6E70343E9E7A0781346013402461C
:105658000028EDD185F80B11CDE6573A1343DDE765
:10566800573B1B01DBB2C4E7373B1B01DBB2C0E78A
:10567800204930461CF0C4F8B8B9052320462B70E1
:105688001AF08CF86860B6E6002F3FF421AF1A498B
:1056980030461CF0B5F800283FF411AF15493046E4
:1056A8001CF0AEF800283FF40AAF144930461CF04D
:1056B800A7F848B9002C3FF402AF0A2320462B7004
:1056C8001AF06CF8686096E60D4930461CF098F8B8
:1056D800014600287FF44FAF002C3FF4F0AE0923B9
:1056E800204610222B701BF089FD686083E619465E
:1056F800B0E700BFEC0A0020D0100020F00A00201C
:10570800F80A002010B5044604220949094817F090
:10571800E3F93CB120461CF05BFA214602460548F5
:1057280017F0DAF90348BDE8104017F009BA00BFCE
:10573800100B0020982E002010B5044604220949B9
:10574800094817F0C9F93CB120461CF041FA214636
:105758000246054817F0C0F90348BDE8104017F0A5
:10576800EFB900BF180B0020982E002030B52DEDA2
:10577800028B83B004220D4604462A49B0EE608AA3
:1057880029488DED001A8DED010A17F0A5F99DED58
:10579800010A03212448B7EEC00A17F009FA2021AC
:1057A800214817F0B3F8B7EEC80A01211E4817F0D0
:1057B800FFF920211C4817F0A9F89DED001A0121D6
:1057C8001948B7EEC10A17F0F3F92021164817F067
:1057D8009DF8294600230A22134817F0D9F92021F9
:1057E800114817F093F89DB1254406E000231022D4
:1057F8000D4817F0CDF9AC420AD014F8011B0F2957
:10580800F4D83021084817F081F814F8011CEDE7A6
:105818000A21054803B0BDEC028BBDE8304017F003
:1058280075B800BF200B0020982E002000B52DED84
:10583800028B83B004221149B0EE608A10488DEDC6
:10584800010A17F049F99DED010A03210C48B7EE4A
:10585800C00A17F0ADF92021094817F057F8B7EE3C
:10586800C80A0121064817F0A3F90A21044803B021
:10587800BDEC028B5DF804EB17F048B8280B00204C
:10588800982E002070B506460D461446214904227C
:1058980021482DED028B82B0B0EE608A8DED010AB1
:1058A80017F01AF900230A2231461B4817F070F93D
:1058B8002021194817F02AF89DED010A03211648FE
:1058C800B7EEC00A17F074F92021134817F01EF834
:1058D80000230A222946104817F05AF920210E48B9
:1058E80017F014F8B7EEC80A01210B4817F060F951
:1058F8002021094817F00AF82146074817F014F93B
:105908000A21054802B0BDEC028BBDE8704016F0D4
:10591800FDBF00BF300B0020982E0020013806285C
:105928004ED8DFE800F00C12223E2D3504004FF06F
:105938000A0C0023244881F800C01360704709232B
:105948000B700023214813607047092300B583B00A
:105958000B700192FDF7B0FA0378019A002B29D059
:105968001B4B1C48136003B000BD1B4B08201B7861
:105978000870012B19480CBF194B1A4B136070475C
:105988004FF0040C184B194881F800C01360704799
:10599800174B0C201B78087073B1114B1548136016
:1059A8007047154B02201B7808703BB1134B144805
:1059B80013607047134BD4E7134BEFE7134BF6E72D
:1059C80000230B70BDE700BFF4060020E4060020AA
:1059D800380B002030080020075400200007002062
:1059E800080B0020640B00206C0B0020F006002040
:1059F800F6530020D8060020EB530020500B00205F
:105A0800D4060020440B0020600B0020580B002017
:105A180010B5044624482DED028B82B004F098F9A5
:105A280050B92249224A0B6810681B1AFA2B1BD856
:105A380002B0BDEC028B10BD01211E4A1E4B19702D
:105A480013680B44136004F045FB174B93F8FF10E1
:105A5800184693ED411AD3ED400AFFF787FE8CB93B
:105A6800164B01221A70DCE70B68136004F064FA25
:105A780013490122114B81ED000A1A7002B0BDECE6
:105A8800028B10BD04F026FBB0EE408A04F028FB20
:105A9800019004F02BFB0199F0EE400A0248B0EEA9
:105AA800480AFDF70DFADBE7C4460020C45300207E
:105AB80020500020C8450020EA530020B3340020BD
:105AC800F82E00201E4A1378012B00D070471D497C
:105AD80009780029FAD01C491C4809680068091A85
:105AE8001B4800688142F1D300B5C5B00DF10F0124
:105AF80004A80093FDF7D8FD009B78B9CDE90030E4
:105B0800FDF736FE009BDFF854C012490C4A019895
:105B18008CF8003010700B7045B000BD9DF80F1068
:105B280004A804F06BF90C49074B0A681868074B7E
:105B3800013218600948009B0A600370ECE700BF57
:105B480007540020F7530020C4530020CC45002000
:105B5800902F0020B134002068490020B334002081
:105B680010B5164C207817F0B5FD011E637818BFE4
:105B78000121134A9942D2F800C00BD06268ACEBFD
:105B88000202192A06D9C4F804C0617088B92072C3
:105B9800002010BD002BFBD1237A002BF8D16368BD
:105BA800ACEB030CBCF5FA7FF2D30123022023727D
:105BB80010BD207A80F0010010BD00BF6C2F0020BE
:105BC800C453002038B5134C2378022B15D0042B6E
:105BD80018D0032B1BD0104A0025104B0220117837
:105BE8001D7018F0C5F801230D490E4A25700B7079
:105BF8001370BDE8384004F08BB8FDF7EFFA23784E
:105C0800042BE6D104F074F92378032BE3D1FDF7D4
:105C1800AFFDE0E7F1530020EE530020F4530020DD
:105C2800B3340020B134002000B583B018F0F6FA80
:105C3800284A2949137881ED000A83B9DFED277ACC
:105C4800B4EEE70AF1EE10FA36DA254A1178254A59
:105C58000220137003B05DF804EB18F089B8DFED8B
:105C6800227A1F4BB4EEE70A1978F1EE10FA09D43C
:105C78009FED1E7AB4EEC70AF1EE10FA06DBFF219B
:105C88000B46E4E7002003461070E0E730EE670AB1
:105C98009FED177AB3EE0B6ADFED167AC0EE066A4F
:105CA800E6EE877AFCEEE77ACDED017A9DF80430CE
:105CB800994238BF1946CAE7FF214FF0010C094B3A
:105CC800022082F800C0197003B05DF804EB18F0E8
:105CD8004FB800BFF25300206449002000005C4226
:105CE800F4530020EE53002000004C4200009C4278
:105CF800000011430000DC42F8B50122434D444E38
:105D080000232A70441E3270424A434F1370434A9C
:105D1800387002201360424A1360424A1370424BA3
:105D2800197818F025F8052C11D8DFE804F02611A9
:105D38000332362A00233D483D4A18213D4C036072
:105D48003D4823701360FDF7B3FD3C4B1860F8BD68
:105D5800FCF774FF18B1FCF777FF002843D1384AE5
:105D680038493948FEF704FA4FF4966017F010FCEA
:105D78000123002233702B703A70BDE8F84003F01D
:105D8800C7BF002331483249324A03700B60137091
:105D9800F8BD314B00221A70F8BD402280212F48EF
:105DA8001BF0EAFC2E4B2F4993ED007AD1ED007AD7
:105DB8002D4A37EE677A2D4BD2ED006A4FF0FF324D
:105DC800C7EE267A1A60FDEEE77A17EE903A002BB6
:105DD80005DD402B16DD264B40221A60F8BD244B0A
:105DE80001221A60F8BD03F093FF0F4B0D4A022001
:105DF80019788C239942137038BF1946BDE8F840CA
:105E080017F0B6BF1A4AC2ED007AF8BDB3340020C5
:105E1800B1340020EA530020F1530020C845002087
:105E2800DC470020F4530020EE5300207049002086
:105E38006849002007540020E4470020E04700207C
:105E4800740B0020980B00209C090020F6530020BA
:105E5800BC450020F5530020EB5300208446002069
:105E68008C2F0020FC2E0020942F0020842F00204F
:105E7800882F002030B5CDB003AC2046FFF770FA6C
:105E8800B0B12378013B092B0DD8DFE803F01A05E0
:105E9800253649515E71771394ED020A03F050FEDE
:105EA8004148FFF749FC01234049414A0B701370F0
:105EB8004DB030BD207903F0D9FE3E48FFF73CFCD9
:105EC800F1E76068431E062BEDD8C0B2FFF714FF58
:105ED8003948FFF731FCE6E7247904F007F98DED3E
:105EE800010A04F009F99DED010A0146204603F074
:105EF80051FE3248FFF720FCD5E704F0F1F894EDA5
:105F0800020A05468DED010A04F0F6F89DED010A36
:105F18000146284603F03EFE2948FFF70DFCC2E77C
:105F280094F9040003F0B8FE2648FFF705FCBAE729
:105F3800254B1B787BB394F80B1106A803F05EFF82
:105F480068B32248FFF7DEFBADE70320FFF7D4FE76
:105F580046A8FDF7FBF9D0B11D48012400231D49CF
:105F68001D4A04701D480B601360FFF7E5FB9AE7B4
:105F7800FFF728FE1A48FFF7DFFB94E72079194B53
:105F8800187003F099FE1848FFF7D6FB8BE71748FF
:105F9800FFF7B8FB87E71648FFF7B4FB83E7154818
:105FA800FFF7CAFB7FE700BFB4100020B33400201E
:105FB800B1340020F00A0020E40A00208C0A0020F6
:105FC800D0100020EC0A0020F75300205C0B0020C2
:105FD8000754002068490020CC450020040A00200E
:105FE800080B0020B2340020F80A0020AC0B002077
:105FF800A40B0020000B00201D4BD3F8D8201068FC
:106008009168006810B40842137C546814BF0121D9
:10601800002103F00303D4F800C0D06843EA8103E9
:106028001CEA000F43F0080118BF0B469908013B12
:1060380011740D2B0BD8DFE803F0110C070C0A16AE
:106048001111160A0C070C1153690233536110BC65
:1060580070475369013B10BC536170475369013362
:1060680010BC536170475369023B10BC53617047C1
:10607800384F00201D4BD3F8D42010689168006871
:1060880010B40842137C546814BF0121002103F0A6
:106098000303D4F800C0D06843EA81031CEA000F68
:1060A80043F0080118BF0B469908013B11740D2BEA
:1060B8000BD8DFE803F0110C070C0A161111160AA9
:1060C8000C070C1153690233536110BC70475369B4
:1060D800013B10BC536170475369013310BC5361D5
:1060E80070475369023B10BC53617047384F00201A
:1060F8001D4BD3F8D02010689168006810B408428E
:10610800137C546814BF0121002103F00303D4F861
:1061180000C0D06843EA81031CEA000F43F008017D
:1061280018BF0B469908013B11740D2B0BD8DFE8FB
:1061380003F0110C070C0A161111160A0C070C11A2
:1061480053690233536110BC70475369013B10BC5B
:10615800536170475369013310BC536170475369E9
:10616800023B10BC53617047384F00201D4BD3F8D9
:10617800CC2010689168006810B40842137C5468F9
:1061880014BF0121002103F00303D4F800C0D06834
:1061980043EA81031CEA000F43F0080118BF0B46CD
:1061A8009908013B11740D2B0BD8DFE803F0110C93
:1061B800070C0A161111160A0C070C115369023341
:1061C800536110BC70475369013B10BC5361704761
:1061D8005369013310BC536170475369023B10BCCB
:1061E80053617047384F00201D4BD3F8C820106802
:1061F8009168006810B40842137C546814BF0121E8
:10620800002103F00303D4F800C0D06843EA8103F7
:106218001CEA000F43F0080118BF0B469908013B20
:1062280011740D2B0BD8DFE803F0110C070C0A16BC
:106238001111160A0C070C1153690233536110BC73
:1062480070475369013B10BC536170475369013370
:1062580010BC536170475369023B10BC53617047CF
:10626800384F00201D4BD3F8C4201068916800688F
:1062780010B40842137C546814BF0121002103F0B4
:106288000303D4F800C0D06843EA81031CEA000F76
:1062980043F0080118BF0B469908013B11740D2BF8
:1062A8000BD8DFE803F0110C070C0A161111160AB7
:1062B8000C070C1153690233536110BC70475369C2
:1062C800013B10BC536170475369013310BC5361E3
:1062D80070475369023B10BC53617047384F002028
:1062E8001D4BD3F8C02010689168006810B40842AC
:1062F800137C546814BF0121002103F00303D4F870
:1063080000C0D06843EA81031CEA000F43F008018B
:1063180018BF0B469908013B11740D2B0BD8DFE809
:1063280003F0110C070C0A161111160A0C070C11B0
:1063380053690233536110BC70475369013B10BC69
:10634800536170475369013310BC536170475369F7
:10635800023B10BC53617047384F00201D4BD3F8E7
:10636800BC2010689168006810B40842137C546817
:1063780014BF0121002103F00303D4F800C0D06842
:1063880043EA81031CEA000F43F0080118BF0B46DB
:106398009908013B11740D2B0BD8DFE803F0110CA1
:1063A800070C0A161111160A0C070C11536902334F
:1063B800536110BC70475369013B10BC536170476F
:1063C8005369013310BC536170475369023B10BCD9
:1063D80053617047384F00201D4BD3F8B820106820
:1063E8009168006810B40842137C546814BF0121F6
:1063F800002103F00303D4F800C0D06843EA810306
:106408001CEA000F43F0080118BF0B469908013B2E
:1064180011740D2B0BD8DFE803F0110C070C0A16CA
:106428001111160A0C070C1153690233536110BC81
:1064380070475369013B10BC53617047536901337E
:1064480010BC536170475369023B10BC53617047DD
:10645800384F00201D4BD3F8B420106891680068AD
:1064680010B40842137C546814BF0121002103F0C2
:106478000303D4F800C0D06843EA81031CEA000F84
:1064880043F0080118BF0B469908013B11740D2B06
:106498000BD8DFE803F0110C070C0A161111160AC5
:1064A8000C070C1153690233536110BC70475369D0
:1064B800013B10BC536170475369013310BC5361F1
:1064C80070475369023B10BC53617047384F002036
:1064D8001D4BD3F8B02010689168006810B40842CA
:1064E800137C546814BF0121002103F00303D4F87E
:1064F80000C0D06843EA81031CEA000F43F008019A
:1065080018BF0B469908013B11740D2B0BD8DFE817
:1065180003F0110C070C0A161111160A0C070C11BE
:1065280053690233536110BC70475369013B10BC77
:10653800536170475369013310BC53617047536905
:10654800023B10BC53617047384F00201D4BD3F8F5
:10655800AC2010689168006810B40842137C546835
:1065680014BF0121002103F00303D4F800C0D06850
:1065780043EA81031CEA000F43F0080118BF0B46E9
:106588009908013B11740D2B0BD8DFE803F0110CAF
:10659800070C0A161111160A0C070C11536902335D
:1065A800536110BC70475369013B10BC536170477D
:1065B8005369013310BC536170475369023B10BCE7
:1065C80053617047384F00201D4BD3F8A82010683E
:1065D8009168006810B40842137C546814BF012104
:1065E800002103F00303D4F800C0D06843EA810314
:1065F8001CEA000F43F0080118BF0B469908013B3D
:1066080011740D2B0BD8DFE803F0110C070C0A16D8
:106618001111160A0C070C1153690233536110BC8F
:1066280070475369013B10BC53617047536901338C
:1066380010BC536170475369023B10BC53617047EB
:10664800384F00201D4BD3F8A420106891680068CB
:1066580010B40842137C546814BF0121002103F0D0
:106668000303D4F800C0D06843EA81031CEA000F92
:1066780043F0080118BF0B469908013B11740D2B14
:106688000BD8DFE803F0110C070C0A161111160AD3
:106698000C070C1153690233536110BC70475369DE
:1066A800013B10BC536170475369013310BC5361FF
:1066B80070475369023B10BC53617047384F002044
:1066C8001D4BD3F8A02010689168006810B40842E8
:1066D800137C546814BF0121002103F00303D4F88C
:1066E80000C0D06843EA81031CEA000F43F00801A8
:1066F80018BF0B469908013B11740D2B0BD8DFE826
:1067080003F0110C070C0A161111160A0C070C11CC
:1067180053690233536110BC70475369013B10BC85
:10672800536170475369013310BC53617047536913
:10673800023B10BC53617047384F00201D4BD3F803
:106748009C2010689168006810B40842137C546853
:1067580014BF0121002103F00303D4F800C0D0685E
:1067680043EA81031CEA000F43F0080118BF0B46F7
:106778009908013B11740D2B0BD8DFE803F0110CBD
:10678800070C0A161111160A0C070C11536902336B
:10679800536110BC70475369013B10BC536170478B
:1067A8005369013310BC536170475369023B10BCF5
:1067B80053617047384F00201D4BD3F8982010685C
:1067C8009168006810B40842137C546814BF012112
:1067D800002103F00303D4F800C0D06843EA810322
:1067E8001CEA000F43F0080118BF0B469908013B4B
:1067F80011740D2B0BD8DFE803F0110C070C0A16E7
:106808001111160A0C070C1153690233536110BC9D
:1068180070475369013B10BC53617047536901339A
:1068280010BC536170475369023B10BC53617047F9
:10683800384F00201D4BD3F89420106891680068E9
:1068480010B40842137C546814BF0121002103F0DE
:106858000303D4F800C0D06843EA81031CEA000FA0
:1068680043F0080118BF0B469908013B11740D2B22
:106878000BD8DFE803F0110C070C0A161111160AE1
:106888000C070C1153690233536110BC70475369EC
:10689800013B10BC536170475369013310BC53610D
:1068A80070475369023B10BC53617047384F002052
:1068B8001D4BD3F8902010689168006810B4084206
:1068C800137C546814BF0121002103F00303D4F89A
:1068D80000C0D06843EA81031CEA000F43F00801B6
:1068E80018BF0B469908013B11740D2B0BD8DFE834
:1068F80003F0110C070C0A161111160A0C070C11DB
:1069080053690233536110BC70475369013B10BC93
:10691800536170475369013310BC53617047536921
:10692800023B10BC53617047384F00201D4BD3F811
:106938008C2010689168006810B40842137C546871
:1069480014BF0121002103F00303D4F800C0D0686C
:1069580043EA81031CEA000F43F0080118BF0B4605
:106968009908013B11740D2B0BD8DFE803F0110CCB
:10697800070C0A161111160A0C070C115369023379
:10698800536110BC70475369013B10BC5361704799
:106998005369013310BC536170475369023B10BC03
:1069A80053617047384F00201D4BD3F8882010687A
:1069B8009168006810B40842137C546814BF012120
:1069C800002103F00303D4F800C0D06843EA810330
:1069D8001CEA000F43F0080118BF0B469908013B59
:1069E80011740D2B0BD8DFE803F0110C070C0A16F5
:1069F8001111160A0C070C1153690233536110BCAC
:106A080070475369013B10BC5361704753690133A8
:106A180010BC536170475369023B10BC5361704707
:106A2800384F00201D4BD3F8842010689168006807
:106A380010B40842137C546814BF0121002103F0EC
:106A48000303D4F800C0D06843EA81031CEA000FAE
:106A580043F0080118BF0B469908013B11740D2B30
:106A68000BD8DFE803F0110C070C0A161111160AEF
:106A78000C070C1153690233536110BC70475369FA
:106A8800013B10BC536170475369013310BC53611B
:106A980070475369023B10BC53617047384F002060
:106AA8001D4BD3F8802010689168006810B4084224
:106AB800137C546814BF0121002103F00303D4F8A8
:106AC80000C0D06843EA81031CEA000F43F00801C4
:106AD80018BF0B469908013B11740D2B0BD8DFE842
:106AE80003F0110C070C0A161111160A0C070C11E9
:106AF80053690233536110BC70475369013B10BCA2
:106B0800536170475369013310BC5361704753692F
:106B1800023B10BC53617047384F00201D4BDA6FA1
:106B280010689168006810B40842137C546814BF58
:106B38000121002103F00303D4F800C0D06843EA20
:106B480081031CEA000F43F0080118BF0B4699089F
:106B5800013B11740D2B0BD8DFE803F0110C070C67
:106B68000A161111160A0C070C11536902335361E6
:106B780010BC70475369013B10BC5361704753699F
:106B8800013310BC536170475369023B10BC536119
:106B9800704700BF384F00201D4B9A6F10689168EE
:106BA800006810B40842137C546814BF0121002106
:106BB80003F00303D4F800C0D06843EA81031CEA59
:106BC800000F43F0080118BF0B469908013B1174E8
:106BD8000D2B0BD8DFE803F0110C070C0A16111166
:106BE800160A0C070C1153690233536110BC704725
:106BF8005369013B10BC536170475369013310BCA2
:106C0800536170475369023B10BC5361704700BF22
:106C1800384F00201D4B5A6F10689168006810B4F7
:106C28000842137C546814BF0121002103F00303B8
:106C3800D4F800C0D06843EA81031CEA000F43F08F
