:0200000460009A
:100000004643464200000156000000000101020084
:1000100000000000000000000000000000000000E0
:1000200000000000000000000000000000000000D0
:1000300000000000000000000000000000000000C0
:1000400000000000010406010000000000000000A4
:100050000000800000000000000000000000000020
:100060000000000000000000000000000000000090
:100070000000000000000000000000000000000080
:10008000EB04180AFF1E04320126000000000000E5
:100090000000000000000000000000000000000060
:1000A0000000000000000000000000000000000050
:1000B0000000000000000000000000000000000040
:1000C0000000000000000000000000000000000030
:1000D0000000000000000000000000000000000020
:1000E0000000000000000000000000000000000010
:1000F0000000000000000000000000000000000000
:1001000000000000000000000000000000000000EF
:1001100000000000000000000000000000000000DF
:1001200000000000000000000000000000000000CF
:1001300000000000000000000000000000000000BF
:1001400000000000000000000000000000000000AF
:10015000000000000000000000000000000000009F
:10016000000000000000000000000000000000008F
:10017000000000000000000000000000000000007F
:10018000000000000000000000000000000000006F
:10019000000000000000000000000000000000005F
:1001A000000000000000000000000000000000004F
:1001B000000000000000000000000000000000003F
:1001C000000100000010000001000000000000001D
:1001D000000001000000000000000000000000001E
:1001E000000000000000000000000000000000000F
:1001F00000000000000000000000000000000000FF
:10020000FFFFFFFFFFFFFFFFFFFFFFFFFFFFFFFFFE
:10021000FFFFFFFFFFFFFFFFFFFFFFFFFFFFFFFFEE
:10100000D1002043F1150060000000000000000046
:10101000201000600010006000C4026000000000AA
:101020000000006000D0020000000000FFFFFFFF92
:10103000FFFFFFFFFFFFFFFFFFFFFFFFFFFFFFFFC0
:10104000FFFFFFFFFFFFFFFFFFFFFFFFFFFFFFFFB0
:10105000FFFFFFFFFFFFFFFFFFFFFFFFFFFFFFFFA0
:10106000FFFFFFFFFFFFFFFFFFFFFFFFFFFFFFFF90
:10140000824205D051F8043B40F8043B8242F9D8AF
:10141000704700BF044A05494FF0000342F8043BFF
:101420009142FBD8704700BFC03E002060570020AB
:1014300008B5BFF34F8F00F047F9544C544B0820C8
:101440005449C3F85401544AC3F800115348C3F82F
:10145000F0405349FFF7D4FF524A53495348FFF72E
:10146000CFFF534CFFF7D6FF4FF470004FF0E02151
:101470000023504AC1F8880D44F823200133B02BD3
:10148000FAD14D4B80214D4A03F8011B9342FBD109
:101490004FF0E0254A4E4B4A4FF0FF31C5F8084D5A
:1014A000D5F8243D43F4E023C5F8243DF36923F047
:1014B0007F0343F04003F361736A23F07F0343F03B
:1014C000400373629166D1661167516700F004F9B9
:1014D0003D4A3E4BA2636322E36300246A61032317
:1014E0003B4AAC612B61C5F8202DD5F8FC2D394B5A
:1014F00042F080723849C5F8FC2D1A6842F00102AA
:101500001A605B680B6000F0B7FA344800F06CFCBE
:10151000F16E334B334A41F44051F1661C60C3F81D
:101520000841C3F81841C3F82841C3F83841936B08
:10153000DB0708D442F615632B4951651365936B9D
:1015400043F001039363274A284C936843F0011347
:10155000936000F04FF900F0FBFB00F029FC00F075
:10156000BDFA00F0B3F82368132BFCD900F052FB4E
:101570002368B3F5967FFBD300F0ACF800F0A8F831
:1015800000F026FC00F01CFC30BFFDE70C0D111331
:1015900000800D401B10182038620200000000007F
:1015A00098200060C03E0020D4820260000000202D
:1015B000003C002095BC010000E400E0A0E400E055
:1015C00000C00F4000C00A40B99F0100BD9F01004C
:1015D00000002020001000E0E05600200046C32359
:1015E0000040084000400D400000C056E456002076
:1015F000054B4FF42A01054A05485A641864054A08
:1016000099639546FFF714FF00C00A40FFABAAAAF2
:101610000700200000800520294A00210123C2F88C
:10162000A000C2F8A410C2F8B0305369D907FCD5A5
:1016300001234FF4803C22495361C2F8A000C2F854
:10164000A4C0C2F8B0304B69DB07FCD501234FF4CE
:10165000003C1B4A4B61C1F8A000C1F8A4C0C1F80E
:10166000B0305369D907FCD50123DFF858C01449BD
:101670005361C2F8A000C2F8A4C0C2F8B0304B69F0
:10168000DB07FCD5D1F8003145F60D504FF0210CA9
:101690009AB2C1F814C0824210D045F69D518A42D8
:1016A0000AD1C3F34253032B08D0A3F10403B3FAC6
:1016B00083F35B09180170470020704708207047CA
:1016C00000402A4004000300704700BF704700BF7D
:1016D000704700BF00BF70474FF0E02300214FF07C
:1016E000100C3448C3F8941DC3F89CCD4FF0110C76
:1016F000C3F8A00D3048C3F89CCD4FF0120CC3F8CE
:10170000A00D2E48C3F89CCD2D4AC3F8A00DDFF8DC
:10171000D0C042F015022B48C3F89CCDC3F8A00DF1
:10172000DFF8C0C02848C3F89CCDC3F8A00DDFF88F
:10173000B8C0C3F89C2D2548254AC3F8A0CDC3F8EE
:101740009C0DC3F8A02D02F5A022DFF8A0C00C323A
:101750002048C3F89CCDC3F8A02D1F4AC3F89C0DA8
:10176000C3F8A02D02F14062DFF884C002321B48AA
:10177000C3F89CCDC3F8A02D0A32C3F89C0DC3F862
:10178000A02D00BF00BF00BF00BF00BF0122C3F8F3
:10179000942DBFF34F8FBFF36F8FC3F8501FBFF36C
:1017A0004F8FBFF36F8FD3F8142D42F44032C3F83C
:1017B000142D70473F000010250008070900100095
:1017C0006057002021000207250008131600202082
:1017D00027000B13180000602F000B071A00008071
:1017E0001300200014000020090000101700004022
:1017F0001900007030B5864B85B0DFF874E218220E
:10180000844D0120C3F85CE28349C3F86052A5F51A
:101810008055DFF860C2814CC3F864E2C3F86852B7
:101820002125C3F86CC2C3F870C2C3F874C2C3F8F0
:1018300078C248F20C7CDA661A675A679A67DA67E8
:10184000C3F88020C3F88420C3F88820C1F82C0393
:10185000734AC1F83003C1F83403C1F83803C1F842
:101860003C03C1F85003A1696E4B0A406E486F49B2
:1018700013436F4AA361D4F8843043F00C03C4F8D7
:1018800084304FF0FF34036843F0020303600368C1
:1018900003EA0C031A43674B026044608A68664C93
:1018A0001340664A43F000538360C36823F0780313
:1018B000C360036A23401A43604B0262026A2240FB
:1018C0005F4C1343002243628462C46240F20564A9
:1018D000D1F8B83023F03F0343F00103C0F8B8302B
:1018E000D1F8BC30574923F03F0343F00103C0F85F
:1018F000BC3002610567C0F880404567C0F884408D
:101900000224036823F00203036081614E4B4F49B8
:10191000C46143F8042B8B42FBD1434C236843F052
:1019200001032360256815F00105FBD1454802221B
:1019300040F2F561A06140F29940E26140F26642F6
:10194000C4F8001242F20141C4F81022404AC4F81F
:101950002002C4F8302240F23542C4F834123D4827
:10196000C4F840223C4AC4F850022846C4F8542225
:1019700042F201223949C4F86012C4F86422FFF728
:101980004BFE0246002839D0810201234FF480200B
:1019900021662549C4F8A050C4F8A400C4F8B030AA
:1019A0004B69D807FCD515050124039228464C61E4
:1019B000FFF732FE039A2A4B0244D2B21A7080B16A
:1019C000194980024FF4802348660846C1F8A050A8
:1019D000C1F8A430C1F8B0404369DB07FCD501234E
:1019E000436120490024204801230094401A00EB61
:1019F00002521E4800F0F0F905B030BD1B4B1849EB
:101A000018600870D860C3E9010005B030BD00BFA0
:101A100000801F40F910010000841F4000C00F40EB
:101A2000FFFCFF1F0003008000402A4000802A4086
:101A30001200FFFFFF37F70000FFF07C400000803E
:101A4000FF000F83F05AF05A00422A4000432A4018
:101A50009F041830EB06180A063201263806180AC9
:101A60002157002000000070000000706C5600201C
:101A7000F9B00100F970010010B5174A4FF4805415
:101A80004FF4005E4FF4404C4FF4803043F242017B
:101A9000136913F0020F0DD113F4005F0FD013F48C
:101AA000805F0FD0002BF3DA13F4803F0CD15B067C
:101AB0000ED510BDC2F818C050619161E8E7C2F8B8
:101AC00014E0E5E75461E3E74FF480339361DFE727
:101AD00040235361DCE700BF00800D40414A0320F2
:101AE0004149F3EE095AD2F880309FED406A23F065
:101AF00001039FED3F5ADFF814C100B5C2F88030F2
:101B0000C2F89000D1F8E010DFF804E1CBB2394818
:101B1000CEF8003007EE903A0B0DC1F30B21F8EE32
:101B2000E77A06EE903A07EE101A334BB8EEC77A12
:101B3000CCF80010F8EEE66A304937EEC66A37EEA8
:101B4000C55A76EEC76A77EEE57A26EE266AC3EDC9
:101B5000006A25EE265AD2F8803067EEA64AC0ED1C
:101B6000007AC6EE275A264885EE276AC4EEA76A91
:101B700075EE875AFCEEE55A36EE076A15EE90CA06
:101B8000BCEEC66A43EA0C5376EE877AC2F8803020
:101B900016EE103AD2F890C1FCEEE77A01EA034162
:101BA00041EA0C014FF0000C17EE903AC2F8901188
:101BB000C3F30B03D2F890110B431249C2F89031D2
:101BC000D2F8803043F00203C2F880300E4B80F828
:101BD00040C0C1F840314FF0E0230122C3F8082192
:101BE00000BD00BF00810D4000441F400000AA421C
:101BF0000000B442D4560020D85600200000FF0F49
:101C000000E400E0003C002079BE0100CC5600203A
:101C1000D0560020314B40F6617210B5C3F8202138
:101C200040F2044400F0D0F82D4A2E49D2F880301A
:101C30002D4843F00303C2F880302C4BC1F86041BB
:101C400002681A4203D1D1F8A8319A071BD0254A5D
:101C50004FF00041244B5963D2F8403143F0020366
:101C6000C2F84031D2F840319B07FBD44FF400302A
:101C70004FF0E0211C4B4FF00042C1F88C021920BC
:101C80009A6300F0ADF8184B0021164C4FF08042DB
:101C90000A209A634FF420721960C4F8A80114480E
:101CA00000F08AF84FF4800203464FF4810040F2BE
:101CB00043111860C4F858311A640E4B0E4AC4F828
:101CC0004811C3F804224FF0E0224FF40031012301
:101CD000C2F80C11C4F8403110BD00BF00800D40A7
:101CE00000C00F4000002E4000900D40001C1E0060
:101CF00000000020003C00207DC0010008B50E4B14
:101D00001B6E9B0700D4FBBE72B60C4B00200C4A26
:101D1000C3F8400103F160430A49A3F55F2311644E
:101D20009D46BFF34F8F4FF40013074A0748DB6906
:101D300002609B68984700BF00441F4000002E408F
:101D400000C00A4003002000000012EB00802020A9
:101D50000F4B40F2376C0F4AA020D96E41F440314E
:101D6000D966D96E41F44071D966C2F844C0906416
:101D7000936C1B06FCD4084A40F23761A0235164DF
:101D80009364936C13F08003FBD1044A1370704783
:101D900000C00F4000400C4000800C402057002045
:101DA000F8B500BFF8BC08BC9E46704700000000B4
:101DB0005FF800F07DBB01005FF800F0D9F301008F
:101DC0005FF800F01DB601005FF800F0E9C7010000
:101DD0005FF800F0EDF601005FF800F069D3010054
:101DE0005FF800F0F1B101005FF800F0DDAE010036
:101DF00005010000E11E00002D1F0000FD70000025
:101E0000E97F0000B18E00002D4801001D84010013
:0C1E10006D9C0100C9AD0100EDD2010085
:101E1C006CC00F40030000000E0D0000C1800000DC
:101E2C002A3600001400000013000000010000001E
:101E3C00F4841F402B32000014000000130000003B
:101E4C0001000000F8841F402D3100001400000038
:101E5C001300000001000000F0841F402CFFFF0065
:101E6C001400000000000000000000000100000051
:101E7C0000000000EC841F40000000000000000087
:101E8C006CC00F4030000000100F0000C18000003B
:101E9C0001270000170000001200000000010000E4
:101EAC0014851F401AFF0000120000000000000003
:101EBC000100000018851F401BFF000012000000ED
:101ECC00000000000100000010851F400026FF00EC
:101EDC0017000000120000000000000001010000CB
:101EEC00010000000C851F400C851F400000000005
:101EFC006CC00F40C0000000504F000095810000E6
:101F0C000CFF0000130000000000000000000000A7
:101F1C0024851F400BFF0000130000000000000090
:101F2C000000000028851F400DFF0000130000007A
:101F3C00000000000000000020851F400A2524003E
:101F4C001300000012000000120000000102030048
:101F5C000000000000000000000000000000000075
:101F6C00090180961180FF3A81550A3601082A042E
:101F7C00000000F02B040000014021800A13800AAD
:101F8C002980FF0016035500530042002000530027
:101F9C0065007200690061006C00000018035400B9
:101FAC00650065006E0073007900640075006900BF
:101FBC006E006F000403090409026200030100C0F3
:101FCC0032080B00020202010009040000010202A7
:101FDC00010005240010010524010101042402065E
:101FEC0005240600010705820310001009040100F6
:101FFC00020A0000000705030240000007058402E6
:10200C004000000904020002FF6AFF00070581027C
:10201C0040000107050102400001000009026200B6
:10202C00030100C032080B00020202010009040087
:10203C000001020201000524001001052401010128
:10204C00042402060524060001070582031000057E
:10205C0009040100020A0000000705030200020047
:10206C00070584020002000904020002FF6AC7008F
:10207C0007058102000201070501020002010000B0
:0C208C000A060002EF0201400100000003
:102098000000000000000000000000000000000038
:1020A8000000000000000000000000000000000028
:1020B800F8B54FF084439D695A6915400DD0254FF6
:1020C80001269D6195FAA5F4B4FA84F457F82430F2
:1020D80006FA04F49847A543F4D11F4B9D695A6941
:1020E80015400DD01D4F01269D6195FAA5F4B4FA4F
:1020F80084F457F8243006FA04F49847A543F4D139
:10210800174B9D695A6915400DD0164F01269D61E0
:1021180095FAA5F4B4FA84F457F8243006FA04F4CE
:102128009847A543F4D1104B9D695A6915400DD0C5
:102138000E4F01269D6195FAA5F4B4FA84F457F878
:10214800243006FA04F49847A543F4D1BFF34F8F1F
:10215800F8BD00BF7C36002000400042FC3600205D
:10216800008000427C37002000C00042FC3700207D
:102178000548064B1B1AD90F01EBA301491002D0E1
:10218800034B03B118477047C03E0020C03E0020F3
:102198000000000008B5054B1BB105490548AFF321
:1021A8000080BDE80840FFF7E3BF00BF0000000063
:1021B8007C56002000D0026000207047704700BFA6
:1021C800036D0BB101207047406DC01A18BF012084
:1021D800704700BF0346806D80B100B583B001939E
:1021E8001DF060F90022019B9A651A6D62B103F136
:1021F800180003B05DF804EB0DF0C4BB1A6D42B1D2
:1022080003F118000DF0BEBB5A6D002AEFD103B0E0
:1022180000BD5A6D002AF3D1704700BF10B5046D98
:102228006CB10BB1002010BD114620460BF07CF9B3
:102238000028F7D02046BDE810400BF077BE446D6B
:10224800002CEFD0204609F03DF80028EAD02046BF
:10225800BDE8104009F0F8BE8A79A2F150031B06C8
:1022680028D4D0F850C002F26C7230B54B7985B0E2
:1022780091F804E001338C784D78DBB20978BCF131
:10228800000F0AD060460194CDF800E0CDE9025174
:1022980002210BF0D5FD05B030BD406D0028FAD005
:1022A8000194CDF800E0CDE90251022109F002FEC7
:1022B80005B030BD00207047816D09B108467047F0
:1022C80000B583B001904FF480701DF0E3F8019BD6
:1022D80001469865B8B10022186D0A7040B14FF4F4
:1022E80080720CF0A3FF019B996D084603B000BDF6
:1022F800586D0028F9D04FF4807201930AF0D6FB8C
:10230800019B996DF1E7024A11469A65EDE700BF16
:102318001F5700200246006D0B4600B585B040B33C
:1023280001910DF10E0203A90BF068FD019B58B352
:10233800BDF80C20BDF80E1052EA010024D0C1F3FC
:10234800451E01F01F00C90AC2F3431C400083F870
:1023580001E09970510A0CF1FF3C02F01F0201F5EF
:10236800EA611870012083F805C01A71997105B0E7
:1023780000BD506D40B10DF10E0203A9019308F0A4
:102388004FFE019B0028D3D1002005B000BD00BF3F
:102398000246006D0B4600B585B040B301910DF1C2
:1023A8000E0203A90BF008FD019B58B3BDF80C20E1
:1023B800BDF80E1052EA010024D0C1F3451E01F009
:1023C8001F00C90AC2F3431C400083F801E099705A
:1023D800510A0CF1FF3C02F01F0201F5EA61187086
:1023E800012083F805C01A71997105B000BD506DC0
:1023F80040B10DF10E0203A9019308F0FFFD019B06
:102408000028D3D1002005B000BD00BF10B5036976
:1024180082B08DF80710C3B11968114AC968914292
:102428000C4615D1186D30B101220DF107010BF0E2
:10243800BBFD02B010BD586D0028FAD001220DF185
:10244800070109F075FE02B010BD184602B010BDB4
:1024580001220DF107011846A04702B010BD00BFC8
:1024680065070000036963B11A68074992698A42DF
:1024780008D1186D08B10BF081B9586D08B109F091
:1024880095BB70471846104751070000006990B186
:102498000368154A1B69934225D1036D63B1187807
:1024A80010F0080007D0D8695B69C01A48BF6FF000
:1024B8000040704718467047436D002BFAD093F8D8
:1024C800310010F00800F6D0186919685A69401AE6
:1024D8005B6862EB0303B0F1004F73F10003EAD3CA
:1024E8006FF000407047184709080000036D13B1EA
:1024F800586900217047436D13B1D3E90001704753
:1025080018461946704700BF036D13B1D8690021FA
:102518007047436D13B1D3E9040170471846194653
:10252800704700BF036D13B118460AF07FBF406DB6
:1025380008B108F0B1BE4FF0FF307047026D82B1AC
:10254800137813F0700F00D1704700B583B00021E5
:10255800019010460AF0E8FF019B586D70B903B06E
:1025680000BD406D0028EFD090F8313013F0500FC7
:1025780003D00022002308F0A5BE704700220023E4
:1025880003B05DF804EB08F09DBE00BF036973B1AA
:102598001A68084952698A4207D1186D08B10AF0C9
:1025A80045BF586D18B108F077BE184610474FF070
:1025B800FF30704795040000836C13B118460AF089
:1025C80035BFC06C08B108F067BE4FF0FF307047E8
:1025D80070B59FED297B94B000224FF47A76284D90
:1025E8000446183104A88DF80C200095CDE9012681
:1025F8008DED127B0DF02AFA129B002B2FD05C2058
:102608001BF0F6F81F4900220646016018300199B0
:1026180040F8142C40F80C1C1B4940F8101C029977
:1026280040F8081C9DF80C1000F8041C04A90DF0D3
:1026380063F900224FF47A71B560B2656260227363
:10264800124AA16022607268266101327260104BE2
:1026580004A800930DF096F9204614B070BD139BA2
:10266800002BCCD1094A237322602361C4E90136C7
:10267800EDE700BFAFF3008000000000000000009D
:10268800701B0020941B0020001E0020441B00200B
:102698000C190020036D13B118460AF0DDBD406D1A
:1026A80008B108F02FBD4FF0FF307047836C00B5BC
:1026B80083B05BB101220DF1070118460AF0CCFD89
:1026C80001280BD19DF8070003B000BDC06C28B1EC
:1026D80001220DF1070108F015FDF1E74FF0FF3079
:1026E800F2E700BF036D33B11B7813F0700F14BF0E
:1026F800012000207047406D30B190F8313013F060
:10270800500F14BF01200020704700BF03693BB37E
:1027180018680021144A10B5846882B094428DF874
:10272800071014D1186D48B101220DF107010AF004
:1027380093FD90B19DF8070002B010BD586D0028B8
:10274800FAD001220DF1070108F0DCFCF1E70122C3
:102758000DF107011846A047EBE74FF0FF30EBE714
:102768004FF0FF30704700BF050600008A79A2F1DC
:1027780050031B0628D4D0F850C002F26C7230B552
:102788004B7985B091F804E001338C784D78DBB251
:102798000978BCF1000F0AD060460194CDF800E03A
:1027A800CDE9025104210BF04BFB05B030BD406D63
:1027B8000028FAD00194CDF800E0CDE902510421B7
:1027C80009F078FB05B030BD00207047836C13B169
:1027D80018460AF0D3BFC06C08B109F0E7B97047D2
:1027E800036D13B118460AF0C9BF406D08B109F06E
:1027F800DDB97047036D13B118460BF0D5BB406DBA
:1028080008B109F095BC7047836C13B118460BF0FA
:10281800CBBBC06C08B109F08BBC704700B5836CAA
:1028280083B08DF807103BB101220DF1070118465E
:102838000BF0BAFB03B000BDC06C0028FAD001222F
:102848000DF1070109F074FC03B000BD836C53B1AE
:10285800187810F008000DD0D8695B69C01A48BF15
:102868006FF000407047C36CA3B193F8310010F0CB
:10287800080000D17047186919685A69401A5B68DE
:1028880062EB0303B0F1004F73F10003F2D36FF072
:10289800004070471846EDE7036D53B1187810F003
:1028A80008000DD0D8695B69C01A48BF6FF00040B6
:1028B8007047436DA3B193F8310010F0080000D1C0
:1028C8007047186919685A69401A5B6862EB030314
:1028D800B0F1004F73F10003F2D36FF0004070477E
:1028E8001846EDE70369CBB10D4810B51C68D4F85C
:1028F8000CE086450DD1186D18B1BDE810400BF0FD
:1029080053BB586D18B1BDE8104009F011BC002048
:1029180010BD18467346BDE81040184700207047A0
:102928006507000010B5104B0446806D82B0236027
:1029380018B11CF0B7FD0023A365236D73B104F132
:102948001803184601930DF01DF8019B074A184615
:10295800A2600DF017F8204602B010BD636D002B81
:10296800EDD104F11803F1E7941B00200C190020A5
:1029780010B5124B0446806D82B0236018B11CF06C
:1029880091FD0023A365236D93B104F11803184644
:1029980001930CF0F7FF019B094A1846A2600CF05E
:1029A800F1FF20465C211AF029FF204602B010BD35
:1029B800636D002BE9D104F11803EDE7941B0020A7
:1029C8000C19002010B5029994469E4629B1012998
:1029D8001ED002290FD0002010BD046D0CB34FF09B
:1029E800FF33934271EB0E03F5D320461146BDE841
:1029F80010400AF099BD036D23B3D96989184EF1C7
:102A08000002002AE7D11846BDE810400AF08CBD44
:102A1800036D6BB1596989184EF10002002ADAD1A9
:102A2800F1E7406D0028D6D0BDE8104008F04ABC58
:102A3800406D0028CFD0D0E900231CEB020243EB05
:102A48000E03F1E7406D0028C5D0D0E904231CEB44
:102A5800020243EB0E03BDE8104008F033BC00BF90
:102A68003649034602690160002A50D0516801398D
:102A7800516000294BD1324810B5146884B0E46A1B
:102A880084424AD1906D40B10391CDE901231CF0F5
:102A980009FD019A0399029B9165116D002938D0AF
:102AA80002F1180001930CF06DFF019B1A695AB3EB
:102AB80011682448496881423AD12349906D1160D0
:102AC80038B1CDE901231CF0EDFC0021019A029BED
:102AD8009165116D31B302F1180103930292084612
:102AE80001910CF04FFF0199DDE90223DFF85CC08A
:102AF80008460293C2F808C001920CF043FF5C211B
:102B080001981AF07BFE029B184604B010BD1846C7
:102B18007047516D0029C3D1C8E701931046A047FB
:102B2800019BC3E7516D0029D5D102F11801DDE7FA
:102B3800019310468847019BE6E700BF441B00202D
:102B480045010000E1080000941B00200C1900203A
:102B58002F4A036910B5044682B00260002B3FD0AB
:102B68005A68013A5A60002A3AD119682948C96A4C
:102B7800814240D1986D30B1CDE900321CF092FC11
:102B8800DDE900329A651A6D002A30D003F1180089
:102B98000CF0F8FE23691BB31A681F4952688A4271
:102BA80032D11E4A986D1A6028B100931CF07AFC45
:102BB8000022009B9A651A6D02B303F11802019373
:102BC800104600920CF0DEFEDDE9002314491046A1
:102BD800009399600CF0D6FE5C2100981AF00EFE66
:102BE800204614211AF00AFE204602B010BD5A6D84
:102BF800002ACBD1CEE718468847CBE75A6D002A82
:102C0800DBD103F11802E1E718469047E8E700BF77
:102C1800441B002045010000E1080000941B00202F
:102C28000C19002008B5FE21024808F005F9024BEE
:102C3800187008BDE44300201D570020014B187888
:102C4800704700BF1D5700208A4B2DE9F0411F78BF
:102C580096B0002F00F095800124874E08E002937B
:102C68000AF074FEE8B1013442F210739C4218D0A5
:102C78002346824A102182481EF03EFAD6F8845430
:102C88007F4A02A800232946002DE8D1D6F88814E7
:102C98002B467B4A02A821B10E9508F005FE0028B4
:102CA800E1D144F20223764A764902A80CF07AFF71
:102CB800149B002B00F094805C2000251AF098FDEE
:102CC800039B714A0446C36006A9049B6F4E0361C7
:102CD8009DF81430C0E900256D4A183000F8043C0E
:102CE80040F8102C0CF008FE63686A4A06A8013305
:102CF800A565A2606360684B984602930CF042FE9B
:102D08003569002D42D06B68013B6B60002B3DD1CB
:102D18002B68624ADB6A934240F09E80A86D18B126
:102D28001CF0C0FB0023AB652B6D002B00F08F80DF
:102D380005F118000CF026FE356905B32B68584AD2
:102D48005B68934240F092804F4BA86D2B6018B19E
:102D58001CF0A8FB0023AB652B6D002B7FD005F181
:102D68001803184601930CF00DFE019B1846C5F890
:102D780008800CF007FE5C2128461AF03FFD3461FC
:102D88002CB90027384616B0BDE8F08134612368B5
:102D9800444A1B6B93423CD1236D002B35D03369D9
:102DA800BBB11A684049D4688C4244D1186D0028D8
:102DB8003AD007223D490BF0F7F833694BB11A684E
:102DC8003B4992698A423FD1186D002826D00AF003
:102DD800D5FC384B002238461A6016B0BDE8F081A1
:102DE800159C002C7FF468AF2B4B06A8274E9846FD
:102DF80002930CF0C7FD3569002DC2D06B68013B0A
:102E08006B60002B84D03461BBE7636D002BC6D1A7
:102E1800B7E7204698470028B3D0C0E7586D002888
:102E2800D7D008F0C3FED4E7586D48B107221F4930
:102E380009F07EF9C1E7072218461C49A047BCE7FC
:102E480092691B498A42E9D018469047C1E76B6DE1
:102E5800002B7FF46DAF6FE7284698476CE76B6DE2
:102E6800002B7FF47CAF05F118037FE728469847CD
:102E780085E700BF1D570020E443002054080020C8
:102E880050520020E8430020941B0020C833002043
:102E9800001E0020701B00200C19002045010000B6
:102EA800E1080000310100006507000094180020C7
:102EB800510700006052002000487047505200201F
:102EC800F0B5A64D89B02B698DF80F10002B00F0D6
:102ED800D9801A680446A249126B8A4240F0C5801C
:102EE8001A6D002A00F0D180F6EE007A94ED407A4F
:102EF800F2EE045AD4ED416AD4F80C21B0EE676AB8
:102F080094F8FF10E0EEA57A079227EE257A8DF85F
:102F18001510A0EE256AFDEEE66ABDEEC77AFCEE56
:102F2800E77A16EE902A17EE101ABCEEC66A8DF8EC
:102F38001420ADF81A1017EE902A16EE101AADF8F4
:102F48001820ADF81610002B00F086801A68854E00
:102F5800D268B242174640F0F780186D002800F09A
:102F68009980042207A90BF01FF82B69002B73D056
:102F78001A68D268B242174640F01081186D0028CE
:102F880000F0D38002220DF116010BF00DF82B6929
:102F9800002B61D01A68D268B242174640F0F88018
:102FA800186D002800F0B08001220DF10F010AF021
:102FB800FBFF2B69002B4FD01A68D268B242174624
:102FC80040F0E180186D002800F0A780022206A9D1
:102FD8000AF0EAFF2B69002B3ED01A68D268B24289
:102FE800174640F0CA80186D002800F0848002223D
:102FF8000DF11A010AF0D8FF2B69002B2CD01A68A2
:10300800D268B242174640F0B380186D00286AD0E3
:10301800012205A90AF0C8FF2B69EBB11A68D2682A
:10302800B242174640F08A80186D002852D001221B
:103038000DF115010AF0B8FF2B699DF815205BB159
:103048001968C968B1420F4640F08380186D00289E
:1030580039D021460AF0A8FF434A136801331360A8
:103068001B0720D0012009B0F0BDCDED020A18469B
:103078008DED010A90479DED010ADDED020A002859
:1030880040F0A780002009B0F0BD5A6D002A7FF4F7
:103098002BAFF7E7586D00283FF470AF042207A95B
:1030A80009F046F861E72B69002BDBD01A682F4935
:1030B80092698A4240F08F80186D002800F0828063
:1030C8000AF05CFBCEE7586D0028C5D0214609F010
:1030D8002FF8C1E7586D002870D001220DF11501B5
:1030E80009F026F8A8E7586D002861D0012205A943
:1030F80009F01EF890E7586D002855D002220DF10E
:103108001A0109F015F877E7586D002852D0012206
:103118000DF10F0109F00CF84BE7586D002845D068
:10312800022206A909F004F854E7586D002843D094
:1031380002220DF1160108F0FBFF28E718460122CC
:103148000DF11501B84777E71846042207A9B847D3
:103158000BE721461846B8477EE700BFC833002072
:10316800310100006507000060520020510700008F
:103178001846012205A9B8474EE7184602220DF164
:103188001A01B84738E71846022206A9B84721E7C6
:10319800184601220DF10F01B8470AE71846022226
:1031A8000DF11601B847F2E62B6928E72B6914E7F9
:1031B8002B6933E72B69FFE62B69EBE69DF81520B1
:1031C8002B693DE7586D00283FF44CAF08F0EEFC42
:1031D80048E72B6988E61846904743E710B5524CF4
:1031E80082B0206900286CD0036850491A6B8A4263
:1031F80071D1026D002A66D09B694D4A93427BD1FA
:10320800036D002B6FD018460AF0B8FA2369002B1B
:1032180057D01A684749D26A8A4277D1986D28B13F
:1032280000931CF03FF90022009B9A651A6D002A52
:103238005ED003F118000CF0A5FB22695368013B2E
:103248005360002B3BD111683A48C96A814264D166
:10325800906D30B1CDE900231CF024F9DDE900239D
:103268009365136D002B54D002F118000CF08AFB03
:10327800236923B31A68304952688A4250D12F4AC9
:10328800986D1A6028B100931CF00CF90022009B7D
:103298009A651A6D002A33D003F11802019310467B
:1032A80000920CF06FFBDDE90023254910460093DE
:1032B80099600CF067FB5C2100981AF09FFA0023D4
:1032C800236102B010BD426D002AFAD09B69184AEA
:1032D800934295D010E090470028F2D0206900284A
:1032E800EFD0036888E7406D40B108F05FFC8DE7D8
:1032F8005A6D002A9DD1A0E7984787E7236988E798
:103308005A6D002AC8D103F11802CEE71846904733
:1033180093E7536D002BA7D1AAE710468847A7E784
:1033280018469047CBE700BFC833002031010000A2
:103338005107000045010000E1080000941B00202F
:103348000C190020944BF0B51D7897B01DB90025D5
:10335800284617B0F0BD02460023904902A80CF099
:1033680021FC149B002B00F0E4805C2000261AF05E
:103378003FFA8B4B044606A9C0E90036039B183078
:1033880040F80C3C874B40F8103C049B40F8083C44
:103398009DF8143000F8043C0CF0AEFA6368A6659A
:1033A80006A80133804E6360804B02931F46804B12
:1033B800A3600CF0E7FA336923B15A68013A5A60FE
:1033C800002A71D0346123687A4A1B6B934240F01B
:1033D800C680236D002B00F0A7803469002CB6D07E
:1033E8002368754A9968914240F0CB80206D002887
:1033F80000F0BB8002A9072209F02EFF0728A7D0FA
:103408003469002CA3D02368DB6A6C4A934240F0ED
:10341800B580A06D18B11CF045F80023A365236D95
:10342800002B00F0DB8004F118000CF0ABFA3569D2
:103438006C68013C6C60002C33D12B685F4ADB6AF6
:10344800934240F0D580A86D10B11CF02BF8AC6504
:103458002B6D002B00F0C78005F118000CF092FAD4
:103468003469F4B12368564A5B68934240F0C880D7
:103478004B4BA06D236018B11CF014F80023A36512
:10348800236D04F11805002B00F0B58028460CF0D8
:1034980079FA2846A7600CF075FA5C2120461AF0E4
:1034A800ADF90023336152E71A684449D26A8A4267
:1034B80040F08880986D28B100931BF0F3FF00223C
:1034C800009B9A651A6D002A61D003F118000CF070
:1034D80059FA33691BB31A68394952688A427AD152
:1034E8002F4A986D1A6028B100931BF0DBFF002269
:1034F800009B9A651A6D002A67D003F118020193A0
:10350800104600920CF03EFADDE9002310469F6059
:1035180000930CF037FA00985C211AF06FF93461C7
:10352800002C3FF414AF4EE7636D002B7FF455AFCA
:103538000DE7159C002C7FF418AF1C4B06A81A4EFB
:103548001F4602930CF01EFA3369002B3FF4FFAEBE
:103558005A68013A5A60002AA6D03461F7E6204634
:10356800984700283FF4F3AE37E7606D00283FF432
:103578004BAF02A9072207F0C5FD3FE72046984751
:1035880055E70B46204602A90722984736E75A6DA9
:10359800002A9AD19DE700BF1D570020E84300206C
:1035A800941B0020001E0020DC3300200C19002092
:1035B800701B0020310100000506000045010000D5
:1035C800E10800001846904783E75A6D002A94D115
:1035D80003F118029AE718469047A0E7636D002B9D
:1035E8007FF421AF23E76B6D002B7FF435AF37E70E
:1035F8002846984734E7636D002B7FF447AF48E7C8
:10360800204698474DE700BFF0B52E4C85B023699A
:10361800002B31D01A680D4606462B48116B8142A3
:1036280025D1196D59B39268284917468A4232D173
:10363800186D40B30B2201A909F00EFE0B281BD10F
:103648009DF80E202A70BAB12369002B2ED0196874
:103658008C681E498C422BD1186D08B3314609F08D
:10366800FBFD2B78181AB0FA80F0400905E01846DF
:10367800884708B1236913BB002005B0F0BD596D18
:103688000029D0D1F8E7586D0028F5D00B2201A900
:1036980007F038FDD2E718460B2201A9B847CDE755
:1036A800586D48B1314607F02DFDDAE71846E4E7D2
:1036B80031461846A047D4E74FF0FF30D1E71A68E3
:1036C800B1E700BFDC33002031010000050600002F
:1036D80010B5484C82B02369002B60D01968464861
:1036E8000A6B824265D1186D00285AD0C96A434ACC
:1036F80091426BD1986D28B100931BF0D3FE002145
:10370800009B9965196D00295CD003F118000CF035
:1037180039F921694B68013B4B60002B3DD10868A2
:10372800C26A364882425ED1886D30B1CDE9001355
:103738001BF0B8FEDDE900138B650B6D002B4ED036
:1037480001F118000CF01EF9236933B319682C48ED
:10375800496881424AD12B49986D196028B1009374
:103768001BF0A0FE0021009B9965196D002930D03F
:1037780003F118010193084600910CF003F9DDE903
:103788000013DFF884C008460093C3F808C00CF0A3
:10379800F9F85C2100981AF031F80023236102B08F
:1037A80010BD586D0028FAD0C96A144A9142A1D0B8
:1037B8000CE0184690470028F1D02369002BEED082
:1037C800196893E7596D00299FD1A2E718468847E1
:1037D8009FE7596D0029CBD103F11801D1E74B6D53
:1037E800002BADD1B0E708469047ADE718468847AB
:1037F800D3E700BFDC3300203101000045010000A1
:10380800E1080000941B00200C19002000000000B3
:10381800044B2DE9F04F1E78A3B02EB9304623B0E3
:10382800BDE8F08F1D570020002302908A46A44A65
:10383800A4490EA80CF0B6F9209B002B00F0FF82DB
:103848005C20002419F0D4FF9F4B054612A90360A1
:103858000F9B4460C3609D4B9D4F8360109BDFF8B6
:103868008C9203619DF84430037500F118031846E3
:1038780001930CF041F86B6812A8AC650133AF6096
:10388800CDF838906B600CF07DF82B6891491A6B75
:103898008A4240F007832A6D002A00F0B581DB6B6D
:1038A8008D4A934240F0058300224FF47A740199BF
:1038B80012A80E970F928DF8442010949FED7E7BEE
:1038C8008DED207B0CF0C2F8209B002B00F00983C3
:1038D8005C20002619F08CFF7B4B04464660036091
:1038E80012A97A4B183040F8103C0F9B40F80C3C5A
:1038F800109B40F8083C9DF8443000F8043C0BF05D
:10390800FBFF6368A7600133A665059663604FF403
:103918007A738DF81C600693704B0894049312A870
:10392800CDF838900CF02EF80898002800F0C982DD
:103938000026DFF8BC81AB460368664A1B6B9342DE
:1039480040F02082036D002B00F09C81B245089C5A
:1039580040F38C82002C66D02368614A5B6B9342EB
:1039680040F01E82A36D002B00F0418225685D495E
:10397800AA6B8A4240F02782226D002A00F0DB8180
:10398800127812F0700F00F04B82EB6A434540F05A
:10399800F681A06D18B11BF085FD0023A365236D8A
:1039A800002B00F0C38104F118000BF0EBFF089D19
:1039B8006C68013C6C60002C33D12B68DB6A434592
:1039C80040F04782A86D10B11BF06CFDAC652B6D03
:1039D800002B00F02F8205F118000BF0D3FF089C94
:1039E800FCB12368404A5B68934240F04482364BFE
:1039F800A06D236018B11BF055FD0023A365236D4E
:103A080004F11805002B00F02C8228460BF0BAFFB1
:103A18002846C4F808900BF0B5FF20465C2119F041
:103A2800EDFE00230893DBF800302B4ADB6B934252
:103A380040F0D88100224FF47A74019912A80E97A9
:103A48000F928DF8442010949FED1B7B8DED207B09
:103A58000BF0FCFF209B002B00F05C815C20002514
:103A680019F0C6FE184B04464560036012A9174BAF
:103A7800183040F8103C0F9B40F80C3C109B40F865
:103A8800083C9DF8443000F8043C0BF035FF6368AF
:103A9800A7600133A5650A9563604FF47A738DF8C2
:103AA80030500B930D4B0D94099312A8CDF8389014
:103AB8000BF068FF1EE000BF0000000000000000DF
:103AC800240A0020E8430020941B0020001E002048
:103AD800701B00203101000041050000441B00203C
:103AE8002902000055060000E10800000C1900201A
:103AF80045010000089C002C38D06568013D6560D0
:103B0800002D33D12368DB6A434540F0B181A06DB5
:103B180010B11BF0C7FCA565236D002B00F09C813C
:103B280004F118000BF02EFF089CFCB12368974A9B
:103B38005B68934240F0B381954BA06D236018B148
:103B48001BF0B0FC0023A365236D04F11805002BBE
:103B580000F0A08128460BF015FF2846C4F808900D
:103B68000BF010FF20465C2119F048FE0D980890D4
:103B780000287FF4E1AE5D462B68DB6A434540F0E0
:103B8800C181A86D18B11BF08DFC0023AB652B6DAE
:103B9800002B00F0B28101980BF0F4FE6C68013C38
:103BA8006C60002C7FF43AAE2B68DB6A434540F02A
:103BB800BC81A86D10B11BF075FCAC652B6D002B9A
:103BC80000F0858101980BF0DDFE2B686F4A5B6879
:103BD800934240F0B5816E4BA86D2B6018B11BF075
:103BE80061FC0023AB652B6D002B00F0A1810198CF
:103BF8000BF0C8FE0198C5F808900BF0C3FE5C21D5
:103C0800284619F0FBFD09E66A6D002A7FF447AEE5
:103C18006C68013C6C60002C2FD12B685D4ADB6A14
:103C2800934240F07781A86D10B11BF03BFCAC6566
:103C38002B6D002B00F0698101980BF0A3FE2B6817
:103C4800524A5B68934240F06D81514BA86D2B60DE
:103C580018B11BF027FC0023AB652B6D002B00F07F
:103C68005C8101980BF08EFE0198C5F808900BF066
:103C780089FE5C21284619F0C1FD0026304623B094
:103C8800BDE8F08F436D002B7FF460AE5D46089C65
:103C9800414B0493002C3FF46FAF6768013F6760A6
:103CA800002F7FF469AF2368DB6A434540F0458104
:103CB800A06D10B11BF0F6FBA765236D002B00F07B
:103CC8000B8104F118000BF05DFE089C002C3FF4FA
:103CD80053AF23682D4A5B68934240F039812C4BDF
:103CE800A06D236018B11BF0DDFB0023A365236DD5
:103CF80004F11807002B00F0268138460BF042FE2D
:103D08003846C4F808900BF03DFE20465C2119F0B7
:103D180075FD31E7219B002B7FF4A0AE8DF8303084
:103D28000D93CDE90A341C4B0993BEE6636D002B55
:103D38007FF439AE3BE6626D2AB192F8312012F079
:103D4800500F7FF422AE18460422144903931DF045
:103D5800F3FB039B00287FF418AE1946029B0F2241
:103D680003EB061001361DF023FC0022C273002C61
:103D78003FF459AE2568EB6A43453FF40AAE204646
:103D8800984714E69847002880D0DFE5E10800004E
:103D9800941B002045010000441B002064080020FB
:103DA80020469847089C0346002C7FF4DFAD042288
:103DB8006A49184603931DF0BFFB00287FF433AE11
:103DC800089C039BC9E7204603939047089C00285A
:103DD800CDD10422614903981DF0AEFB039B002856
:103DE800C5D1BAE70022594609A8984782E64FF498
:103DF800807003931BF04EFB0146A065002800F07D
:103E0800AA80039B0370206D002837D04FF480727E
:103E18000BF00CFAA36D089C002C7FF4A7ADC6E745
:103E2800184604224D4903931DF086FB039B002886
:103E3800A0D192E76B6D002B7FF4CDADCFE5219B30
:103E4800002B7FF4FDAC464B12A80E930BF09AFDA5
:103E580013E728469847C2E5636D002B7FF460AEF0
:103E680062E6636D002B7FF4D0ADD1E55D460FE7C8
:103E78002046984758E620469847D2E5606D20B31B
:103E88004FF4807208F012FEA36D089C002C7FF49A
:103E98006DAD8CE7636D002B7FF45CAE5DE620466C
:103EA800984763E62846904700283FF4B1AE2B6850
:103EB800F5E404A8002229469847089800287FF4CA
:103EC80037AD0646DFF8A48056E6A36D4EE56B6D68
:103ED800002B7FF477AE78E6636D002B7FF4F1AEAC
:103EE800F3E6219B002B7FF4F3AC8DF81C3008938C
:103EF800CDE905341B4B049311E56B6D002B7FF462
:103F08004AAE4BE62846984748E66B6D002B7FF48F
:103F180093AE94E62846984791E66B6D002B7FF4A4
:103F2800A0AEA1E628469847A7E6284698474CE65B
:103F38006B6D002B7FF45BAE5CE620469847C4E6C9
:103F4800284698476AE4636D002B7FF4D6AED7E61F
:103F58002046984710E6044BA36507E5640800204F
:103F68000C190020441B00201F57002045010000A9
:103F7800064A0749074808B51BF07EFA034A044970
:103F88000548BDE808401BF077BA00BFF8330020A9
:103F9800D1090000C8330020DC33002010B5054CDF
:103FA8000548217881F0010121700FF0C7FD2078C4
:103FB80010BD00BF17570020D04C00200523092250
:103FC8000A21014812F000BED04C002008B501219A
:103FD800062019F009FA9FED0F0A062019F0A4FD32
:103FE800FF21062019F03CFD00234FF4A072F021B8
:103FF800094812F0B7FE0321074812F081FC074B6D
:10400800054819780FF09AFD00210348BDE80840DB
:104018000FF084BD00409C46D04C0020175700206C
:1040280010B54FF4A07386B04FF0160C0022019320
:1040380004461146CDF800C022480FF08DFB4FF41E
:10404800FC6120480FF0EAFF02221E4811460FF0DB
:10405800D9FF0023032204211A480FF077FF3CB14F
:1040680020461DF035FC21460246164812F010FB8A
:1040780005F068FFB7EEC00A0C21134A8DED000B5E
:104088000DEB01001DF038F84FF4BC610D480FF03E
:10409800C5FF03A81DF01CFC0023A0EB8001032230
:1040A8000848890001F59E7109B20FF04FFF03A877
:1040B8001DF00EFC03A90246024812F0E9FA06B008
:1040C80010BD00BFD04C00206C0800202DE9F04145
:1040D800044682B034480E46002190460FF01EFD7B
:1040E8003248FFF79DFF02222F4811460FF08AFF42
:1040F8004FF4BC612C480FF091FF002322220621C7
:1041080029480FF023FF05222949274812F0C0FA51
:1041180000230A222146244818F0B2FB0122224833
:1041280011460FF06FFF4FF448711F480FF076FFEC
:104138000023402206211C480FF008FF1D490D22CC
:10414800194812F0A5FA4FF4BC6117480FF066FF42
:10415800B8F1000F25D0013E002450270625042180
:1041680016F8013F144A01340DEB01001CF0C4FF9E
:10417800002329B20C483AB212350FF0E7FE01A825
:104188001DF0A6FB01A90246074812F081FAB5F511
:10419800977FE4B201DD0C370625A04501D9302C04
:1041A800DDD102B0BDE8F081D04C002074080020B9
:1041B8007C080020840800209408002010B5002105
:1041C800044631480FF0AAFC3048FFF729FF0322C4
:1041D8002D4811460FF016FF4FF478412A480FF08A
:1041E8001DFF002328221E2127480FF0AFFE0522BD
:1041F8002749254812F04CFA0222234811460FF0AD
:1042080001FF4FF4BC6120480FF008FF002356223D
:1042180006211D480FF09AFE05F0ACFE01461A482B
:1042280018F0FAFA0D221B49174812F031FA002348
:104238007022062114480FF089FE082216491248F8
:1042480012F026FA002321460A220F4818F018FB1C
:10425800012212490C4812F01BFA01220A481146A1
:104268000FF0D0FE4FF4784107480FF0D7FECE226A
:104278000621054800230FF069FE1122084902486B
:10428800BDE8104012F004BAD04C00209C08002071
:10429800A0080020A8080020B8080020C4080020B2
:1042A800C808002070B50C460546002124480FF0C8
:1042B80035FC2448FFF7B4FE0222214811460FF0CE
:1042C800A1FE4FF4FC611E480FF0A8FE0023222235
:1042D80006211B480FF03AFE0D221B49184812F020
:1042E800D7F94FF4BC6116480FF098FE0222144823
:1042F80011460FF087FE00233E22062110480FF0DA
:1043080025FED4B120461DF0E3FA024621460C48AA
:1043180012F0BEF900235E22062109480FF016FEAE
:1043280009220A49064812F0B3F9294600230A224D
:104338000348BDE8704018F0A3BA0122044CE5E731
:10434800D04C0020E0080020E8080020F8080020F1
:10435800DC0800202DE9F04300218146474800266B
:10436800DFF82C812224464F2DED028B93B00FF0FD
:10437800D5FB4448FFF754FE0222404811460FF08F
:1043880041FEB1454FF4BC613C485DD00FF046FE9C
:104398000E21002322B239480FF0D8FD39460222F7
:1043A800364812F075F958F8045F284635B11DF003
:1043B8008FFA29460246314812F06AF91A34013652
:1043C800D82CDED14FF448744FF4A073DC220021BE
:1043D80000942A480FF0D0F80122284811460FF01F
:1043E80011FE214625480FF019FE0023E222042180
:1043F80022480FF0ABFD05F0C9FD05F0D3FD0646D8
:1044080005F0A6FD044605F0A9FDB7EEC08A05F043
:10441800ABFD054605F0AEFD33461B4A302105903D
:1044280006A8049500948DED028B1CF065FE06A885
:104438001DF04EFA06A90246104812F029F913B0E9
:10444800BDEC028BBDE8F08318234FF44871E21EDF
:10445800CDE9003112B24FF4A07300210FF07CF9BE
:104468004AF6E57105480FF0D9FD0E2122B2002366
:1044780002480FF06BFD054991E700BFD04C0020C2
:10448800080900200C090020140900200409002054
:10449800F407002070B506460D4619480021144659
:1044A8000FF03CFB3046FFF7BBFD022214481146D3
:1044B8000FF0A8FD4FF4BC6111480FF0AFFD6DB1CE
:1044C8003C22062100230E480FF040FD28461DF02F
:1044D800FFF9294602460A4812F0DAF87CB15A2256
:1044E8000621002306480FF031FD20461DF0F0F9A3
:1044F800214602460248BDE8704012F0C9B870BDB6
:10450800D04C00202DE9F0470E46A2B0002181468C
:10451800634D02AC63480DF124080FF0FFFA6248BE
:10452800FFF77EFD02AF0FCD0FC495E8070084E8C2
:10453800070005F007FDB7EEC00A5C4A0E214046A9
:1045480000248DED000B1CF0D7FD05F01FFD05F0D4
:1045580029FD574A03460E210DF132001CF0CCFD0F
:1045680005F0F6FC534A03460E2110A81CF0C4FDC2
:1045780005F0F4FCB7EEC00A4F4A0E210DF14E00CB
:104588008DED000B1CF0B8FD05F0EEFC494A034622
:104598000E2117A81CF0B0FD05F0ECFC454A0346B7
:1045A8000E210DF16A001CF0A7FD3346434A0E2187
:1045B8001EA81E261CF0A0FD02223A4811460FF044
:1045C80021FDA1454FF4487136480FFA86FA45D0C7
:1045D8000FF024FD33480023524606210FF0B6FCA5
:1045E8003D68284635B11DF073F9294602462D4825
:1045F80012F04EF84FF4BC61C4EBC40529480FF023
:104608000DFD00235246B42126481A360FF09EFCB1
:10461800013408EB450004371DF05AF9024608EB4F
:104628004501204812F034F8D42ECAD101221D4881
:1046380011460FF0E7FC4FF448711A480FF0EEFCF2
:104648000023E422062117480FF080FC1F221C4992
:10465800144812F01DF822B0BDE8F0871623B21EE8
:104668000191002112B200934FF4A0730FF074F877
:104678004AF6E5710B480FF0D1FC0023524606219B
:1046880008480FF063FC3D683DB128461DF020F94D
:1046980029460246034811F0FBFF4AF6E571ABE7ED
:1046A80098030020D04C0020340900203C09002049
:1046B800440900205C12002048090020500900200D
:1046C800580900202DE9F0413D4C8AB04FF0B80858
:1046D80002AB05AD02AF05AE94E807000C3403C386
:1046E8001A800FCC0FC523680024002135482B60A1
:1046F8000FF014FA37F8025B3F23002221B2314849
:10470800CDE900850FF028F801222E4811460FF058
:1047180079FC4FF6FF7200212A480FF087FCA11C94
:1047280028480023BC2209B20FF010FC56F8045B9D
:10473800284635B11DF0CCF829460246214811F02B
:10474800A7FF4034A4B2B4F5A07FD3D102221D48FC
:1047580011460FF057FC00224FF4FC6119480FF086
:1047680065FC0023C822042116480FF0EFFB0E2237
:104778001549144811F08CFF0122124811460FF018
:1047880041FC00224FF6FF710E480FF04FFC00234A
:10479800E42204210B480FF0D9FB0C4B1B783BB1EA
:1047A80009220B4907480AB0BDE8F04111F070BF73
:1047B8000A22084903480AB0BDE8F04111F068BF71
:1047C800B4030020D04C0020900900201757002087
:1047D800780900208409002070B5044682B0374863
:1047E8000E46002115460FF099F93548FFF718FCD9
:1047F8000222324811460FF005FC4FF4BC612F48E5
:104808000FF00CFC0023222206212C480FF09EFBFF
:10481800002C50D020461DF05BF802462146274860
:1048280011F036FF00234222062124480FF08EFBA8
:1048380005222449214811F02BFF00230A22314682
:104848001E4818F01DF80DB902B070BD03221E49AC
:104858001A480E2411F01CFF294600230A22174883
:1048680018F00EF84FF448724FF49A730621134863
:10487800CDE9004262220FF03DFB07EE906A9FED02
:10488800136A4AF6E573B8EE677A07EE905A622221
:104898000621F8EE677A0948CDE90043C7EE276A92
:1048A80066EE867AFDEEE77A17EE903A1BB20EF0C6
:1048B80053FF02B070BD0122054CAFE7D04C002079
:1048C800A00900207C080020A809002000009A43C5
:1048D800DC0800202DE9F0430F4605460021644816
:1048E80090462DED088B83B0B0EE40AAF0EE60AA9A
:1048F8000FF014F95F48FFF793FBB0234FF44872A9
:1049080006215B48CDE900324FF49A7322220FF05A
:10491800F1FA002F40F3A7804FF49A7607EE907AC9
:10492800013D0024B8EEE78A9FED53BADFED539AB4
:104938004AF6E5799FED529ADFED528A96FBF7F633
:10494800022EB8BF0226013E36B215F9013F07EE26
:10495800904AA0450CBF4A464FF4FC62013406EE6B
:10496800903AF8EEE77A01923346F8EEE66A404864
:1049780087EE887A76EEA96AC6EE897A27EE0B7AF0
:10498800BDEEC77A17EE101A67EEA87A063109B29B
:10499800FDEEE77A17EE90CABCF1B00FA8BF4FF052
:1049A800B00C2CEAEC7CCCF1D2020FFA8CFC12B2DF
:1049B800CDF800C00EF0D0FEA742C6D101222C4887
:1049C80011460FF01FFB4FF4BC6129480FF026FB7E
:1049D8000023D522062126480FF0B8FAB7EECA0AF6
:1049E8000121234817F05CFF0023D5224FF48C7176
:1049F8001F480FF0ABFAB0EE4A0A01211C48A8EE96
:104A08002A0AB7EEC00A17F04BFFB8F1000F04DA14
:104A180003B0BDEC088BBDE8F0834AF6E571144895
:104A28000FF0FCFA0023D5225A2111480FF08EFA14
:104A3800052215490E4811F02BFE07EE908A022137
:104A48000B48F8EEE77AA7EEAAAAB7EECA0A17F05B
:104A580027FF03220D49064803B0BDEC088BBDE8CB
:104A6800F04311F015BE07EE907AB8EEE78AA5E795
:104A7800D04C0020AC09002000009A4300000043FD
:104A88000000C44200003043B4090020BC090020E3
:104A9800F0B5044683B061480E46002115460FF074
:104AA8003DF85F48FFF7BCFA02225C4811460FF058
:104AB800A9FA4FF4BC6159480FF0B0FA00231E223E
:104AC800062156480FF042FA09225649534811F078
:104AD800DFFD00230A222146504817F0D1FE0023AB
:104AE800002E00F08980002D00F0868038220621F3
:104AF8004A480FF02BFA4FF4FC6148480FF08EFA41
:104B080005224949454811F0C3FD96ED400A0021A8
:104B18004248B7EEC00A17F0C3FE042243493F4893
:104B280011F0B6FD00234E2206213C480FF00EFA84
:104B38004FF4FC6139480FF071FA05223C493748B7
:104B480011F0A6FD96ED410A01213448B7EEC00ADE
:104B580017F0A6FE03223749304811F099FD0023CB
:104B6800642206212D480FF0F1F94FF448712B48C3
:104B78000FF054FA04223049284811F089FD002327
:104B88000A2296F8FF10254817F07AFE01222348DA
:104B980011460FF037FA4FF4BC6120480FF03EFA87
:104BA80096F8FF3033B300247C27062501E0202B3C
:104BB80020D00421335D214A01340DEB01001CF0A3
:104BC8009BFA002329B215483AB212350FF0BEF904
:104BD80001A81CF07DFE01A90246104811F058FDFD
:104BE800B5F5977FE3B201DD0C37062596F8FF206F
:104BF8009A42DCD803B0F0BD4022062107480FF0E6
:104C0800A5F94FF4487105480FF008FA0C220C4931
:104C1800024803B0BDE8F04011F03ABDD04C002086
:104C2800C0090020F8080020C8090020D009002089
:104C3800D8090020E0090020E40900209408002099
:104C4800EC0900202DE9F04FC5B006460DF1E00A49
:104C580003AC1E216FF0170018F048F944F8040F50
:104C68005445F6D100214E480EF058FF01224C4819
:104C780011460FF0C7F94B4BD3F800801B68A3EB24
:104C880008039E4250D94FF0000B03AD0027CDE931
:104C9800028612E0B8F1EF0F4DD9EF2E7CD9B8F5A6
:104CA800987F2C6005DD00216FF0170018F01EF9C1
:104CB8002860554507F106071DD055F8044FE60052
:104CC8000134A6F15002A6F10808EF2AE2D8082319
:104CD8000FFA87F912B23248009349460623CDF8F5
:104CE80004B00EF039FDB8F1EF0F26DD554507F198
:104CF80006072C60E1D12C4B2C4859682C4B1A68BC
:104D080040F6AC53A0FB0202920CDDE9028603FBDD
:104D180002F2254B5B685B1A9A42FAD8214B1B6852
:104D2800A3EB0803B342B0D300211D4845B0BDE84A
:104D3800F04F0EF0F3BE0FFA87F900224FF44871D6
:104D480017480FF073F900230FFA88F24946144800
:104D58000FF0FCF85E2018F091F800F121011048DE
:104D6800C9B211F095FDEF2EC0D800224AF6E571C0
:104D78000B480FF05BF9494632B2002308480FF0A0
:104D8800E5F85E2018F07AF800F121010448C9B26C
:104D980011F07EFD2C608CE70FFA87F9E5E700BF7C
:104DA800D04C0020E4560020001000E083DE1B43B6
:104DB800D431002000220449044808B517F04AFA03
:104DC800034B00221A8008BD40420F00D832002051
:104DD80000570020F8B506469F4C40F256279F48DA
:104DE80017F056F903469D48002B3ED017F0A0F95E
:104DF8002388C0B20D2818BF0A280CBF012500253A
:104E080025D1002BEBD00027954A9649D75400238B
:104E1800104637707760A6F80B71B36027801CF0D6
:104E2800FDFB044608B38F4938461CF0F7FB8E4952
:104E3800074620461CF05CFBE0B9002F3AD001235E
:104E4800384633701AF022FB70602846F8BDBB4222
:104E580003F1010282490BD8C8548048228017F018
:104E680017F903467D48002BC0D100252846F8BD18
:104E78002580B4E77D4920461CF03AFB58B9CFB1EC
:104E88000223384633701AF0FDFAB7EEC00B2846F5
:104E980086ED020AF8BD764920461CF029FB002859
:104EA80040F09C8067B10323384633701AF0EEFA5D
:104EB8007060DBE76E4920461CF01AFB002865D1BC
:104EC8006C4920461CF014FB002873D16A4920461F
:104ED8001CF00EFB002800F09680684920461CF064
:104EE80007FB002800F08580654920461CF000FB80
:104EF800002840F09280002F00F0A3800623337032
:104F08003B78002B00F0D98006F10C042CE0A3F1CB
:104F18006101C9B2052940F2C580A3F14101C9B2B6
:104F2800052940F2C6800023A2F13001C9B209293F
:104F380040F28580A2F16101C9B2052940F2B6802C
:104F4800A2F13701A2F1410C43EA01025FFA8CF1A8
:104F5800D2B2052998BF134623540130BB78C0B29A
:104F6800002B00F09C8002377A78002A00F09780A6
:104F7800FF2800F09480202B00F08A80A3F13001F4
:104F8800C9B20929C3D80901CBB2CDE739492046AE
:104F98001CF0AEFA002899D03A4920461CF0A8FA2D
:104FA80070B9002F92D00523384633701AF06EFA84
:104FB80070605BE7334920461CF09AFA002885D0D8
:104FC8002D4920461CF094FA002886D1DFB10A2327
:104FD800384633701AF05AFA706047E72549204678
:104FE8001CF086FA0028D7D1002F3FF46FAF0423B6
:104FF80047E737B3092301461022384633701BF0C0
:1050080075FF706032E71D4920461CF071FAC0B187
:105018001B4920461CF06CFA98B11B4920461CF02D
:1050280067FA70B96FB107231722394606F58670FB
:1050380033701CF0BDFA002386F8233116E70B43C2
:105048008AE7124920461CF053FA00287FF40DAF76
:10505800082333700AE700BF00570020D832002029
:10506800E44D0020600A0020680A0020F0140020A7
:10507800100A00200C150020740A00207C0A002069
:10508800840A0020700A0020A00900208C0A002051
:10509800B978134601370A4600297FF46CAF86F8C1
:1050A8000B01E3E6573B1B01DBB23DE7573A1343DD
:1050B80052E7373B1B01DBB236E71846EFE700BF84
:1050C80010B5044604220949094817F07DFB3CB194
:1050D80020461CF0FDFB21460246054817F074FBEC
:1050E8000348BDE8104017F0A3BB00BF940A002096
:1050F800D832002010B5044604220949094817F09F
:1051080063FB3CB120461CF0E3FB21460246054800
:1051180017F05AFB0348BDE8104017F089BB00BFE1
:105128009C0A0020D832002030B52DED028B83B0C8
:1051380004220D4604462A49B0EE608A29488DEDBE
:10514800001A8DED010A17F03FFB9DED010A0321BE
:105158002448B7EEC00A17F0A3FB2021214817F016
:105168004DFAB7EEC80A01211E4817F099FB202115
:105178001C4817F043FA9DED001A01211948B7EEB3
:10518800C10A17F08DFB2021164817F037FA294677
:1051980000230A22134817F073FB2021114817F047
:1051A8002DFA9DB1254406E0002310220D4817F082
:1051B80067FBAC420AD014F8011B0F29F4D8302140
:1051C800084817F01BFA14F8011CEDE70A210548F6
:1051D80003B0BDEC028BBDE8304017F00FBA00BF3A
:1051E800A40A0020D832002000B52DED028B83B030
:1051F80004221149B0EE608A10488DED010A17F0BB
:10520800E3FA9DED010A03210C48B7EEC00A17F036
:1052180047FB2021094817F0F1F9B7EEC80A012128
:10522800064817F03DFB0A21044803B0BDEC028B89
:105238005DF804EB17F0E2B9AC0A0020D832002080
:1052480070B506460D4614462149042221482DED25
:10525800028B82B0B0EE608A8DED010A17F0B4FAC5
:1052680000230A2231461B4817F00AFB202119485F
:1052780017F0C4F99DED010A03211648B7EEC00ADC
:1052880017F00EFB2021134817F0B8F900230A2263
:105298002946104817F0F4FA20210E4817F0AEF905
:1052A800B7EEC80A01210B4817F0FAFA202109487D
:1052B80017F0A4F92146074817F0AEFA0A21054865
:1052C80002B0BDEC028BBDE8704017F097B900BF83
:1052D800B40A0020D832002010B5294B0446012218
:1052E800284800211A700470013C274A0220274BE5
:1052F8001170196018F0B4FB062C0CD8DFE804F024
:105308001014243236040C00002321482149224A73
:1053180003700B60137010BD204B00221A6010BD83
:10532800BDE8104004F03EBDFDF788FC0028F2D02F
:10533800FDF78AFC0028EED004F034FD8C21022011
:10534800BDE8104018F08CBB00231548154A1821F9
:10535800154C0360154823701360FEF759FA144B77
:10536800186010BD134B00221A7010BD3422802122
:1053780011481CF079F8114B4FF0FF321A6010BD3C
:10538800D0380020105700200A5700200849002074
:1053980012570020FC48002011570020904C002094
:1053A8009C4C0020944C002022570020104B0020D9
:1053B8000C4B00200B570020C4490020B4330020B8
:1053C80010B5114C2378022B10D0042B13D0032BCB
:1053D80016D00021022018F043FB00210B4B0122BC
:1053E80021701A70BDE8104004F0DCBCFDF7F6FE31
:1053F8002378042BEBD104F065FD2378032BE8D147
:10540800FEF766F9E5E700BF10570020D038002006
:105418001D4BD3F8D82010689168006810B4084272
:10542800137C546814BF0121002103F00303D4F84E
:1054380000C0D06843EA81031CEA000F43F008016A
:1054480018BF0B469908013B11740D2B0BD8DFE8E8
:1054580003F0110C070C0A161111160A0C070C118F
:1054680053690233536110BC70475369013B10BC48
:10547800536170475369013310BC536170475369D6
:10548800023B10BC53617047645200201D4BD3F897
:10549800D42010689168006810B40842137C5468DE
:1054A80014BF0121002103F00303D4F800C0D06821
:1054B80043EA81031CEA000F43F0080118BF0B46BA
:1054C8009908013B11740D2B0BD8DFE803F0110C80
:1054D800070C0A161111160A0C070C11536902332E
:1054E800536110BC70475369013B10BC536170474E
:1054F8005369013310BC536170475369023B10BCB8
:1055080053617047645200201D4BD3F8D0201068B7
:105518009168006810B40842137C546814BF0121D4
:10552800002103F00303D4F800C0D06843EA8103E4
:105538001CEA000F43F0080118BF0B469908013B0D
:1055480011740D2B0BD8DFE803F0110C070C0A16A9
:105558001111160A0C070C1153690233536110BC60
:1055680070475369013B10BC53617047536901335D
:1055780010BC536170475369023B10BC53617047BC
:10558800645200201D4BD3F8CC2010689168006845
:1055980010B40842137C546814BF0121002103F0A1
:1055A8000303D4F800C0D06843EA81031CEA000F63
:1055B80043F0080118BF0B469908013B11740D2BE5
:1055C8000BD8DFE803F0110C070C0A161111160AA4
:1055D8000C070C1153690233536110BC70475369AF
:1055E800013B10BC536170475369013310BC5361D0
:1055F80070475369023B10BC5361704764520020E6
:105608001D4BD3F8C82010689168006810B4084290
:10561800137C546814BF0121002103F00303D4F85C
:1056280000C0D06843EA81031CEA000F43F0080178
:1056380018BF0B469908013B11740D2B0BD8DFE8F6
:1056480003F0110C070C0A161111160A0C070C119D
:1056580053690233536110BC70475369013B10BC56
:10566800536170475369013310BC536170475369E4
:10567800023B10BC53617047645200201D4BD3F8A5
:10568800C42010689168006810B40842137C5468FC
:1056980014BF0121002103F00303D4F800C0D0682F
:1056A80043EA81031CEA000F43F0080118BF0B46C8
:1056B8009908013B11740D2B0BD8DFE803F0110C8E
:1056C800070C0A161111160A0C070C11536902333C
:1056D800536110BC70475369013B10BC536170475C
:1056E8005369013310BC536170475369023B10BCC6
:1056F80053617047645200201D4BD3F8C0201068D6
:105708009168006810B40842137C546814BF0121E2
:10571800002103F00303D4F800C0D06843EA8103F2
:105728001CEA000F43F0080118BF0B469908013B1B
:1057380011740D2B0BD8DFE803F0110C070C0A16B7
:105748001111160A0C070C1153690233536110BC6E
:1057580070475369013B10BC53617047536901336B
:1057680010BC536170475369023B10BC53617047CA
:10577800645200201D4BD3F8BC2010689168006863
:1057880010B40842137C546814BF0121002103F0AF
:105798000303D4F800C0D06843EA81031CEA000F71
:1057A80043F0080118BF0B469908013B11740D2BF3
:1057B8000BD8DFE803F0110C070C0A161111160AB2
:1057C8000C070C1153690233536110BC70475369BD
:1057D800013B10BC536170475369013310BC5361DE
:1057E80070475369023B10BC5361704764520020F4
:1057F8001D4BD3F8B82010689168006810B40842AF
:10580800137C546814BF0121002103F00303D4F86A
:1058180000C0D06843EA81031CEA000F43F0080186
:1058280018BF0B469908013B11740D2B0BD8DFE804
:1058380003F0110C070C0A161111160A0C070C11AB
:1058480053690233536110BC70475369013B10BC64
:10585800536170475369013310BC536170475369F2
:10586800023B10BC53617047645200201D4BD3F8B3
:10587800B42010689168006810B40842137C54681A
:1058880014BF0121002103F00303D4F800C0D0683D
:1058980043EA81031CEA000F43F0080118BF0B46D6
:1058A8009908013B11740D2B0BD8DFE803F0110C9C
:1058B800070C0A161111160A0C070C11536902334A
:1058C800536110BC70475369013B10BC536170476A
:1058D8005369013310BC536170475369023B10BCD4
:1058E80053617047645200201D4BD3F8B0201068F4
:1058F8009168006810B40842137C546814BF0121F1
:10590800002103F00303D4F800C0D06843EA810300
:105918001CEA000F43F0080118BF0B469908013B29
:1059280011740D2B0BD8DFE803F0110C070C0A16C5
:105938001111160A0C070C1153690233536110BC7C
:1059480070475369013B10BC536170475369013379
:1059580010BC536170475369023B10BC53617047D8
:10596800645200201D4BD3F8AC2010689168006881
:1059780010B40842137C546814BF0121002103F0BD
:105988000303D4F800C0D06843EA81031CEA000F7F
:1059980043F0080118BF0B469908013B11740D2B01
:1059A8000BD8DFE803F0110C070C0A161111160AC0
:1059B8000C070C1153690233536110BC70475369CB
:1059C800013B10BC536170475369013310BC5361EC
:1059D80070475369023B10BC536170476452002002
:1059E8001D4BD3F8A82010689168006810B40842CD
:1059F800137C546814BF0121002103F00303D4F879
:105A080000C0D06843EA81031CEA000F43F0080194
:105A180018BF0B469908013B11740D2B0BD8DFE812
:105A280003F0110C070C0A161111160A0C070C11B9
:105A380053690233536110BC70475369013B10BC72
:105A4800536170475369013310BC53617047536900
:105A5800023B10BC53617047645200201D4BD3F8C1
:105A6800A42010689168006810B40842137C546838
:105A780014BF0121002103F00303D4F800C0D0684B
:105A880043EA81031CEA000F43F0080118BF0B46E4
:105A98009908013B11740D2B0BD8DFE803F0110CAA
:105AA800070C0A161111160A0C070C115369023358
:105AB800536110BC70475369013B10BC5361704778
:105AC8005369013310BC536170475369023B10BCE2
:105AD80053617047645200201D4BD3F8A020106812
:105AE8009168006810B40842137C546814BF0121FF
:105AF800002103F00303D4F800C0D06843EA81030F
:105B08001CEA000F43F0080118BF0B469908013B37
:105B180011740D2B0BD8DFE803F0110C070C0A16D3
:105B28001111160A0C070C1153690233536110BC8A
:105B380070475369013B10BC536170475369013387
:105B480010BC536170475369023B10BC53617047E6
:105B5800645200201D4BD3F89C201068916800689F
:105B680010B40842137C546814BF0121002103F0CB
:105B78000303D4F800C0D06843EA81031CEA000F8D
:105B880043F0080118BF0B469908013B11740D2B0F
:105B98000BD8DFE803F0110C070C0A161111160ACE
:105BA8000C070C1153690233536110BC70475369D9
:105BB800013B10BC536170475369013310BC5361FA
:105BC80070475369023B10BC536170476452002010
:105BD8001D4BD3F8982010689168006810B40842EB
:105BE800137C546814BF0121002103F00303D4F887
:105BF80000C0D06843EA81031CEA000F43F00801A3
:105C080018BF0B469908013B11740D2B0BD8DFE820
:105C180003F0110C070C0A161111160A0C070C11C7
:105C280053690233536110BC70475369013B10BC80
:105C3800536170475369013310BC5361704753690E
:105C4800023B10BC53617047645200201D4BD3F8CF
:105C5800942010689168006810B40842137C546856
:105C680014BF0121002103F00303D4F800C0D06859
:105C780043EA81031CEA000F43F0080118BF0B46F2
:105C88009908013B11740D2B0BD8DFE803F0110CB8
:105C9800070C0A161111160A0C070C115369023366
:105CA800536110BC70475369013B10BC5361704786
:105CB8005369013310BC536170475369023B10BCF0
:105CC80053617047645200201D4BD3F89020106830
:105CD8009168006810B40842137C546814BF01210D
:105CE800002103F00303D4F800C0D06843EA81031D
:105CF8001CEA000F43F0080118BF0B469908013B46
:105D080011740D2B0BD8DFE803F0110C070C0A16E1
:105D18001111160A0C070C1153690233536110BC98
:105D280070475369013B10BC536170475369013395
:105D380010BC536170475369023B10BC53617047F4
:105D4800645200201D4BD3F88C20106891680068BD
:105D580010B40842137C546814BF0121002103F0D9
:105D68000303D4F800C0D06843EA81031CEA000F9B
:105D780043F0080118BF0B469908013B11740D2B1D
:105D88000BD8DFE803F0110C070C0A161111160ADC
:105D98000C070C1153690233536110BC70475369E7
:105DA800013B10BC536170475369013310BC536108
:105DB80070475369023B10BC53617047645200201E
:105DC8001D4BD3F8882010689168006810B4084209
:105DD800137C546814BF0121002103F00303D4F895
:105DE80000C0D06843EA81031CEA000F43F00801B1
:105DF80018BF0B469908013B11740D2B0BD8DFE82F
:105E080003F0110C070C0A161111160A0C070C11D5
:105E180053690233536110BC70475369013B10BC8E
:105E2800536170475369013310BC5361704753691C
:105E3800023B10BC53617047645200201D4BD3F8DD
:105E4800842010689168006810B40842137C546874
:105E580014BF0121002103F00303D4F800C0D06867
:105E680043EA81031CEA000F43F0080118BF0B4600
:105E78009908013B11740D2B0BD8DFE803F0110CC6
:105E8800070C0A161111160A0C070C115369023374
:105E9800536110BC70475369013B10BC5361704794
:105EA8005369013310BC536170475369023B10BCFE
:105EB80053617047645200201D4BD3F8802010684E
:105EC8009168006810B40842137C546814BF01211B
:105ED800002103F00303D4F800C0D06843EA81032B
:105EE8001CEA000F43F0080118BF0B469908013B54
:105EF80011740D2B0BD8DFE803F0110C070C0A16F0
:105F08001111160A0C070C1153690233536110BCA6
:105F180070475369013B10BC5361704753690133A3
:105F280010BC536170475369023B10BC5361704702
:105F3800645200201D4BDA6F10689168006810B435
:105F48000842137C546814BF0121002103F00303A5
:105F5800D4F800C0D06843EA81031CEA000F43F07C
:105F6800080118BF0B469908013B11740D2B0BD87B
:105F7800DFE803F0110C070C0A161111160A0C07BA
:105F88000C1153690233536110BC70475369013BCC
:105F980010BC536170475369013310BC536170479B
:105FA8005369023B10BC5361704700BF6452002024
:105FB8001D4B9A6F10689168006810B40842137CF2
:105FC800546814BF0121002103F00303D4F800C072
:105FD800D06843EA81031CEA000F43F0080118BFA8
:105FE8000B469908013B11740D2B0BD8DFE803F021
:105FF800110C070C0A161111160A0C070C1153691B
:106008000233536110BC70475369013B10BC5361A4
:1060180070475369013310BC536170475369023BA1
:1060280010BC5361704700BF645200201D4B5A6F6B
:1060380010689168006810B40842137C546814BF53
:106048000121002103F00303D4F800C0D06843EA1B
:1060580081031CEA000F43F0080118BF0B4699089A
:10606800013B11740D2B0BD8DFE803F0110C070C62
:106078000A161111160A0C070C11536902335361E1
:1060880010BC70475369013B10BC5361704753699A
:10609800013310BC536170475369023B10BC536114
:1060A800704700BF645200201D4B1A6F106891683A
:1060B800006810B40842137C546814BF0121002101
:1060C80003F00303D4F800C0D06843EA81031CEA54
:1060D800000F43F0080118BF0B469908013B1174E3
:1060E8000D2B0BD8DFE803F0110C070C0A16111161
:1060F800160A0C070C1153690233536110BC704720
:106108005369013B10BC536170475369013310BC9C
:10611800536170475369023B10BC5361704700BF1D
:10612800645200201D4BDA6E10689168006810B444
:106138000842137C546814BF0121002103F00303B3
:10614800D4F800C0D06843EA81031CEA000F43F08A
:10615800080118BF0B469908013B11740D2B0BD889
:10616800DFE803F0110C070C0A161111160A0C07C8
:106178000C1153690233536110BC70475369013BDA
:1061880010BC536170475369013310BC53617047A9
:106198005369023B10BC5361704700BF6452002032
:1061A8001D4B9A6E10689168006810B40842137C01
:1061B800546814BF0121002103F00303D4F800C080
:1061C800D06843EA81031CEA000F43F0080118BFB6
:1061D8000B469908013B11740D2B0BD8DFE803F02F
:1061E800110C070C0A161111160A0C070C11536929
:1061F8000233536110BC70475369013B10BC5361B3
:1062080070475369013310BC536170475369023BAF
:1062180010BC5361704700BF645200201D4B5A6E7A
:1062280010689168006810B40842137C546814BF61
:106238000121002103F00303D4F800C0D06843EA29
:1062480081031CEA000F43F0080118BF0B469908A8
:10625800013B11740D2B0BD8DFE803F0110C070C70
:106268000A161111160A0C070C11536902335361EF
:1062780010BC70475369013B10BC536170475369A8
:10628800013310BC536170475369023B10BC536122
:10629800704700BF645200201D4B1A6E1068916849
:1062A800006810B40842137C546814BF012100210F
:1062B80003F00303D4F800C0D06843EA81031CEA62
:1062C800000F43F0080118BF0B469908013B1174F1
:1062D8000D2B0BD8DFE803F0110C070C0A1611116F
:1062E800160A0C070C1153690233536110BC70472E
:1062F8005369013B10BC536170475369013310BCAB
:10630800536170475369023B10BC5361704700BF2B
:10631800645200201D4BDA6D10689168006810B453
:106328000842137C546814BF0121002103F00303C1
:10633800D4F800C0D06843EA81031CEA000F43F098
:10634800080118BF0B469908013B11740D2B0BD897
:10635800DFE803F0110C070C0A161111160A0C07D6
:106368000C1153690233536110BC70475369013BE8
:1063780010BC536170475369013310BC53617047B7
:106388005369023B10BC5361704700BF6452002040
:106398001D4B9A6D10689168006810B40842137C10
:1063A800546814BF0121002103F00303D4F800C08E
:1063B800D06843EA81031CEA000F43F0080118BFC4
:1063C8000B469908013B11740D2B0BD8DFE803F03D
:1063D800110C070C0A161111160A0C070C11536937
:1063E8000233536110BC70475369013B10BC5361C1
:1063F80070475369013310BC536170475369023BBE
:1064080010BC5361704700BF645200201D4B5A6D89
:1064180010689168006810B40842137C546814BF6F
:106428000121002103F00303D4F800C0D06843EA37
:1064380081031CEA000F43F0080118BF0B469908B6
:10644800013B11740D2B0BD8DFE803F0110C070C7E
:106458000A161111160A0C070C11536902335361FD
:1064680010BC70475369013B10BC536170475369B6
:10647800013310BC536170475369023B10BC536130
:10648800704700BF645200201D4B1A6D1068916858
:10649800006810B40842137C546814BF012100211D
:1064A80003F00303D4F800C0D06843EA81031CEA70
:1064B800000F43F0080118BF0B469908013B1174FF
:1064C8000D2B0BD8DFE803F0110C070C0A1611117D
:1064D800160A0C070C1153690233536110BC70473C
:1064E8005369013B10BC536170475369013310BCB9
:1064F800536170475369023B10BC5361704700BF3A
:10650800645200201D4BDA6C10689168006810B462
:106518000842137C546814BF0121002103F00303CF
:10652800D4F800C0D06843EA81031CEA000F43F0A6
:10653800080118BF0B469908013B11740D2B0BD8A5
:10654800DFE803F0110C070C0A161111160A0C07E4
:106558000C1153690233536110BC70475369013BF6
:1065680010BC536170475369013310BC53617047C5
:106578005369023B10BC5361704700BF645200204E
:106588001D4B9A6C10689168006810B40842137C1F
:10659800546814BF0121002103F00303D4F800C09C
:1065A800D06843EA81031CEA000F43F0080118BFD2
:1065B8000B469908013B11740D2B0BD8DFE803F04B
:1065C800110C070C0A161111160A0C070C11536945
:1065D8000233536110BC70475369013B10BC5361CF
:1065E80070475369013310BC536170475369023BCC
:1065F80010BC5361704700BF645200201D4B5A6C99
:1066080010689168006810B40842137C546814BF7D
:106618000121002103F00303D4F800C0D06843EA45
:1066280081031CEA000F43F0080118BF0B469908C4
:10663800013B11740D2B0BD8DFE803F0110C070C8C
:106648000A161111160A0C070C115369023353610B
:1066580010BC70475369013B10BC536170475369C4
:10666800013310BC536170475369023B10BC53613E
:10667800704700BF645200201D4B1A6C1068916867
:10668800006810B40842137C546814BF012100212B
:1066980003F00303D4F800C0D06843EA81031CEA7E
:1066A800000F43F0080118BF0B469908013B11740D
:1066B8000D2B0BD8DFE803F0110C070C0A1611118B
:1066C800160A0C070C1153690233536110BC70474A
:1066D8005369013B10BC536170475369013310BCC7
:1066E800536170475369023B10BC5361704700BF48
:1066F800645200201D4BDA6B10689168006810B472
:106708000842137C546814BF0121002103F00303DD
:10671800D4F800C0D06843EA81031CEA000F43F0B4
:10672800080118BF0B469908013B11740D2B0BD8B3
:10673800DFE803F0110C070C0A161111160A0C07F2
:106748000C1153690233536110BC70475369013B04
:1067580010BC536170475369013310BC53617047D3
:106768005369023B10BC5361704700BF645200205C
:106778001D4B9A6B10689168006810B40842137C2E
:10678800546814BF0121002103F00303D4F800C0AA
:10679800D06843EA81031CEA000F43F0080118BFE0
:1067A8000B469908013B11740D2B0BD8DFE803F059
:1067B800110C070C0A161111160A0C070C11536953
:1067C8000233536110BC70475369013B10BC5361DD
:1067D80070475369013310BC536170475369023BDA
:1067E80010BC5361704700BF645200201D4B5A6BA8
:1067F80010689168006810B40842137C546814BF8C
:106808000121002103F00303D4F800C0D06843EA53
:1068180081031CEA000F43F0080118BF0B469908D2
:10682800013B11740D2B0BD8DFE803F0110C070C9A
:106838000A161111160A0C070C1153690233536119
:1068480010BC70475369013B10BC536170475369D2
:10685800013310BC536170475369023B10BC53614C
:10686800704700BF645200201D4B1A6B1068916876
:10687800006810B40842137C546814BF0121002139
:1068880003F00303D4F800C0D06843EA81031CEA8C
:10689800000F43F0080118BF0B469908013B11741B
:1068A8000D2B0BD8DFE803F0110C070C0A16111199
:1068B800160A0C070C1153690233536110BC704758
:1068C8005369013B10BC536170475369013310BCD5
:1068D800536170475369023B10BC5361704700BF56
:1068E800645200201D4BDA6A10689168006810B481
:1068F8000842137C546814BF0121002103F00303EC
:10690800D4F800C0D06843EA81031CEA000F43F0C2
:10691800080118BF0B469908013B11740D2B0BD8C1
:10692800DFE803F0110C070C0A161111160A0C0700
:106938000C1153690233536110BC70475369013B12
:1069480010BC536170475369013310BC53617047E1
:106958005369023B10BC5361704700BF645200206A
:106968001D4B9A6A10689168006810B40842137C3D
:10697800546814BF0121002103F00303D4F800C0B8
:10698800D06843EA81031CEA000F43F0080118BFEE
:106998000B469908013B11740D2B0BD8DFE803F067
:1069A800110C070C0A161111160A0C070C11536961
:1069B8000233536110BC70475369013B10BC5361EB
:1069C80070475369013310BC536170475369023BE8
:1069D80010BC5361704700BF645200201D4B5A6AB7
:1069E80010689168006810B40842137C546814BF9A
:1069F8000121002103F00303D4F800C0D06843EA62
:106A080081031CEA000F43F0080118BF0B469908E0
:106A1800013B11740D2B0BD8DFE803F0110C070CA8
:106A28000A161111160A0C070C1153690233536127
:106A380010BC70475369013B10BC536170475369E0
:106A4800013310BC536170475369023B10BC53615A
:106A5800704700BF645200201D4B1A6A1068916885
:106A6800006810B40842137C546814BF0121002147
:106A780003F00303D4F800C0D06843EA81031CEA9A
:106A8800000F43F0080118BF0B469908013B117429
:106A98000D2B0BD8DFE803F0110C070C0A161111A7
:106AA800160A0C070C1153690233536110BC704766
:106AB8005369013B10BC536170475369013310BCE3
:106AC800536170475369023B10BC5361704700BF64
:106AD800645200201D4BDA6910689168006810B490
:106AE8000842137C546814BF0121002103F00303FA
:106AF800D4F800C0D06843EA81031CEA000F43F0D1
:106B0800080118BF0B469908013B11740D2B0BD8CF
:106B1800DFE803F0110C070C0A161111160A0C070E
:106B28000C1153690233536110BC70475369013B20
:106B380010BC536170475369013310BC53617047EF
:106B48005369023B10BC5361704700BF6452002078
:106B58001D4B9A6910689168006810B40842137C4C
:106B6800546814BF0121002103F00303D4F800C0C6
:106B7800D06843EA81031CEA000F43F0080118BFFC
:106B88000B469908013B11740D2B0BD8DFE803F075
:106B9800110C070C0A161111160A0C070C1153696F
:106BA8000233536110BC70475369013B10BC5361F9
:106BB80070475369013310BC536170475369023BF6
:106BC80010BC5361704700BF645200201D4B5A69C6
:106BD80010689168006810B40842137C546814BFA8
:106BE8000121002103F00303D4F800C0D06843EA70
:106BF80081031CEA000F43F0080118BF0B469908EF
:106C0800013B11740D2B0BD8DFE803F0110C070CB6
:106C18000A161111160A0C070C1153690233536135
:106C280010BC70475369013B10BC536170475369EE
:106C3800013310BC536170475369023B10BC536168
