:0200000460009A
:100000004643464200000156000000000101020084
:1000100000000000000000000000000000000000E0
:1000200000000000000000000000000000000000D0
:1000300000000000000000000000000000000000C0
:1000400000000000010406010000000000000000A4
:100050000000800000000000000000000000000020
:100060000000000000000000000000000000000090
:100070000000000000000000000000000000000080
:10008000EB04180AFF1E04320126000000000000E5
:100090000000000000000000000000000000000060
:1000A0000000000000000000000000000000000050
:1000B0000000000000000000000000000000000040
:1000C0000000000000000000000000000000000030
:1000D0000000000000000000000000000000000020
:1000E0000000000000000000000000000000000010
:1000F0000000000000000000000000000000000000
:1001000000000000000000000000000000000000EF
:1001100000000000000000000000000000000000DF
:1001200000000000000000000000000000000000CF
:1001300000000000000000000000000000000000BF
:1001400000000000000000000000000000000000AF
:10015000000000000000000000000000000000009F
:10016000000000000000000000000000000000008F
:10017000000000000000000000000000000000007F
:10018000000000000000000000000000000000006F
:10019000000000000000000000000000000000005F
:1001A000000000000000000000000000000000004F
:1001B000000000000000000000000000000000003F
:1001C000000100000010000001000000000000001D
:1001D000000001000000000000000000000000001E
:1001E000000000000000000000000000000000000F
:1001F00000000000000000000000000000000000FF
:10020000FFFFFFFFFFFFFFFFFFFFFFFFFFFFFFFFFE
:10021000FFFFFFFFFFFFFFFFFFFFFFFFFFFFFFFFEE
:10100000D1002043F1150060000000000000000046
:10101000201000600010006000C4026000000000AA
:101020000000006000D0020000000000FFFFFFFF92
:10103000FFFFFFFFFFFFFFFFFFFFFFFFFFFFFFFFC0
:10104000FFFFFFFFFFFFFFFFFFFFFFFFFFFFFFFFB0
:10105000FFFFFFFFFFFFFFFFFFFFFFFFFFFFFFFFA0
:10106000FFFFFFFFFFFFFFFFFFFFFFFFFFFFFFFF90
:10140000824205D051F8043B40F8043B8242F9D8AF
:10141000704700BF044A05494FF0000342F8043BFF
:101420009142FBD8704700BFC03A002040540020D2
:1014300008B5BFF34F8F00F047F9544C544B0820C8
:101440005449C3F85401544AC3F800115348C3F82F
:10145000F0405349FFF7D4FF524A53495348FFF72E
:10146000CFFF534CFFF7D6FF4FF470004FF0E02151
:101470000023504AC1F8880D44F823200133B02BD3
:10148000FAD14D4B80214D4A03F8011B9342FBD109
:101490004FF0E0254A4E4B4A4FF0FF31C5F8084D5A
:1014A000D5F8243D43F4E023C5F8243DF36923F047
:1014B0007F0343F04003F361736A23F07F0343F03B
:1014C000400373629166D1661167516700F004F9B9
:1014D0003D4A3E4BA2636322E36300246A61032317
:1014E0003B4AAC612B61C5F8202DD5F8FC2D394B5A
:1014F00042F080723849C5F8FC2D1A6842F00102AA
:101500001A605B680B6000F0B7FA344800F064FCC6
:10151000F16E334B334A41F44051F1661C60C3F81D
:101520000841C3F81841C3F82841C3F83841936B08
:10153000DB0708D442F615632B4951651365936B9D
:1015400043F001039363274A284C936843F0011347
:10155000936000F04FF900F0FBFB00F045FC00F059
:10156000BDFA00F0B3F82368132BFCD900F052FB4E
:101570002368B3F5967FFBD300F0ACF800F0A8F831
:1015800000F016FC00F02CFC30BFFDE70C0D111331
:1015900000800D401B101820F864020000000000BD
:1015A00098200060C03A002094850260000000206E
:1015B0000038002065BF010000E400E0A0E400E086
:1015C00000C00F4000C00A4089A201008DA20100A6
:1015D00000002020001000E0BC5300200046C32380
:1015E0000040084000400D400000C056C05300209D
:1015F000054B4FF42A01054A05485A641864054A08
:1016000099639546FFF714FF00C00A40FFABAAAAF2
:101610000700200000800520294A00210123C2F88C
:10162000A000C2F8A410C2F8B0305369D907FCD5A5
:1016300001234FF4803C22495361C2F8A000C2F854
:10164000A4C0C2F8B0304B69DB07FCD501234FF4CE
:10165000003C1B4A4B61C1F8A000C1F8A4C0C1F80E
:10166000B0305369D907FCD50123DFF858C01449BD
:101670005361C2F8A000C2F8A4C0C2F8B0304B69F0
:10168000DB07FCD5D1F8003145F60D504FF0210CA9
:101690009AB2C1F814C0824210D045F69D518A42D8
:1016A0000AD1C3F34253032B08D0A3F10403B3FAC6
:1016B00083F35B09180170470020704708207047CA
:1016C00000402A4004000300704700BF704700BF7D
:1016D000704700BF00BF70474FF0E02300214FF07C
:1016E000100C3448C3F8941DC3F89CCD4FF0110C76
:1016F000C3F8A00D3048C3F89CCD4FF0120CC3F8CE
:10170000A00D2E48C3F89CCD2D4AC3F8A00DDFF8DC
:10171000D0C042F015022B48C3F89CCDC3F8A00DF1
:10172000DFF8C0C02848C3F89CCDC3F8A00DDFF88F
:10173000B8C0C3F89C2D2548254AC3F8A0CDC3F8EE
:101740009C0DC3F8A02D02F5A022DFF8A0C00C323A
:101750002048C3F89CCDC3F8A02D1F4AC3F89C0DA8
:10176000C3F8A02D02F14062DFF884C002321B48AA
:10177000C3F89CCDC3F8A02D0A32C3F89C0DC3F862
:10178000A02D00BF00BF00BF00BF00BF0122C3F8F3
:10179000942DBFF34F8FBFF36F8FC3F8501FBFF36C
:1017A0004F8FBFF36F8FD3F8142D42F44032C3F83C
:1017B000142D70473F000010250008070900100095
:1017C00040540020210002072500081316002020A5
:1017D00027000B13180000602F000B071A00008071
:1017E0001300200014000020090000101700004022
:1017F0001900007030B5864B85B0DFF874E218220E
:10180000844D0120C3F85CE28349C3F86052A5F51A
:101810008055DFF860C2814CC3F864E2C3F86852B7
:101820002125C3F86CC2C3F870C2C3F874C2C3F8F0
:1018300078C248F20C7CDA661A675A679A67DA67E8
:10184000C3F88020C3F88420C3F88820C1F82C0393
:10185000734AC1F83003C1F83403C1F83803C1F842
:101860003C03C1F85003A1696E4B0A406E486F49B2
:1018700013436F4AA361D4F8843043F00C03C4F8D7
:1018800084304FF0FF34036843F0020303600368C1
:1018900003EA0C031A43674B026044608A68664C93
:1018A0001340664A43F000538360C36823F0780313
:1018B000C360036A23401A43604B0262026A2240FB
:1018C0005F4C1343002243628462C46240F20564A9
:1018D000D1F8B83023F03F0343F00103C0F8B8302B
:1018E000D1F8BC30574923F03F0343F00103C0F85F
:1018F000BC3002610567C0F880404567C0F884408D
:101900000224036823F00203036081614E4B4F49B8
:10191000C46143F8042B8B42FBD1434C236843F052
:1019200001032360256815F00105FBD1454802221B
:1019300040F2F561A06140F29940E26140F26642F6
:10194000C4F8001242F20141C4F81022404AC4F81F
:101950002002C4F8302240F23542C4F834123D4827
:10196000C4F840223C4AC4F850022846C4F8542225
:1019700042F201223949C4F86012C4F86422FFF728
:101980004BFE0246002839D0810201234FF480200B
:1019900021662549C4F8A050C4F8A400C4F8B030AA
:1019A0004B69D807FCD515050124039228464C61E4
:1019B000FFF732FE039A2A4B0244D2B21A7080B16A
:1019C000194980024FF4802348660846C1F8A050A8
:1019D000C1F8A430C1F8B0404369DB07FCD501234E
:1019E000436120490024204801230094401A00EB61
:1019F00002521E4800F0E8F905B030BD1B4B1849F3
:101A000018600870D860C3E9010005B030BD00BFA0
:101A100000801F40F910010000841F4000C00F40EB
:101A2000FFFCFF1F0003008000402A4000802A4086
:101A30001200FFFFFF37F70000FFF07C400000803E
:101A4000FF000F83F05AF05A00422A4000432A4018
:101A50009F041830EB06180A063201263806180AC9
:101A60000154002000000070000000704853002066
:101A7000F9B00100F970010010B5174A4FF4805415
:101A80004FF4005E4FF4404C4FF4803043F242017B
:101A9000136913F0020F0DD113F4005F0FD013F48C
:101AA000805F0FD0002BF3DA13F4803F0CD15B067C
:101AB0000ED510BDC2F818C050619161E8E7C2F8B8
:101AC00014E0E5E75461E3E74FF480339361DFE727
:101AD00040235361DCE700BF00800D40414A0320F2
:101AE0004149F3EE095AD2F880309FED406A23F065
:101AF00001039FED3F5ADFF814C100B5C2F88030F2
:101B0000C2F89000D1F8E010DFF804E1CBB2394818
:101B1000CEF8003007EE903A0B0DC1F30B21F8EE32
:101B2000E77A06EE903A07EE101A334BB8EEC77A12
:101B3000CCF80010F8EEE66A304937EEC66A37EEA8
:101B4000C55A76EEC76A77EEE57A26EE266AC3EDC9
:101B5000006A25EE265AD2F8803067EEA64AC0ED1C
:101B6000007AC6EE275A264885EE276AC4EEA76A91
:101B700075EE875AFCEEE55A36EE076A15EE90CA06
:101B8000BCEEC66A43EA0C5376EE877AC2F8803020
:101B900016EE103AD2F890C1FCEEE77A01EA034162
:101BA00041EA0C014FF0000C17EE903AC2F8901188
:101BB000C3F30B03D2F890110B431249C2F89031D2
:101BC000D2F8803043F00203C2F880300E4B80F828
:101BD00040C0C1F840314FF0E0230122C3F8082192
:101BE00000BD00BF00810D4000441F400000AA421C
:101BF0000000B442B0530020B45300200000FF0F97
:101C000000E400E00038002049C10100A853002092
:101C1000AC530020314B40F6617210B5C3F820215F
:101C200040F2044400F0CCF82D4A2E49D2F880301E
:101C30002D4843F00303C2F880302C4BC1F86041BB
:101C400002681A4203D1D1F8A8319A071BD0254A5D
:101C50004FF00041244B5963D2F8403143F0020366
:101C6000C2F84031D2F840319B07FBD44FF400302A
:101C70004FF0E0211C4B4FF00042C1F88C021920BC
:101C80009A6300F0A5F8184B0021164C4FF08042E3
:101C90000A209A634FF420721960C4F8A80114480E
:101CA00000F08AF84FF4800203464FF4810040F2BE
:101CB00043111860C4F858311A640E4B0E4AC4F828
:101CC0004811C3F804224FF0E0224FF40031012301
:101CD000C2F80C11C4F8403110BD00BF00800D40A7
:101CE00000C00F4000002E4000900D40001C1E0060
:101CF00000000020003800204DC3010008B50E4B45
:101D00001B6E9B0700D4FBBE72B60C4B00200C4A26
:101D1000C3F8400103F160430A49A3F55F2311644E
:101D20009D46BFF34F8F4FF40013074A0748DB6906
:101D300002609B68984700BF00441F4000002E408F
:101D400000C00A4003002000000012EB00802020A9
:101D50000F4B40F2376C0F4AA020D96E41F440314E
:101D6000D966D96E41F44071D966C2F844C0906416
:101D7000936C1B06FCD4084A40F23761A0235164DF
:101D80009364936C13F08003FBD1044A1370704783
:101D900000C00F4000400C4000800C400054002068
:101DA000F8B500BFF8BC08BC9E46704700000000B4
:101DB0005FF800F0BDF901005FF800F0A9F601003E
:101DC0005FF800F0B9CA01005FF800F039D60100F1
:101DD0005FF800F0C1B401005FF800F0ADB10100A0
:101DE0005FF800F0EDB801005FF800F04DBE0100B3
:101DF00005010000911F0000DD1F0000F5740000C8
:101E0000B58100007D900000FD4A01007986010047
:0C1E1000419F010099B00100BDD5010008
:101E1C006CC00F40030000000E0D00008D8200000E
:101E2C002A3600001400000013000000010000001E
:101E3C00F4841F402B32000014000000130000003B
:101E4C0001000000F8841F402D3100001400000038
:101E5C001300000001000000F0841F402CFFFF0065
:101E6C001400000000000000000000000100000051
:101E7C0000000000EC841F40000000000000000087
:101E8C006CC00F4030000000100F00008D8200006D
:101E9C0001270000170000001200000000010000E4
:101EAC0014851F401AFF0000120000000000000003
:101EBC000100000018851F401BFF000012000000ED
:101ECC00000000000100000010851F400026FF00EC
:101EDC0017000000120000000000000001010000CB
:101EEC00010000000C851F400C851F400000000005
:101EFC006CC00F40C0000000504F00006183000018
:101F0C000CFF0000130000000000000000000000A7
:101F1C0024851F400BFF0000130000000000000090
:101F2C000000000028851F400DFF0000130000007A
:101F3C00000000000000000020851F400A2524003E
:101F4C001300000012000000120000000102030048
:101F5C000000000000000000000000000000000075
:101F6C00090180961180FF3A81550A3601082A042E
:101F7C00000000F02B040000014021800A13800AAD
:101F8C002980FF0016035500530042002000530027
:101F9C0065007200690061006C00000018035400B9
:101FAC00650065006E0073007900640075006900BF
:101FBC006E006F000403090409026200030100C0F3
:101FCC0032080B00020202010009040000010202A7
:101FDC00010005240010010524010101042402065E
:101FEC0005240600010705820310001009040100F6
:101FFC00020A0000000705030240000007058402E6
:10200C004000000904020002FF6AFF00070581027C
:10201C0040000107050102400001000009026200B6
:10202C00030100C032080B00020202010009040087
:10203C000001020201000524001001052401010128
:10204C00042402060524060001070582031000057E
:10205C0009040100020A0000000705030200020047
:10206C00070584020002000904020002FF6AC7008F
:10207C0007058102000201070501020002010000B0
:0C208C000A060002EF0201400100000003
:102098000000000000000000000000000000000038
:1020A8000000000000000000000000000000000028
:1020B800F8B54FF084439D695A6915400DD0254FF6
:1020C80001269D6195FAA5F4B4FA84F457F82430F2
:1020D80006FA04F49847A543F4D11F4B9D695A6941
:1020E80015400DD01D4F01269D6195FAA5F4B4FA4F
:1020F80084F457F8243006FA04F49847A543F4D139
:10210800174B9D695A6915400DD0164F01269D61E0
:1021180095FAA5F4B4FA84F457F8243006FA04F4CE
:102128009847A543F4D1104B9D695A6915400DD0C5
:102138000E4F01269D6195FAA5F4B4FA84F457F878
:10214800243006FA04F49847A543F4D1BFF34F8F1F
:10215800F8BD00BF14320020004000429432002035
:10216800008000421433002000C000429433002055
:102178000548064B1B1AD90F01EBA301491002D0E1
:10218800034B03B118477047C03A0020C03A0020FB
:102198000000000008B5054B1BB105490548AFF321
:1021A8000080BDE80840FFF7E3BF00BF0000000063
:1021B8005853002000D0026000207047704700BFCD
:1021C800036D0BB101207047406DC01A18BF012084
:1021D800704700BF0346806D80B100B583B001939E
:1021E8001DF0C8FA0022019B9A651A6D62B103F1CD
:1021F800180003B05DF804EB0DF0AABC1A6D42B1EB
:1022080003F118000DF0A4BC5A6D002AEFD103B0F9
:1022180000BD5A6D002AF3D1704700BF10B5046D98
:102228006CB10BB1002010BD114620460BF062FACC
:102238000028F7D02046BDE810400BF05DBF446D84
:10224800002CEFD0204609F023F90028EAD02046D8
:10225800BDE8104009F0DEBF8A79A2F150031B06E1
:1022680028D4D0F850C002F26C7230B54B7985B0E2
:1022780091F804E001338C784D78DBB20978BCF131
:10228800000F0AD060460194CDF800E0CDE9025174
:1022980002210BF0BBFE05B030BD406D0028FAD01E
:1022A8000194CDF800E0CDE90251022109F0E8FEE1
:1022B80005B030BD00207047816D09B108467047F0
:1022C80000B583B001904FF480701DF04BFA019B6C
:1022D80001469865B8B10022186D0A7040B14FF4F4
:1022E80080720DF089F8019B996D084603B000BD16
:1022F800586D0028F9D04FF4807201930AF0BCFCA5
:10230800019B996DF1E7024A11469A65EDE700BF16
:10231800FF5300200246006D0B4600B585B040B360
:1023280001910DF10E0203A90BF04EFE019B58B36B
:10233800BDF80C20BDF80E1052EA010024D0C1F3FC
:10234800451E01F01F00C90AC2F3431C400083F870
:1023580001E09970510A0CF1FF3C02F01F0201F5EF
:10236800EA611870012083F805C01A71997105B0E7
:1023780000BD506D40B10DF10E0203A9019308F0A4
:1023880035FF019B0028D3D1002005B000BD00BF58
:102398000246006D0B4600B585B040B301910DF1C2
:1023A8000E0203A90BF0EEFD019B58B3BDF80C20FB
:1023B800BDF80E1052EA010024D0C1F3451E01F009
:1023C8001F00C90AC2F3431C400083F801E099705A
:1023D800510A0CF1FF3C02F01F0201F5EA61187086
:1023E800012083F805C01A71997105B000BD506DC0
:1023F80040B10DF10E0203A9019308F0E5FE019B1F
:102408000028D3D1002005B000BD00BF10B5036976
:1024180082B08DF80710C3B11968114AC968914292
:102428000C4615D1186D30B101220DF107010BF0E2
:10243800A1FE02B010BD586D0028FAD001220DF19E
:10244800070109F05BFF02B010BD184602B010BDCD
:1024580001220DF107011846A04702B010BD00BFC8
:1024680065070000036963B11A68074992698A42DF
:1024780008D1186D08B10BF067BA586D08B109F0AA
:102488007BBC70471846104751070000006990B19F
:102498000368154A1B69934225D1036D63B1187807
:1024A80010F0080007D0D8695B69C01A48BF6FF000
:1024B8000040704718467047436D002BFAD093F8D8
:1024C800310010F00800F6D0186919685A69401AE6
:1024D8005B6862EB0303B0F1004F73F10003EAD3CA
:1024E8006FF000407047184709080000036D13B1EA
:1024F800586900217047436D13B1D3E90001704753
:1025080018461946704700BF036D13B1D8690021FA
:102518007047436D13B1D3E9040170471846194653
:10252800704700BF036D13B118460BF065B8406DD6
:1025380008B108F097BF4FF0FF307047026D82B1C5
:10254800137813F0700F00D1704700B583B00021E5
:10255800019010460BF0CEF8019B586D70B903B08E
:1025680000BD406D0028EFD090F8313013F0500FC7
:1025780003D00022002308F08BBF704700220023FD
:1025880003B05DF804EB08F083BF00BF036973B1C3
:102598001A68084952698A4207D1186D08B10BF0C8
:1025A8002BB8586D18B108F05DBF184610474FF0AA
:1025B800FF30704795040000836C13B118460BF088
:1025C8001BB8C06C08B108F04DBF4FF0FF30704722
:1025D80070B59FED297B94B000224FF47A76284D90
:1025E8000446183104A88DF80C200095CDE9012681
:1025F8008DED127B0DF010FB129B002B2FD05C2071
:102608001BF05EFA1F490022064601601830019946
:1026180040F8142C40F80C1C1B4940F8101C029977
:1026280040F8081C9DF80C1000F8041C04A90DF0D3
:1026380049FA00224FF47A71B560B265626022737C
:10264800124AA16022607268266101327260104BE2
:1026580004A800930DF07CFA204614B070BD139BBB
:10266800002BCCD1094A237322602361C4E90136C7
:10267800EDE700BFAFF3008000000000000000009D
:10268800481700206C170020D81900201C170020BC
:10269800E4140020036D13B118460AF0C3BE406D60
:1026A80008B108F015BE4FF0FF307047836C00B5D5
:1026B80083B05BB101220DF1070118460AF0B2FEA2
:1026C80001280BD19DF8070003B000BDC06C28B1EC
:1026D80001220DF1070108F0FBFDF1E74FF0FF3093
:1026E800F2E700BF036D33B11B7813F0700F14BF0E
:1026F800012000207047406D30B190F8313013F060
:10270800500F14BF01200020704700BF03693BB37E
:1027180018680021144A10B5846882B094428DF874
:10272800071014D1186D48B101220DF107010AF004
:1027380079FE90B19DF8070002B010BD586D0028D1
:10274800FAD001220DF1070108F0C2FDF1E70122DC
:102758000DF107011846A047EBE74FF0FF30EBE714
:102768004FF0FF30704700BF050600008A79A2F1DC
:1027780050031B0628D4D0F850C002F26C7230B552
:102788004B7985B091F804E001338C784D78DBB251
:102798000978BCF1000F0AD060460194CDF800E03A
:1027A800CDE9025104210BF031FC05B030BD406D7C
:1027B8000028FAD00194CDF800E0CDE902510421B7
:1027C80009F05EFC05B030BD00207047836C13B182
:1027D80018460BF0B9B8C06C08B109F0CDBA70470B
:1027E800036D13B118460BF0AFB8406D08B109F08E
:1027F800C3BA7047036D13B118460BF0BBBC406DEC
:1028080008B109F07BBD7047836C13B118460BF013
:10281800B1BCC06C08B109F071BD704700B5836CDC
:1028280083B08DF807103BB101220DF1070118465E
:102838000BF0A0FC03B000BDC06C0028FAD0012248
:102848000DF1070109F05AFD03B000BD836C53B1C7
:10285800187810F008000DD0D8695B69C01A48BF15
:102868006FF000407047C36CA3B193F8310010F0CB
:10287800080000D17047186919685A69401A5B68DE
:1028880062EB0303B0F1004F73F10003F2D36FF072
:10289800004070471846EDE7036D53B1187810F003
:1028A80008000DD0D8695B69C01A48BF6FF00040B6
:1028B8007047436DA3B193F8310010F0080000D1C0
:1028C8007047186919685A69401A5B6862EB030314
:1028D800B0F1004F73F10003F2D36FF0004070477E
:1028E8001846EDE70369CBB10D4810B51C68D4F85C
:1028F8000CE086450DD1186D18B1BDE810400BF0FD
:1029080039BC586D18B1BDE8104009F0F7BC00207B
:1029180010BD18467346BDE81040184700207047A0
:102928006507000010B5104B0446806D82B0236027
:1029380018B11CF01FFF0023A365236D73B104F1C8
:102948001803184601930DF003F9019B074A18462E
:10295800A2600DF0FDF8204602B010BD636D002B9B
:10296800EDD104F11803F1E76C170020E4140020FE
:1029780010B5124B0446806D82B0236018B11CF06C
:10298800F9FE0023A365236D93B104F118031846DB
:1029980001930DF0DDF8019B094A1846A2600DF07D
:1029A800D7F820465C211BF091F8204602B010BDF4
:1029B800636D002BE9D104F11803EDE76C170020D3
:1029C800E414002010B5029994469E4629B10129C5
:1029D8001ED002290FD0002010BD046D0CB34FF09B
:1029E800FF33934271EB0E03F5D320461146BDE841
:1029F80010400AF07FBE036D23B3D96989184EF1E0
:102A08000002002AE7D11846BDE810400AF072BE5D
:102A1800036D6BB1596989184EF10002002ADAD1A9
:102A2800F1E7406D0028D6D0BDE8104008F030BD71
:102A3800406D0028CFD0D0E900231CEB020243EB05
:102A48000E03F1E7406D0028C5D0D0E904231CEB44
:102A5800020243EB0E03BDE8104008F019BD00BFA9
:102A68003649034602690160002A50D0516801398D
:102A7800516000294BD1324810B5146884B0E46A1B
:102A880084424AD1906D40B10391CDE901231CF0F5
:102A980071FE019A0399029B9165116D002938D046
:102AA80002F1180001930DF053F8019B1A695AB30B
:102AB80011682448496881423AD12349906D1160D0
:102AC80038B1CDE901231CF055FE0021019A029B83
:102AD8009165116D31B302F1180103930292084612
:102AE80001910DF035F80199DDE90223DFF85CC0AA
:102AF80008460293C2F808C001920DF029F85C213B
:102B080001981AF0E3FF029B184604B010BD18465E
:102B18007047516D0029C3D1C8E701931046A047FB
:102B2800019BC3E7516D0029D5D102F11801DDE7FA
:102B3800019310468847019BE6E700BF1C17002059
:102B480045010000E10800006C170020E414002093
:102B58002F4A036910B5044682B00260002B3FD0AB
:102B68005A68013A5A60002A3AD119682948C96A4C
:102B7800814240D1986D30B1CDE900321CF0FAFDA8
:102B8800DDE900329A651A6D002A30D003F1180089
:102B98000CF0DEFF23691BB31A681F4952688A428A
:102BA80032D11E4A986D1A6028B100931CF0E2FDDC
:102BB8000022009B9A651A6D02B303F11802019373
:102BC800104600920CF0C4FFDDE9002314491046BA
:102BD800009399600CF0BCFF5C2100981AF076FF16
:102BE800204614211AF072FF204602B010BD5A6D1B
:102BF800002ACBD1CEE718468847CBE75A6D002A82
:102C0800DBD103F11802E1E718469047E8E700BF77
:102C18001C17002045010000E10800006C17002087
:102C2800E414002038B50824FE21074808F0EAF922
:102C3800054696201DB91AF08BFC013CF4D1034BD4
:102C480028461D7038BD00BFE43F0020FC5300201B
:102C5800014B1878704700BFFC5300208A4B2DE9C0
:102C6800F0411F7896B0002F00F095800124874E20
:102C780008E002930AF050FFE8B1013442F2107301
:102C88009C4218D02346824A102182481EF09CFBA1
:102C9800D6F884547F4A02A800232946002DE8D19B
:102CA800D6F888142B467B4A02A821B10E9508F065
:102CB800E1FE0028E1D144F20223764A764902A8CF
:102CC8000DF056F8149B002B00F094805C20002532
:102CD8001AF0F6FE039B714A0446C36006A9049BDA
:102CE8006F4E03619DF81430C0E900256D4A183015
:102CF80000F8043C40F8102C0CF0E4FE63686A4AC3
:102D080006A80133A565A2606360684B98460293E4
:102D18000CF01EFF3569002D42D06B68013B6B60DB
:102D2800002B3DD12B68624ADB6A934240F09E80BB
:102D3800A86D18B11CF01EFD0023AB652B6D002B90
:102D480000F08F8005F118000CF002FF356905B31B
:102D58002B68584A5B68934240F092804F4BA86DAD
:102D68002B6018B11CF006FD0023AB652B6D002B02
:102D78007FD005F11803184601930CF0E9FE019B7A
:102D88001846C5F808800CF0E3FE5C2128461AF0C6
:102D98009DFE34612CB90027384616B0BDE8F08195
:102DA80034612368444A1B6B93423CD1236D002B4A
:102DB80035D03369BBB11A684049D4688C4244D1D4
:102DC800186D00283AD007223D490BF0D3F9336932
:102DD8004BB11A683B4992698A423FD1186D002865
:102DE80026D00AF0B1FD384B002238461A6016B0DA
:102DF800BDE8F081159C002C7FF468AF2B4B06A82A
:102E0800274E984602930CF0A3FE3569002DC2D0D8
:102E18006B68013B6B60002B84D03461BBE7636D4A
:102E2800002BC6D1B7E7204698470028B3D0C0E7A3
:102E3800586D0028D7D008F09FFFD4E7586D48B1E7
:102E480007221F4909F05AFAC1E7072218461C4908
:102E5800A047BCE792691B498A42E9D018469047C7
:102E6800C1E76B6D002B7FF46DAF6FE7284698477D
:102E78006CE76B6D002B7FF47CAF05F118037FE7DF
:102E88002846984785E700BFFC530020E43F002010
:102E9800D0080020204F0020E83F00206C170020B9
:102EA8005C2F0020D819002048170020E4140020C7
:102EB80045010000E108000031010000650700003D
:102EC8006C14002051070000304F00200048704764
:102ED800204F0020F0B5A64D89B02B698DF80F1052
:102EE800002B00F0D9801A680446A249126B8A4266
:102EF80040F0C5801A6D002A00F0D180F6EE007A05
:102F080094ED407AF2EE045AD4ED416AD4F80C21DB
:102F1800B0EE676A94F8FF10E0EEA57A079227EE04
:102F2800257A8DF81510A0EE256AFDEEE66ABDEE4D
:102F3800C77AFCEEE77A16EE902A17EE101ABCEE66
:102F4800C66A8DF81420ADF81A1017EE902A16EEFE
:102F5800101AADF81820ADF81610002B00F0868076
:102F68001A68854ED268B242174640F0F780186D4D
:102F7800002800F09980042207A90BF0FBF82B69C0
:102F8800002B73D01A68D268B242174640F01081FD
:102F9800186D002800F0D38002220DF116010BF005
:102FA800E9F82B69002B61D01A68D268B24217463B
:102FB80040F0F880186D002800F0B08001220DF173
:102FC8000F010BF0D7F82B69002B4FD01A68D26885
:102FD800B242174640F0E180186D002800F0A78043
:102FE800022206A90BF0C6F82B69002B3ED01A68FE
:102FF800D268B242174640F0CA80186D002800F027
:10300800848002220DF11A010BF0B4F82B69002B11
:103018002CD01A68D268B242174640F0B380186DB7
:1030280000286AD0012205A90BF0A4F82B69EBB19E
:103038001A68D268B242174640F08A80186D002894
:1030480052D001220DF115010BF094F82B699DF86F
:1030580015205BB11968C968B1420F4640F08380FA
:10306800186D002839D021460BF084F8434A1368BC
:10307800013313601B0720D0012009B0F0BDCDED4E
:10308800020A18468DED010A90479DED010ADDED13
:10309800020A002840F0A780002009B0F0BD5A6D50
:1030A800002A7FF42BAFF7E7586D00283FF470AF84
:1030B800042207A909F022F961E72B69002BDBD06C
:1030C8001A682F4992698A4240F08F80186D00284B
:1030D80000F082800AF038FCCEE7586D0028C5D091
:1030E800214609F00BF9C1E7586D002870D001227C
:1030F8000DF1150109F002F9A8E7586D002861D013
:10310800012205A909F0FAF890E7586D002855D072
:1031180002220DF11A0109F0F1F877E7586D00283D
:1031280052D001220DF10F0109F0E8F84BE7586D74
:10313800002845D0022206A909F0E0F854E7586DA6
:10314800002843D002220DF1160109F0D7F828E72C
:10315800184601220DF11501B84777E718460422F1
:1031680007A9B8470BE721461846B8477EE700BFCE
:103178005C2F00203101000065070000304F00205F
:10318800510700001846012205A9B8474EE718461E
:1031980002220DF11A01B84738E71846022206A99B
:1031A800B84721E7184601220DF10F01B8470AE791
:1031B800184602220DF11601B847F2E62B6928E7F6
:1031C8002B6914E72B6933E72B69FFE62B69EBE6DC
:1031D8009DF815202B693DE7586D00283FF44CAF4A
:1031E80008F0CAFD48E72B6988E61846904743E788
:1031F80010B5534C82B0206900286CD0036851493F
:103208001A6B8A4274D1026D002A69D09B694E4AB2
:1032180093427ED1036D002B72D018460AF094FBBE
:103228002369002B57D01A684849D26A8A427AD152
:10323800986D28B100931CF09DFA0022009B9A65B6
:103248001A6D002A61D003F118000CF081FC226984
:103258005368013B5360002B3BD111683B48C96A56
:10326800814267D1906D30B1CDE900231CF082FA1C
:10327800DDE900239365136D002B57D002F1180088
:103288000CF066FC236923B31A68314952688A42F4
:1032980053D1304A986D1A6028B100931CF06AFA2D
:1032A8000022009B9A651A6D002A36D003F1180295
:1032B8000193104600920CF04BFCDDE900232649EF
:1032C8001046009399600CF043FC5C2100981AF0BA
:1032D800FDFB00232361214B00221A7002B010BDB0
:1032E800426D002AF7D09B69174A934292D010E0AA
:1032F80090470028EFD020690028ECD0036885E7C4
:10330800406D40B108F038FD8AE75A6D002A9AD11D
:103318009DE7984784E7236985E75A6D002AC5D158
:1033280003F11802CBE71846904790E7536D002B3E
:10333800A4D1A7E710468847A4E718469047C8E7EE
:103348005C2F0020310100005107000045010000FA
:10335800E10800006C170020E4140020204F002032
:103368008E4BF0B51D7899B01DB90025284619B0C7
:10337800F0BD024600238A4904A80CF0F9FC169B0C
:10338800002B00F023815C201AF09AFB0023854A69
:10339800044608A9C0E90023059A183040F80C2C07
:1033A800814A40F8102C069A40F8082C9DF81C20F9
:1033B80000F8042C0CF086FB002308A8A3656368BA
:1033C80001336360794B04931E46794BA3600CF07C
:1033D800BFFB784B1A692AB151680139516000293D
:1033E80000F088801C6122687349126B8A4240F0A1
:1033F8000481226D002A00F0CB801C69002CB4D017
:1034080022686E4990688842074640F01681206D10
:10341800002800F0FA8004A9072201930AF002F8B4
:10342800019B072804D1664A0499914200F0F8806C
:103438001C69002C99D02268D26A62498A4240F0FD
:103448001981A06D28B101931CF094F90022019B09
:10345800A265226D002A00F0018104F11800019391
:103468000CF076FB019B1D696C68013C6C60002CBC
:103478003DD12A685349D26A8A4240F00A81A86D30
:1034880020B101931CF076F9019BAC652A6D002AE6
:1034980000F0FA8005F1180001930CF059FB019B2C
:1034A8001C6924B32268484952688A4240F0FD806A
:1034B8003C4AA06D226028B101931CF05BF9002200
:1034C800019BA265226D002A00F0E88004F118052E
:1034D800019328460CF03CFB019B2846A66001930B
:1034E8000CF036FB5C2120461AF0F0FA019B002212
:1034F8001A613AE711683348C96A814240F0A980E5
:10350800906D38B1CDE901231CF034F90021019AFE
:10351800029B9165116D002900F0968002F1180058
:1035280001930CF015FB019B1A69002A2BD0116836
:1035380025484968814240F0A2801A49906D11607F
:1035480038B1CDE901231CF015F90021019A029B3D
:103558009165116D002900F0868002F1180103932E
:103568000292084601910CF0F3FA0199DDE9022371
:1035780008469660029301920CF0EAFA01985C21E1
:103588001AF0A4FA029B1C61002C3FF4EEAE2AE765
:10359800626D002A7FF431AFE7E600BFFC530020DC
:1035A800E83F00206C170020D8190020E414002000
:1035B80048170020702F0020310100000506000088
:1035C8004C50434145010000E1080000179C002CC5
:1035D8007FF4D9AE374B08A81E4604930CF0B8FA0E
:1035E800354B1A69002A3FF4C0AE51680139516061
:1035F80000293FF47FAF1C61B7E60193204690474E
:10360800019B00283FF4B1AEF7E6606D00283FF457
:1036180013AF04A90722019307F05AFE019B00E7A4
:10362800BDF8141043F2501291427FF401AF9DF897
:1036380016200A2A7FF4FCAE98E6019304A92046D6
:103648000722B847019BECE6516D00297FF466AF6D
:103658006AE7019310468847019B65E7626D002A77
:103668007FF4FBAEFFE6516D00297FF476AF02F1DF
:1036780018017DE7019320469047019BF3E60193EB
:1036880010468847019B7EE76A6D002A7FF402AFE7
:1036980006E7019328469047019B01E7626D002ADF
:1036A8007FF414AF04F1180517E7019320469047FB
:1036B800019B1CE7E4140020702F0020F0B52E4C6D
:1036C80085B02369002B31D01A680D4606462B4871
:1036D800116B814225D1196D59B392682849174653
:1036E8008A4232D1186D40B30D22694609F09AFE1C
:1036F8000D281BD19DF80C202A70BAB12369002B24
:103708002ED019688C681E498C422BD1186D08B3CD
:10371800314609F087FE2B78181AB0FA80F0400974
:1037280005E01846884708B1236913BB002005B097
:10373800F0BD596D0029D0D1F8E7586D0028F5D0B3
:103748000D22694607F0C4FDD2E718460D226946E6
:10375800B847CDE7586D48B1314607F0B9FDDAE70B
:103768001846E4E731461846A047D4E74FF0FF3043
:10377800D1E71A68B1E700BF702F002031010000BF
:103788000506000010B5484C82B02369002B60D0B4
:10379800196846480A6B824265D1186D00285AD0CC
:1037A800C96A434A91426BD1986D28B100931BF0C6
:1037B800E1FF0021009B9965196D00295CD003F198
:1037C80018000CF0C5F921694B68013B4B60002BD0
:1037D8003DD10868C26A364882425ED1886D30B1F0
:1037E800CDE900131BF0C6FFDDE900138B650B6DF7
:1037F800002B4ED001F118000CF0AAF9236933B35D
:1038080019682C48496881424AD12B49986D19603A
:1038180028B100931BF0AEFF0021009B9965196D3C
:10382800002930D003F118010193084600910CF0EB
:103838008FF9DDE90013DFF884C008460093C3F868
:1038480008C00CF085F95C2100981AF03FF90023B4
:10385800236102B010BD586D0028FAD0C96A144A15
:103868009142A1D00CE0184690470028F1D0236976
:10387800002BEED0196893E7596D00299FD1A2E774
:10388800184688479FE7596D0029CBD103F11801E5
:10389800D1E74B6D002BADD1B0E708469047ADE7B7
:1038A80018468847D3E700BF702F00203101000079
:1038B80045010000E10800006C170020E414002016
:1038C800044B2DE9F04F1E78A3B02EB9304623B033
:1038D800BDE8F08FFC530020002302908A46A44ADA
:1038E800A4490EA80CF044FA209B002B00F0FF829C
:1038F8005C2000241AF0E4F89F4B054612A90360E7
:103908000F9B4460C3609D4B9D4F8360109BDFF805
:103918008C9203619DF84430037500F11803184632
:1039280001930CF0CFF86B6812A8AC650133AF6057
:10393800CDF838906B600CF00BF92B6891491A6B35
:103948008A4240F007832A6D002A00F0B581DB6BBC
:103958008D4A934240F0058300224FF47A7401990E
:1039680012A80E970F928DF8442010949FED7E7B3D
:103978008DED207B0CF050F9209B002B00F0098383
:103988005C2000261AF09CF87B4B044646600360D6
:1039980012A97A4B183040F8103C0F9B40F80C3CA9
:1039A800109B40F8083C9DF8443000F8043C0CF0AB
:1039B80089F86368A7600133A665059663604FF4CC
:1039C8007A738DF81C600693704B0894049312A8C0
:1039D800CDF838900CF0BCF80898002800F0C9829F
:1039E8000026DFF8BC81AB460368664A1B6B93422E
:1039F80040F02082036D002B00F09C81B245089CAA
:103A080040F38C82002C66D02368614A5B6B93423A
:103A180040F01E82A36D002B00F0418225685D49AD
:103A2800AA6B8A4240F02782226D002A00F0DB81CF
:103A3800127812F0700F00F04B82EB6A434540F0A9
:103A4800F681A06D18B11BF095FE0023A365236DC8
:103A5800002B00F0C38104F118000CF079F8089DE0
:103A68006C68013C6C60002C33D12B68DB6A4345E1
:103A780040F04782A86D10B11BF07CFEAC652B6D41
:103A8800002B00F02F8205F118000CF061F8089C5B
:103A9800FCB12368404A5B68934240F04482364B4D
:103AA800A06D236018B11BF065FE0023A365236D8C
:103AB80004F11805002B00F02C8228460CF048F879
:103AC8002846C4F808900CF043F820465C2119F009
:103AD800FDFF00230893DBF800302B4ADB6B934291
:103AE80040F0D88100224FF47A74019912A80E97F9
:103AF8000F928DF8442010949FED1B7B8DED207B59
:103B08000CF08AF8209B002B00F05C815C200025DB
:103B180019F0D6FF184B04464560036012A9174BED
:103B2800183040F8103C0F9B40F80C3C109B40F8B4
:103B3800083C9DF8443000F8043C0BF0C3FF636870
:103B4800A7600133A5650A9563604FF47A738DF811
:103B580030500B930D4B0D94099312A8CDF8389063
:103B68000BF0F6FF1EE000BF0000000000000000A0
:103B7800E0080020E83F00206C170020D81900203A
:103B88004817002031010000410500001C170020E3
:103B98002902000055060000E1080000E414002096
:103BA80045010000089C002C38D06568013D65601F
:103BB800002D33D12368DB6A434540F0B181A06D05
:103BC80010B11BF0D7FDA565236D002B00F09C817B
:103BD80004F118000BF0BCFF089CFCB12368974A5D
:103BE8005B68934240F0B381954BA06D236018B198
:103BF8001BF0C0FD0023A365236D04F11805002BFD
:103C080000F0A08128460BF0A3FF2846C4F80890CE
:103C18000BF09EFF20465C2119F058FF0D98089084
:103C280000287FF4E1AE5D462B68DB6A434540F02F
:103C3800C181A86D18B11BF09DFD0023AB652B6DEC
:103C4800002B00F0B28101980BF082FF6C68013CF8
:103C58006C60002C7FF43AAE2B68DB6A434540F079
:103C6800BC81A86D10B11BF085FDAC652B6D002BD8
:103C780000F0858101980BF06BFF2B686F4A5B6839
:103C8800934240F0B5816E4BA86D2B6018B11BF0C4
:103C980071FD0023AB652B6D002B00F0A18101980D
:103CA8000BF056FF0198C5F808900BF051FF5C2106
:103CB800284619F00BFF09E66A6D002A7FF447AE23
:103CC8006C68013C6C60002C2FD12B685D4ADB6A64
:103CD800934240F07781A86D10B11BF04BFDAC65A5
:103CE8002B6D002B00F0698101980BF031FF2B68D8
:103CF800524A5B68934240F06D81514BA86D2B602E
:103D080018B11BF037FD0023AB652B6D002B00F0BD
:103D18005C8101980BF01CFF0198C5F808900BF026
:103D280017FF5C21284619F0D1FE0026304623B043
:103D3800BDE8F08F436D002B7FF460AE5D46089CB4
:103D4800414B0493002C3FF46FAF6768013F6760F5
:103D5800002F7FF469AF2368DB6A434540F0458153
:103D6800A06D10B11BF006FDA765236D002B00F0B8
:103D78000B8104F118000BF0EBFE089C002C3FF4BB
:103D880053AF23682D4A5B68934240F039812C4B2E
:103D9800A06D236018B11BF0EDFC0023A365236D13
:103DA80004F11807002B00F0268138460BF0D0FEEE
:103DB8003846C4F808900BF0CBFE20465C2119F079
:103DC80085FE31E7219B002B7FF4A0AE8DF83030C3
:103DD8000D93CDE90A341C4B0993BEE6636D002BA5
:103DE8007FF439AE3BE6626D2AB192F8312012F0C9
:103DF800500F7FF422AE18460422144903931DF095
:103E080003FD039B00287FF418AE1946029B0F227E
:103E180003EB061001361DF033FD0022C273002C9F
:103E28003FF459AE2568EB6A43453FF40AAE204695
:103E3800984714E69847002880D0DFE5E10800009D
:103E48006C170020450100001C170020E408002022
:103E580020469847089C0346002C7FF4DFAD0422D7
:103E68006A49184603931DF0CFFC00287FF433AE4F
:103E7800089C039BC9E7204603939047089C0028A9
:103E8800CDD10422614903981DF0BEFC039B002894
:103E9800C5D1BAE70022594609A8984782E64FF4E7
:103EA800807003931BF05EFC0146A065002800F0BB
:103EB800AA80039B0370206D002837D04FF48072CE
:103EC8000BF09AFAA36D089C002C7FF4A7ADC6E707
:103ED800184604224D4903931DF096FC039B0028C5
:103EE800A0D192E76B6D002B7FF4CDADCFE5219B80
:103EF800002B7FF4FDAC464B12A80E930BF028FE66
:103F080013E728469847C2E5636D002B7FF460AE3F
:103F180062E6636D002B7FF4D0ADD1E55D460FE717
:103F28002046984758E620469847D2E5606D20B36A
:103F38004FF4807208F0A0FEA36D089C002C7FF45B
:103F48006DAD8CE7636D002B7FF45CAE5DE62046BB
:103F5800984763E62846904700283FF4B1AE2B689F
:103F6800F5E404A8002229469847089800287FF419
:103F780037AD0646DFF8A48056E6A36D4EE56B6DB7
:103F8800002B7FF477AE78E6636D002B7FF4F1AEFB
:103F9800F3E6219B002B7FF4F3AC8DF81C300893DB
:103FA800CDE905341B4B049311E56B6D002B7FF4B1
:103FB8004AAE4BE62846984748E66B6D002B7FF4DF
:103FC80093AE94E62846984791E66B6D002B7FF4F4
:103FD800A0AEA1E628469847A7E6284698474CE6AB
:103FE8006B6D002B7FF45BAE5CE620469847C4E619
:103FF800284698476AE4636D002B7FF4D6AED7E66F
:104008002046984710E6044BA36507E5E40800201E
:10401800E41400201C170020FF5300204501000075
:10402800064A0749074808B51BF08EFB034A0449AE
:104038000548BDE808401BF087BB00BF902F002053
:10404800D10900005C2F0020702F002010B5054C0E
:104058000548217881F0010121700FF0DFFE2078FA
:1040680010BD00BFF6530020A049002005230922F7
:104078000A21014812F010BFA049002008B501210B
:10408800062019F019FB9FED0F0A062019F0B4FE5F
:10409800FF21062019F04CFE00234FF4A072F021F6
:1040A800094812F0C7FF0321074812F091FD074B9A
:1040B800054819780FF0B2FE00210348BDE8084012
:1040C8000FF09CBE00409C46A0490020F6530020FB
:1040D80010B54FF4A07386B0002216210446264876
:1040E800CDE9001311460FF0A7FC4FF4A0724FF46E
:1040F800FC61214810F002F902221F48114610F015
:10410800F1F80023032204211B4810F08FF83CB17A
:1041180020461DF03DFD21460246174812F020FCBE
:1041280005F0F6FFB7EEC00A0C21144A8DED000B1E
:104138000DEB01001DF048F94FF4A0724FF4BC617B
:104148000D4810F0DBF803A81DF022FD0023A0EBBA
:10415800800103220848890001F59E7109B210F018
:1041680065F803A81DF014FD03A90246024812F0E1
:10417800F7FB06B010BD00BFA0490020EC080020E6
:104188002DE9F04F97B005460F4614469DF880601C
:104198009A46002E40F0F680092C40F3DC80AAF104
:1041A800040BA4F1080302227A482BEAEB7B4FF0B8
:1041B800090911465B45D8BFA4F1090B10F092F824
:1041C8001423D022043FD9441C26059405EB890901
:1041D80007EB8B0705EB8B05CDE9032345E014239B
:1041E80000216C48CDE900314FF4A07300210FF095
:1041F80023FC00224FF44871664810F07FF8002332
:1042080042460421634810F011F82C68002C5ED057
:1042180020461DF0BDFC214602465E4812F0A0FB78
:1042280078681DF0B5FC002200EB40004FF4BC613B
:104238008400584810F062F8C4F59E714246002385
:1042480009B254480FF0F2FF57F8044F3CB120462A
:104258001DF09EFC214602464E4812F081FB0435B3
:104268000BF1010B1436A9453BD0721EDA450FFA43
:1042780086F812B2B3D114234FF44874002145488C
:10428800CDE900344FF4A0730FF0D6FB22464AF66E
:10429800E571404810F032F80421002342463D48B9
:1042A8000FF0C4FF296841B1084602911DF070FC67
:1042B80002990246374812F053FB78681DF068FCF3
:1042C800224600EB40004AF6E5718400B1E77868C1
:1042D8001DF05EFC224600EB40004FF4BC618400F8
:1042E800A7E7DDE90323059C0025009329484FF43F
:1042F800A073294601950FF09FFB0122254811461E
:104308000FF0F0FF0C224FF4A07329462148CDE9A5
:104318000025E4220FF090FB2A464FF448711D480F
:104328000FF0ECFF0AF101031B4A402106A8009494
:104338001DF04AF82B46E422042116480FF076FFB8
:1043480006A81DF025FC06A90246124812F008FB33
:1043580017B0BDE8F08F02220E4811460FF0C2FFD9
:10436800002C04EB840C4FEA8C0C0CF11C0ECCF1E5
:10437800C80C0FFA8EF20FFA8CF3B5DDA1464FF098
:10438800000B1FE7002103480FF038FD0348FFF733
:104398009FFE01E7A0490020FC080020F408002047
:1043A80070B506460D461A48002114460FF026FD42
:1043B8003046FFF78DFE0222154811460FF092FF96
:1043C80000224FF4BC6112480FF098FF6DB13C22F7
:1043D800062100230E480FF029FF28461DF0D8FBC0
:1043E800294602460A4812F0BBFA7CB15A22062135
:1043F800002307480FF01AFF20461DF0C9FB21468D
:1044080002460348BDE8704012F0AABA70BD00BF6A
:10441800A04900202DE9F0413D4C8AB04FF0B80882
:1044280002AB05AD02AF05AE94E807000C3403C338
:104438001A800FCC0FC523680024002135482B6053
:104448000FF0DCFC37F8025B3F23002221B2314831
:10445800CDE900850FF0F0FA01222E4811460FF041
:1044680041FF4FF6FF7200212A480FF047FFA11CB9
:1044780028480023BC2209B20FF0D8FE56F8045B86
:10448800284635B11DF084FB29460246214812F022
:1044980067FA4034A4B2B4F5A07FD3D102221D48F4
:1044A80011460FF01FFF00224FF4FC6119480FF06E
:1044B80025FF0023C822042116480FF0B7FE0E225C
:1044C8001549144812F04CFA0122124811460FF00F
:1044D80009FF00224FF6FF710E480FF00FFF00236F
:1044E800E42204210B480FF0A1FE0C4B1B783BB1D2
:1044F80009220B4907480AB0BDE8F04112F030BA6A
:104508000A22084903480AB0BDE8F04112F028BA67
:1045180098030020A04900203C090020F653002001
:1045280024090020300900202DE9F04F834695B07A
:10453800002956D102225048DFF850914FF0000868
:10454800114622244D4E0FF0CDFE25E00027CDE97F
:1045580000570FF071FA3A464FF4BC6146480FF025
:10456800CDFE0E213B4622B243480FF05FFE314696
:104578000222414812F0F4F959F8045F284635B18F
:104588001DF006FB294602463B4812F0E9F91A34A9
:1045980008F10108D82C21D0E21EC3454FF01805B8
:1045A8004FF4A07334484FF0000112B2CED1182353
:1045B8004FF44875CDE900354FF4A0730FF03CFA7D
:1045C8002A464AF6E5712C480FF098FE0E2122B2D1
:1045D800002329480FF02AFE2949C9E715B0BDE88C
:1045E800F08F00214FF4487423480FF007FC25484A
:1045F800FFF76EFD4FF4A0730094DC2200211E48E3
:104608000FF02AF901221C4811460FF06BFE2146D3
:10461800002219480FF072FE0023E22204211648F6
:104628000FF004FE05F098FD05F0A2FD054605F023
:1046380075FD044605F078FDB7EEC00A8DED060B52
:1046480005F078FD064605F07BFD2B460E4A302125
:1046580000949DED060BCDE9046008A88DED020BD2
:104668001CF0B2FE08A81DF093FA08A902460248F9
:1046780012F076F95EE700BFA0490020500900203B
:104688004C090020540900205C0900207008002013
:104698002DE9F04305460F4690462DED088BB0EE08
:1046A80040AA83B0F0EE60AA002B40F0E18001221E
:1046B800002473480A2611460FF014FE00224FF416
:1046C800BC616F480FF01AFE2C23D52206216C48D6
:1046D800CDE900640FF0B0F92346D52206216848D9
:1046E8000FF0A4FDB7EECA0A0121654818F040FA98
:1046F8002C23D5224FF48A716148CDE900640FF06C
:104708009BF92346D5224FF48C715D480FF08EFD3E
:1047180007EE907AB0EE4A0A0121B8EEE78A5848C7
:10472800A8EE2A0AB7EEC00A18F022FAB0234FF40E
:10473800487206215248CDE900324FF49A7322227A
:104748000FF048FDAE23232207214D48CDE9003460
:104758004FF499730FF070F9A7424CDD4FF4997636
:10476800013D9FED48BA4AF6E579DFED479A9FED9E
:10477800479ADFED478A96FBF7F6022EB8BF022666
:10478800013E36B215F9013F07EE904AA0450CBF2D
:104798004A464FF4FC62013406EE903AF8EEE77AA6
:1047A80001923346F8EEE66A354887EE887A76EE67
:1047B800A96AC6EE897A27EE0B7ABDEEC77A17EE9C
:1047C800101A67EEA87A073109B2FDEEE77A17EEFC
:1047D80090CABCF1AE0FA8BF4FF0AE0C2CEAEC7C2F
:1047E800CCF1D1020FFA8CFC12B2CDF800C00FF058
:1047F80023F9A742C6D100240A21BE23D522204886
:10480800CDE900145A210FF017F9A04504DA03B0D6
:10481800BDEC088BBDE8F0830122194811460FF062
:1048280061FD22464AF6E57115480FF067FD2346FB
:10483800D5225A2112480FF0F9FC052215491048D3
:1048480012F08EF807EE908A02210D48F8EEE77A0A
:10485800A7EEAAAAB7EECA0A18F08AF903220E49E7
:10486800074803B0BDEC088BBDE8F04312F078B8F8
:10487800002103480FF0C2FA0848FFF729FC16E7A1
:10488800A049002000009943000000430000C442F2
:1048980000002E43840900208C0900207C09002098
:1048A8002DE9F041054684B00E469046002B5FD1B5
:1048B80002224948002411460FF014FD1023222239
:1048C80048214548CDE90034F8230FF0B5F82246D1
:1048D8004FF4FC6140480FF011FD23462222482185
:1048E8003D480FF0A3FC234629460A223A4818F00F
:1048F8002FF98E224FF4A07321463748CDE90024C2
:104908004E220FF099F80122334811460FF0EAFCC5
:1049180022464FF4BC6130480FF0F0FCB8F1000FAC
:1049280023D0013E5027062516F8013F04212B4AC3
:1049380003A81CF049FD002329B227483AB21235D2
:104948000FF074FC03A81DF023F903A902462248BE
:10495800013412F005F8B5F5977FE4B201DD0C37A4
:104968000625A04501D9402CDED104B0BDE8F08170
:10497800002119480FF042FA1948FFF7A9FB022253
:10498800154811460FF0AEFC00224FF4487112484A
:104998000FF0B4FC0023222206210F480FF046FC3A
:1049A800052210490C4811F0DBFF01220A48114684
:1049B8000FF098FC00224FF4487107480FF09EFC56
:1049C80000234022062104480FF030FC0D2206493E
:1049D800014811F0C5FF6BE7A0490020B00900208D
:1049E8009009002098090020A009002070B506460B
:1049F80082B0002947D102220024102547481146D9
:104A08000FF070FCF023562206214448CDE90054EB
:104A18000FF012F822464FF4BC6140480FF06EFCCC
:104A28002346562206213D480FF000FC05F088FB7E
:104A380001463A4818F058F80D223949374811F01C
:104A48008FFF782370226C213448CDE900540EF092
:104A5800F3FF22464FF4BC6130480FF04FFC234669
:104A680070226C212D480FF0E1FB314623460A22C3
:104A78002A4818F06DF801222A49284802B0BDE8F2
:104A8800704011F06DBF002124480FF0B7F9264897
:104A9800FFF71EFB0322214811460FF023FC0022DA
:104AA8004FF478411D480FF029FC002328221E21CD
:104AB8001A480FF0BBFB05221C49184811F050FF9B
:104AC8000222164811460FF00DFC00224FF44871DF
:104AD80012480FF013FC0023702206210F480FF034
:104AE800A5FB082212490D4811F03AFF01220B4894
:104AF80011460FF0F7FB00224FF4784107480FF0FA
:104B0800FDFB0023CE22062104480FF08FFB112263
:104B18000849024811F024FF6DE700BFA0490020B2
:104B2800E4090020F4090020B8090020BC0900208D
:104B3800C4090020D009002030B5054683B01ABB4F
:104B480002223848002411460FF0CCFB1021F8232C
:104B58005E223448CDE9001448210EF06DFF22464C
:104B68004FF4FC612F480FF0C9FB23465E22482111
:104B78002C480FF05BFB23460A222946294803B03C
:104B8800BDE8304017F0E4BF0C46264800210FF07E
:104B980035F92548FFF79CFA0222224811460FF002
:104BA800A1FB00224FF4FC611E480FF0A7FB002375
:104BB800222206211B480FF039FB0D221B491948F8
:104BC80011F0CEFE00224FF4BC6116480FF096FBA0
:104BD8000222144811460FF085FB00233E220621CD
:104BE80010480FF023FBCCB120461CF0D1FF024641
:104BF80021460C4811F0B4FE00235E220621094824
:104C08000FF014FB00224FF4487106480FF076FBB2
:104C180005220749034811F0A3FE91E70122054C3C
:104C2800E6E700BFA0490020FC090020040A002094
:104C3800140A0020F809002070B50D4682B0164607
:104C480023BB02224C48002411460FF04BFB1022D4
:104C5800F82348214848CDE9002442220EF0ECFE12
:104C680022464FF4FC6144480FF048FB2346422299
:104C7800482141480FF0DAFA23460A2229463E48DD
:104C880017F066FF002E36D102B070BD0021044631
:104C980039480FF0B3F83948FFF71AFA02223648B4
:104CA80011460FF01FFB00224FF4BC6132480FF091
:104CB80025FB0023222206212F480FF0B7FA002CEB
:104CC80056D020461CF064FF024621462A4811F0BF
:104CD80047FE00234222062127480FF0A7FA0022A8
:104CE8004FF4487124480FF009FB05222449224853
:104CF80011F036FEA5E7032222491F4811F030FEC5
:104D0800234631460A221C4817F022FF4FF4487107
:104D18000E224FF49A731848CDE900216222062129
:104D28000FF058FA07EE905A9FED176A0C23F8EE29
:104D3800676A07EE906A00934AF6E570F8EE677ABC
:104D48006322019007210C4886EEA77A67EE067A5F
:104D5800FDEEE77A17EE903AB3F5997FA8BF4FF4C6
:104D6800997323EAE3731BB20EF066FE02B070BDBE
:104D78000122064CA9E700BFA04900201C0A002018
:104D880098090020240A002000009943F80900200F
:104D98002DE9F04300248BB0984612234FF448774E
:104DA80006460D46594821469146DE22CDE9003493
:104DB8004FF4A0730EF040FE4FF4A073DD2221469D
:104DC800524800970EF048FD0122504811460FF056
:104DD80089FAA04540F3898009F101034C4A1C2156
:104DE80003A8CDF800801CF0EFFA39462246474860
:104DF8000FF084FA2346E022022144480FF016FA05
:104E080003A81CF0C5FE03A90246404811F0A8FDFE
:104E180003A81CF0BDFE02234FF006024AF6E57116
:104E280010FB0237224639480FF068FA2346E02281
:104E380039B236480FF0FAF93EB130461CF0A8FEF8
:104E480031460246314811F08BFD012231492F4885
:104E580011F086FD30461CF09BFE013000224FF415
:104E6800FC6100EB400007EB400428480FF046FACD
:104E78000023E11CE022254809B20FF0D7F93DB123
:104E880028461CF085FE29460246204811F068FD98
:104E9800129B0BB11B7813B90BB0BDE8F083129BC2
:104EA80018211D4A03A81CF08FFA03A81CF070FEF5
:104EB800044600224FF4FC6114480FF01FFA002347
:104EC80004EB4401E02211484900C1F59F7109B281
:104ED8000FF0ACF903A81CF05BFE03A902460B48CF
:104EE80011F03EFD0BB0BDE8F08322463946074875
:104EF8000FF004FA2346E022022104480FF096F945
:104F08000B220649014811F02BFDC1E7A0490020FA
:104F1800280A0020AC0900203C0A0020300A0020A2
:104F28002DE9F043994607460E4690462DED028B33
:104F3800B0EE408A85B0002B40F011810222002497
:104F48001025A34811460FF0CDF9F2231C224E215B
:104F58009F48CDE900540EF06FFD22464FF4FC61E6
:104F68009B480FF0CBF923461C224E2198480FF09E
:104F78005DF923460A223946954817F0E9FDE023F2
:104F8800322260219248CDE900540EF055FD2246A8
:104F98004FF4FC618E480FF0B1F9322223466021AC
:104FA8008B480FF043F92146B7EEC80A884817F036
:104FB800DFFD04228749864811F0D2FC5EB1B8F1C2
:104FC800000F08D0844B1A68BA4225D105B0BDEC51
:104FD800028BBDE8F083B8F1010FF7D0B9F1000FEB
:104FE800F4D002227A4811460FF07CF900235422AB
:104FF800062177480FF01AF900224FF448717448D7
:105008000FF07CF90C227549714805B0BDEC028B94
:10501800BDE8F04311F0A4BC942148226C480194E7
:105028001F604FF4A073009121460EF005FD022287
:10503800674811460FF056F923464A22062164486C
:105048000FF0F4F822464FF4FC6161480FF056F96E
:10505800052263495E4811F083FC96ED400A21461B
:105068005B48B7EEC00A17F083FD04225949584837
:1050780011F076FC23466022062155480FF0D6F839
:1050880022464FF4BC6152480FF038F905225549C1
:105098004F4811F065FC96ED410A01214C48B7EEE6
:1050A800C00A17F065FD03224F49494811F058FC22
:1050B80023467622062146480FF0B8F822464FF4D8
:1050C800487143480FF01AF904224849404811F042
:1050D80047FC0A22234696F8FF103D4817F038FD92
:1050E80096F81021002A67D00122394811460FF09E
:1050F800F9F800224FF4BC6135480FF0FFF896F834
:10510800FF30002B3FF462AF00248C27062502E015
:10511800302B3FF45BAF335D0421354A03A81CF004
:1051280053F9002329B22A483AB212350FF07EF813
:1051380003A81CF02DFD03A90246254811F010FC18
:105148000134B5F5977FE3B204DD0C370625D22F7D
:105158003FF73CAF96F8FF209A42D9D836E70021AE
:105168001B480EF04BFE2348FEF7B2FF02221848F8
:1051780011460FF0B7F800224FF4487114480FF0A9
:10518800BDF800231C22062111480FF04FF8052214
:1051980019490F4811F0E4FB0023322206210C487C
:1051A8000FF044F806221549094811F0D9FB0A4BBB
:1051B8004FF0FF321A60C1E64FF4784104480FF00F
:1051C8009DF806220E49024811F0CAFB8CE700BF81
:1051D800A0490020540A0020842F0020800A0020C3
:1051E8005C0A0020640A00206C0A0020700A002073
:1051F800B0090020440A0020140A00204C0A0020AC
:10520800780A00202DE9F04FC5B006460DF1E00AF6
:1052180003AC1E216FF0170017F0D0FF44F8040FFD
:105228005445F6D100214E480EF0E8FD01224C48C5
:1052380011460FF057F84B4BD3F800801B68A3EBCF
:1052480008039E4250D94FF0000B03AD0027CDE96B
:10525800028612E0B8F1EF0F4DD9EF2E7CD9B8F5E0
:10526800987F2C6005DD00216FF0170017F0A6FF6E
:105278002860554507F106071DD055F8044FE6008C
:105288000134A6F15002A6F10808EF2AE2D8082353
:105298000FFA87F912B23248009349460623CDF82F
:1052A80004B00EF0C9FBB8F1EF0F26DD554507F144
:1052B80006072C60E1D12C4B2C4859682C4B1A68F6
:1052C80040F6AC53A0FB0202920CDDE9028603FB18
:1052D80002F2254B5B685B1A9A42FAD8214B1B688D
:1052E800A3EB0803B342B0D300211D4845B0BDE885
:1052F800F04F0EF083BD0FFA87F900224FF4487182
:1053080017480EF0FBFF00230FFA88F249461448AD
:105318000EF08CFF5E2017F019FF00F121011048F4
:10532800C9B211F01DFCEF2EC0D800224AF6E57173
:105338000B480EF0E3FF494632B2002308480EF04E
:1053480075FF5E2017F002FF00F121010448C9B281
:1053580011F006FC2C608CE70FFA87F9E5E700BF2F
:10536800A0490020C0530020001000E083DE1B434A
:105378004C2D002000220449044808B517F0D2F843
:10538800034B00221A8008BD40420F00502E002017
:10539800DC5300202DE9F84305468D4E8D4F8E488D
:1053A80016F0DEFF03468C48002B51D017F028F882
:1053B80040F25622C0B20D2818BF0A280CBF4FF081
:1053C80001084FF0000833D13C78002C47D13388CE
:1053D800002BE4D0002281488149C4542C706C60B1
:1053E800AA60A5F80B4134801CF080FA064678B311
:1053F80020467C491CF07AFA044600285AD00378E3
:10540800092B01D0202B05D114F8013F202BFBD00C
:10541800092BF9D0744930461CF0D2F920BB01237E
:1054280020462B701AF09AF968604046BDE8F88368
:1054380033880121694C934203EB01020DD8E054F3
:105448006548328016F08CFF03466348002BADD1C7
:105458004FF000084046BDE8F88339709FE7002305
:105468005B4A3B7013809AE7604930461CF0A8F904
:10547800B8B15F4930461CF0A3F9A0B15D49304688
:105488001CF09EF9002840F00D81042320462B7063
:105498001AF060F9B7EEC00B404685ED020ABDE888
:1054A800F8830223F2E7032320462B701AF056F9FB
:1054B8006860BAE74C4930461CF082F981464C498D
:1054C80030461CF07DF90746B9F1000F4CD1C8B140
:1054D800484930461CF074F958B1474930461CF029
:1054E8006FF930B1454930461CF06AF9002840F0A0
:1054F8000581434930461CF063F90028A8D10823E8
:105508002B7092E73B4930461CF05AF90028F0D03E
:10551800394930461CF054F90028EAD0374930465A
:105528001CF04EF90028E4D0364930461CF048F902
:105538000028DED0344930461CF042F90028D8D083
:10554800324930461CF03CF9002CD2D00028D0D18A
:1055580007231722214605F586702B701CF090F959
:10556800002385F8233160E7204930461CF028F9EC
:10557800002840F0A380002FC4D01E4930461CF0FC
:105588001FF90028B5D01C4930461CF019F900282D
:10559800AFD01A4930461CF013F90028A9D0194990
:1055A80030461CF00DF90028A3D0174930461CF0EE
:1055B80007F901460028C3D1002C9AD006232B7086
:1055C8002378002B00F0AD8005F10C0646E000BF03
:1055D800DC530020FE530020502E0020B44A002047
:1055E800B40A0020A0110020BC0A0020C810002026
:1055F800C40A0020E4100020C80A0020CC0A0020B9
:10560800E40A0020D40A0020DC0A00201C0A00203A
:10561800A3F16100C0B205283CD9A3F14100C0B292
:1056280005283BD90023A2F13000C0B2092823D9AC
:10563800A2F16100C0B2052829D9A2F13700A2F170
:10564800410743EA0002F8B2D2B2052898BF1346D0
:1056580073540131A378C9B2B3B1023462789AB1F4
:10566800FF2911D0202B09D0A3F13000C0B209289E
:10567800CED80001C3B2D6E70343E9E7A0781346C2
:10568800013402460028EDD185F80B11CDE6573AD2
:105698001343DDE7573B1B01DBB2C4E7373B1B0174
:1056A800DBB2C0E7204930461CF08AF8B8B90523B8
:1056B80020462B701AF052F86860B6E6002F3FF4C7
:1056C80021AF1A4930461CF07BF800283FF411AF8F
:1056D800154930461CF074F800283FF40AAF144905
:1056E80030461CF06DF848B9002C3FF402AF0A238D
:1056F80020462B701AF032F8686096E60D4930465D
:105708001CF05EF8014600287FF44FAF002C3FF4F0
:10571800F0AE0923204610222B701BF04FFD686065
:1057280083E61946B0E700BFC80A0020E41000204D
:10573800CC0A0020D40A002010B5044604220949E6
:10574800094817F0A9F93CB120461CF021FA214676
:105758000246054817F0A0F90348BDE8104017F0C5
:10576800CFB900BFEC0A0020502E002010B5044627
:1057780004220949094817F08FF93CB120461CF06A
:1057880007FA21460246054817F086F90348BDE89E
:10579800104017F0B5B900BFF40A0020502E0020C1
:1057A80030B52DED028B83B004220D4604462A49FC
:1057B800B0EE608A29488DED001A8DED010A17F0C8
:1057C8006BF99DED010A03212448B7EEC00A17F0D2
:1057D800CFF92021214817F079F8B7EEC80A01213E
:1057E8001E4817F0C5F920211C4817F06FF89DEDE9
:1057F800001A01211948B7EEC10A17F0B9F920219A
:10580800164817F063F8294600230A22134817F0B0
:105818009FF92021114817F059F89DB1254406E059
:10582800002310220D4817F093F9AC420AD014F85F
:10583800011B0F29F4D83021084817F047F814F84D
:10584800011CEDE70A21054803B0BDEC028BBDE859
:10585800304017F03BB800BFFC0A0020502E002053
:1058680000B52DED028B83B004221149B0EE608A99
:1058780010488DED010A17F00FF99DED010A03217B
:105888000C48B7EEC00A17F073F92021094817F041
:105898001DF8B7EEC80A0121064817F069F90A2170
:1058A800044803B0BDEC028B5DF804EB17F00EB8AA
:1058B800040B0020502E002070B506460D461446F5
:1058C8002149042221482DED028B82B0B0EE608A76
:1058D8008DED010A17F0E0F800230A2231461B4833
:1058E80017F036F92021194816F0F0FF9DED010A4E
:1058F80003211648B7EEC00A17F03AF920211348D9
:1059080016F0E4FF00230A222946104817F020F970
:1059180020210E4816F0DAFFB7EEC80A01210B481D
:1059280017F026F92021094816F0D0FF214607482C
:1059380017F0DAF80A21054802B0BDEC028BBDE881
:10594800704016F0C3BF00BF0C0B0020502E002083
:10595800013806284ED8DFE800F00C12223E2D351B
:1059680004004FF00A0C0023244881F800C013609B
:10597800704709230B7000232148136070470923DF
:1059880000B583B00B700192FDF7A0FA0378019A75
:10599800002B29D01B4B1C48136003B000BD1B4BC8
:1059A80008201B780870012B19480CBF194B1A4B9B
:1059B800136070474FF0040C184B194881F800C069
:1059C80013607047174B0C201B78087073B1114B8C
:1059D800154813607047154B02201B7808703BB1BF
:1059E800134B144813607047134BD4E7134BEFE77E
:1059F800134BF6E700230B70BDE700BF200700201C
:105A080010070020140B00205C080020025400201E
:105A18002C070020E40A0020400B0020480B00203F
:105A28001C070020F153002004070020E753002042
:105A38002C0B002000070020200B00203C0B00202E
:105A4800340B002010B5044624482DED028B82B09B
:105A580004F040F950B92249224A0B6810681B1A11
:105A6800FA2B1BD802B0BDEC028B10BD01211E4AD7
:105A78001E4B197013680B44136004F049FB174B55
:105A880093F8FF10184693ED411AD3ED400AFFF73B
:105A980087FE8CB9164B01221A70DCE70B6813607D
:105AA80004F044FA13490122114B81ED000A1A70DF
:105AB80002B0BDEC028B10BD04F02AFBB0EE408AA8
:105AC80004F02CFB019004F02FFB0199F0EE400A42
:105AD8000248B0EE480AFDF7FDF9DBE7C0460020B2
:105AE800C05300201C500020C4450020E65300206D
:105AF8006B340020B02E00201E4A1378012B00D0F2
:105B080070471D4909780029FAD01C491C480968C2
:105B18000068091A1B4800688142F1D300B5C5B076
:105B28000DF10F0104A80093FDF7C8FD009B78B99B
:105B3800CDE90030FDF726FE009BDFF854C012497E
:105B48000C4A01988CF8003010700B7045B000BDFD
:105B58009DF80F1004A804F013F90C49074B0A68C4
:105B68001868074B013218600948009B0A600370E7
:105B7800ECE700BF02540020F2530020C05300207D
:105B8800C8450020482F00206934002064490020BF
:105B98006B34002010B50C4686B0112800F29980AD
:105BA800DFE800F0101D2A2F33383D435153555B71
:105BB80061737C82870904F0A5FA002800F08780C9
:105BC800454B11E004F0A4FA444AB7EEC00A142188
:105BD80020468DED000B1BF0F7FB06B010BD04F05E
:105BE800BBFA04F0C5FA03463D4A1421204606B024
:105BF800BDE810401BF0E8BB04F090FA394A0346B0
:105C0800F3E704F091FA384ADFE704F093FA374AE9
:105C18000346EAE704F094FA354A0346E5E7354BCC
:105C28001421354A20461B78E1E7344B93ED007A7E
:105C38001421334A2046B7EEC77A8DED007B1BF05E
:105C4800C3FB06B010BD2F4BF0E72F4BEEE72F4BF1
:105C580014212F4A20461B78C9E72E4B14212E4ABF
:105C680020461B68C3E72D4B0DF1180C0FCB0CE930
:105C78000F002B4B14211A4A20461B7803F003030C
:105C88000CEB830353F8103CB1E7264B1B68E3B1D8
:105C9800254A264B126803EB0213A5E7244B14216F
:105CA8001D4A20461B68A2E704F020FA214A034651
:105CB8009BE704F021FA30B91F4B03CB1B78206017
:105CC8006160237289E71D4BF7E71D4B8CE71D4B7D
:105CD8008AE700230B7080E7700B0020780B002008
:105CE800840B0020880B00208C0B0020980B0020D0
:105CF800A00B00206A340020A80B0020B42E00203E
:105D0800B00B0020442F00204C2F00206C340020C2
:105D1800B80B0020C02E0020C00B0020B8030020C4
:105D2800EE530020DC4700206C490020E0470020AB
:105D3800482F0020C80B0020640B0020580B0020BF
:105D4800500B0020740B00202DE9F04F7B4D0022F2
:105D58007B4BF5B0287893F800A01A70072812D862
:105D6800DFE810F07E009C00A9008B000800B4005A
:105D7800C4004E00734B1B78002B40F0CF80BAF163
:105D8800000F40F0C48004AB14AA19460392029392
:105D9800FFF7DEFD0021029B039ACDE92411CDE92E
:105DA8002611CDE928111978002900F0A980664D3F
:105DB8002C6894FBF1F601FB1644005D112800F2F3
:105DC800A280624951F8204024A9CDE90223FFF7B7
:105DD800E1FE039B029A1B78002B00F0AD80296836
:105DE80091FBF3F003FB1011CDF804A020461568D1
:105DF8000A4624A90095FEF7CBFF75B0BDE8F08FE1
:105E0800534C0DF1100824AF0DF1500914F8012B73
:105E1800504B112A02D84D4B53F8223048F8043B16
:105E2800394614F8010CFFF7B5FE4B4B49F8047BD3
:105E38001437A342EAD1444C04A8CDF800A014A911
:105E48002368464C84FB0324DA17C2EBA40202EB56
:105E58008202A3EB42030A22FEF792F9287805E0B2
:105E68003F4B51461868FEF75FFB2878072801D09A
:105E7800002888D175B0BDE8F08F3A4B1B68002B1D
:105E880043D0394B39481B6800EB0310384A534656
:105E980011680022FEF7D0FE2878E7E7354B36492F
:105EA800364A086893ED000A534612783449FFF7DA
:105EB80037F82878DAE7304B1C68FDF707F85246C0
:105EC80001462046FEF738FE2878CFE72D4B2E4AAC
:105ED800D3ED000A2D492E4B2E4893ED000A534668
:105EE80012680968FEF7D4FB2878BFE72A495346A9
:105EF8002A4A086812782A49FEF7D2FC2878B5E7BA
:105F08000B46284C70E7134C5EE72748BEE7274846
:105F1800274A2849FEF744FA2878A7E72649274A56
:105F2800086851461268264B801AA3FB0030800986
:105F3800FEF75CFD287899E7194655E7ED530020F0
:105F480069340020E7530020D84700209804002037
:105F580020070020DC0B00202A0700206766666601
:105F680070490020DC4700206C490020E0470020F1
:105F780064490020B02E0020C4450020E6530020CC
:105F8800C04600204C2F00203C2F0020402F00202E
:105F9800B42E002080460020B8450020F053002091
:105FA800B8440020B80A0020D00B0020B80900200F
:105FB800E00B0020F80B0020C0530020BC45002057
:105FC800D34D621010B5164C207817F063FB011EF4
:105FD800637818BF0121134A9942D2F800C00BD048
:105FE8006268ACEB0202192A06D9C4F804C06170D1
:105FF80088B92072002010BD002BFBD1237A002B1A
:10600800F8D16368ACEB030CBCF5FA7FF2D301233B
:106018000220237210BD207A80F0010010BD00BF5D
:10602800242F0020C053002000B583B018F0D6F804
:10603800DFED197A194BB4EEE70A83ED000AF1EEA9
:1060480010FA19DADFED167AB4EEE70AF1EE10FA73
:1060580020DD30EE670A9FED137AB3EE076ADFEDB5
:10606800127AC0EE066AE6EE877AFCEEE77ACDEDA4
:10607800017A9DF8043000E0FF230C4902200C4A05
:1060880009781370994238BF194603B05DF804EBDC
:1060980017F04EBE8C23F0E700009C4260490020B8
:1060A80000005C420000E64200000C43EF53002071
:1060B800EA53002038B5134C2378022B15D0042B53
:1060C80018D0032B1BD0104A0025104B0220117842
:1060D8001D7017F02DFE01230D490E4A25700B7017
:1060E8001370BDE8384003F0CFBDFDF781F8237881
:1060F800042BE6D103F0EEFE2378032BE3D1FDF762
:1061080041FBE0E7ED530020EA530020EF53002065
:106118006B34002069340020F8B50122434D444E09
:1061280000232A70441E3270424A434F1370434A78
:10613800387002201360424A1360424A1370424B7F
:10614800197817F0F5FD052C11D8DFE804F02611B1
:106158000332362A00233D483D4A18213D4C03604E
:106168003D4823701360FDF7ABFB3C4B1860F8BD4E
:10617800FCF76EFD18B1FCF771FD002843D1384AD1
:1061880038493948FEF70CF94FF4966017F0E0F9F2
:106198000123002233702B703A70BDE8F84003F0F9
:1061A80073BD002331483249324A03700B601370C3
:1061B800F8BD314B00221A70F8BD402280212F48CB
:1061C8001BF0BAFA2E4B2F4993ED007AD1ED007AE5
:1061D8002D4A37EE677A2D4BD2ED006A4FF0FF3229
:1061E800C7EE267A1A60FDEEE77A17EE903A002B92
:1061F80005DD402B16DD264B40221A60F8BD244BE6
:1062080001221A60F8BD03F03FFD0F4B0D4A022032
:1062180019788C239942137038BF1946BDE8F840A5
:1062280017F086BD1A4AC2ED007AF8BD6B3400201B
:1062380069340020E6530020ED530020C4450020B7
:10624800D8470020EF530020EA5300206C49002073
:106258006449002002540020E0470020DC47002069
:106268000C0C0020300C0020FC090020F153002009
:10627800B8450020F0530020E75300208046002056
:10628800442F0020B42E00204C2F00203C2F00204B
:10629800402F002030B5CDB003AC2046FFF77AF888
:1062A800B0B12378013B092B0DD8DFE803F01A05BC
:1062B800253649515E71771394ED020A03F0E8FB25
:1062C8004148FFF753FA01234049414A0B701370C4
:1062D8004DB030BD207903F07DFC3E48FFF746FA0B
:1062E800F1E76068431E062BEDD8C0B2FFF714FF34
:1062F8003948FFF73BFAE6E7247903F015FF8DEDFF
:10630800010A03F017FF9DED010A0146204603F03C
:10631800EFFB3248FFF72AFAD5E703F0FFFE94EDCA
:10632800020A05468DED010A03F004FF9DED010AFE
:106338000146284603F0DCFB2948FFF717FAC2E7B5
:1063480094F9040003F05CFC2648FFF70FFABAE75B
:10635800254B1B787BB394F80B1106A803F010FDAE
:1063680068B32248FFF7E8F9ADE70320FFF7D4FE4A
:1063780046A8FCF7F5FFD0B11D48012400231D49AC
:106388001D4A04701D480B601360FFF7EFF99AE788
:10639800FFF790FE1A48FFF7E9F994E72079194BBF
:1063A800187003F03DFC1848FFF7E0F98BE7174831
:1063B800FFF7C2F987E71648FFF7BEF983E71548E4
:1063C800FFF7D4F97FE700BFC81000206B34002026
:1063D80069340020CC0A0020BC0A0020C40A00202E
:1063E800E4100020C80A0020F2530020380B0020D7
:1063F8000254002064490020C84500201C0A0020DF
:10640800E40A00206A340020D40A0020440C00204A
:106418003C0C0020DC0A00201D4BD3F8D820106863
:106428009168006810B40842137C546814BF0121B5
:10643800002103F00303D4F800C0D06843EA8103C5
:106448001CEA000F43F0080118BF0B469908013BEE
:1064580011740D2B0BD8DFE803F0110C070C0A168A
:106468001111160A0C070C1153690233536110BC41
:1064780070475369013B10BC53617047536901333E
:1064880010BC536170475369023B10BC536170479D
:10649800344F00201D4BD3F8D42010689168006851
:1064A80010B40842137C546814BF0121002103F082
:1064B8000303D4F800C0D06843EA81031CEA000F44
:1064C80043F0080118BF0B469908013B11740D2BC6
:1064D8000BD8DFE803F0110C070C0A161111160A85
:1064E8000C070C1153690233536110BC7047536990
:1064F800013B10BC536170475369013310BC5361B1
:1065080070475369023B10BC53617047344F0020F9
:106518001D4BD3F8D02010689168006810B4084269
:10652800137C546814BF0121002103F00303D4F83D
:1065380000C0D06843EA81031CEA000F43F0080159
:1065480018BF0B469908013B11740D2B0BD8DFE8D7
:1065580003F0110C070C0A161111160A0C070C117E
:1065680053690233536110BC70475369013B10BC37
:10657800536170475369013310BC536170475369C5
:10658800023B10BC53617047344F00201D4BD3F8B9
:10659800CC2010689168006810B40842137C5468D5
:1065A80014BF0121002103F00303D4F800C0D06810
:1065B80043EA81031CEA000F43F0080118BF0B46A9
:1065C8009908013B11740D2B0BD8DFE803F0110C6F
:1065D800070C0A161111160A0C070C11536902331D
:1065E800536110BC70475369013B10BC536170473D
:1065F8005369013310BC536170475369023B10BCA7
:1066080053617047344F00201D4BD3F8C8201068E1
:106618009168006810B40842137C546814BF0121C3
:10662800002103F00303D4F800C0D06843EA8103D3
:106638001CEA000F43F0080118BF0B469908013BFC
:1066480011740D2B0BD8DFE803F0110C070C0A1698
:106658001111160A0C070C1153690233536110BC4F
:1066680070475369013B10BC53617047536901334C
:1066780010BC536170475369023B10BC53617047AB
:10668800344F00201D4BD3F8C4201068916800686F
:1066980010B40842137C546814BF0121002103F090
:1066A8000303D4F800C0D06843EA81031CEA000F52
:1066B80043F0080118BF0B469908013B11740D2BD4
:1066C8000BD8DFE803F0110C070C0A161111160A93
:1066D8000C070C1153690233536110BC704753699E
:1066E800013B10BC536170475369013310BC5361BF
:1066F80070475369023B10BC53617047344F002008
:106708001D4BD3F8C02010689168006810B4084287
:10671800137C546814BF0121002103F00303D4F84B
:1067280000C0D06843EA81031CEA000F43F0080167
:1067380018BF0B469908013B11740D2B0BD8DFE8E5
:1067480003F0110C070C0A161111160A0C070C118C
:1067580053690233536110BC70475369013B10BC45
:10676800536170475369013310BC536170475369D3
:10677800023B10BC53617047344F00201D4BD3F8C7
:10678800BC2010689168006810B40842137C5468F3
:1067980014BF0121002103F00303D4F800C0D0681E
:1067A80043EA81031CEA000F43F0080118BF0B46B7
:1067B8009908013B11740D2B0BD8DFE803F0110C7D
:1067C800070C0A161111160A0C070C11536902332B
:1067D800536110BC70475369013B10BC536170474B
:1067E8005369013310BC536170475369023B10BCB5
:1067F80053617047344F00201D4BD3F8B820106800
:106808009168006810B40842137C546814BF0121D1
:10681800002103F00303D4F800C0D06843EA8103E1
:106828001CEA000F43F0080118BF0B469908013B0A
:1068380011740D2B0BD8DFE803F0110C070C0A16A6
:106848001111160A0C070C1153690233536110BC5D
:1068580070475369013B10BC53617047536901335A
:1068680010BC536170475369023B10BC53617047B9
:10687800344F00201D4BD3F8B4201068916800688D
:1068880010B40842137C546814BF0121002103F09E
:106898000303D4F800C0D06843EA81031CEA000F60
:1068A80043F0080118BF0B469908013B11740D2BE2
:1068B8000BD8DFE803F0110C070C0A161111160AA1
:1068C8000C070C1153690233536110BC70475369AC
:1068D800013B10BC536170475369013310BC5361CD
:1068E80070475369023B10BC53617047344F002016
:1068F8001D4BD3F8B02010689168006810B40842A6
:10690800137C546814BF0121002103F00303D4F859
:1069180000C0D06843EA81031CEA000F43F0080175
:1069280018BF0B469908013B11740D2B0BD8DFE8F3
:1069380003F0110C070C0A161111160A0C070C119A
:1069480053690233536110BC70475369013B10BC53
:10695800536170475369013310BC536170475369E1
:10696800023B10BC53617047344F00201D4BD3F8D5
:10697800AC2010689168006810B40842137C546811
:1069880014BF0121002103F00303D4F800C0D0682C
:1069980043EA81031CEA000F43F0080118BF0B46C5
:1069A8009908013B11740D2B0BD8DFE803F0110C8B
:1069B800070C0A161111160A0C070C115369023339
:1069C800536110BC70475369013B10BC5361704759
:1069D8005369013310BC536170475369023B10BCC3
:1069E80053617047344F00201D4BD3F8A82010681E
:1069F8009168006810B40842137C546814BF0121E0
:106A0800002103F00303D4F800C0D06843EA8103EF
:106A18001CEA000F43F0080118BF0B469908013B18
:106A280011740D2B0BD8DFE803F0110C070C0A16B4
:106A38001111160A0C070C1153690233536110BC6B
:106A480070475369013B10BC536170475369013368
:106A580010BC536170475369023B10BC53617047C7
:106A6800344F00201D4BD3F8A420106891680068AB
:106A780010B40842137C546814BF0121002103F0AC
:106A88000303D4F800C0D06843EA81031CEA000F6E
:106A980043F0080118BF0B469908013B11740D2BF0
:106AA8000BD8DFE803F0110C070C0A161111160AAF
:106AB8000C070C1153690233536110BC70475369BA
:106AC800013B10BC536170475369013310BC5361DB
:106AD80070475369023B10BC53617047344F002024
:106AE8001D4BD3F8A02010689168006810B40842C4
:106AF800137C546814BF0121002103F00303D4F868
:106B080000C0D06843EA81031CEA000F43F0080183
:106B180018BF0B469908013B11740D2B0BD8DFE801
:106B280003F0110C070C0A161111160A0C070C11A8
:106B380053690233536110BC70475369013B10BC61
:106B4800536170475369013310BC536170475369EF
:106B5800023B10BC53617047344F00201D4BD3F8E3
:106B68009C2010689168006810B40842137C54682F
:106B780014BF0121002103F00303D4F800C0D0683A
:106B880043EA81031CEA000F43F0080118BF0B46D3
:106B98009908013B11740D2B0BD8DFE803F0110C99
:106BA800070C0A161111160A0C070C115369023347
:106BB800536110BC70475369013B10BC5361704767
:106BC8005369013310BC536170475369023B10BCD1
:106BD80053617047344F00201D4BD3F8982010683C
:106BE8009168006810B40842137C546814BF0121EE
:106BF800002103F00303D4F800C0D06843EA8103FE
:106C08001CEA000F43F0080118BF0B469908013B26
:106C180011740D2B0BD8DFE803F0110C070C0A16C2
:106C28001111160A0C070C1153690233536110BC79
:106C380070475369013B10BC536170475369013376
