:0200000460009A
:100000004643464200000156000000000101020084
:1000100000000000000000000000000000000000E0
:1000200000000000000000000000000000000000D0
:1000300000000000000000000000000000000000C0
:1000400000000000010406010000000000000000A4
:100050000000800000000000000000000000000020
:100060000000000000000000000000000000000090
:100070000000000000000000000000000000000080
:10008000EB04180AFF1E04320126000000000000E5
:100090000000000000000000000000000000000060
:1000A0000000000000000000000000000000000050
:1000B0000000000000000000000000000000000040
:1000C0000000000000000000000000000000000030
:1000D0000000000000000000000000000000000020
:1000E0000000000000000000000000000000000010
:1000F0000000000000000000000000000000000000
:1001000000000000000000000000000000000000EF
:1001100000000000000000000000000000000000DF
:1001200000000000000000000000000000000000CF
:1001300000000000000000000000000000000000BF
:1001400000000000000000000000000000000000AF
:10015000000000000000000000000000000000009F
:10016000000000000000000000000000000000008F
:10017000000000000000000000000000000000007F
:10018000000000000000000000000000000000006F
:10019000000000000000000000000000000000005F
:1001A000000000000000000000000000000000004F
:1001B000000000000000000000000000000000003F
:1001C000000100000010000001000000000000001D
:1001D000000001000000000000000000000000001E
:1001E000000000000000000000000000000000000F
:1001F00000000000000000000000000000000000FF
:10020000FFFFFFFFFFFFFFFFFFFFFFFFFFFFFFFFFE
:10021000FFFFFFFFFFFFFFFFFFFFFFFFFFFFFFFFEE
:10100000D1002043F1150060000000000000000046
:10101000201000600010006000BC026000000000B2
:101020000000006000C8020000000000FFFFFFFF9A
:10103000FFFFFFFFFFFFFFFFFFFFFFFFFFFFFFFFC0
:10104000FFFFFFFFFFFFFFFFFFFFFFFFFFFFFFFFB0
:10105000FFFFFFFFFFFFFFFFFFFFFFFFFFFFFFFFA0
:10106000FFFFFFFFFFFFFFFFFFFFFFFFFFFFFFFF90
:10140000824205D051F8043B40F8043B8242F9D8AF
:10141000704700BF044A05494FF0000342F8043BFF
:101420009142FBD8704700BFC03A002060530020B3
:1014300008B5BFF34F8F00F047F9544C544B0820C8
:101440005449C3F85401544AC3F800115348C3F82F
:10145000F0405349FFF7D4FF524A53495348FFF72E
:10146000CFFF534CFFF7D6FF4FF470004FF0E02151
:101470000023504AC1F8880D44F823200133B02BD3
:10148000FAD14D4B80214D4A03F8011B9342FBD109
:101490004FF0E0254A4E4B4A4FF0FF31C5F8084D5A
:1014A000D5F8243D43F4E023C5F8243DF36923F047
:1014B0007F0343F04003F361736A23F07F0343F03B
:1014C000400373629166D1661167516700F004F9B9
:1014D0003D4A3E4BA2636322E36300246A61032317
:1014E0003B4AAC612B61C5F8202DD5F8FC2D394B5A
:1014F00042F080723849C5F8FC2D1A6842F00102AA
:101500001A605B680B6000F0B7FA344800F05CFCCE
:10151000F16E334B334A41F44051F1661C60C3F81D
:101520000841C3F81841C3F82841C3F83841936B08
:10153000DB0708D442F615632B4951651365936B9D
:1015400043F001039363274A284C936843F0011347
:10155000936000F04FF900F0FBFB00F041FC00F05D
:10156000BDFA00F0B3F82368132BFCD900F052FB4E
:101570002368B3F5967FFBD300F0ACF800F0A8F831
:1015800000F032FC00F018FC30BFFDE70C0D111329
:1015900000800D401B101820385E02000000000083
:1015A00098200060C03A0020D47E02600000002035
:1015B00000380020BDB8010000E400E0A0E400E035
:1015C00000C00F4000C00A40E19B0100E59B010004
:1015D00000002020001000E0E05200200046C3235D
:1015E0000040084000400D400000C056E45200207A
:1015F000054B4FF42A01054A05485A641864054A08
:1016000099639546FFF714FF00C00A40FFABAAAAF2
:101610000700200000800520294A00210123C2F88C
:10162000A000C2F8A410C2F8B0305369D907FCD5A5
:1016300001234FF4803C22495361C2F8A000C2F854
:10164000A4C0C2F8B0304B69DB07FCD501234FF4CE
:10165000003C1B4A4B61C1F8A000C1F8A4C0C1F80E
:10166000B0305369D907FCD50123DFF858C01449BD
:101670005361C2F8A000C2F8A4C0C2F8B0304B69F0
:10168000DB07FCD5D1F8003145F60D504FF0210CA9
:101690009AB2C1F814C0824210D045F69D518A42D8
:1016A0000AD1C3F34253032B08D0A3F10403B3FAC6
:1016B00083F35B09180170470020704708207047CA
:1016C00000402A4004000300704700BF704700BF7D
:1016D000704700BF00BF70474FF0E02300214FF07C
:1016E000100C3448C3F8941DC3F89CCD4FF0110C76
:1016F000C3F8A00D3048C3F89CCD4FF0120CC3F8CE
:10170000A00D2E48C3F89CCD2D4AC3F8A00DDFF8DC
:10171000D0C042F015022B48C3F89CCDC3F8A00DF1
:10172000DFF8C0C02848C3F89CCDC3F8A00DDFF88F
:10173000B8C0C3F89C2D2548254AC3F8A0CDC3F8EE
:101740009C0DC3F8A02D02F5A022DFF8A0C00C323A
:101750002048C3F89CCDC3F8A02D1F4AC3F89C0DA8
:10176000C3F8A02D02F14062DFF884C002321B48AA
:10177000C3F89CCDC3F8A02D0A32C3F89C0DC3F862
:10178000A02D00BF00BF00BF00BF00BF0122C3F8F3
:10179000942DBFF34F8FBFF36F8FC3F8501FBFF36C
:1017A0004F8FBFF36F8FD3F8142D42F44032C3F83C
:1017B000142D70473F000010250008070900100095
:1017C0006053002021000207250008131600202086
:1017D00027000B13180000602F000B071A00008071
:1017E0001300200014000020090000101700004022
:1017F0001900007030B5864B85B0DFF874E218220E
:10180000844D0120C3F85CE28349C3F86052A5F51A
:101810008055DFF860C2814CC3F864E2C3F86852B7
:101820002125C3F86CC2C3F870C2C3F874C2C3F8F0
:1018300078C248F20C7CDA661A675A679A67DA67E8
:10184000C3F88020C3F88420C3F88820C1F82C0393
:10185000734AC1F83003C1F83403C1F83803C1F842
:101860003C03C1F85003A1696E4B0A406E486F49B2
:1018700013436F4AA361D4F8843043F00C03C4F8D7
:1018800084304FF0FF34036843F0020303600368C1
:1018900003EA0C031A43674B026044608A68664C93
:1018A0001340664A43F000538360C36823F0780313
:1018B000C360036A23401A43604B0262026A2240FB
:1018C0005F4C1343002243628462C46240F20564A9
:1018D000D1F8B83023F03F0343F00103C0F8B8302B
:1018E000D1F8BC30574923F03F0343F00103C0F85F
:1018F000BC3002610567C0F880404567C0F884408D
:101900000224036823F00203036081614E4B4F49B8
:10191000C46143F8042B8B42FBD1434C236843F052
:1019200001032360256815F00105FBD1454802221B
:1019300040F2F561A06140F29940E26140F26642F6
:10194000C4F8001242F20141C4F81022404AC4F81F
:101950002002C4F8302240F23542C4F834123D4827
:10196000C4F840223C4AC4F850022846C4F8542225
:1019700042F201223949C4F86012C4F86422FFF728
:101980004BFE0246002839D0810201234FF480200B
:1019900021662549C4F8A050C4F8A400C4F8B030AA
:1019A0004B69D807FCD515050124039228464C61E4
:1019B000FFF732FE039A2A4B0244D2B21A7080B16A
:1019C000194980024FF4802348660846C1F8A050A8
:1019D000C1F8A430C1F8B0404369DB07FCD501234E
:1019E000436120490024204801230094401A00EB61
:1019F00002521E4800F0F0F905B030BD1B4B1849EB
:101A000018600870D860C3E9010005B030BD00BFA0
:101A100000801F40F910010000841F4000C00F40EB
:101A2000FFFCFF1F0003008000402A4000802A4086
:101A30001200FFFFFF37F70000FFF07C400000803E
:101A4000FF000F83F05AF05A00422A4000432A4018
:101A50009F041830EB06180A063201263806180AC9
:101A60002153002000000070000000706C52002024
:101A7000F9B00100F970010010B5174A4FF4805415
:101A80004FF4005E4FF4404C4FF4803043F242017B
:101A9000136913F0020F0DD113F4005F0FD013F48C
:101AA000805F0FD0002BF3DA13F4803F0CD15B067C
:101AB0000ED510BDC2F818C050619161E8E7C2F8B8
:101AC00014E0E5E75461E3E74FF480339361DFE727
:101AD00040235361DCE700BF00800D40414A0320F2
:101AE0004149F3EE095AD2F880309FED406A23F065
:101AF00001039FED3F5ADFF814C100B5C2F88030F2
:101B0000C2F89000D1F8E010DFF804E1CBB2394818
:101B1000CEF8003007EE903A0B0DC1F30B21F8EE32
:101B2000E77A06EE903A07EE101A334BB8EEC77A12
:101B3000CCF80010F8EEE66A304937EEC66A37EEA8
:101B4000C55A76EEC76A77EEE57A26EE266AC3EDC9
:101B5000006A25EE265AD2F8803067EEA64AC0ED1C
:101B6000007AC6EE275A264885EE276AC4EEA76A91
:101B700075EE875AFCEEE55A36EE076A15EE90CA06
:101B8000BCEEC66A43EA0C5376EE877AC2F8803020
:101B900016EE103AD2F890C1FCEEE77A01EA034162
:101BA00041EA0C014FF0000C17EE903AC2F8901188
:101BB000C3F30B03D2F890110B431249C2F89031D2
:101BC000D2F8803043F00203C2F880300E4B80F828
:101BD00040C0C1F840314FF0E0230122C3F8082192
:101BE00000BD00BF00810D4000441F400000AA421C
:101BF0000000B442D4520020D85200200000FF0F51
:101C000000E400E000380020A1BA0100CC5200201E
:101C1000D0520020314B40F6617210B5C3F820213C
:101C200040F2044400F0CCF82D4A2E49D2F880301E
:101C30002D4843F00303C2F880302C4BC1F86041BB
:101C400002681A4203D1D1F8A8319A071BD0254A5D
:101C50004FF00041244B5963D2F8403143F0020366
:101C6000C2F84031D2F840319B07FBD44FF400302A
:101C70004FF0E0211C4B4FF00042C1F88C021920BC
:101C80009A6300F095F8184B0021164C4FF08042F3
:101C90000A209A634FF420721960C4F8A80114480E
:101CA00000F096F84FF4800203464FF4810040F2B2
:101CB00043111860C4F858311A640E4B0E4AC4F828
:101CC0004811C3F804224FF0E0224FF40031012301
:101CD000C2F80C11C4F8403110BD00BF00800D40A7
:101CE00000C00F4000002E4000900D40001C1E0060
:101CF0000000002000380020A5BC010008B50E4BF4
:101D00001B6E9B0700D4FBBE72B60C4B00200C4A26
:101D1000C3F8400103F160430A49A3F55F2311644E
:101D20009D46BFF34F8F4FF40013074A0748DB6906
:101D300002609B68984700BF00441F4000002E408F
:101D400000C00A4003002000000012EB00802020A9
:101D50000F4B40F2376C0F4AA020D96E41F440314E
:101D6000D966D96E41F44071D966C2F844C0906416
:101D7000936C1B06FCD4084A40F23761A0235164DF
:101D80009364936C13F08003FBD1044A1370704783
:101D900000C00F4000400C4000800C402053002049
:101DA000F8B500BFF8BC08BC9E46704700000000B4
:101DB0005FF800F019AE01005FF800F045B20100D5
:101DC0005FF800F011C401005FF800F005AB0100FE
:101DD0005FF800F001F001005FF800F091CF010022
:101DE0005FF800F0A5B701005FF800F015F30100FF
:101DF00005010000E11E00002D1F0000E16E000043
:101E0000117C0000D98A0000554401004580010082
:0C1E100095980100F1A9010015CF010018
:101E1C006CC00F40030000000E0D0000E97C0000B8
:101E2C002A3600001400000013000000010000001E
:101E3C00F4841F402B32000014000000130000003B
:101E4C0001000000F8841F402D3100001400000038
:101E5C001300000001000000F0841F402CFFFF0065
:101E6C001400000000000000000000000100000051
:101E7C0000000000EC841F40000000000000000087
:101E8C006CC00F4030000000100F0000E97C000017
:101E9C0001270000170000001200000000010000E4
:101EAC0014851F401AFF0000120000000000000003
:101EBC000100000018851F401BFF000012000000ED
:101ECC00000000000100000010851F400026FF00EC
:101EDC0017000000120000000000000001010000CB
:101EEC00010000000C851F400C851F400000000005
:101EFC006CC00F40C0000000504F0000BD7D0000C2
:101F0C000CFF0000130000000000000000000000A7
:101F1C0024851F400BFF0000130000000000000090
:101F2C000000000028851F400DFF0000130000007A
:101F3C00000000000000000020851F400A2524003E
:101F4C001300000012000000120000000102030048
:101F5C000000000000000000000000000000000075
:101F6C00090180961180FF3A81550A3601082A042E
:101F7C00000000F02B040000014021800A13800AAD
:101F8C002980FF0016035500530042002000530027
:101F9C0065007200690061006C00000018035400B9
:101FAC00650065006E0073007900640075006900BF
:101FBC006E006F000403090409026200030100C0F3
:101FCC0032080B00020202010009040000010202A7
:101FDC00010005240010010524010101042402065E
:101FEC0005240600010705820310001009040100F6
:101FFC00020A0000000705030240000007058402E6
:10200C004000000904020002FF6AFF00070581027C
:10201C0040000107050102400001000009026200B6
:10202C00030100C032080B00020202010009040087
:10203C000001020201000524001001052401010128
:10204C00042402060524060001070582031000057E
:10205C0009040100020A0000000705030200020047
:10206C00070584020002000904020002FF6AC7008F
:10207C0007058102000201070501020002010000B0
:0C208C000A060002EF0201400100000003
:102098000000000000000000000000000000000038
:1020A8000000000000000000000000000000000028
:1020B800F8B54FF084439D695A6915400DD0254FF6
:1020C80001269D6195FAA5F4B4FA84F457F82430F2
:1020D80006FA04F49847A543F4D11F4B9D695A6941
:1020E80015400DD01D4F01269D6195FAA5F4B4FA4F
:1020F80084F457F8243006FA04F49847A543F4D139
:10210800174B9D695A6915400DD0164F01269D61E0
:1021180095FAA5F4B4FA84F457F8243006FA04F4CE
:102128009847A543F4D1104B9D695A6915400DD0C5
:102138000E4F01269D6195FAA5F4B4FA84F457F878
:10214800243006FA04F49847A543F4D1BFF34F8F1F
:10215800F8BD00BFFC340020004000427C35002060
:1021680000800042FC35002000C000427C36002080
:102178000548064B1B1AD90F01EBA301491002D0E1
:10218800034B03B118477047C03A0020C03A0020FB
:102198000000000008B5054B1BB105490548AFF321
:1021A8000080BDE80840FFF7E3BF00BF0000000063
:1021B8007C52002000C8026000207047704700BFB2
:1021C800036D0BB101207047406DC01A18BF012084
:1021D800704700BF0346806D80B100B583B001939E
:1021E8001CF074FF0022019B9A651A6D62B103F11D
:1021F800180003B05DF804EB0DF0D8B91A6D42B1C0
:1022080003F118000DF0D2B95A6D002AEFD103B0CE
:1022180000BD5A6D002AF3D1704700BF10B5046D98
:102228006CB10BB1002010BD114620460AF090FF9A
:102238000028F7D02046BDE810400BF08BBC446D59
:10224800002CEFD0204608F051FE0028EAD02046A6
:10225800BDE8104009F00CBD8A79A2F150031B06B5
:1022680028D4D0F850C002F26C7230B54B7985B0E2
:1022780091F804E001338C784D78DBB20978BCF131
:10228800000F0AD060460194CDF800E0CDE9025174
:1022980002210BF0E9FB05B030BD406D0028FAD0F3
:1022A8000194CDF800E0CDE90251022109F016FCB5
:1022B80005B030BD00207047816D09B108467047F0
:1022C80000B583B001904FF480701CF0F7FE019BBD
:1022D80001469865B8B10022186D0A7040B14FF4F4
:1022E80080720CF0B7FD019B996D084603B000BDE4
:1022F800586D0028F9D04FF4807201930AF0EAF97A
:10230800019B996DF1E7024A11469A65EDE700BF16
:102318001F5300200246006D0B4600B585B040B340
:1023280001910DF10E0203A90BF07CFB019B58B340
:10233800BDF80C20BDF80E1052EA010024D0C1F3FC
:10234800451E01F01F00C90AC2F3431C400083F870
:1023580001E09970510A0CF1FF3C02F01F0201F5EF
:10236800EA611870012083F805C01A71997105B0E7
:1023780000BD506D40B10DF10E0203A9019308F0A4
:1023880063FC019B0028D3D1002005B000BD00BF2D
:102398000246006D0B4600B585B040B301910DF1C2
:1023A8000E0203A90BF01CFB019B58B3BDF80C20CF
:1023B800BDF80E1052EA010024D0C1F3451E01F009
:1023C8001F00C90AC2F3431C400083F801E099705A
:1023D800510A0CF1FF3C02F01F0201F5EA61187086
:1023E800012083F805C01A71997105B000BD506DC0
:1023F80040B10DF10E0203A9019308F013FC019BF3
:102408000028D3D1002005B000BD00BF10B5036976
:1024180082B08DF80710C3B11968114AC968914292
:102428000C4615D1186D30B101220DF107010BF0E2
:10243800CFFB02B010BD586D0028FAD001220DF173
:10244800070109F089FC02B010BD184602B010BDA2
:1024580001220DF107011846A04702B010BD00BFC8
:1024680065070000036963B11A68074992698A42DF
:1024780008D1186D08B10AF095BF586D08B109F078
:10248800A9B970471846104751070000006990B174
:102498000368154A1B69934225D1036D63B1187807
:1024A80010F0080007D0D8695B69C01A48BF6FF000
:1024B8000040704718467047436D002BFAD093F8D8
:1024C800310010F00800F6D0186919685A69401AE6
:1024D8005B6862EB0303B0F1004F73F10003EAD3CA
:1024E8006FF000407047184709080000036D13B1EA
:1024F800586900217047436D13B1D3E90001704753
:1025080018461946704700BF036D13B1D8690021FA
:102518007047436D13B1D3E9040170471846194653
:10252800704700BF036D13B118460AF093BD406DA4
:1025380008B108F0C5BC4FF0FF307047026D82B19A
:10254800137813F0700F00D1704700B583B00021E5
:10255800019010460AF0FCFD019B586D70B903B05C
:1025680000BD406D0028EFD090F8313013F0500FC7
:1025780003D00022002308F0B9BC704700220023D2
:1025880003B05DF804EB08F0B1BC00BF036973B198
:102598001A68084952698A4207D1186D08B10AF0C9
:1025A80059BD586D18B108F08BBC184610474FF04C
:1025B800FF30704795040000836C13B118460AF089
:1025C80049BDC06C08B108F07BBC4FF0FF307047C4
:1025D80070B59FED297B94B000224FF47A76284D90
:1025E8000446183104A88DF80C200095CDE9012681
:1025F8008DED127B0DF03EF8129B002B2FD05C2046
:102608001AF00AFF1F490022064601601830019996
:1026180040F8142C40F80C1C1B4940F8101C029977
:1026280040F8081C9DF80C1000F8041C04A90CF0D4
:1026380077FF00224FF47A71B560B2656260227349
:10264800124AA16022607268266101327260104BE2
:1026580004A800930CF0AAFF204614B070BD139B89
:10266800002BCCD1094A237322602361C4E90136C7
:10267800EDE700BFAFF3008000000000000000009D
:10268800F0190020141A0020801C0020C419002012
:102698008C170020036D13B118460AF0F1BB406D8A
:1026A80008B108F043BB4FF0FF307047836C00B5AA
:1026B80083B05BB101220DF1070118460AF0E0FB77
:1026C80001280BD19DF8070003B000BDC06C28B1EC
:1026D80001220DF1070108F029FBF1E74FF0FF3067
:1026E800F2E700BF036D33B11B7813F0700F14BF0E
:1026F800012000207047406D30B190F8313013F060
:10270800500F14BF01200020704700BF03693BB37E
:1027180018680021144A10B5846882B094428DF874
:10272800071014D1186D48B101220DF107010AF004
:10273800A7FB90B19DF8070002B010BD586D0028A6
:10274800FAD001220DF1070108F0F0FAF1E70122B1
:102758000DF107011846A047EBE74FF0FF30EBE714
:102768004FF0FF30704700BF050600008A79A2F1DC
:1027780050031B0628D4D0F850C002F26C7230B552
:102788004B7985B091F804E001338C784D78DBB251
:102798000978BCF1000F0AD060460194CDF800E03A
:1027A800CDE9025104210BF05FF905B030BD406D51
:1027B8000028FAD00194CDF800E0CDE902510421B7
:1027C80009F08CF905B030BD00207047836C13B157
:1027D80018460AF0E7BDC06C08B108F0FBBF7047A7
:1027E800036D13B118460AF0DDBD406D08B108F05D
:1027F800F1BF7047036D13B118460BF0E9B9406D8E
:1028080008B109F0A9BA7047836C13B118460BF0E8
:10281800DFB9C06C08B109F09FBA704700B5836C86
:1028280083B08DF807103BB101220DF1070118465E
:102838000BF0CEF903B000BDC06C0028FAD001221D
:102848000DF1070109F088FA03B000BD836C53B19C
:10285800187810F008000DD0D8695B69C01A48BF15
:102868006FF000407047C36CA3B193F8310010F0CB
:10287800080000D17047186919685A69401A5B68DE
:1028880062EB0303B0F1004F73F10003F2D36FF072
:10289800004070471846EDE7036D53B1187810F003
:1028A80008000DD0D8695B69C01A48BF6FF00040B6
:1028B8007047436DA3B193F8310010F0080000D1C0
:1028C8007047186919685A69401A5B6862EB030314
:1028D800B0F1004F73F10003F2D36FF0004070477E
:1028E8001846EDE70369CBB10D4810B51C68D4F85C
:1028F8000CE086450DD1186D18B1BDE810400BF0FD
:1029080067B9586D18B1BDE8104009F025BA002024
:1029180010BD18467346BDE81040184700207047A0
:102928006507000010B5104B0446806D82B0236027
:1029380018B11CF0CBFB0023A365236D73B104F120
:102948001803184601930CF031FE019B074A1846FC
:10295800A2600CF02BFE204602B010BD636D002B68
:10296800EDD104F11803F1E7141A00208C170020A8
:1029780010B5124B0446806D82B0236018B11CF06C
:10298800A5FB0023A365236D93B104F11803184632
:1029980001930CF00BFE019B094A1846A2600CF04B
:1029A80005FE20465C211AF03DFD204602B010BD10
:1029B800636D002BE9D104F11803EDE7141A002028
:1029C8008C17002010B5029994469E4629B101291A
:1029D8001ED002290FD0002010BD046D0CB34FF09B
:1029E800FF33934271EB0E03F5D320461146BDE841
:1029F80010400AF0ADBB036D23B3D96989184EF1B5
:102A08000002002AE7D11846BDE810400AF0A0BB32
:102A1800036D6BB1596989184EF10002002ADAD1A9
:102A2800F1E7406D0028D6D0BDE8104008F05EBA46
:102A3800406D0028CFD0D0E900231CEB020243EB05
:102A48000E03F1E7406D0028C5D0D0E904231CEB44
:102A5800020243EB0E03BDE8104008F047BA00BF7E
:102A68003649034602690160002A50D0516801398D
:102A7800516000294BD1324810B5146884B0E46A1B
:102A880084424AD1906D40B10391CDE901231CF0F5
:102A98001DFB019A0399029B9165116D002938D09D
:102AA80002F1180001930CF081FD019B1A695AB3D9
:102AB80011682448496881423AD12349906D1160D0
:102AC80038B1CDE901231CF001FB0021019A029BDA
:102AD8009165116D31B302F1180103930292084612
:102AE80001910CF063FD0199DDE90223DFF85CC078
:102AF80008460293C2F808C001920CF057FD5C2109
:102B080001981AF08FFC029B184604B010BD1846B5
:102B18007047516D0029C3D1C8E701931046A047FB
:102B2800019BC3E7516D0029D5D102F11801DDE7FA
:102B3800019310468847019BE6E700BFC4190020AF
:102B480045010000E1080000141A00208C1700203D
:102B58002F4A036910B5044682B00260002B3FD0AB
:102B68005A68013A5A60002A3AD119682948C96A4C
:102B7800814240D1986D30B1CDE900321CF0A6FAFF
:102B8800DDE900329A651A6D002A30D003F1180089
:102B98000CF00CFD23691BB31A681F4952688A425E
:102BA80032D11E4A986D1A6028B100931CF08EFA33
:102BB8000022009B9A651A6D02B303F11802019373
:102BC800104600920CF0F2FCDDE90023144910468F
:102BD800009399600CF0EAFC5C2100981AF022FC42
:102BE800204614211AF01EFC204602B010BD5A6D72
:102BF800002ACBD1CEE718468847CBE75A6D002A82
:102C0800DBD103F11802E1E718469047E8E700BF77
:102C1800C419002045010000E1080000141A002032
:102C28008C17002008B5FE21024807F019FF024B57
:102C3800187008BDE43F00201D530020014B187890
:102C4800704700BF1D5300208A4B2DE9F0411F78C3
:102C580096B0002F00F095800124874E08E002937B
:102C68000AF088FCE8B1013442F210739C4218D093
:102C78002346824A102182481EF052F8D6F884541E
:102C88007F4A02A800232946002DE8D1D6F88814E7
:102C98002B467B4A02A821B10E9508F019FC0028A2
:102CA800E1D144F20223764A764902A80CF08EFD5F
:102CB800149B002B00F094805C2000251AF0ACFBDC
:102CC800039B714A0446C36006A9049B6F4E0361C7
:102CD8009DF81430C0E900256D4A183000F8043C0E
:102CE80040F8102C0CF01CFC63686A4A06A80133F3
:102CF800A565A2606360684B984602930CF056FC89
:102D08003569002D42D06B68013B6B60002B3DD1CB
:102D18002B68624ADB6A934240F09E80A86D18B126
:102D28001CF0D4F90023AB652B6D002B00F08F80CD
:102D380005F118000CF03AFC356905B32B68584AC0
:102D48005B68934240F092804F4BA86D2B6018B19E
:102D58001CF0BCF90023AB652B6D002B7FD005F16F
:102D68001803184601930CF021FC019B1846C5F87E
:102D780008800CF01BFC5C2128461AF053FB3461D8
:102D88002CB90027384616B0BDE8F08134612368B5
:102D9800444A1B6B93423CD1236D002B35D03369D9
:102DA800BBB11A684049D4688C4244D1186D0028D8
:102DB8003AD007223D490AF00BFF33694BB11A6834
:102DC8003B4992698A423FD1186D002826D00AF003
:102DD800E9FA384B002238461A6016B0BDE8F0818F
:102DE800159C002C7FF468AF2B4B06A8274E9846FD
:102DF80002930CF0DBFB3569002DC2D06B68013BF8
:102E08006B60002B84D03461BBE7636D002BC6D1A7
:102E1800B7E7204698470028B3D0C0E7586D002888
:102E2800D7D008F0D7FCD4E7586D48B107221F491E
:102E380008F092FFC1E7072218461C49A047BCE7E3
:102E480092691B498A42E9D018469047C1E76B6DE1
:102E5800002B7FF46DAF6FE7284698476CE76B6DE2
:102E6800002B7FF47CAF05F118037FE728469847CD
:102E780085E700BF1D530020E43F002054080020D0
:102E8800504E0020E83F0020141A0020483200204D
:102E9800801C0020F01900208C170020450100003C
:102EA800E108000031010000650700001417002048
:102EB80051070000604E002000487047504E002027
:102EC800F0B5A64D89B02B698DF80F10002B00F0D6
:102ED800D9801A680446A249126B8A4240F0C5801C
:102EE8001A6D002A00F0D180F6EE007A94ED407A4F
:102EF800F2EE045AD4ED416AD4F80C21B0EE676AB8
:102F080094F8FF10E0EEA57A079227EE257A8DF85F
:102F18001510A0EE256AFDEEE66ABDEEC77AFCEE56
:102F2800E77A16EE902A17EE101ABCEEC66A8DF8EC
:102F38001420ADF81A1017EE902A16EE101AADF8F4
:102F48001820ADF81610002B00F086801A68854E00
:102F5800D268B242174640F0F780186D002800F09A
:102F68009980042207A90AF033FE2B69002B73D03D
:102F78001A68D268B242174640F01081186D0028CE
:102F880000F0D38002220DF116010AF021FE2B6910
:102F9800002B61D01A68D268B242174640F0F88018
:102FA800186D002800F0B08001220DF10F010AF021
:102FB8000FFE2B69002B4FD01A68D268B242174611
:102FC80040F0E180186D002800F0A780022206A9D1
:102FD8000AF0FEFD2B69002B3ED01A68D268B24277
:102FE800174640F0CA80186D002800F0848002223D
:102FF8000DF11A010AF0ECFD2B69002B2CD01A6890
:10300800D268B242174640F0B380186D00286AD0E3
:10301800012205A90AF0DCFD2B69EBB11A68D26818
:10302800B242174640F08A80186D002852D001221B
:103038000DF115010AF0CCFD2B699DF815205BB147
:103048001968C968B1420F4640F08380186D00289E
:1030580039D021460AF0BCFD434A13680133136096
:103068001B0720D0012009B0F0BDCDED020A18469B
:103078008DED010A90479DED010ADDED020A002859
:1030880040F0A780002009B0F0BD5A6D002A7FF4F7
:103098002BAFF7E7586D00283FF470AF042207A95B
:1030A80008F05AFE61E72B69002BDBD01A682F491C
:1030B80092698A4240F08F80186D002800F0828063
:1030C8000AF070F9CEE7586D0028C5D0214608F0FF
:1030D80043FEC1E7586D002870D001220DF115019B
:1030E80008F03AFEA8E7586D002861D0012205A92A
:1030F80008F032FE90E7586D002855D002220DF1F5
:103108001A0108F029FE77E7586D002852D00122ED
:103118000DF10F0108F020FE4BE7586D002845D04F
:10312800022206A908F018FE54E7586D002843D07B
:1031380002220DF1160108F00FFE28E718460122B9
:103148000DF11501B84777E71846042207A9B847D3
:103158000BE721461846B8477EE700BF48320020F3
:103168003101000065070000604E00205107000093
:103178001846012205A9B8474EE7184602220DF164
:103188001A01B84738E71846022206A9B84721E7C6
:10319800184601220DF10F01B8470AE71846022226
:1031A8000DF11601B847F2E62B6928E72B6914E7F9
:1031B8002B6933E72B69FFE62B69EBE69DF81520B1
:1031C8002B693DE7586D00283FF44CAF08F002FB2F
:1031D80048E72B6988E61846904743E710B5524CF4
:1031E80082B0206900286CD0036850491A6B8A4263
:1031F80071D1026D002A66D09B694D4A93427BD1FA
:10320800036D002B6FD018460AF0CCF82369002B09
:1032180057D01A684749D26A8A4277D1986D28B13F
:1032280000931BF053FF0022009B9A651A6D002A39
:103238005ED003F118000CF0B9F922695368013B1C
:103248005360002B3BD111683A48C96A814264D166
:10325800906D30B1CDE900231BF038FFDDE9002384
:103268009365136D002B54D002F118000CF09EF9F1
:10327800236923B31A68304952688A4250D12F4AC9
:10328800986D1A6028B100931BF020FF0022009B64
:103298009A651A6D002A33D003F11802019310467B
:1032A80000920CF083F9DDE90023254910460093CC
:1032B80099600CF07BF95C2100981AF0B3F80023B0
:1032C800236102B010BD426D002AFAD09B69184AEA
:1032D800934295D010E090470028F2D0206900284A
:1032E800EFD0036888E7406D40B108F073FA8DE7C6
:1032F8005A6D002A9DD1A0E7984787E7236988E798
:103308005A6D002AC8D103F11802CEE71846904733
:1033180093E7536D002BA7D1AAE710468847A7E784
:1033280018469047CBE700BF483200203101000023
:103338005107000045010000E1080000141A0020B0
:103348008C170020944BF0B51D7897B01DB9002557
:10335800284617B0F0BD02460023904902A80CF099
:1033680035FA149B002B00F0E4805C2000261AF04C
:1033780053F88B4B044606A9C0E90036039B183066
:1033880040F80C3C874B40F8103C049B40F8083C44
:103398009DF8143000F8043C0CF0C2F86368A66588
:1033A80006A80133804E6360804B02931F46804B12
:1033B800A3600CF0FBF8336923B15A68013A5A60EC
:1033C800002A71D0346123687A4A1B6B934240F01B
:1033D800C680236D002B00F0A7803469002CB6D07E
:1033E8002368754A9968914240F0CB80206D002887
:1033F80000F0BB8002A9072209F042FD0728A7D0E8
:103408003469002CA3D02368DB6A6C4A934240F0ED
:10341800B580A06D18B11BF059FE0023A365236D7C
:10342800002B00F0DB8004F118000CF0BFF83569C0
:103438006C68013C6C60002C33D12B685F4ADB6AF6
:10344800934240F0D580A86D10B11BF03FFEAC65EB
:103458002B6D002B00F0C78005F118000CF0A6F8C2
:103468003469F4B12368564A5B68934240F0C880D7
:103478004B4BA06D236018B11BF028FE0023A365F9
:10348800236D04F11805002B00F0B58028460CF0D8
:103498008DF82846A7600CF089F85C21204619F0C1
:1034A800C1FF0023336152E71A684449D26A8A424D
:1034B80040F08880986D28B100931BF007FE002229
:1034C800009B9A651A6D002A61D003F118000CF070
:1034D8006DF833691BB31A68394952688A427AD140
:1034E8002F4A986D1A6028B100931BF0EFFD002257
:1034F800009B9A651A6D002A67D003F118020193A0
:10350800104600920CF052F8DDE9002310469F6047
:1035180000930CF04BF800985C2119F083FF34619C
:10352800002C3FF414AF4EE7636D002B7FF455AFCA
:103538000DE7159C002C7FF418AF1C4B06A81A4EFB
:103548001F4602930CF032F83369002B3FF4FFAEAC
:103558005A68013A5A60002AA6D03461F7E6204634
:10356800984700283FF4F3AE37E7606D00283FF432
:103578004BAF02A9072207F0D9FB3FE7204698473F
:1035880055E70B46204602A90722984736E75A6DA9
:10359800002A9AD19DE700BF1D530020E83F002074
:1035A800141A0020801C00205C3200208C17002098
:1035B800F019002031010000050600004501000057
:1035C800E10800001846904783E75A6D002A94D115
:1035D80003F118029AE718469047A0E7636D002B9D
:1035E8007FF421AF23E76B6D002B7FF435AF37E70E
:1035F8002846984734E7636D002B7FF447AF48E7C8
:10360800204698474DE700BFF0B52E4C85B023699A
:10361800002B31D01A680D4606462B48116B8142A3
:1036280025D1196D59B39268284917468A4232D173
:10363800186D40B30B2201A909F022FC0B281BD1FD
:103648009DF80E202A70BAB12369002B2ED0196874
:103658008C681E498C422BD1186D08B3314609F08D
:103668000FFC2B78181AB0FA80F0400905E01846CC
:10367800884708B1236913BB002005B0F0BD596D18
:103688000029D0D1F8E7586D0028F5D00B2201A900
:1036980007F04CFBD2E718460B2201A9B847CDE743
:1036A800586D48B1314607F041FBDAE71846E4E7C0
:1036B80031461846A047D4E74FF0FF30D1E71A68E3
:1036C800B1E700BF5C3200203101000005060000B0
:1036D80010B5484C82B02369002B60D01968464861
:1036E8000A6B824265D1186D00285AD0C96A434ACC
:1036F80091426BD1986D28B100931BF0E7FC002133
:10370800009B9965196D00295CD003F118000BF036
:103718004DFF21694B68013B4B60002B3DD1086888
:10372800C26A364882425ED1886D30B1CDE9001355
:103738001BF0CCFCDDE900138B650B6D002B4ED024
:1037480001F118000BF032FF236933B319682C48D4
:10375800496881424AD12B49986D196028B1009374
:103768001BF0B4FC0021009B9965196D002930D02D
:1037780003F118010193084600910BF017FFDDE9EA
:103788000013DFF884C008460093C3F808C00BF0A4
:103798000DFF5C21009819F045FE0023236102B05B
:1037A80010BD586D0028FAD0C96A144A9142A1D0B8
:1037B8000CE0184690470028F1D02369002BEED082
:1037C800196893E7596D00299FD1A2E718468847E1
:1037D8009FE7596D0029CBD103F11801D1E74B6D53
:1037E800002BADD1B0E708469047ADE718468847AB
:1037F800D3E700BF5C320020310100004501000022
:10380800E1080000141A00208C17002000000000B6
:10381800044B2DE9F04F1E78A3B02EB9304623B0E3
:10382800BDE8F08F1D530020002302908A46A44A69
:10383800A4490EA80BF0CAFF209B002B00F0FF82C2
:103848005C20002419F0E8FD9F4B054612A903608F
:103858000F9B4460C3609D4B9D4F8360109BDFF8B6
:103868008C9203619DF84430037500F118031846E3
:1038780001930BF055FE6B6812A8AC650133AF607D
:10388800CDF838906B600BF091FE2B6891491A6B5C
:103898008A4240F007832A6D002A00F0B581DB6B6D
:1038A8008D4A934240F0058300224FF47A740199BF
:1038B80012A80E970F928DF8442010949FED7E7BEE
:1038C8008DED207B0BF0D6FE209B002B00F00983AA
:1038D8005C20002619F0A0FD7B4B0446466003607F
:1038E80012A97A4B183040F8103C0F9B40F80C3C5A
:1038F800109B40F8083C9DF8443000F8043C0BF05D
:103908000FFE6368A7600133A665059663604FF4F0
:103918007A738DF81C600693704B0894049312A870
:10392800CDF838900BF042FE0898002800F0C982C4
:103938000026DFF8BC81AB460368664A1B6B9342DE
:1039480040F02082036D002B00F09C81B245089C5A
:1039580040F38C82002C66D02368614A5B6B9342EB
:1039680040F01E82A36D002B00F0418225685D495E
:10397800AA6B8A4240F02782226D002A00F0DB8180
:10398800127812F0700F00F04B82EB6A434540F05A
:10399800F681A06D18B11BF099FB0023A365236D78
:1039A800002B00F0C38104F118000BF0FFFD089D07
:1039B8006C68013C6C60002C33D12B68DB6A434592
:1039C80040F04782A86D10B11BF080FBAC652B6DF1
:1039D800002B00F02F8205F118000BF0E7FD089C82
:1039E800FCB12368404A5B68934240F04482364BFE
:1039F800A06D236018B11BF069FB0023A365236D3C
:103A080004F11805002B00F02C8228460BF0CEFD9F
:103A18002846C4F808900BF0C9FD20465C2119F02F
:103A280001FD00230893DBF800302B4ADB6B93423F
:103A380040F0D88100224FF47A74019912A80E97A9
:103A48000F928DF8442010949FED1B7B8DED207B09
:103A58000BF010FE209B002B00F05C815C20002501
:103A680019F0DAFC184B04464560036012A9174B9D
:103A7800183040F8103C0F9B40F80C3C109B40F865
:103A8800083C9DF8443000F8043C0BF049FD63689D
:103A9800A7600133A5650A9563604FF47A738DF8C2
:103AA80030500B930D4B0D94099312A8CDF8389014
:103AB8000BF07CFD1EE000BF0000000000000000CD
:103AC800280A0020E83F0020141A0020801C00204B
:103AD800F01900203101000041050000C419002040
:103AE8002902000055060000E10800008C1700209C
:103AF80045010000089C002C38D06568013D6560D0
:103B0800002D33D12368DB6A434540F0B181A06DB5
:103B180010B11BF0DBFAA565236D002B00F09C812A
:103B280004F118000BF042FD089CFCB12368974A89
:103B38005B68934240F0B381954BA06D236018B148
:103B48001BF0C4FA0023A365236D04F11805002BAC
:103B580000F0A08128460BF029FD2846C4F80890FB
:103B68000BF024FD20465C2119F05CFC0D980890B0
:103B780000287FF4E1AE5D462B68DB6A434540F0E0
:103B8800C181A86D18B11BF0A1FA0023AB652B6D9C
:103B9800002B00F0B28101980BF008FD6C68013C25
:103BA8006C60002C7FF43AAE2B68DB6A434540F02A
:103BB800BC81A86D10B11BF089FAAC652B6D002B88
:103BC80000F0858101980BF0F1FC2B686F4A5B6867
:103BD800934240F0B5816E4BA86D2B6018B11BF075
:103BE80075FA0023AB652B6D002B00F0A1810198BD
:103BF8000BF0DCFC0198C5F808900BF0D7FC5C21B1
:103C0800284619F00FFC09E66A6D002A7FF447AED2
:103C18006C68013C6C60002C2FD12B685D4ADB6A14
:103C2800934240F07781A86D10B11BF04FFAAC6554
:103C38002B6D002B00F0698101980BF0B7FC2B6805
:103C4800524A5B68934240F06D81514BA86D2B60DE
:103C580018B11BF03BFA0023AB652B6D002B00F06D
:103C68005C8101980BF0A2FC0198C5F808900BF054
:103C78009DFC5C21284619F0D5FB0026304623B070
:103C8800BDE8F08F436D002B7FF460AE5D46089C65
:103C9800414B0493002C3FF46FAF6768013F6760A6
:103CA800002F7FF469AF2368DB6A434540F0458104
:103CB800A06D10B11BF00AFAA765236D002B00F068
:103CC8000B8104F118000BF071FC089C002C3FF4E8
:103CD80053AF23682D4A5B68934240F039812C4BDF
:103CE800A06D236018B11BF0F1F90023A365236DC3
:103CF80004F11807002B00F0268138460BF056FC1B
:103D08003846C4F808900BF051FC20465C2119F0A5
:103D180089FB31E7219B002B7FF4A0AE8DF8303072
:103D28000D93CDE90A341C4B0993BEE6636D002B55
:103D38007FF439AE3BE6626D2AB192F8312012F079
:103D4800500F7FF422AE18460422144903931DF045
:103D580007FA039B00287FF418AE1946029B0F222E
:103D680003EB061001361DF037FA0022C273002C4F
:103D78003FF459AE2568EB6A43453FF40AAE204646
:103D8800984714E69847002880D0DFE5E10800004E
:103D9800141A002045010000C419002064080020FE
:103DA80020469847089C0346002C7FF4DFAD042288
:103DB8006A49184603931DF0D3F900287FF433AEFF
:103DC800089C039BC9E7204603939047089C00285A
:103DD800CDD10422614903981DF0C2F9039B002844
:103DE800C5D1BAE70022594609A8984782E64FF498
:103DF800807003931BF062F90146A065002800F06B
:103E0800AA80039B0370206D002837D04FF480727E
:103E18000BF020F8A36D089C002C7FF4A7ADC6E733
:103E2800184604224D4903931DF09AF9039B002874
:103E3800A0D192E76B6D002B7FF4CDADCFE5219B30
:103E4800002B7FF4FDAC464B12A80E930BF0AEFB93
:103E580013E728469847C2E5636D002B7FF460AEF0
:103E680062E6636D002B7FF4D0ADD1E55D460FE7C8
:103E78002046984758E620469847D2E5606D20B31B
:103E88004FF4807208F026FCA36D089C002C7FF488
:103E98006DAD8CE7636D002B7FF45CAE5DE620466C
:103EA800984763E62846904700283FF4B1AE2B6850
:103EB800F5E404A8002229469847089800287FF4CA
:103EC80037AD0646DFF8A48056E6A36D4EE56B6D68
:103ED800002B7FF477AE78E6636D002B7FF4F1AEAC
:103EE800F3E6219B002B7FF4F3AC8DF81C3008938C
:103EF800CDE905341B4B049311E56B6D002B7FF462
:103F08004AAE4BE62846984748E66B6D002B7FF48F
:103F180093AE94E62846984791E66B6D002B7FF4A4
:103F2800A0AEA1E628469847A7E6284698474CE65B
:103F38006B6D002B7FF45BAE5CE620469847C4E6C9
:103F4800284698476AE4636D002B7FF4D6AED7E61F
:103F58002046984710E6044BA36507E5640800204F
:103F68008C170020C41900201F53002045010000B1
:103F7800064A0749074808B51BF092F8034A04495E
:103F88000548BDE808401BF08BB800BF7832002018
:103F9800D1090000483200205C32002010B5054CE1
:103FA8000548217881F0010121700FF0DBFB2078B2
:103FB80010BD00BF17530020D04800200523092258
:103FC8000A21014812F014BCD048002008B501218C
:103FD800062019F01DF89FED0F0A062019F0B8FB0E
:103FE800FF21062019F050FB00234FF4A072F021A6
:103FF800094812F0CBFC0321074812F095FA074B49
:10400800054819780FF0AEFB00210348BDE80840C9
:104018000FF098BB00409C46D04800201753002062
:1040280010B54FF4A07386B04FF0160C0022019320
:1040380004461146CDF800C022480FF0A1F94FF40C
:10404800FC6120480FF0FEFD02221E4811460FF0C9
:10405800EDFD0023032204211A480FF08BFD3CB12B
:1040680020461DF035FA21460246164812F024F97A
:1040780005F07CFDB7EEC00A0C21134A8DED000B4C
:104088000DEB01001CF04CFE4FF4BC610D480FF025
:10409800D9FD03A81DF01CFA0023A0EB8001032220
:1040A8000848890001F59E7109B20FF063FD03A865
:1040B8001DF00EFA03A90246024812F0FDF806B0F8
:1040C80010BD00BFD04800206C0800202DE9F04149
:1040D800044682B034480E46002190460FF032FB69
:1040E8003248FFF79DFF02222F4811460FF09EFD30
:1040F8004FF4BC612C480FF0A5FD002322220621B5
:1041080029480FF037FD05222949274812F0D4F82D
:1041180000230A222146244818F0C6F90122224821
:1041280011460FF083FD4FF448711F480FF08AFDC8
:104138000023402206211C480FF01CFD1D490D22BA
:10414800194812F0B9F84FF4BC6117480FF07AFD1E
:10415800B8F1000F25D0013E002450270625042180
:1041680016F8013F144A01340DEB01001CF0D8FD8C
:10417800002329B20C483AB212350FF0FBFC01A813
:104188001DF0A6F901A90246074812F095F8B5F501
:10419800977FE4B201DD0C370625A04501D9302C04
:1041A800DDD102B0BDE8F081D048002074080020BD
:1041B8007C080020840800209408002010B5002105
:1041C800044631480FF0BEFA3048FFF729FF0322B2
:1041D8002D4811460FF02AFD4FF478412A480FF078
:1041E80031FD002328221E2127480FF0C3FC052299
:1041F8002749254812F060F80222234811460FF09B
:1042080015FD4FF4BC6120480FF01CFD0023562219
:1042180006211D480FF0AEFC05F0C0FC01461A4807
:1042280018F00EF90D221B49174812F045F8002323
:104238007022062114480FF09DFC082216491248E6
:1042480012F03AF8002321460A220F4818F02CF9F8
:10425800012212490C4812F02FF801220A4811468F
:104268000FF0E4FC4FF4784107480FF0EBFCCE2246
:104278000621054800230FF07DFC11220849024859
:10428800BDE8104012F018B8D04800209C08002063
:10429800A0080020A8080020B8080020C4080020B2
:1042A800C808002070B50C460546002124480FF0C8
:1042B80049FA2448FFF7B4FE0222214811460FF0BC
:1042C800B5FC4FF4FC611E480FF0BCFC0023222211
:1042D80006211B480FF04EFC0D221B49184811F00F
:1042E800EBFF4FF4BC6116480FF0ACFC02221448F7
:1042F80011460FF09BFC00233E22062110480FF0C8
:1043080039FCD4B120461DF0E3F8024621460C489A
:1043180011F0D2FF00235E22062109480FF02AFC83
:1043280009220A49064811F0C7FF294600230A2234
:104338000348BDE8704018F0B7B80122044CE5E71F
:10434800D0480020E0080020E8080020F8080020F5
:10435800DC0800202DE9F04300218146474800266B
:10436800DFF82C812224464F2DED028B93B00FF0FD
:10437800E9F94448FFF754FE0222404811460FF07D
:1043880055FCB1454FF4BC613C485DD00FF05AFC78
:104398000E21002322B239480FF0ECFB39460222E5
:1043A800364811F089FF58F8045F284635B11DF0EA
:1043B8008FF829460246314811F07EFF1A3401363B
:1043C800D82CDED14FF448744FF4A073DC220021BE
:1043D80000942A480EF0E4FE0122284811460FF006
:1043E80025FC214625480FF02DFC0023E22204215C
:1043F80022480FF0BFFB05F0DDFB05F0E7FB0646A2
:1044080005F0BAFB044605F0BDFBB7EEC08A05F01F
:10441800BFFB054605F0C2FB33461B4A3021059019
:1044280006A8049500948DED028B1CF079FC06A873
:104438001DF04EF806A90246104811F03DFF13B0D2
:10444800BDEC028BBDE8F08318234FF44871E21EDF
:10445800CDE9003112B24FF4A07300210EF090FFA5
:104468004AF6E57105480FF0EDFB0E2122B2002354
:1044780002480FF07FFB054991E700BFD0480020B4
:10448800080900200C090020140900200409002054
:10449800F407002070B506460D4619480021144659
:1044A8000FF050F93046FFF7BBFD022214481146C1
:1044B8000FF0BCFB4FF4BC6111480FF0C3FB6DB1AA
:1044C8003C22062100230E480FF054FB28461CF01E
:1044D800FFFF294602460A4811F0EEFE7CB15A2237
:1044E8000621002306480FF045FB20461CF0F0FF8C
:1044F800214602460248BDE8704011F0DDBE70BD9D
:10450800D04800202DE9F0470E46A2B00021814690
:10451800634D02AC63480DF124080FF013F96248AB
:10452800FFF77EFD02AF0FCD0FC495E8070084E8C2
:10453800070005F01BFBB7EEC00A5C4A0E21404697
:1045480000248DED000B1CF0EBFB05F033FB05F0B0
:104558003DFB574A03460E210DF132001CF0E0FBEB
:1045680005F00AFB534A03460E2110A81CF0D8FB9D
:1045780005F008FBB7EEC00A4F4A0E210DF14E00B8
:104588008DED000B1CF0CCFB05F002FB494A0346FD
:104598000E2117A81CF0C4FB05F000FB454A034692
:1045A8000E210DF16A001CF0BBFB3346434A0E2175
:1045B8001EA81E261CF0B4FB02223A4811460FF032
:1045C80035FBA1454FF4487136480FFA86FA45D0B5
:1045D8000FF038FB33480023524606210FF0CAFA81
:1045E8003D68284635B11CF073FF294602462D4820
:1045F80011F062FE4FF4BC61C4EBC40529480FF00A
:1046080021FB00235246B42126481A360FF0B2FA8D
:10461800013408EB450004371CF05AFF024608EB4A
:104628004501204811F048FED42ECAD101221D4868
:1046380011460FF0FBFA4FF448711A480FF002FBCD
:104648000023E422062117480FF094FA1F221C4980
:10465800144811F031FE22B0BDE8F0871623B21ECF
:104668000191002112B200934FF4A0730EF088FE5E
:104678004AF6E5710B480FF0E5FA00235246062189
:1046880008480FF077FA3D683DB128461CF020FF36
:1046980029460246034811F00FFE4AF6E571ABE7DA
:1046A80098030020D0480020340900203C0900204D
:1046B80044090020480900204C0900205409002022
:1046C8005C0900202DE9F0413D4C8AB04FF0B80854
:1046D80002AB05AD02AF05AE94E807000C3403C386
:1046E8001A800FCC0FC523680024002135482B60A1
:1046F8000FF028F837F8025B3F23002221B2314837
:10470800CDE900850EF03CFE01222E4811460FF03F
:104718008DFA4FF6FF7200212A480FF09BFAA11C70
:1047280028480023BC2209B20FF024FA56F8045B8B
:10473800284635B11CF0CCFE29460246214811F026
:10474800BBFD4034A4B2B4F5A07FD3D102221D48EA
:1047580011460FF06BFA00224FF4FC6119480FF074
:1047680079FA0023C822042116480FF003FA0E2212
:104778001549144811F0A0FD0122124811460FF006
:1047880055FA00224FF6FF710E480FF063FA002326
:10479800E42204210B480FF0EDF90C4B1B783BB1D8
:1047A80009220B4907480AB0BDE8F04111F084BD61
:1047B8000A22084903480AB0BDE8F04111F07CBD5F
:1047C800B4030020D048002094090020175300208B
:1047D8007C0900208809002070B5044682B037485B
:1047E8000E46002115460EF0ADFF3548FFF718FCC0
:1047F8000222324811460FF019FA4FF4BC612F48D3
:104808000FF020FA0023222206212C480FF0B2F9DB
:10481800002C50D020461CF05BFE0246214627485B
:1048280011F04AFD00234222062124480FF0A2F984
:1048380005222449214811F03FFD00230A22314670
:104848001E4817F031FE0DB902B070BD03221E4993
:104858001A480E2411F030FD294600230A22174871
:1048680017F022FE4FF448724FF49A73062113484A
:10487800CDE9004262220FF051F907EE906A9FEDF0
:10488800136A4AF6E573B8EE677A07EE905A622221
:104898000621F8EE677A0948CDE90043C7EE276A92
:1048A80066EE867AFDEEE77A17EE903A1BB20EF0C6
:1048B80067FD02B070BD0122054CAFE7D04800206B
:1048C800A40900207C080020AC09002000009A43BD
:1048D800DC0800202DE9F0430F4605460021644816
:1048E80090462DED088B83B0B0EE40AAF0EE60AA9A
:1048F8000EF028FF5F48FFF793FBB0234FF4487290
:1049080006215B48CDE900324FF49A7322220FF05A
:1049180005F9002F40F3A7804FF49A7607EE907AB6
:10492800013D0024B8EEE78A9FED53BADFED539AB4
:104938004AF6E5799FED529ADFED528A96FBF7F633
:10494800022EB8BF0226013E36B215F9013F07EE26
:10495800904AA0450CBF4A464FF4FC62013406EE6B
:10496800903AF8EEE77A01923346F8EEE66A404864
:1049780087EE887A76EEA96AC6EE897A27EE0B7AF0
:10498800BDEEC77A17EE101A67EEA87A063109B29B
:10499800FDEEE77A17EE90CABCF1B00FA8BF4FF052
:1049A800B00C2CEAEC7CCCF1D2020FFA8CFC12B2DF
:1049B800CDF800C00EF0E4FCA742C6D101222C4875
:1049C80011460FF033F94FF4BC6129480FF03AF95A
:1049D8000023D522062126480FF0CCF8B7EECA0AE4
:1049E8000121234817F070FD0023D5224FF48C7164
:1049F8001F480FF0BFF8B0EE4A0A01211C48A8EE84
:104A08002A0AB7EEC00A17F05FFDB8F1000F04DA02
:104A180003B0BDEC088BBDE8F0834AF6E571144895
:104A28000FF010F90023D5225A2111480FF0A2F8EF
:104A3800052215490E4811F03FFC07EE908A022125
:104A48000B48F8EEE77AA7EEAAAAB7EECA0A17F05B
:104A58003BFD03220D49064803B0BDEC088BBDE8B9
:104A6800F04311F029BC07EE907AB8EEE78AA5E783
:104A7800D0480020B009002000009A4300000043FD
:104A88000000C44200003043B8090020C0090020DB
:104A9800F0B5044683B061480E46002115460EF075
:104AA80051FE5F48FFF7BCFA02225C4811460FF03E
:104AB800BDF84FF4BC6159480FF0C4F800231E221A
:104AC800062156480FF056F809225649534811F066
:104AD800F3FB00230A222146504817F0E5FC002387
:104AE800002E00F08980002D00F0868038220621F3
:104AF8004A480FF03FF84FF4FC6148480FF0A2F81D
:104B080005224949454811F0D7FB96ED400A002196
:104B18004248B7EEC00A17F0D7FC042243493F4881
:104B280011F0CAFB00234E2206213C480FF022F860
:104B38004FF4FC6139480FF085F805223C493748A5
:104B480011F0BAFB96ED410A01213448B7EEC00ACC
:104B580017F0BAFC03223749304811F0ADFB0023A7
:104B6800642206212D480FF005F84FF448712B48B0
:104B78000FF068F804223049284811F09DFB002303
:104B88000A2296F8FF10254817F08EFC01222348C8
:104B980011460FF04BF84FF4BC6120480FF052F863
:104BA80096F8FF3033B300247C27062501E0202B3C
:104BB80020D00421335D214A01340DEB01001CF0A3
:104BC800AFF8002329B215483AB212350EF0D2FFD9
:104BD80001A81CF07DFC01A90246104811F06CFBED
:104BE800B5F5977FE3B201DD0C37062596F8FF206F
:104BF8009A42DCD803B0F0BD4022062107480EF0E7
:104C0800B9FF4FF4487105480FF01CF80C220C4905
:104C1800024803B0BDE8F04011F04EBBD048002078
:104C2800C4090020F8080020CC090020D40900207D
:104C3800DC090020E4090020E8090020940800208D
:104C4800F00900202DE9F04FC5B006460DF1E00A45
:104C580003AC1E216FF0170017F05CFF44F8040F37
:104C68005445F6D100214E480EF06CFD01224C4807
:104C780011460EF0DBFF4B4BD3F800801B68A3EB0B
:104C880008039E4250D94FF0000B03AD0027CDE931
:104C9800028612E0B8F1EF0F4DD9EF2E7CD9B8F5A6
:104CA800987F2C6005DD00216FF0170017F032FFA8
:104CB8002860554507F106071DD055F8044FE60052
:104CC8000134A6F15002A6F10808EF2AE2D8082319
:104CD8000FFA87F912B23248009349460623CDF8F5
:104CE80004B00EF04DFBB8F1EF0F26DD554507F186
:104CF80006072C60E1D12C4B2C4859682C4B1A68BC
:104D080040F6AC53A0FB0202920CDDE9028603FBDD
:104D180002F2254B5B685B1A9A42FAD8214B1B6852
:104D2800A3EB0803B342B0D300211D4845B0BDE84A
:104D3800F04F0EF007BD0FFA87F900224FF44871C3
:104D480017480EF087FF00230FFA88F249461448E7
:104D58000EF010FF5E2017F0A5FE00F121011048AB
:104D6800C9B211F0A9FBEF2EC0D800224AF6E571AE
:104D78000B480EF06FFF494632B2002308480EF088
:104D8800F9FE5E2017F08EFE00F121010448C9B239
:104D980011F092FB2C608CE70FFA87F9E5E700BF6A
:104DA800D0480020E4520020001000E083DE1B43BE
:104DB8005430002000220449044808B517F05EF872
:104DC800034B00221A8008BD40420F0058310020D2
:104DD80000530020F8B506469F4C40F256279F48DE
:104DE80016F06AFF03469D48002B3ED016F0B4FF2C
:104DF8002388C0B20D2818BF0A280CBF012500253A
:104E080025D1002BEBD00027954A9649D75400238B
:104E1800104637707760A6F80B71B36027801CF0D6
:104E280011FA044608B38F4938461CF00BFA8E492C
:104E3800074620461CF070F9E0B9002F3AD001234C
:104E4800384633701AF036F970602846F8BDBB4210
:104E580003F1010282490BD8C8548048228016F019
:104E68002BFF03467D48002BC0D100252846F8BDFE
:104E78002580B4E77D4920461CF04EF958B9CFB1DA
:104E88000223384633701AF011F9B7EEC00B2846E2
:104E980086ED020AF8BD764920461CF03DF9002847
:104EA80040F09C8067B10323384633701AF002F94A
:104EB8007060DBE76E4920461CF02EF9002865D1AA
:104EC8006C4920461CF028F9002873D16A4920460D
:104ED8001CF022F9002800F09680684920461CF052
:104EE8001BF9002800F08580654920461CF014F95C
:104EF800002840F09280002F00F0A3800623337032
:104F08003B78002B00F0D98006F10C042CE0A3F1CB
:104F18006101C9B2052940F2C580A3F14101C9B2B6
:104F2800052940F2C6800023A2F13001C9B209293F
:104F380040F28580A2F16101C9B2052940F2B6802C
:104F4800A2F13701A2F1410C43EA01025FFA8CF1A8
:104F5800D2B2052998BF134623540130BB78C0B29A
:104F6800002B00F09C8002377A78002A00F09780A6
:104F7800FF2800F09480202B00F08A80A3F13001F4
:104F8800C9B20929C3D80901CBB2CDE739492046AE
:104F98001CF0C2F8002899D03A4920461CF0BCF809
:104FA80070B9002F92D00523384633701AF082F872
:104FB80070605BE7334920461CF0AEF8002885D0C6
:104FC8002D4920461CF0A8F8002886D1DFB10A2315
:104FD800384633701AF06EF8706047E72549204666
:104FE8001CF09AF80028D7D1002F3FF46FAF0423A4
:104FF80047E737B3092301461022384633701BF0C0
:1050080089FD706032E71D4920461CF085F8C0B163
:105018001B4920461CF080F898B11B4920461CF01B
:105028007BF870B96FB107231722394606F58670E9
:1050380033701CF0D1F8002386F8233116E70B43B0
:105048008AE7124920461CF067F800287FF40DAF64
:10505800082333700AE700BF0053002058310020AE
:10506800E4490020640A00206C0A00207013002024
:10507800140A00208C130020780A0020800A0020DF
:10508800880A0020740A0020A4090020900A002041
:10509800B978134601370A4600297FF46CAF86F8C1
:1050A8000B01E3E6573B1B01DBB23DE7573A1343DD
:1050B80052E7373B1B01DBB236E71846EFE700BF84
:1050C80010B5044604220949094817F091F93CB182
:1050D80020461CF0FDF921460246054817F088F9DC
:1050E8000348BDE8104017F0B7B900BF980A002080
:1050F8005831002010B5044604220949094817F020
:1051080077F93CB120461CF0E3F9214602460548F0
:1051180017F06EF90348BDE8104017F09DB900BFBD
:10512800A00A00205831002030B52DED028B83B045
:1051380004220D4604462A49B0EE608A29488DEDBE
:10514800001A8DED010A17F053F99DED010A0321AC
:105158002448B7EEC00A17F0B7F92021214817F004
:1051680061F8B7EEC80A01211E4817F0ADF92021F1
:105178001C4817F057F89DED001A01211948B7EEA1
:10518800C10A17F0A1F92021164817F04BF8294653
:1051980000230A22134817F087F92021114817F035
:1051A80041F89DB1254406E0002310220D4817F070
:1051B8007BF9AC420AD014F8011B0F29F4D830212E
:1051C800084817F02FF814F8011CEDE70A210548E4
:1051D80003B0BDEC028BBDE8304017F023B800BF28
:1051E800A80A00205831002000B52DED028B83B0AD
:1051F80004221149B0EE608A10488DED010A17F0BB
:10520800F7F89DED010A03210C48B7EEC00A17F024
:105218005BF92021094817F005F8B7EEC80A012103
:10522800064817F051F90A21044803B0BDEC028B77
:105238005DF804EB16F0F6BFB00A002058310020E4
:1052480070B506460D4614462149042221482DED25
:10525800028B82B0B0EE608A8DED010A17F0C8F8B3
:1052680000230A2231461B4817F01EF9202119484D
:1052780016F0D8FF9DED010A03211648B7EEC00AC3
:1052880017F022F92021134816F0CCFF00230A2238
:105298002946104817F008F920210E4816F0C2FFD9
:1052A800B7EEC80A01210B4817F00EF9202109486A
:1052B80016F0B8FF2146074817F0C2F80A2105483A
:1052C80002B0BDEC028BBDE8704016F0ABBF00BF6A
:1052D800B80A00205831002010B5294B0446012295
:1052E800284800211A700470013C274A0220274BE5
:1052F8001170196018F0C8F9062C0CD8DFE804F012
:105308001014243236040C00002321482149224A73
:1053180003700B60137010BD204B00221A6010BD83
:10532800BDE8104004F052BBFDF788FC0028F2D01D
:10533800FDF78AFC0028EED004F048FB8C210220FF
:10534800BDE8104018F0A0B900231548154A1821E7
:10535800154C0360154823701360FEF759FA144B77
:10536800186010BD134B00221A7010BD3422802122
:1053780011481BF08DFE114B4FF0FF321A6010BD23
:1053880050370020105300200A5300200845002001
:1053980012530020FC4400201153002090480020A4
:1053A8009C480020944800202253002010470020E9
:1053B8000C4700200B530020C44500203432002045
:1053C80010B5114C2378022B10D0042B13D0032BCB
:1053D80016D00021022018F057F900210B4B0122AA
:1053E80021701A70BDE8104004F0F0BAFDF7F6FE1F
:1053F8002378042BEBD104F079FB2378032BE8D135
:10540800FEF766F9E5E700BF10530020503700208B
:105418001D4BD3F8D82010689168006810B4084272
:10542800137C546814BF0121002103F00303D4F84E
:1054380000C0D06843EA81031CEA000F43F008016A
:1054480018BF0B469908013B11740D2B0BD8DFE8E8
:1054580003F0110C070C0A161111160A0C070C118F
:1054680053690233536110BC70475369013B10BC48
:10547800536170475369013310BC536170475369D6
:10548800023B10BC53617047644E00201D4BD3F89B
:10549800D42010689168006810B40842137C5468DE
:1054A80014BF0121002103F00303D4F800C0D06821
:1054B80043EA81031CEA000F43F0080118BF0B46BA
:1054C8009908013B11740D2B0BD8DFE803F0110C80
:1054D800070C0A161111160A0C070C11536902332E
:1054E800536110BC70475369013B10BC536170474E
:1054F8005369013310BC536170475369023B10BCB8
:1055080053617047644E00201D4BD3F8D0201068BB
:105518009168006810B40842137C546814BF0121D4
:10552800002103F00303D4F800C0D06843EA8103E4
:105538001CEA000F43F0080118BF0B469908013B0D
:1055480011740D2B0BD8DFE803F0110C070C0A16A9
:105558001111160A0C070C1153690233536110BC60
:1055680070475369013B10BC53617047536901335D
:1055780010BC536170475369023B10BC53617047BC
:10558800644E00201D4BD3F8CC2010689168006849
:1055980010B40842137C546814BF0121002103F0A1
:1055A8000303D4F800C0D06843EA81031CEA000F63
:1055B80043F0080118BF0B469908013B11740D2BE5
:1055C8000BD8DFE803F0110C070C0A161111160AA4
:1055D8000C070C1153690233536110BC70475369AF
:1055E800013B10BC536170475369013310BC5361D0
:1055F80070475369023B10BC53617047644E0020EA
:105608001D4BD3F8C82010689168006810B4084290
:10561800137C546814BF0121002103F00303D4F85C
:1056280000C0D06843EA81031CEA000F43F0080178
:1056380018BF0B469908013B11740D2B0BD8DFE8F6
:1056480003F0110C070C0A161111160A0C070C119D
:1056580053690233536110BC70475369013B10BC56
:10566800536170475369013310BC536170475369E4
:10567800023B10BC53617047644E00201D4BD3F8A9
:10568800C42010689168006810B40842137C5468FC
:1056980014BF0121002103F00303D4F800C0D0682F
:1056A80043EA81031CEA000F43F0080118BF0B46C8
:1056B8009908013B11740D2B0BD8DFE803F0110C8E
:1056C800070C0A161111160A0C070C11536902333C
:1056D800536110BC70475369013B10BC536170475C
:1056E8005369013310BC536170475369023B10BCC6
:1056F80053617047644E00201D4BD3F8C0201068DA
:105708009168006810B40842137C546814BF0121E2
:10571800002103F00303D4F800C0D06843EA8103F2
:105728001CEA000F43F0080118BF0B469908013B1B
:1057380011740D2B0BD8DFE803F0110C070C0A16B7
:105748001111160A0C070C1153690233536110BC6E
:1057580070475369013B10BC53617047536901336B
:1057680010BC536170475369023B10BC53617047CA
:10577800644E00201D4BD3F8BC2010689168006867
:1057880010B40842137C546814BF0121002103F0AF
:105798000303D4F800C0D06843EA81031CEA000F71
:1057A80043F0080118BF0B469908013B11740D2BF3
:1057B8000BD8DFE803F0110C070C0A161111160AB2
:1057C8000C070C1153690233536110BC70475369BD
:1057D800013B10BC536170475369013310BC5361DE
:1057E80070475369023B10BC53617047644E0020F8
:1057F8001D4BD3F8B82010689168006810B40842AF
:10580800137C546814BF0121002103F00303D4F86A
:1058180000C0D06843EA81031CEA000F43F0080186
:1058280018BF0B469908013B11740D2B0BD8DFE804
:1058380003F0110C070C0A161111160A0C070C11AB
:1058480053690233536110BC70475369013B10BC64
:10585800536170475369013310BC536170475369F2
:10586800023B10BC53617047644E00201D4BD3F8B7
:10587800B42010689168006810B40842137C54681A
:1058880014BF0121002103F00303D4F800C0D0683D
:1058980043EA81031CEA000F43F0080118BF0B46D6
:1058A8009908013B11740D2B0BD8DFE803F0110C9C
:1058B800070C0A161111160A0C070C11536902334A
:1058C800536110BC70475369013B10BC536170476A
:1058D8005369013310BC536170475369023B10BCD4
:1058E80053617047644E00201D4BD3F8B0201068F8
:1058F8009168006810B40842137C546814BF0121F1
:10590800002103F00303D4F800C0D06843EA810300
:105918001CEA000F43F0080118BF0B469908013B29
:1059280011740D2B0BD8DFE803F0110C070C0A16C5
:105938001111160A0C070C1153690233536110BC7C
:1059480070475369013B10BC536170475369013379
:1059580010BC536170475369023B10BC53617047D8
:10596800644E00201D4BD3F8AC2010689168006885
:1059780010B40842137C546814BF0121002103F0BD
:105988000303D4F800C0D06843EA81031CEA000F7F
:1059980043F0080118BF0B469908013B11740D2B01
:1059A8000BD8DFE803F0110C070C0A161111160AC0
:1059B8000C070C1153690233536110BC70475369CB
:1059C800013B10BC536170475369013310BC5361EC
:1059D80070475369023B10BC53617047644E002006
:1059E8001D4BD3F8A82010689168006810B40842CD
:1059F800137C546814BF0121002103F00303D4F879
:105A080000C0D06843EA81031CEA000F43F0080194
:105A180018BF0B469908013B11740D2B0BD8DFE812
:105A280003F0110C070C0A161111160A0C070C11B9
:105A380053690233536110BC70475369013B10BC72
:105A4800536170475369013310BC53617047536900
:105A5800023B10BC53617047644E00201D4BD3F8C5
:105A6800A42010689168006810B40842137C546838
:105A780014BF0121002103F00303D4F800C0D0684B
:105A880043EA81031CEA000F43F0080118BF0B46E4
:105A98009908013B11740D2B0BD8DFE803F0110CAA
:105AA800070C0A161111160A0C070C115369023358
:105AB800536110BC70475369013B10BC5361704778
:105AC8005369013310BC536170475369023B10BCE2
:105AD80053617047644E00201D4BD3F8A020106816
:105AE8009168006810B40842137C546814BF0121FF
:105AF800002103F00303D4F800C0D06843EA81030F
:105B08001CEA000F43F0080118BF0B469908013B37
:105B180011740D2B0BD8DFE803F0110C070C0A16D3
:105B28001111160A0C070C1153690233536110BC8A
:105B380070475369013B10BC536170475369013387
:105B480010BC536170475369023B10BC53617047E6
:105B5800644E00201D4BD3F89C20106891680068A3
:105B680010B40842137C546814BF0121002103F0CB
:105B78000303D4F800C0D06843EA81031CEA000F8D
:105B880043F0080118BF0B469908013B11740D2B0F
:105B98000BD8DFE803F0110C070C0A161111160ACE
:105BA8000C070C1153690233536110BC70475369D9
:105BB800013B10BC536170475369013310BC5361FA
:105BC80070475369023B10BC53617047644E002014
:105BD8001D4BD3F8982010689168006810B40842EB
:105BE800137C546814BF0121002103F00303D4F887
:105BF80000C0D06843EA81031CEA000F43F00801A3
:105C080018BF0B469908013B11740D2B0BD8DFE820
:105C180003F0110C070C0A161111160A0C070C11C7
:105C280053690233536110BC70475369013B10BC80
:105C3800536170475369013310BC5361704753690E
:105C4800023B10BC53617047644E00201D4BD3F8D3
:105C5800942010689168006810B40842137C546856
:105C680014BF0121002103F00303D4F800C0D06859
:105C780043EA81031CEA000F43F0080118BF0B46F2
:105C88009908013B11740D2B0BD8DFE803F0110CB8
:105C9800070C0A161111160A0C070C115369023366
:105CA800536110BC70475369013B10BC5361704786
:105CB8005369013310BC536170475369023B10BCF0
:105CC80053617047644E00201D4BD3F89020106834
:105CD8009168006810B40842137C546814BF01210D
:105CE800002103F00303D4F800C0D06843EA81031D
:105CF8001CEA000F43F0080118BF0B469908013B46
:105D080011740D2B0BD8DFE803F0110C070C0A16E1
:105D18001111160A0C070C1153690233536110BC98
:105D280070475369013B10BC536170475369013395
:105D380010BC536170475369023B10BC53617047F4
:105D4800644E00201D4BD3F88C20106891680068C1
:105D580010B40842137C546814BF0121002103F0D9
:105D68000303D4F800C0D06843EA81031CEA000F9B
:105D780043F0080118BF0B469908013B11740D2B1D
:105D88000BD8DFE803F0110C070C0A161111160ADC
:105D98000C070C1153690233536110BC70475369E7
:105DA800013B10BC536170475369013310BC536108
:105DB80070475369023B10BC53617047644E002022
:105DC8001D4BD3F8882010689168006810B4084209
:105DD800137C546814BF0121002103F00303D4F895
:105DE80000C0D06843EA81031CEA000F43F00801B1
:105DF80018BF0B469908013B11740D2B0BD8DFE82F
:105E080003F0110C070C0A161111160A0C070C11D5
:105E180053690233536110BC70475369013B10BC8E
:105E2800536170475369013310BC5361704753691C
:105E3800023B10BC53617047644E00201D4BD3F8E1
:105E4800842010689168006810B40842137C546874
:105E580014BF0121002103F00303D4F800C0D06867
:105E680043EA81031CEA000F43F0080118BF0B4600
:105E78009908013B11740D2B0BD8DFE803F0110CC6
:105E8800070C0A161111160A0C070C115369023374
:105E9800536110BC70475369013B10BC5361704794
:105EA8005369013310BC536170475369023B10BCFE
:105EB80053617047644E00201D4BD3F88020106852
:105EC8009168006810B40842137C546814BF01211B
:105ED800002103F00303D4F800C0D06843EA81032B
:105EE8001CEA000F43F0080118BF0B469908013B54
:105EF80011740D2B0BD8DFE803F0110C070C0A16F0
:105F08001111160A0C070C1153690233536110BCA6
:105F180070475369013B10BC5361704753690133A3
:105F280010BC536170475369023B10BC5361704702
:105F3800644E00201D4BDA6F10689168006810B439
:105F48000842137C546814BF0121002103F00303A5
:105F5800D4F800C0D06843EA81031CEA000F43F07C
:105F6800080118BF0B469908013B11740D2B0BD87B
:105F7800DFE803F0110C070C0A161111160A0C07BA
:105F88000C1153690233536110BC70475369013BCC
:105F980010BC536170475369013310BC536170479B
:105FA8005369023B10BC5361704700BF644E002028
:105FB8001D4B9A6F10689168006810B40842137CF2
:105FC800546814BF0121002103F00303D4F800C072
:105FD800D06843EA81031CEA000F43F0080118BFA8
:105FE8000B469908013B11740D2B0BD8DFE803F021
:105FF800110C070C0A161111160A0C070C1153691B
:106008000233536110BC70475369013B10BC5361A4
:1060180070475369013310BC536170475369023BA1
:1060280010BC5361704700BF644E00201D4B5A6F6F
:1060380010689168006810B40842137C546814BF53
:106048000121002103F00303D4F800C0D06843EA1B
:1060580081031CEA000F43F0080118BF0B4699089A
:10606800013B11740D2B0BD8DFE803F0110C070C62
:106078000A161111160A0C070C11536902335361E1
:1060880010BC70475369013B10BC5361704753699A
:10609800013310BC536170475369023B10BC536114
:1060A800704700BF644E00201D4B1A6F106891683E
:1060B800006810B40842137C546814BF0121002101
:1060C80003F00303D4F800C0D06843EA81031CEA54
:1060D800000F43F0080118BF0B469908013B1174E3
:1060E8000D2B0BD8DFE803F0110C070C0A16111161
:1060F800160A0C070C1153690233536110BC704720
:106108005369013B10BC536170475369013310BC9C
:10611800536170475369023B10BC5361704700BF1D
:10612800644E00201D4BDA6E10689168006810B448
:106138000842137C546814BF0121002103F00303B3
:10614800D4F800C0D06843EA81031CEA000F43F08A
:10615800080118BF0B469908013B11740D2B0BD889
:10616800DFE803F0110C070C0A161111160A0C07C8
:106178000C1153690233536110BC70475369013BDA
:1061880010BC536170475369013310BC53617047A9
:106198005369023B10BC5361704700BF644E002036
:1061A8001D4B9A6E10689168006810B40842137C01
:1061B800546814BF0121002103F00303D4F800C080
:1061C800D06843EA81031CEA000F43F0080118BFB6
:1061D8000B469908013B11740D2B0BD8DFE803F02F
:1061E800110C070C0A161111160A0C070C11536929
:1061F8000233536110BC70475369013B10BC5361B3
:1062080070475369013310BC536170475369023BAF
:1062180010BC5361704700BF644E00201D4B5A6E7E
:1062280010689168006810B40842137C546814BF61
:106238000121002103F00303D4F800C0D06843EA29
:1062480081031CEA000F43F0080118BF0B469908A8
:10625800013B11740D2B0BD8DFE803F0110C070C70
:106268000A161111160A0C070C11536902335361EF
:1062780010BC70475369013B10BC536170475369A8
:10628800013310BC536170475369023B10BC536122
:10629800704700BF644E00201D4B1A6E106891684D
:1062A800006810B40842137C546814BF012100210F
:1062B80003F00303D4F800C0D06843EA81031CEA62
:1062C800000F43F0080118BF0B469908013B1174F1
:1062D8000D2B0BD8DFE803F0110C070C0A1611116F
:1062E800160A0C070C1153690233536110BC70472E
:1062F8005369013B10BC536170475369013310BCAB
:10630800536170475369023B10BC5361704700BF2B
:10631800644E00201D4BDA6D10689168006810B457
:106328000842137C546814BF0121002103F00303C1
:10633800D4F800C0D06843EA81031CEA000F43F098
:10634800080118BF0B469908013B11740D2B0BD897
:10635800DFE803F0110C070C0A161111160A0C07D6
:106368000C1153690233536110BC70475369013BE8
:1063780010BC536170475369013310BC53617047B7
:106388005369023B10BC5361704700BF644E002044
:106398001D4B9A6D10689168006810B40842137C10
:1063A800546814BF0121002103F00303D4F800C08E
:1063B800D06843EA81031CEA000F43F0080118BFC4
:1063C8000B469908013B11740D2B0BD8DFE803F03D
:1063D800110C070C0A161111160A0C070C11536937
:1063E8000233536110BC70475369013B10BC5361C1
:1063F80070475369013310BC536170475369023BBE
:1064080010BC5361704700BF644E00201D4B5A6D8D
:1064180010689168006810B40842137C546814BF6F
:106428000121002103F00303D4F800C0D06843EA37
:1064380081031CEA000F43F0080118BF0B469908B6
:10644800013B11740D2B0BD8DFE803F0110C070C7E
:106458000A161111160A0C070C11536902335361FD
:1064680010BC70475369013B10BC536170475369B6
:10647800013310BC536170475369023B10BC536130
:10648800704700BF644E00201D4B1A6D106891685C
:10649800006810B40842137C546814BF012100211D
:1064A80003F00303D4F800C0D06843EA81031CEA70
:1064B800000F43F0080118BF0B469908013B1174FF
:1064C8000D2B0BD8DFE803F0110C070C0A1611117D
:1064D800160A0C070C1153690233536110BC70473C
:1064E8005369013B10BC536170475369013310BCB9
:1064F800536170475369023B10BC5361704700BF3A
:10650800644E00201D4BDA6C10689168006810B466
:106518000842137C546814BF0121002103F00303CF
:10652800D4F800C0D06843EA81031CEA000F43F0A6
:10653800080118BF0B469908013B11740D2B0BD8A5
:10654800DFE803F0110C070C0A161111160A0C07E4
:106558000C1153690233536110BC70475369013BF6
:1065680010BC536170475369013310BC53617047C5
:106578005369023B10BC5361704700BF644E002052
:106588001D4B9A6C10689168006810B40842137C1F
:10659800546814BF0121002103F00303D4F800C09C
:1065A800D06843EA81031CEA000F43F0080118BFD2
:1065B8000B469908013B11740D2B0BD8DFE803F04B
:1065C800110C070C0A161111160A0C070C11536945
:1065D8000233536110BC70475369013B10BC5361CF
:1065E80070475369013310BC536170475369023BCC
:1065F80010BC5361704700BF644E00201D4B5A6C9D
:1066080010689168006810B40842137C546814BF7D
:106618000121002103F00303D4F800C0D06843EA45
:1066280081031CEA000F43F0080118BF0B469908C4
:10663800013B11740D2B0BD8DFE803F0110C070C8C
:106648000A161111160A0C070C115369023353610B
:1066580010BC70475369013B10BC536170475369C4
:10666800013310BC536170475369023B10BC53613E
:10667800704700BF644E00201D4B1A6C106891686B
:10668800006810B40842137C546814BF012100212B
:1066980003F00303D4F800C0D06843EA81031CEA7E
:1066A800000F43F0080118BF0B469908013B11740D
:1066B8000D2B0BD8DFE803F0110C070C0A1611118B
:1066C800160A0C070C1153690233536110BC70474A
:1066D8005369013B10BC536170475369013310BCC7
:1066E800536170475369023B10BC5361704700BF48
:1066F800644E00201D4BDA6B10689168006810B476
:106708000842137C546814BF0121002103F00303DD
:10671800D4F800C0D06843EA81031CEA000F43F0B4
:10672800080118BF0B469908013B11740D2B0BD8B3
:10673800DFE803F0110C070C0A161111160A0C07F2
:106748000C1153690233536110BC70475369013B04
:1067580010BC536170475369013310BC53617047D3
:106768005369023B10BC5361704700BF644E002060
:106778001D4B9A6B10689168006810B40842137C2E
:10678800546814BF0121002103F00303D4F800C0AA
:10679800D06843EA81031CEA000F43F0080118BFE0
:1067A8000B469908013B11740D2B0BD8DFE803F059
:1067B800110C070C0A161111160A0C070C11536953
:1067C8000233536110BC70475369013B10BC5361DD
:1067D80070475369013310BC536170475369023BDA
:1067E80010BC5361704700BF644E00201D4B5A6BAC
:1067F80010689168006810B40842137C546814BF8C
:106808000121002103F00303D4F800C0D06843EA53
:1068180081031CEA000F43F0080118BF0B469908D2
:10682800013B11740D2B0BD8DFE803F0110C070C9A
:106838000A161111160A0C070C1153690233536119
:1068480010BC70475369013B10BC536170475369D2
:10685800013310BC536170475369023B10BC53614C
:10686800704700BF644E00201D4B1A6B106891687A
:10687800006810B40842137C546814BF0121002139
:1068880003F00303D4F800C0D06843EA81031CEA8C
:10689800000F43F0080118BF0B469908013B11741B
:1068A8000D2B0BD8DFE803F0110C070C0A16111199
:1068B800160A0C070C1153690233536110BC704758
:1068C8005369013B10BC536170475369013310BCD5
:1068D800536170475369023B10BC5361704700BF56
:1068E800644E00201D4BDA6A10689168006810B485
:1068F8000842137C546814BF0121002103F00303EC
:10690800D4F800C0D06843EA81031CEA000F43F0C2
:10691800080118BF0B469908013B11740D2B0BD8C1
:10692800DFE803F0110C070C0A161111160A0C0700
:106938000C1153690233536110BC70475369013B12
:1069480010BC536170475369013310BC53617047E1
:106958005369023B10BC5361704700BF644E00206E
:106968001D4B9A6A10689168006810B40842137C3D
:10697800546814BF0121002103F00303D4F800C0B8
:10698800D06843EA81031CEA000F43F0080118BFEE
:106998000B469908013B11740D2B0BD8DFE803F067
:1069A800110C070C0A161111160A0C070C11536961
:1069B8000233536110BC70475369013B10BC5361EB
:1069C80070475369013310BC536170475369023BE8
:1069D80010BC5361704700BF644E00201D4B5A6ABB
:1069E80010689168006810B40842137C546814BF9A
:1069F8000121002103F00303D4F800C0D06843EA62
:106A080081031CEA000F43F0080118BF0B469908E0
:106A1800013B11740D2B0BD8DFE803F0110C070CA8
:106A28000A161111160A0C070C1153690233536127
:106A380010BC70475369013B10BC536170475369E0
:106A4800013310BC536170475369023B10BC53615A
:106A5800704700BF644E00201D4B1A6A1068916889
:106A6800006810B40842137C546814BF0121002147
:106A780003F00303D4F800C0D06843EA81031CEA9A
:106A8800000F43F0080118BF0B469908013B117429
:106A98000D2B0BD8DFE803F0110C070C0A161111A7
:106AA800160A0C070C1153690233536110BC704766
:106AB8005369013B10BC536170475369013310BCE3
:106AC800536170475369023B10BC5361704700BF64
:106AD800644E00201D4BDA6910689168006810B494
:106AE8000842137C546814BF0121002103F00303FA
:106AF800D4F800C0D06843EA81031CEA000F43F0D1
:106B0800080118BF0B469908013B11740D2B0BD8CF
:106B1800DFE803F0110C070C0A161111160A0C070E
:106B28000C1153690233536110BC70475369013B20
:106B380010BC536170475369013310BC53617047EF
:106B48005369023B10BC5361704700BF644E00207C
:106B58001D4B9A6910689168006810B40842137C4C
:106B6800546814BF0121002103F00303D4F800C0C6
:106B7800D06843EA81031CEA000F43F0080118BFFC
:106B88000B469908013B11740D2B0BD8DFE803F075
:106B9800110C070C0A161111160A0C070C1153696F
:106BA8000233536110BC70475369013B10BC5361F9
:106BB80070475369013310BC536170475369023BF6
:106BC80010BC5361704700BF644E00201D4B5A69CA
:106BD80010689168006810B40842137C546814BFA8
:106BE8000121002103F00303D4F800C0D06843EA70
:106BF80081031CEA000F43F0080118BF0B469908EF
:106C0800013B11740D2B0BD8DFE803F0110C070CB6
:106C18000A161111160A0C070C1153690233536135
:106C280010BC70475369013B10BC536170475369EE
:106C3800013310BC536170475369023B10BC536168
