:0200000460009A
:100000004643464200000156000000000101020084
:1000100000000000000000000000000000000000E0
:1000200000000000000000000000000000000000D0
:1000300000000000000000000000000000000000C0
:1000400000000000010406010000000000000000A4
:100050000000800000000000000000000000000020
:100060000000000000000000000000000000000090
:100070000000000000000000000000000000000080
:10008000EB04180AFF1E04320126000000000000E5
:100090000000000000000000000000000000000060
:1000A0000000000000000000000000000000000050
:1000B0000000000000000000000000000000000040
:1000C0000000000000000000000000000000000030
:1000D0000000000000000000000000000000000020
:1000E0000000000000000000000000000000000010
:1000F0000000000000000000000000000000000000
:1001000000000000000000000000000000000000EF
:1001100000000000000000000000000000000000DF
:1001200000000000000000000000000000000000CF
:1001300000000000000000000000000000000000BF
:1001400000000000000000000000000000000000AF
:10015000000000000000000000000000000000009F
:10016000000000000000000000000000000000008F
:10017000000000000000000000000000000000007F
:10018000000000000000000000000000000000006F
:10019000000000000000000000000000000000005F
:1001A000000000000000000000000000000000004F
:1001B000000000000000000000000000000000003F
:1001C000000100000010000001000000000000001D
:1001D000000001000000000000000000000000001E
:1001E000000000000000000000000000000000000F
:1001F00000000000000000000000000000000000FF
:10020000FFFFFFFFFFFFFFFFFFFFFFFFFFFFFFFFFE
:10021000FFFFFFFFFFFFFFFFFFFFFFFFFFFFFFFFEE
:10100000D1002043F1150060000000000000000046
:10101000201000600010006000C4026000000000AA
:101020000000006000D0020000000000FFFFFFFF92
:10103000FFFFFFFFFFFFFFFFFFFFFFFFFFFFFFFFC0
:10104000FFFFFFFFFFFFFFFFFFFFFFFFFFFFFFFFB0
:10105000FFFFFFFFFFFFFFFFFFFFFFFFFFFFFFFFA0
:10106000FFFFFFFFFFFFFFFFFFFFFFFFFFFFFFFF90
:10140000824205D051F8043B40F8043B8242F9D8AF
:10141000704700BF044A05494FF0000342F8043BFF
:101420009142FBD8704700BFC03A002040540020D2
:1014300008B5BFF34F8F00F047F9544C544B0820C8
:101440005449C3F85401544AC3F800115348C3F82F
:10145000F0405349FFF7D4FF524A53495348FFF72E
:10146000CFFF534CFFF7D6FF4FF470004FF0E02151
:101470000023504AC1F8880D44F823200133B02BD3
:10148000FAD14D4B80214D4A03F8011B9342FBD109
:101490004FF0E0254A4E4B4A4FF0FF31C5F8084D5A
:1014A000D5F8243D43F4E023C5F8243DF36923F047
:1014B0007F0343F04003F361736A23F07F0343F03B
:1014C000400373629166D1661167516700F004F9B9
:1014D0003D4A3E4BA2636322E36300246A61032317
:1014E0003B4AAC612B61C5F8202DD5F8FC2D394B5A
:1014F00042F080723849C5F8FC2D1A6842F00102AA
:101500001A605B680B6000F0B7FA344800F064FCC6
:10151000F16E334B334A41F44051F1661C60C3F81D
:101520000841C3F81841C3F82841C3F83841936B08
:10153000DB0708D442F615632B4951651365936B9D
:1015400043F001039363274A284C936843F0011347
:10155000936000F04FF900F0FBFB00F045FC00F059
:10156000BDFA00F0B3F82368132BFCD900F052FB4E
:101570002368B3F5967FFBD300F0ACF800F0A8F831
:1015800000F016FC00F02CFC30BFFDE70C0D111331
:1015900000800D401B101820B864020000000000FD
:1015A00098200060C03A00205485026000000020AE
:1015B0000038002025BF010000E400E0A0E400E0C6
:1015C00000C00F4000C00A4049A201004DA2010026
:1015D00000002020001000E0C05300200046C3237C
:1015E0000040084000400D400000C056C453002099
:1015F000054B4FF42A01054A05485A641864054A08
:1016000099639546FFF714FF00C00A40FFABAAAAF2
:101610000700200000800520294A00210123C2F88C
:10162000A000C2F8A410C2F8B0305369D907FCD5A5
:1016300001234FF4803C22495361C2F8A000C2F854
:10164000A4C0C2F8B0304B69DB07FCD501234FF4CE
:10165000003C1B4A4B61C1F8A000C1F8A4C0C1F80E
:10166000B0305369D907FCD50123DFF858C01449BD
:101670005361C2F8A000C2F8A4C0C2F8B0304B69F0
:10168000DB07FCD5D1F8003145F60D504FF0210CA9
:101690009AB2C1F814C0824210D045F69D518A42D8
:1016A0000AD1C3F34253032B08D0A3F10403B3FAC6
:1016B00083F35B09180170470020704708207047CA
:1016C00000402A4004000300704700BF704700BF7D
:1016D000704700BF00BF70474FF0E02300214FF07C
:1016E000100C3448C3F8941DC3F89CCD4FF0110C76
:1016F000C3F8A00D3048C3F89CCD4FF0120CC3F8CE
:10170000A00D2E48C3F89CCD2D4AC3F8A00DDFF8DC
:10171000D0C042F015022B48C3F89CCDC3F8A00DF1
:10172000DFF8C0C02848C3F89CCDC3F8A00DDFF88F
:10173000B8C0C3F89C2D2548254AC3F8A0CDC3F8EE
:101740009C0DC3F8A02D02F5A022DFF8A0C00C323A
:101750002048C3F89CCDC3F8A02D1F4AC3F89C0DA8
:10176000C3F8A02D02F14062DFF884C002321B48AA
:10177000C3F89CCDC3F8A02D0A32C3F89C0DC3F862
:10178000A02D00BF00BF00BF00BF00BF0122C3F8F3
:10179000942DBFF34F8FBFF36F8FC3F8501FBFF36C
:1017A0004F8FBFF36F8FD3F8142D42F44032C3F83C
:1017B000142D70473F000010250008070900100095
:1017C00040540020210002072500081316002020A5
:1017D00027000B13180000602F000B071A00008071
:1017E0001300200014000020090000101700004022
:1017F0001900007030B5864B85B0DFF874E218220E
:10180000844D0120C3F85CE28349C3F86052A5F51A
:101810008055DFF860C2814CC3F864E2C3F86852B7
:101820002125C3F86CC2C3F870C2C3F874C2C3F8F0
:1018300078C248F20C7CDA661A675A679A67DA67E8
:10184000C3F88020C3F88420C3F88820C1F82C0393
:10185000734AC1F83003C1F83403C1F83803C1F842
:101860003C03C1F85003A1696E4B0A406E486F49B2
:1018700013436F4AA361D4F8843043F00C03C4F8D7
:1018800084304FF0FF34036843F0020303600368C1
:1018900003EA0C031A43674B026044608A68664C93
:1018A0001340664A43F000538360C36823F0780313
:1018B000C360036A23401A43604B0262026A2240FB
:1018C0005F4C1343002243628462C46240F20564A9
:1018D000D1F8B83023F03F0343F00103C0F8B8302B
:1018E000D1F8BC30574923F03F0343F00103C0F85F
:1018F000BC3002610567C0F880404567C0F884408D
:101900000224036823F00203036081614E4B4F49B8
:10191000C46143F8042B8B42FBD1434C236843F052
:1019200001032360256815F00105FBD1454802221B
:1019300040F2F561A06140F29940E26140F26642F6
:10194000C4F8001242F20141C4F81022404AC4F81F
:101950002002C4F8302240F23542C4F834123D4827
:10196000C4F840223C4AC4F850022846C4F8542225
:1019700042F201223949C4F86012C4F86422FFF728
:101980004BFE0246002839D0810201234FF480200B
:1019900021662549C4F8A050C4F8A400C4F8B030AA
:1019A0004B69D807FCD515050124039228464C61E4
:1019B000FFF732FE039A2A4B0244D2B21A7080B16A
:1019C000194980024FF4802348660846C1F8A050A8
:1019D000C1F8A430C1F8B0404369DB07FCD501234E
:1019E000436120490024204801230094401A00EB61
:1019F00002521E4800F0E8F905B030BD1B4B1849F3
:101A000018600870D860C3E9010005B030BD00BFA0
:101A100000801F40F910010000841F4000C00F40EB
:101A2000FFFCFF1F0003008000402A4000802A4086
:101A30001200FFFFFF37F70000FFF07C400000803E
:101A4000FF000F83F05AF05A00422A4000432A4018
:101A50009F041830EB06180A063201263806180AC9
:101A60000554002000000070000000704C5300205E
:101A7000F9B00100F970010010B5174A4FF4805415
:101A80004FF4005E4FF4404C4FF4803043F242017B
:101A9000136913F0020F0DD113F4005F0FD013F48C
:101AA000805F0FD0002BF3DA13F4803F0CD15B067C
:101AB0000ED510BDC2F818C050619161E8E7C2F8B8
:101AC00014E0E5E75461E3E74FF480339361DFE727
:101AD00040235361DCE700BF00800D40414A0320F2
:101AE0004149F3EE095AD2F880309FED406A23F065
:101AF00001039FED3F5ADFF814C100B5C2F88030F2
:101B0000C2F89000D1F8E010DFF804E1CBB2394818
:101B1000CEF8003007EE903A0B0DC1F30B21F8EE32
:101B2000E77A06EE903A07EE101A334BB8EEC77A12
:101B3000CCF80010F8EEE66A304937EEC66A37EEA8
:101B4000C55A76EEC76A77EEE57A26EE266AC3EDC9
:101B5000006A25EE265AD2F8803067EEA64AC0ED1C
:101B6000007AC6EE275A264885EE276AC4EEA76A91
:101B700075EE875AFCEEE55A36EE076A15EE90CA06
:101B8000BCEEC66A43EA0C5376EE877AC2F8803020
:101B900016EE103AD2F890C1FCEEE77A01EA034162
:101BA00041EA0C014FF0000C17EE903AC2F8901188
:101BB000C3F30B03D2F890110B431249C2F89031D2
:101BC000D2F8803043F00203C2F880300E4B80F828
:101BD00040C0C1F840314FF0E0230122C3F8082192
:101BE00000BD00BF00810D4000441F400000AA421C
:101BF0000000B442B4530020B85300200000FF0F8F
:101C000000E400E00038002009C10100AC530020CE
:101C1000B0530020314B40F6617210B5C3F820215B
:101C200040F2044400F0CCF82D4A2E49D2F880301E
:101C30002D4843F00303C2F880302C4BC1F86041BB
:101C400002681A4203D1D1F8A8319A071BD0254A5D
:101C50004FF00041244B5963D2F8403143F0020366
:101C6000C2F84031D2F840319B07FBD44FF400302A
:101C70004FF0E0211C4B4FF00042C1F88C021920BC
:101C80009A6300F0A5F8184B0021164C4FF08042E3
:101C90000A209A634FF420721960C4F8A80114480E
:101CA00000F08AF84FF4800203464FF4810040F2BE
:101CB00043111860C4F858311A640E4B0E4AC4F828
:101CC0004811C3F804224FF0E0224FF40031012301
:101CD000C2F80C11C4F8403110BD00BF00800D40A7
:101CE00000C00F4000002E4000900D40001C1E0060
:101CF00000000020003800200DC3010008B50E4B85
:101D00001B6E9B0700D4FBBE72B60C4B00200C4A26
:101D1000C3F8400103F160430A49A3F55F2311644E
:101D20009D46BFF34F8F4FF40013074A0748DB6906
:101D300002609B68984700BF00441F4000002E408F
:101D400000C00A4003002000000012EB00802020A9
:101D50000F4B40F2376C0F4AA020D96E41F440314E
:101D6000D966D96E41F44071D966C2F844C0906416
:101D7000936C1B06FCD4084A40F23761A0235164DF
:101D80009364936C13F08003FBD1044A1370704783
:101D900000C00F4000400C4000800C400454002064
:101DA000F8B500BFF8BC08BC9E46704700000000B4
:101DB0005FF800F07DF901005FF800F069F60100BE
:101DC0005FF800F079CA01005FF800F0F9D5010072
:101DD0005FF800F081B401005FF800F06DB1010020
:101DE0005FF800F0ADB801005FF800F00DBE010033
:101DF00005010000811F0000CD1F0000E5740000F8
:101E0000F5800000BD8F00003D4A01002D860100D5
:0C1E1000FD9E010059B001007DD50100CD
:101E1C006CC00F40030000000E0D0000CD810000CF
:101E2C002A3600001400000013000000010000001E
:101E3C00F4841F402B32000014000000130000003B
:101E4C0001000000F8841F402D3100001400000038
:101E5C001300000001000000F0841F402CFFFF0065
:101E6C001400000000000000000000000100000051
:101E7C0000000000EC841F40000000000000000087
:101E8C006CC00F4030000000100F0000CD8100002E
:101E9C0001270000170000001200000000010000E4
:101EAC0014851F401AFF0000120000000000000003
:101EBC000100000018851F401BFF000012000000ED
:101ECC00000000000100000010851F400026FF00EC
:101EDC0017000000120000000000000001010000CB
:101EEC00010000000C851F400C851F400000000005
:101EFC006CC00F40C0000000504F0000A1820000D9
:101F0C000CFF0000130000000000000000000000A7
:101F1C0024851F400BFF0000130000000000000090
:101F2C000000000028851F400DFF0000130000007A
:101F3C00000000000000000020851F400A2524003E
:101F4C001300000012000000120000000102030048
:101F5C000000000000000000000000000000000075
:101F6C00090180961180FF3A81550A3601082A042E
:101F7C00000000F02B040000014021800A13800AAD
:101F8C002980FF0016035500530042002000530027
:101F9C0065007200690061006C00000018035400B9
:101FAC00650065006E0073007900640075006900BF
:101FBC006E006F000403090409026200030100C0F3
:101FCC0032080B00020202010009040000010202A7
:101FDC00010005240010010524010101042402065E
:101FEC0005240600010705820310001009040100F6
:101FFC00020A0000000705030240000007058402E6
:10200C004000000904020002FF6AFF00070581027C
:10201C0040000107050102400001000009026200B6
:10202C00030100C032080B00020202010009040087
:10203C000001020201000524001001052401010128
:10204C00042402060524060001070582031000057E
:10205C0009040100020A0000000705030200020047
:10206C00070584020002000904020002FF6AC7008F
:10207C0007058102000201070501020002010000B0
:0C208C000A060002EF0201400100000003
:102098000000000000000000000000000000000038
:1020A8000000000000000000000000000000000028
:1020B800F8B54FF084439D695A6915400DD0254FF6
:1020C80001269D6195FAA5F4B4FA84F457F82430F2
:1020D80006FA04F49847A543F4D11F4B9D695A6941
:1020E80015400DD01D4F01269D6195FAA5F4B4FA4F
:1020F80084F457F8243006FA04F49847A543F4D139
:10210800174B9D695A6915400DD0164F01269D61E0
:1021180095FAA5F4B4FA84F457F8243006FA04F4CE
:102128009847A543F4D1104B9D695A6915400DD0C5
:102138000E4F01269D6195FAA5F4B4FA84F457F878
:10214800243006FA04F49847A543F4D1BFF34F8F1F
:10215800F8BD00BF7432002000400042F432002075
:10216800008000427433002000C00042F433002095
:102178000548064B1B1AD90F01EBA301491002D0E1
:10218800034B03B118477047C03A0020C03A0020FB
:102198000000000008B5054B1BB105490548AFF321
:1021A8000080BDE80840FFF7E3BF00BF0000000063
:1021B8005C53002000D0026000207047704700BFC9
:1021C800036D0BB101207047406DC01A18BF012084
:1021D800704700BF0346806D80B100B583B001939E
:1021E8001DF0A8FA0022019B9A651A6D62B103F1ED
:1021F800180003B05DF804EB0DF04ABC1A6D42B14B
:1022080003F118000DF044BC5A6D002AEFD103B059
:1022180000BD5A6D002AF3D1704700BF10B5046D98
:102228006CB10BB1002010BD114620460BF002FA2C
:102238000028F7D02046BDE810400BF0FDBE446DE5
:10224800002CEFD0204609F0C3F80028EAD0204639
:10225800BDE8104009F07EBF8A79A2F150031B0641
:1022680028D4D0F850C002F26C7230B54B7985B0E2
:1022780091F804E001338C784D78DBB20978BCF131
:10228800000F0AD060460194CDF800E0CDE9025174
:1022980002210BF05BFE05B030BD406D0028FAD07E
:1022A8000194CDF800E0CDE90251022109F088FE41
:1022B80005B030BD00207047816D09B108467047F0
:1022C80000B583B001904FF480701DF02BFA019B8C
:1022D80001469865B8B10022186D0A7040B14FF4F4
:1022E80080720DF029F8019B996D084603B000BD76
:1022F800586D0028F9D04FF4807201930AF05CFC05
:10230800019B996DF1E7024A11469A65EDE700BF16
:10231800035400200246006D0B4600B585B040B35B
:1023280001910DF10E0203A90BF0EEFD019B58B3CC
:10233800BDF80C20BDF80E1052EA010024D0C1F3FC
:10234800451E01F01F00C90AC2F3431C400083F870
:1023580001E09970510A0CF1FF3C02F01F0201F5EF
:10236800EA611870012083F805C01A71997105B0E7
:1023780000BD506D40B10DF10E0203A9019308F0A4
:10238800D5FE019B0028D3D1002005B000BD00BFB9
:102398000246006D0B4600B585B040B301910DF1C2
:1023A8000E0203A90BF08EFD019B58B3BDF80C205B
:1023B800BDF80E1052EA010024D0C1F3451E01F009
:1023C8001F00C90AC2F3431C400083F801E099705A
:1023D800510A0CF1FF3C02F01F0201F5EA61187086
:1023E800012083F805C01A71997105B000BD506DC0
:1023F80040B10DF10E0203A9019308F085FE019B7F
:102408000028D3D1002005B000BD00BF10B5036976
:1024180082B08DF80710C3B11968114AC968914292
:102428000C4615D1186D30B101220DF107010BF0E2
:1024380041FE02B010BD586D0028FAD001220DF1FE
:10244800070109F0FBFE02B010BD184602B010BD2E
:1024580001220DF107011846A04702B010BD00BFC8
:1024680065070000036963B11A68074992698A42DF
:1024780008D1186D08B10BF007BA586D08B109F00A
:102488001BBC70471846104751070000006990B1FF
:102498000368154A1B69934225D1036D63B1187807
:1024A80010F0080007D0D8695B69C01A48BF6FF000
:1024B8000040704718467047436D002BFAD093F8D8
:1024C800310010F00800F6D0186919685A69401AE6
:1024D8005B6862EB0303B0F1004F73F10003EAD3CA
:1024E8006FF000407047184709080000036D13B1EA
:1024F800586900217047436D13B1D3E90001704753
:1025080018461946704700BF036D13B1D8690021FA
:102518007047436D13B1D3E9040170471846194653
:10252800704700BF036D13B118460BF005B8406D36
:1025380008B108F037BF4FF0FF307047026D82B125
:10254800137813F0700F00D1704700B583B00021E5
:10255800019010460BF06EF8019B586D70B903B0EE
:1025680000BD406D0028EFD090F8313013F0500FC7
:1025780003D00022002308F02BBF7047002200235D
:1025880003B05DF804EB08F023BF00BF036973B123
:102598001A68084952698A4207D1186D08B10AF0C9
:1025A800CBBF586D18B108F0FDBE184610474FF064
:1025B800FF30704795040000836C13B118460AF089
:1025C800BBBFC06C08B108F0EDBE4FF0FF307047DC
:1025D80070B59FED297B94B000224FF47A76284D90
:1025E8000446183104A88DF80C200095CDE9012681
:1025F8008DED127B0DF0B0FA129B002B2FD05C20D2
:102608001BF03EFA1F490022064601601830019966
:1026180040F8142C40F80C1C1B4940F8101C029977
:1026280040F8081C9DF80C1000F8041C04A90DF0D3
:10263800E9F900224FF47A71B560B26562602273DD
:10264800124AA16022607268266101327260104BE2
:1026580004A800930DF01CFA204614B070BD139B1B
:10266800002BCCD1094A237322602361C4E90136C7
:10267800EDE700BFAFF3008000000000000000009D
:10268800481700206C170020D81900201C170020BC
:10269800E4140020036D13B118460AF063BE406DC0
:1026A80008B108F0B5BD4FF0FF307047836C00B536
:1026B80083B05BB101220DF1070118460AF052FE02
:1026C80001280BD19DF8070003B000BDC06C28B1EC
:1026D80001220DF1070108F09BFDF1E74FF0FF30F3
:1026E800F2E700BF036D33B11B7813F0700F14BF0E
:1026F800012000207047406D30B190F8313013F060
:10270800500F14BF01200020704700BF03693BB37E
:1027180018680021144A10B5846882B094428DF874
:10272800071014D1186D48B101220DF107010AF004
:1027380019FE90B19DF8070002B010BD586D002831
:10274800FAD001220DF1070108F062FDF1E701223C
:102758000DF107011846A047EBE74FF0FF30EBE714
:102768004FF0FF30704700BF050600008A79A2F1DC
:1027780050031B0628D4D0F850C002F26C7230B552
:102788004B7985B091F804E001338C784D78DBB251
:102798000978BCF1000F0AD060460194CDF800E03A
:1027A800CDE9025104210BF0D1FB05B030BD406DDD
:1027B8000028FAD00194CDF800E0CDE902510421B7
:1027C80009F0FEFB05B030BD00207047836C13B1E3
:1027D80018460BF059B8C06C08B109F06DBA7047CB
:1027E800036D13B118460BF04FB8406D08B109F0EE
:1027F80063BA7047036D13B118460BF05BBC406DAC
:1028080008B109F01BBD7047836C13B118460BF073
:1028180051BCC06C08B109F011BD704700B5836C9C
:1028280083B08DF807103BB101220DF1070118465E
:102838000BF040FC03B000BDC06C0028FAD00122A8
:102848000DF1070109F0FAFC03B000BD836C53B128
:10285800187810F008000DD0D8695B69C01A48BF15
:102868006FF000407047C36CA3B193F8310010F0CB
:10287800080000D17047186919685A69401A5B68DE
:1028880062EB0303B0F1004F73F10003F2D36FF072
:10289800004070471846EDE7036D53B1187810F003
:1028A80008000DD0D8695B69C01A48BF6FF00040B6
:1028B8007047436DA3B193F8310010F0080000D1C0
:1028C8007047186919685A69401A5B6862EB030314
:1028D800B0F1004F73F10003F2D36FF0004070477E
:1028E8001846EDE70369CBB10D4810B51C68D4F85C
:1028F8000CE086450DD1186D18B1BDE810400BF0FD
:10290800D9BB586D18B1BDE8104009F097BC00203C
:1029180010BD18467346BDE81040184700207047A0
:102928006507000010B5104B0446806D82B0236027
:1029380018B11CF0FFFE0023A365236D73B104F1E9
:102948001803184601930DF0A3F8019B074A18468F
:10295800A2600DF09DF8204602B010BD636D002BFB
:10296800EDD104F11803F1E76C170020E4140020FE
:1029780010B5124B0446806D82B0236018B11CF06C
:10298800D9FE0023A365236D93B104F118031846FB
:1029980001930DF07DF8019B094A1846A2600DF0DD
:1029A80077F820465C211BF071F8204602B010BD74
:1029B800636D002BE9D104F11803EDE76C170020D3
:1029C800E414002010B5029994469E4629B10129C5
:1029D8001ED002290FD0002010BD046D0CB34FF09B
:1029E800FF33934271EB0E03F5D320461146BDE841
:1029F80010400AF01FBE036D23B3D96989184EF140
:102A08000002002AE7D11846BDE810400AF012BEBD
:102A1800036D6BB1596989184EF10002002ADAD1A9
:102A2800F1E7406D0028D6D0BDE8104008F0D0BCD2
:102A3800406D0028CFD0D0E900231CEB020243EB05
:102A48000E03F1E7406D0028C5D0D0E904231CEB44
:102A5800020243EB0E03BDE8104008F0B9BC00BF0A
:102A68003649034602690160002A50D0516801398D
:102A7800516000294BD1324810B5146884B0E46A1B
:102A880084424AD1906D40B10391CDE901231CF0F5
:102A980051FE019A0399029B9165116D002938D066
:102AA80002F1180001930CF0F3FF019B1A695AB365
:102AB80011682448496881423AD12349906D1160D0
:102AC80038B1CDE901231CF035FE0021019A029BA3
:102AD8009165116D31B302F1180103930292084612
:102AE80001910CF0D5FF0199DDE90223DFF85CC004
:102AF80008460293C2F808C001920CF0C9FF5C2195
:102B080001981AF0C3FF029B184604B010BD18467E
:102B18007047516D0029C3D1C8E701931046A047FB
:102B2800019BC3E7516D0029D5D102F11801DDE7FA
:102B3800019310468847019BE6E700BF1C17002059
:102B480045010000E10800006C170020E414002093
:102B58002F4A036910B5044682B00260002B3FD0AB
:102B68005A68013A5A60002A3AD119682948C96A4C
:102B7800814240D1986D30B1CDE900321CF0DAFDC8
:102B8800DDE900329A651A6D002A30D003F1180089
:102B98000CF07EFF23691BB31A681F4952688A42EA
:102BA80032D11E4A986D1A6028B100931CF0C2FDFC
:102BB8000022009B9A651A6D02B303F11802019373
:102BC800104600920CF064FFDDE90023144910461A
:102BD800009399600CF05CFF5C2100981AF056FF96
:102BE800204614211AF052FF204602B010BD5A6D3B
:102BF800002ACBD1CEE718468847CBE75A6D002A82
:102C0800DBD103F11802E1E718469047E8E700BF77
:102C18001C17002045010000E10800006C17002087
:102C2800E414002008B5FE21024808F08BF9024B95
:102C3800187008BDE43F002000540020014B1878AC
:102C4800704700BF005400208A4B2DE9F0411F78DF
:102C580096B0002F00F095800124874E08E002937B
:102C68000AF0FAFEE8B1013442F210739C4218D01F
:102C78002346824A102182481EF086FBD6F88454E7
:102C88007F4A02A800232946002DE8D1D6F88814E7
:102C98002B467B4A02A821B10E9508F08BFE00282E
:102CA800E1D144F20223764A764902A80DF000F8F1
:102CB800149B002B00F094805C2000251AF0E0FEA5
:102CC800039B714A0446C36006A9049B6F4E0361C7
:102CD8009DF81430C0E900256D4A183000F8043C0E
:102CE80040F8102C0CF08EFE63686A4A06A801337F
:102CF800A565A2606360684B984602930CF0C8FE15
:102D08003569002D42D06B68013B6B60002B3DD1CB
:102D18002B68624ADB6A934240F09E80A86D18B126
:102D28001CF008FD0023AB652B6D002B00F08F8095
:102D380005F118000CF0ACFE356905B32B68584A4C
:102D48005B68934240F092804F4BA86D2B6018B19E
:102D58001CF0F0FC0023AB652B6D002B7FD005F138
:102D68001803184601930CF093FE019B1846C5F80A
:102D780008800CF08DFE5C2128461AF087FE34612D
:102D88002CB90027384616B0BDE8F08134612368B5
:102D9800444A1B6B93423CD1236D002B35D03369D9
:102DA800BBB11A684049D4688C4244D1186D0028D8
:102DB8003AD007223D490BF07DF933694BB11A68C7
:102DC8003B4992698A423FD1186D002826D00AF003
:102DD8005BFD384B002238461A6016B0BDE8F0811A
:102DE800159C002C7FF468AF2B4B06A8274E9846FD
:102DF80002930CF04DFE3569002DC2D06B68013B83
:102E08006B60002B84D03461BBE7636D002BC6D1A7
:102E1800B7E7204698470028B3D0C0E7586D002888
:102E2800D7D008F049FFD4E7586D48B107221F49A9
:102E380009F004FAC1E7072218461C49A047BCE775
:102E480092691B498A42E9D018469047C1E76B6DE1
:102E5800002B7FF46DAF6FE7284698476CE76B6DE2
:102E6800002B7FF47CAF05F118037FE728469847CD
:102E780085E700BF00540020E43F0020D008002070
:102E8800244F0020E83F00206C170020BC2F0020B2
:102E9800D819002048170020E4140020450100003C
:102EA800E108000031010000650700006C140020F3
:102EB80051070000344F002000487047244F00207D
:102EC800F0B5A64D89B02B698DF80F10002B00F0D6
:102ED800D9801A680446A249126B8A4240F0C5801C
:102EE8001A6D002A00F0D180F6EE007A94ED407A4F
:102EF800F2EE045AD4ED416AD4F80C21B0EE676AB8
:102F080094F8FF10E0EEA57A079227EE257A8DF85F
:102F18001510A0EE256AFDEEE66ABDEEC77AFCEE56
:102F2800E77A16EE902A17EE101ABCEEC66A8DF8EC
:102F38001420ADF81A1017EE902A16EE101AADF8F4
:102F48001820ADF81610002B00F086801A68854E00
:102F5800D268B242174640F0F780186D002800F09A
:102F68009980042207A90BF0A5F82B69002B73D0D0
:102F78001A68D268B242174640F01081186D0028CE
:102F880000F0D38002220DF116010BF093F82B69A3
:102F9800002B61D01A68D268B242174640F0F88018
:102FA800186D002800F0B08001220DF10F010BF020
:102FB80081F82B69002B4FD01A68D268B2421746A5
:102FC80040F0E180186D002800F0A780022206A9D1
:102FD8000BF070F82B69002B3ED01A68D268B24209
:102FE800174640F0CA80186D002800F0848002223D
:102FF8000DF11A010BF05EF82B69002B2CD01A6822
:10300800D268B242174640F0B380186D00286AD0E3
:10301800012205A90BF04EF82B69EBB11A68D268AA
:10302800B242174640F08A80186D002852D001221B
:103038000DF115010BF03EF82B699DF815205BB1D9
:103048001968C968B1420F4640F08380186D00289E
:1030580039D021460BF02EF8434A13680133136028
:103068001B0720D0012009B0F0BDCDED020A18469B
:103078008DED010A90479DED010ADDED020A002859
:1030880040F0A780002009B0F0BD5A6D002A7FF4F7
:103098002BAFF7E7586D00283FF470AF042207A95B
:1030A80009F0CCF861E72B69002BDBD01A682F49AF
:1030B80092698A4240F08F80186D002800F0828063
:1030C8000AF0E2FBCEE7586D0028C5D0214609F08A
:1030D800B5F8C1E7586D002870D001220DF115012F
:1030E80009F0ACF8A8E7586D002861D0012205A9BD
:1030F80009F0A4F890E7586D002855D002220DF188
:103108001A0109F09BF877E7586D002852D0012280
:103118000DF10F0109F092F84BE7586D002845D0E2
:10312800022206A909F08AF854E7586D002843D00E
:1031380002220DF1160109F081F828E7184601224C
:103148000DF11501B84777E71846042207A9B847D3
:103158000BE721461846B8477EE700BFBC2F002082
:103168003101000065070000344F002051070000BE
:103178001846012205A9B8474EE7184602220DF164
:103188001A01B84738E71846022206A9B84721E7C6
:10319800184601220DF10F01B8470AE71846022226
:1031A8000DF11601B847F2E62B6928E72B6914E7F9
:1031B8002B6933E72B69FFE62B69EBE69DF81520B1
:1031C8002B693DE7586D00283FF44CAF08F074FDBB
:1031D80048E72B6988E61846904743E710B5534CF3
:1031E80082B0206900286CD0036851491A6B8A4262
:1031F80074D1026D002A69D09B694E4A93427ED1F0
:10320800036D002B72D018460AF03EFB2369002B91
:1032180057D01A684849D26A8A427AD1986D28B13B
:1032280000931CF087FA0022009B9A651A6D002A09
:1032380061D003F118000CF02BFC22695368013BA4
:103248005360002B3BD111683B48C96A814267D162
:10325800906D30B1CDE900231CF06CFADDE9002354
:103268009365136D002B57D002F118000CF010FC79
:10327800236923B31A68314952688A4253D1304AC4
:10328800986D1A6028B100931CF054FA0022009B34
:103298009A651A6D002A36D003F118020193104678
:1032A80000920CF0F5FBDDE9002326491046009357
:1032B80099600CF0EDFB5C2100981AF0E7FB002305
:1032C8002361214B00221A7002B010BD426D002A02
:1032D800F7D09B69174A934292D010E09047002894
:1032E800EFD020690028ECD0036885E7406D40B135
:1032F80008F0E2FC8AE75A6D002A9AD19DE79847C0
:1033080084E7236985E75A6D002AC5D103F11802BD
:10331800CBE71846904790E7536D002BA4D1A7E759
:1033280010468847A4E718469047C8E7BC2F0020F6
:10333800310100005107000045010000E1080000CC
:103348006C170020E4140020244F00208E4BF0B5A9
:103358001D7899B01DB90025284619B0F0BD024660
:1033680000238A4904A80CF0A3FC169B002B00F04C
:1033780023815C201AF084FB0023854A044608A9AF
:10338800C0E90023059A183040F80C2C814A40F80F
:10339800102C069A40F8082C9DF81C2000F8042CE4
:1033A8000CF030FB002308A8A36563680133636051
:1033B800794B04931E46794BA3600CF069FB784B5C
:1033C8001A692AB1516801395160002900F08880D2
:1033D8001C6122687349126B8A4240F00481226D95
:1033E800002A00F0CB801C69002CB4D022686E49FA
:1033F80090688842074640F01681206D002800F04A
:10340800FA8004A90722019309F0ACFF019B072861
:1034180004D1664A0499914200F0F8801C69002C96
:1034280099D02268D26A62498A4240F01981A06D17
:1034380028B101931CF07EF90022019BA265226D40
:10344800002A00F0018104F1180001930CF020FB20
:10345800019B1D696C68013C6C60002C3DD12A6899
:103468005349D26A8A4240F00A81A86D20B101937B
:103478001CF060F9019BAC652A6D002A00F0FA8007
:1034880005F1180001930CF003FB019B1C6924B3A0
:103498002268484952688A4240F0FD803C4AA06D43
:1034A800226028B101931CF045F90022019BA26516
:1034B800226D002A00F0E88004F1180501932846DF
:1034C8000CF0E6FA019B2846A66001930CF0E0FA9E
:1034D8005C2120461AF0DAFA019B00221A613AE7C9
:1034E80011683348C96A814240F0A980906D38B1AB
:1034F800CDE901231CF01EF90021019A029B916578
:10350800116D002900F0968002F1180001930CF06B
:10351800BFFA019B1A69002A2BD01168254849680F
:10352800814240F0A2801A49906D116038B1CDE90E
:1035380001231CF0FFF80021019A029B9165116D8F
:10354800002900F0868002F11801039302920846D0
:1035580001910CF09DFA0199DDE902230846966075
:10356800029301920CF094FA01985C211AF08EFAF9
:10357800029B1C61002C3FF4EEAE2AE7626D002A24
:103588007FF431AFE7E600BF00540020E83F002099
:103598006C170020D8190020E414002048170020D8
:1035A800D02F002031010000050600004C50434197
:1035B80045010000E1080000179C002C7FF4D9AEFB
:1035C800374B08A81E4604930CF062FA354B1A696B
:1035D800002A3FF4C0AE51680139516000293FF418
:1035E8007FAF1C61B7E6019320469047019B0028F6
:1035F8003FF4B1AEF7E6606D00283FF413AF04A9BD
:103608000722019307F004FE019B00E7BDF81410A0
:1036180043F2501291427FF401AF9DF816200A2A16
:103628007FF4FCAE98E6019304A920460722B84728
:10363800019BECE6516D00297FF466AF6AE70193C0
:1036480010468847019B65E7626D002A7FF4FBAE50
:10365800FFE6516D00297FF476AF02F118017DE78E
:10366800019320469047019BF3E601931046884753
:10367800019B7EE76A6D002A7FF402AF06E701939B
:1036880028469047019B01E7626D002A7FF414AF3A
:1036980004F1180517E7019320469047019B1CE7A2
:1036A800E4140020D02F0020F0B52E4C85B02369FB
:1036B800002B31D01A680D4606462B48116B814203
:1036C80025D1196D59B39268284917468A4232D1D3
:1036D800186D40B30D22694609F044FE0D281BD130
:1036E8009DF80C202A70BAB12369002B2ED01968D6
:1036F8008C681E498C422BD1186D08B3314609F0ED
:1037080031FE2B78181AB0FA80F0400905E0184607
:10371800884708B1236913BB002005B0F0BD596D77
:103728000029D0D1F8E7586D0028F5D00D22694658
:1037380007F06EFDD2E718460D226946B847CDE777
:10374800586D48B1314607F063FDDAE71846E4E7FB
:1037580031461846A047D4E74FF0FF30D1E71A6842
:10376800B1E700BFD02F002031010000050600009E
:1037780010B5484C82B02369002B60D019684648C0
:103788000A6B824265D1186D00285AD0C96A434A2B
:1037980091426BD1986D28B100931BF0CBFF0021AB
:1037A800009B9965196D00295CD003F118000CF095
:1037B8006FF921694B68013B4B60002B3DD10868CC
:1037C800C26A364882425ED1886D30B1CDE90013B5
:1037D8001BF0B0FFDDE900138B650B6D002B4ED09D
:1037E80001F118000CF054F9236933B319682C4817
:1037F800496881424AD12B49986D196028B10093D4
:103808001BF098FF0021009B9965196D002930D0A5
:1038180003F118010193084600910CF039F9DDE92C
:103828000013DFF884C008460093C3F808C00CF002
:103838002FF95C2100981AF029F90023236102B0BE
:1038480010BD586D0028FAD0C96A144A9142A1D017
:103858000CE0184690470028F1D02369002BEED0E1
:10386800196893E7596D00299FD1A2E71846884740
:103878009FE7596D0029CBD103F11801D1E74B6DB2
:10388800002BADD1B0E708469047ADE7184688470A
:10389800D3E700BFD02F0020310100004501000010
:1038A800E10800006C170020E4140020000000006C
:1038B800044B2DE9F04F1E78A3B02EB9304623B043
:1038C800BDE8F08F00540020002302908A46A44AE5
:1038D800A4490EA80CF0ECF9209B002B00F0FF8205
:1038E8005C2000241AF0CCF89F4B054612A903600F
:1038F8000F9B4460C3609D4B9D4F8360109BDFF816
:103908008C9203619DF84430037500F11803184642
:1039180001930CF077F86B6812A8AC650133AF60BF
:10392800CDF838906B600CF0B3F82B6891491A6B9E
:103938008A4240F007832A6D002A00F0B581DB6BCC
:103948008D4A934240F0058300224FF47A7401991E
:1039580012A80E970F928DF8442010949FED7E7B4D
:103968008DED207B0CF0F8F8209B002B00F00983EC
:103978005C2000261AF084F87B4B044646600360FE
:1039880012A97A4B183040F8103C0F9B40F80C3CB9
:10399800109B40F8083C9DF8443000F8043C0CF0BB
:1039A80031F86368A7600133A665059663604FF434
:1039B8007A738DF81C600693704B0894049312A8D0
:1039C800CDF838900CF064F80898002800F0C98207
:1039D8000026DFF8BC81AB460368664A1B6B93423E
:1039E80040F02082036D002B00F09C81B245089CBA
:1039F80040F38C82002C66D02368614A5B6B93424B
:103A080040F01E82A36D002B00F0418225685D49BD
:103A1800AA6B8A4240F02782226D002A00F0DB81DF
:103A2800127812F0700F00F04B82EB6A434540F0B9
:103A3800F681A06D18B11BF07DFE0023A365236DF0
:103A4800002B00F0C38104F118000CF021F8089D48
:103A58006C68013C6C60002C33D12B68DB6A4345F1
:103A680040F04782A86D10B11BF064FEAC652B6D69
:103A7800002B00F02F8205F118000CF009F8089CC3
:103A8800FCB12368404A5B68934240F04482364B5D
:103A9800A06D236018B11BF04DFE0023A365236DB4
:103AA80004F11805002B00F02C8228460BF0F0FFDB
:103AB8002846C4F808900BF0EBFF20465C2119F06B
:103AC800E5FF00230893DBF800302B4ADB6B9342B9
:103AD80040F0D88100224FF47A74019912A80E9709
:103AE8000F928DF8442010949FED1B7B8DED207B69
:103AF8000CF032F8209B002B00F05C815C20002544
:103B080019F0BEFF184B04464560036012A9174B15
:103B1800183040F8103C0F9B40F80C3C109B40F8C4
:103B2800083C9DF8443000F8043C0BF06BFF6368D8
:103B3800A7600133A5650A9563604FF47A738DF821
:103B480030500B930D4B0D94099312A8CDF8389073
:103B58000BF09EFF1EE000BF000000000000000008
:103B6800E0080020E83F00206C170020D81900204A
:103B78004817002031010000410500001C170020F3
:103B88002902000055060000E1080000E4140020A6
:103B980045010000089C002C38D06568013D65602F
:103BA800002D33D12368DB6A434540F0B181A06D15
:103BB80010B11BF0BFFDA565236D002B00F09C81A3
:103BC80004F118000BF064FF089CFCB12368974AC5
:103BD8005B68934240F0B381954BA06D236018B1A8
:103BE8001BF0A8FD0023A365236D04F11805002B25
:103BF80000F0A08128460BF04BFF2846C4F8089037
:103C08000BF046FF20465C2119F040FF0D98089004
:103C180000287FF4E1AE5D462B68DB6A434540F03F
:103C2800C181A86D18B11BF085FD0023AB652B6D14
:103C3800002B00F0B28101980BF02AFF6C68013C60
:103C48006C60002C7FF43AAE2B68DB6A434540F089
:103C5800BC81A86D10B11BF06DFDAC652B6D002B00
:103C680000F0858101980BF013FF2B686F4A5B68A1
:103C7800934240F0B5816E4BA86D2B6018B11BF0D4
:103C880059FD0023AB652B6D002B00F0A181019835
:103C98000BF0FEFE0198C5F808900BF0F9FE5C21C8
:103CA800284619F0F3FE09E66A6D002A7FF447AE4C
:103CB8006C68013C6C60002C2FD12B685D4ADB6A74
:103CC800934240F07781A86D10B11BF033FDAC65CD
:103CD8002B6D002B00F0698101980BF0D9FE2B6841
:103CE800524A5B68934240F06D81514BA86D2B603E
:103CF80018B11BF01FFD0023AB652B6D002B00F0E6
:103D08005C8101980BF0C4FE0198C5F808900BF08F
:103D1800BFFE5C21284619F0B9FE0026304623B0C4
:103D2800BDE8F08F436D002B7FF460AE5D46089CC4
:103D3800414B0493002C3FF46FAF6768013F676005
:103D4800002F7FF469AF2368DB6A434540F0458163
:103D5800A06D10B11BF0EEFCA765236D002B00F0E1
:103D68000B8104F118000BF093FE089C002C3FF423
:103D780053AF23682D4A5B68934240F039812C4B3E
:103D8800A06D236018B11BF0D5FC0023A365236D3B
:103D980004F11807002B00F0268138460BF078FE56
:103DA8003846C4F808900BF073FE20465C2119F0E1
:103DB8006DFE31E7219B002B7FF4A0AE8DF83030EB
:103DC8000D93CDE90A341C4B0993BEE6636D002BB5
:103DD8007FF439AE3BE6626D2AB192F8312012F0D9
:103DE800500F7FF422AE18460422144903931DF0A5
:103DF800EBFC039B00287FF418AE1946029B0F22A8
:103E080003EB061001361DF01BFD0022C273002CC7
:103E18003FF459AE2568EB6A43453FF40AAE2046A5
:103E2800984714E69847002880D0DFE5E1080000AD
:103E38006C170020450100001C170020E408002032
:103E480020469847089C0346002C7FF4DFAD0422E7
:103E58006A49184603931DF0B7FC00287FF433AE77
:103E6800089C039BC9E7204603939047089C0028B9
:103E7800CDD10422614903981DF0A6FC039B0028BC
:103E8800C5D1BAE70022594609A8984782E64FF4F7
:103E9800807003931BF046FC0146A065002800F0E3
:103EA800AA80039B0370206D002837D04FF48072DE
:103EB8000BF042FAA36D089C002C7FF4A7ADC6E76F
:103EC800184604224D4903931DF07EFC039B0028ED
:103ED800A0D192E76B6D002B7FF4CDADCFE5219B90
:103EE800002B7FF4FDAC464B12A80E930BF0D0FDCF
:103EF80013E728469847C2E5636D002B7FF460AE50
:103F080062E6636D002B7FF4D0ADD1E55D460FE727
:103F18002046984758E620469847D2E5606D20B37A
:103F28004FF4807208F048FEA36D089C002C7FF4C3
:103F38006DAD8CE7636D002B7FF45CAE5DE62046CB
:103F4800984763E62846904700283FF4B1AE2B68AF
:103F5800F5E404A8002229469847089800287FF429
:103F680037AD0646DFF8A48056E6A36D4EE56B6DC7
:103F7800002B7FF477AE78E6636D002B7FF4F1AE0B
:103F8800F3E6219B002B7FF4F3AC8DF81C300893EB
:103F9800CDE905341B4B049311E56B6D002B7FF4C1
:103FA8004AAE4BE62846984748E66B6D002B7FF4EF
:103FB80093AE94E62846984791E66B6D002B7FF404
:103FC800A0AEA1E628469847A7E6284698474CE6BB
:103FD8006B6D002B7FF45BAE5CE620469847C4E629
:103FE800284698476AE4636D002B7FF4D6AED7E67F
:103FF8002046984710E6044BA36507E5E40800202F
:10400800E41400201C170020035400204501000080
:10401800064A0749074808B51BF076FB034A0449D6
:104028000548BDE808401BF06FBB00BFF02F00201B
:10403800D1090000BC2F0020D02F002010B5054C5E
:104048000548217881F0010121700FF087FE207862
:1040580010BD00BFFA530020A449002005230922FF
:104068000A21014812F0B8BEA449002008B5012170
:10407800062019F001FB9FED0F0A062019F09CFE9F
:10408800FF21062019F034FE00234FF4A072F0211E
:10409800094812F06FFF0321074812F039FD074B5A
:1040A800054819780FF05AFE00210348BDE808407A
:1040B8000FF044BE00409C46A4490020FA5300205B
:1040C80010B54FF4A07386B0002216210446264886
:1040D800CDE9001311460FF04FFC4FF4A0724FF4D6
:1040E800FC61214810F0AAF802221F48114610F07E
:1040F80099F80023032204211B4810F037F83CB13B
:1041080020461DF025FD21460246174812F0C8FB3F
:1041180005F09EFFB7EEC00A0C21144A8DED000B86
:104128000DEB01001DF030F94FF4A0724FF4BC61A3
:104138000D4810F083F803A81DF00AFD0023A0EB3A
:10414800800103220848890001F59E7109B210F028
:104158000DF803A81DF0FCFC03A90246024812F062
:104168009FFB06B010BD00BFA4490020EC0800204A
:104178002DE9F04F97B005460F4614469DF880602C
:104188009A46002E40F0F680092C40F3DC80AAF114
:10419800040BA4F1080302227A482BEAEB7B4FF0C8
:1041A800090911465B45D8BFA4F1090B10F03AF88C
:1041B8001423D022043FD9441C26059405EB890911
:1041C80007EB8B0705EB8B05CDE9032345E01423AB
:1041D80000216C48CDE900314FF4A07300210FF0A5
:1041E800CBFB00224FF44871664810F027F80023F3
:1041F8004246042163480FF0B9FF2C68002C5ED0BA
:1042080020461DF0A5FC214602465E4812F048FBF8
:1042180078681DF09DFC002200EB40004FF4BC6163
:104228008400584810F00AF8C4F59E7142460023ED
:1042380009B254480FF09AFF57F8044F3CB1204692
:104248001DF086FC214602464E4812F029FB043533
:104258000BF1010B1436A9453BD0721EDA450FFA53
:1042680086F812B2B3D114234FF44874002145489C
:10427800CDE900344FF4A0730FF07EFB22464AF6D6
:10428800E57140480FF0DAFF0421002342463D481B
:104298000FF06CFF296841B1084602911DF058FCE7
:1042A80002990246374812F0FBFA78681DF050FC74
:1042B800224600EB40004AF6E5718400B1E77868D1
:1042C8001DF046FC224600EB40004FF4BC61840020
:1042D800A7E7DDE90323059C0025009329484FF44F
:1042E800A073294601950FF047FB01222548114686
:1042F8000FF098FF0C224FF4A07329462148CDE90E
:104308000025E4220FF038FB2A464FF448711D4877
:104318000FF094FF0AF101031B4A402106A80094FC
:104328001DF032F82B46E422042116480FF01EFF38
:1043380006A81DF00DFC06A90246124812F0B0FAB4
:1043480017B0BDE8F08F02220E4811460FF06AFF41
:10435800002C04EB840C4FEA8C0C0CF11C0ECCF1F5
:10436800C80C0FFA8EF20FFA8CF3B5DDA1464FF0A8
:10437800000B1FE7002103480FF0E0FC0348FFF79C
:104388009FFE01E7A4490020FC080020F408002053
:1043980070B506460D461A48002114460FF0CEFCAB
:1043A8003046FFF78DFE0222154811460FF03AFFFE
:1043B80000224FF4BC6112480FF040FF6DB13C225F
:1043C800062100230E480FF0D1FE28461DF0C0FB41
:1043D800294602460A4812F063FA7CB15A2206219D
:1043E800002307480FF0C2FE20461DF0B1FB21460E
:1043F80002460348BDE8704012F052BA70BD00BFD3
:10440800A44900202DE9F0413D4C8AB04FF0B8088E
:1044180002AB05AD02AF05AE94E807000C3403C348
:104428001A800FCC0FC523680024002135482B6063
:104438000FF084FC37F8025B3F23002221B2314899
:10444800CDE900850FF098FA01222E4811460FF0A9
:10445800E9FE4FF6FF7200212A480FF0EFFEA11C7B
:1044680028480023BC2209B20FF080FE56F8045BEE
:10447800284635B11DF06CFB29460246214812F04A
:104488000FFA4034A4B2B4F5A07FD3D102221D485C
:1044980011460FF0C7FE00224FF4FC6119480FF0D7
:1044A800CDFE0023C822042116480FF05FFE0E221D
:1044B8001549144812F0F4F90122124811460FF078
:1044C800B1FE00224FF6FF710E480FF0B7FE002331
:1044D800E42204210B480FF049FE0C4B1B783BB13A
:1044E80009220B4907480AB0BDE8F04112F0D8B9D3
:1044F8000A22084903480AB0BDE8F04112F0D0B9D1
:1045080098030020A44900203C090020FA53002009
:1045180024090020300900202DE9F04F834695B08A
:10452800002956D102225048DFF850914FF0000878
:10453800114622244D4E0FF075FE25E00027CDE9E7
:1045480000570FF019FA3A464FF4BC6146480FF08D
:1045580075FE0E213B4622B243480FF007FE314656
:104568000222414812F09CF959F8045F284635B1F7
:104578001DF0EEFA294602463B4812F091F91A342A
:1045880008F10108D82C21D0E21EC3454FF01805C8
:104598004FF4A07334484FF0000112B2CED1182363
:1045A8004FF44875CDE900354FF4A0730FF0E4F9E6
:1045B8002A464AF6E5712C480FF040FE0E2122B239
:1045C800002329480FF0D2FD2949C9E715B0BDE8F5
:1045D800F08F00214FF4487423480FF0AFFB2548B3
:1045E800FFF76EFD4FF4A0730094DC2200211E48F3
:1045F8000FF0D2F801221C4811460FF013FE214695
:10460800002219480FF01AFE0023E222042116485E
:104618000FF0ACFD05F040FD05F04AFD054605F03C
:104628001DFD044605F020FDB7EEC00A8DED060B12
:1046380005F020FD064605F023FD2B460E4A3021E5
:1046480000949DED060BCDE9046008A88DED020BE2
:104658001CF09AFE08A81DF07BFA08A90246024839
:1046680012F01EF95EE700BFA4490020500900209F
:104678004C090020540900205C0900207008002023
:104688002DE9F04305460F4690462DED088BB0EE18
:1046980040AA83B0F0EE60AA002B40F0E18001222E
:1046A800002473480A2611460FF0BCFD00224FF47F
:1046B800BC616F480FF0C2FD2C23D52206216C483F
:1046C800CDE900640FF058F92346D5220621684841
:1046D8000FF04CFDB7EECA0A0121654818F028FA18
:1046E8002C23D5224FF48A716148CDE900640FF07C
:1046F80043F92346D5224FF48C715D480FF036FDFF
:1047080007EE907AB0EE4A0A0121B8EEE78A5848D7
:10471800A8EE2A0AB7EEC00A18F00AFAB0234FF436
:10472800487206215248CDE900324FF49A7322228A
:104738000FF0F0FCAE23232207214D48CDE90034C9
:104748004FF499730FF018F9A7424CDD4FF499769E
:10475800013D9FED48BA4AF6E579DFED479A9FEDAE
:10476800479ADFED478A96FBF7F6022EB8BF022676
:10477800013E36B215F9013F07EE904AA0450CBF3D
:104788004A464FF4FC62013406EE903AF8EEE77AB6
:1047980001923346F8EEE66A354887EE887A76EE77
:1047A800A96AC6EE897A27EE0B7ABDEEC77A17EEAC
:1047B800101A67EEA87A073109B2FDEEE77A17EE0C
:1047C80090CABCF1AE0FA8BF4FF0AE0C2CEAEC7C3F
:1047D800CCF1D1020FFA8CFC12B2CDF800C00FF068
:1047E800CBF8A742C6D100240A21BE23D5222048EF
:1047F800CDE900145A210FF0BFF8A04504DA03B040
:10480800BDEC088BBDE8F0830122194811460FF072
:1048180009FD22464AF6E57115480FF00FFD2346BB
:10482800D5225A2112480FF0A1FC0522154910483B
:1048380012F036F807EE908A02210D48F8EEE77A72
:10484800A7EEAAAAB7EECA0A18F072F903220E490F
:10485800074803B0BDEC088BBDE8F04312F020B860
:10486800002103480FF06AFA0848FFF729FC16E709
:10487800A449002000009943000000430000C442FE
:1048880000002E43840900208C0900207C090020A8
:104898002DE9F041054684B00E469046002B5FD1C5
:1048A80002224948002411460FF0BCFC10232222A2
:1048B80048214548CDE90034F8230FF05DF8224639
:1048C8004FF4FC6140480FF0B9FC234622224821EE
:1048D8003D480FF04BFC234629460A223A4818F077
:1048E80017F98E224FF4A07321463748CDE90024EA
:1048F8004E220FF041F80122334811460FF092FC86
:1049080022464FF4BC6130480FF098FCB8F1000F14
:1049180023D0013E5027062516F8013F04212B4AD3
:1049280003A81CF031FD002329B227483AB21235FA
:104938000FF01CFC03A81DF00BF903A9024622483E
:10494800013411F0ADFFB5F5977FE4B201DD0C3706
:104958000625A04501D9402CDED104B0BDE8F08180
:10496800002119480FF0EAF91948FFF7A9FB0222BC
:10497800154811460FF056FC00224FF448711248B2
:104988000FF05CFC0023222206210F480FF0EEFBFB
:10499800052210490C4811F083FF01220A481146EC
:1049A8000FF040FC00224FF4487107480FF046FC16
:1049B80000234022062104480FF0D8FB0D220649A7
:1049C800014811F06DFF6BE7A4490020B0090020F1
:1049D8009009002098090020A009002070B506461B
:1049E80082B0002947D102220024102547481146E9
:1049F8000FF018FCF023562206214448CDE9005454
:104A08000EF0BAFF22464FF4BC6140480FF016FC86
:104A18002346562206213D480FF0A8FB05F030FB3F
:104A280001463A4818F040F80D223949374811F044
:104A380037FF782370226C213448CDE900540EF0FA
:104A48009BFF22464FF4BC6130480FF0F7FB23462A
:104A580070226C212D480FF089FB314623460A222B
:104A68002A4818F055F801222A49284802B0BDE81A
:104A7800704011F015BF002124480FF05FF9264857
:104A8800FFF71EFB0322214811460FF0CBFB002243
:104A98004FF478411D480FF0D1FB002328221E2136
:104AA8001A480FF063FB05221C49184811F0F8FE5C
:104AB8000222164811460FF0B5FB00224FF4487148
:104AC80012480FF0BBFB0023702206210F480FF09D
:104AD8004DFB082212490D4811F0E2FE01220B4855
:104AE80011460FF09FFB00224FF4784107480FF062
:104AF800A5FB0023CE22062104480FF037FB112224
:104B08000849024811F0CCFE6DE700BFA449002017
:104B1800E4090020F4090020B8090020BC0900209D
:104B2800C4090020D009002030B5054683B01ABB5F
:104B380002223848002411460FF074FB1021F82394
:104B48005E223448CDE9001448210EF015FF2246B4
:104B58004FF4FC612F480FF071FB23465E22482179
:104B68002C480FF003FB23460A222946294803B0A4
:104B7800BDE8304017F0CCBF0C46264800210FF0A6
:104B8800DDF82548FFF79CFA0222224811460FF06B
:104B980049FB00224FF4FC611E480FF04FFB002335
:104BA800222206211B480FF0E1FA0D221B49194861
:104BB80011F076FE00224FF4BC6116480FF03EFB60
:104BC8000222144811460FF02DFB00233E22062135
:104BD80010480FF0CBFACCB120461CF0B9FF0246C2
:104BE80021460C4811F05CFE00235E22062109488C
:104BF8000FF0BCFA00224FF4487106480FF01EFB74
:104C080005220749034811F04BFE91E70122054CA4
:104C1800E6E700BFA4490020FC090020040A0020A0
:104C2800140A0020F809002070B50D4682B0164617
:104C380023BB02224C48002411460FF0F3FA10223D
:104C4800F82348214848CDE9002442220EF094FE7A
:104C580022464FF4FC6144480FF0F0FA2346422202
:104C6800482141480FF082FA23460A2229463E4845
:104C780017F04EFF002E36D102B070BD0021044659
:104C880039480FF05BF83948FFF71AFA022236481C
:104C980011460FF0C7FA00224FF4BC6132480FF0FA
:104CA800CDFA0023222206212F480FF05FFA002CAC
:104CB80056D020461CF04CFF024621462A4811F0E7
:104CC800EFFD00234222062127480FF04FFA002269
:104CD8004FF4487124480FF0B1FA052224492248BC
:104CE80011F0DEFDA5E7032222491F4811F0D8FD87
:104CF800234631460A221C4817F00AFF4FF4487130
:104D08000E224FF49A731848CDE900216222062139
:104D18000FF000FA07EE905A9FED176A0C23F8EE91
:104D2800676A07EE906A00934AF6E570F8EE677ACC
:104D38006322019007210C4886EEA77A67EE067A6F
:104D4800FDEEE77A17EE903AB3F5997FA8BF4FF4D6
:104D5800997323EAE3731BB20EF00EFE02B070BD26
:104D68000122064CA9E700BFA44900201C0A002024
:104D780098090020240A002000009943F80900201F
:104D88002DE9F04300248BB0984612234FF448775E
:104D980006460D46594821469146DE22CDE90034A3
:104DA8004FF4A0730EF0E8FD4FF4A073DD22214606
:104DB800524800970EF0F0FC0122504811460FF0BF
:104DC80031FAA04540F3898009F101034C4A1C21BE
:104DD80003A8CDF800801CF0D7FA39462246474888
:104DE8000FF02CFA2346E022022144480FF0BEF9C6
:104DF80003A81CF0ADFE03A90246404811F050FD7F
:104E080003A81CF0A5FE02234FF006024AF6E5713E
:104E180010FB0237224639480FF010FA2346E022E9
:104E280039B236480FF0A2F93EB130461CF090FE78
:104E380031460246314811F033FD012231492F48ED
:104E480011F02EFD30461CF083FE013000224FF495
:104E5800FC6100EB400007EB400428480FF0EEF936
:104E68000023E11CE022254809B20FF07FF93DB18B
:104E780028461CF06DFE29460246204811F010FD18
:104E8800129B0BB11B7813B90BB0BDE8F083129BD2
:104E980018211D4A03A81CF077FA03A81CF058FE35
:104EA800044600224FF4FC6114480FF0C7F90023B0
:104EB80004EB4401E02211484900C1F59F7109B291
:104EC8000FF054F903A81CF043FE03A902460B484F
:104ED80011F0E6FC0BB0BDE8F083224639460748DE
:104EE8000FF0ACF92346E022022104480FF03EF906
:104EF8000B220649014811F0D3FCC1E7A449002060
:104F0800280A0020AC0900203C0A0020300A0020B2
:104F18002DE9F043994607460E4690462DED028B43
:104F2800B0EE408A85B0002B40F0118102220024A7
:104F38001025A34811460FF075F9F2231C224E21C3
:104F48009F48CDE900540EF017FD22464FF4FC614E
:104F58009B480FF073F923461C224E2198480FF006
:104F680005F923460A223946954817F0D1FDE02372
:104F7800322260219248CDE900540EF0FDFC224611
:104F88004FF4FC618E480FF059F932222346602114
:104F98008B480FF0EBF82146B7EEC80A884817F09F
:104FA800C7FD04228749864811F07AFC5EB1B8F142
:104FB800000F08D0844B1A68BA4225D105B0BDEC61
:104FC800028BBDE8F083B8F1010FF7D0B9F1000FFB
:104FD800F4D002227A4811460FF024F90023542213
:104FE800062177480FF0C2F800224FF44871744840
:104FF8000FF024F90C227549714805B0BDEC028BFD
:10500800BDE8F04311F04CBC942148226C4801944F
:105018001F604FF4A073009121460EF0ADFC0222F0
:10502800674811460FF0FEF823464A2206216448D5
:105038000FF09CF822464FF4FC6161480FF0FEF82F
:10504800052263495E4811F02BFC96ED400A214683
:105058005B48B7EEC00A17F06BFD0422594958485F
:1050680011F01EFC23466022062155480FF07EF8F9
:1050780022464FF4BC6152480FF0E0F8052255492A
:105088004F4811F00DFC96ED410A01214C48B7EE4E
:10509800C00A17F04DFD03224F49494811F000FCA2
:1050A80023467622062146480FF060F822464FF440
:1050B800487143480FF0C2F804224849404811F0AB
:1050C800EFFB0A22234696F8FF103D4817F020FD13
:1050D80096F81021002A67D00122394811460FF0AE
:1050E800A1F800224FF4BC6135480FF0A7F896F8F4
:1050F800FF30002B3FF462AF00248C27062502E026
:10510800302B3FF45BAF335D0421354A03A81CF014
:105118003BF9002329B22A483AB212350FF026F893
:1051280003A81CF015FD03A90246254811F0B8FB99
:105138000134B5F5977FE3B204DD0C370625D22F8D
:105148003FF73CAF96F8FF209A42D9D836E70021BE
:105158001B480EF0F3FD2348FEF7B2FF0222184861
:1051680011460FF05FF800224FF4487114480FF011
:1051780065F800231C22062111480EF0F7FF0522CE
:1051880019490F4811F08CFB0023322206210C48E4
:105198000EF0ECFF06221549094811F081FB0A4B75
:1051A8004FF0FF321A60C1E64FF4784104480FF01F
:1051B80045F806220E49024811F072FB8CE700BF41
:1051C800A4490020540A0020E42F0020800A00206F
:1051D8005C0A0020640A00206C0A0020700A002083
:1051E800B0090020440A0020140A00204C0A0020BC
:1051F800780A00202DE9F04FC5B006460DF1E00A07
:1052080003AC1E216FF0170017F0B8FF44F8040F25
:105218005445F6D100214E480EF090FD01224C482D
:1052280011460EF0FFFF4B4BD3F800801B68A3EB31
:1052380008039E4250D94FF0000B03AD0027CDE97B
:10524800028612E0B8F1EF0F4DD9EF2E7CD9B8F5F0
:10525800987F2C6005DD00216FF0170017F08EFF96
:105268002860554507F106071DD055F8044FE6009C
:105278000134A6F15002A6F10808EF2AE2D8082363
:105288000FFA87F912B23248009349460623CDF83F
:1052980004B00EF071FBB8F1EF0F26DD554507F1AC
:1052A80006072C60E1D12C4B2C4859682C4B1A6806
:1052B80040F6AC53A0FB0202920CDDE9028603FB28
:1052C80002F2254B5B685B1A9A42FAD8214B1B689D
:1052D800A3EB0803B342B0D300211D4845B0BDE895
:1052E800F04F0EF02BBD0FFA87F900224FF44871EA
:1052F80017480EF0A3FF00230FFA88F24946144816
:105308000EF034FF5E2017F001FF00F12101104874
:10531800C9B211F0C5FBEF2EC0D800224AF6E571DC
:105328000B480EF08BFF494632B2002308480EF0B6
:105338001DFF5E2017F0EAFE00F121010448C9B202
:1053480011F0AEFB2C608CE70FFA87F9E5E700BF98
:10535800A4490020C4530020001000E083DE1B4352
:10536800AC2D002000220449044808B517F0BAF80B
:10537800034B00221A8008BD40420F00B02E0020C7
:10538800E05300202DE9F84305468D4E8D4F8E4899
:1053980016F0C6FF03468C48002B51D017F010F8C2
:1053A80040F25622C0B20D2818BF0A280CBF4FF091
:1053B80001084FF0000833D13C78002C47D13388DE
:1053C800002BE4D0002281488149C4542C706C60C1
:1053D800AA60A5F80B4134801CF068FA064678B339
:1053E80020467C491CF062FA044600285AD003780B
:1053F800092B01D0202B05D114F8013F202BFBD01D
:10540800092BF9D0744930461CF0BAF920BB0123A6
:1054180020462B701AF082F968604046BDE8F88390
:1054280033880121694C934203EB01020DD8E05403
:105438006548328016F074FF03466348002BADD1EF
:105448004FF000084046BDE8F88339709FE7002315
:105458005B4A3B7013809AE7604930461CF090F92C
:10546800B8B15F4930461CF08BF9A0B15D493046B0
:105478001CF086F9002840F00D81042320462B708B
:105488001AF048F9B7EEC00B404685ED020ABDE8B0
:10549800F8830223F2E7032320462B701AF03EF923
:1054A8006860BAE74C4930461CF06AF981464C49B5
:1054B80030461CF065F90746B9F1000F4CD1C8B168
:1054C800484930461CF05CF958B1474930461CF051
:1054D80057F930B1454930461CF052F9002840F0E0
:1054E8000581434930461CF04BF90028A8D1082310
:1054F8002B7092E73B4930461CF042F90028F0D067
:10550800394930461CF03CF90028EAD03749304682
:105518001CF036F90028E4D0364930461CF030F942
:105528000028DED0344930461CF02AF90028D8D0AB
:10553800324930461CF024F9002CD2D00028D0D1B2
:1055480007231722214605F586702B701CF078F981
:10555800002385F8233160E7204930461CF010F914
:10556800002840F0A380002FC4D01E4930461CF00C
:1055780007F90028B5D01C4930461CF001F900286D
:10558800AFD01A4930461CF0FBF80028A9D01949B9
:1055980030461CF0F5F80028A3D0174930461CF017
:1055A800EFF801460028C3D1002C9AD006232B70AF
:1055B8002378002B00F0AD8005F10C0646E000BF13
:1055C800E053002002540020B02E0020B84A0020EA
:1055D800B40A0020A0110020BC0A0020C810002036
:1055E800C40A0020E4100020C80A0020CC0A0020C9
:1055F800E40A0020D40A0020DC0A00201C0A00204B
:10560800A3F16100C0B205283CD9A3F14100C0B2A2
:1056180005283BD90023A2F13000C0B2092823D9BC
:10562800A2F16100C0B2052829D9A2F13700A2F180
:10563800410743EA0002F8B2D2B2052898BF1346E0
:1056480073540131A378C9B2B3B1023462789AB104
:10565800FF2911D0202B09D0A3F13000C0B20928AE
:10566800CED80001C3B2D6E70343E9E7A0781346D2
:10567800013402460028EDD185F80B11CDE6573AE2
:105688001343DDE7573B1B01DBB2C4E7373B1B0184
:10569800DBB2C0E7204930461CF072F8B8B90523E0
:1056A80020462B701AF03AF86860B6E6002F3FF4EF
:1056B80021AF1A4930461CF063F800283FF411AFB7
:1056C800154930461CF05CF800283FF40AAF14492D
:1056D80030461CF055F848B9002C3FF402AF0A23B5
:1056E80020462B701AF01AF8686096E60D49304685
:1056F8001CF046F8014600287FF44FAF002C3FF419
:10570800F0AE0923204610222B701BF037FD68608D
:1057180083E61946B0E700BFC80A0020E41000205D
:10572800CC0A0020D40A002010B5044604220949F6
:10573800094817F091F93CB120461CF009FA2146B6
:105748000246054817F088F90348BDE8104017F0ED
:10575800B7B900BFEC0A0020B02E002010B50446EF
:1057680004220949094817F077F93CB120461CF092
:10577800EFF921460246054817F06EF90348BDE8DF
:10578800104017F09DB900BFF40A0020B02E002089
:1057980030B52DED028B83B004220D4604462A490C
:1057A800B0EE608A29488DED001A8DED010A17F0D8
:1057B80053F99DED010A03212448B7EEC00A17F0FA
:1057C800B7F92021214817F061F8B7EEC80A01217E
:1057D8001E4817F0ADF920211C4817F057F89DED29
:1057E800001A01211948B7EEC10A17F0A1F92021C2
:1057F800164817F04BF8294600230A22134817F0D9
:1058080087F92021114817F041F89DB1254406E099
:10581800002310220D4817F07BF9AC420AD014F887
:10582800011B0F29F4D83021084817F02FF814F875
:10583800011CEDE70A21054803B0BDEC028BBDE869
:10584800304017F023B800BFFC0A0020B02E00201B
:1058580000B52DED028B83B004221149B0EE608AA9
:1058680010488DED010A17F0F7F89DED010A0321A4
:105878000C48B7EEC00A17F05BF92021094817F069
:1058880005F8B7EEC80A0121064817F051F90A21B0
:10589800044803B0BDEC028B5DF804EB16F0F6BFCC
:1058A800040B0020B02E002070B506460D461446A5
:1058B8002149042221482DED028B82B0B0EE608A86
:1058C8008DED010A17F0C8F800230A2231461B485B
:1058D80017F01EF92021194816F0D8FF9DED010A8E
:1058E80003211648B7EEC00A17F022F92021134801
:1058F80016F0CCFF00230A222946104817F008F9B1
:1059080020210E4816F0C2FFB7EEC80A01210B4845
:1059180017F00EF92021094816F0B8FF214607486C
:1059280017F0C2F80A21054802B0BDEC028BBDE8A9
:10593800704016F0ABBF00BF0C0B0020B02E00204B
:10594800013806284ED8DFE800F00C12223E2D352B
:1059580004004FF00A0C0023244881F800C01360AB
:10596800704709230B7000232148136070470923EF
:1059780000B583B00B700192FDF79EFA0378019A87
:10598800002B29D01B4B1C48136003B000BD1B4BD8
:1059980008201B780870012B19480CBF194B1A4BAB
:1059A800136070474FF0040C184B194881F800C079
:1059B80013607047174B0C201B78087073B1114B9C
:1059C800154813607047154B02201B7808703BB1CF
:1059D800134B144813607047134BD4E7134BEFE78E
:1059E800134BF6E700230B70BDE700BF200700202C
:1059F80010070020140B00205C080020065400202B
:105A08002C070020E40A0020400B0020480B00204F
:105A18001C070020F553002004070020EB5300204A
:105A28002C0B002000070020200B00203C0B00203E
:105A3800340B002010B5044624482DED028B82B0AB
:105A480004F024F950B92249224A0B6810681B1A3D
:105A5800FA2B1BD802B0BDEC028B10BD01211E4AE7
:105A68001E4B197013680B44136004F0F1FA174BBE
:105A780093F8FF10184693ED411AD3ED400AFFF74B
:105A880087FE8CB9164B01221A70DCE70B6813608D
:105A980004F010FA13490122114B81ED000A1A7023
:105AA80002B0BDEC028B10BD04F0D2FAB0EE408A11
:105AB80004F0D4FA019004F0D7FA0199F0EE400A04
:105AC8000248B0EE480AFDF7FBF9DBE7C4460020C0
:105AD800C453002020500020C8450020EA5300206D
:105AE800CB340020102F00201E4A1378012B00D041
:105AF80070471D4909780029FAD01C491C480968D3
:105B08000068091A1B4800688142F1D300B5C5B086
:105B18000DF10F0104A80093FDF7C6FD009B78B9AD
:105B2800CDE90030FDF724FE009BDFF854C0124990
:105B38000C4A01988CF8003010700B7045B000BD0D
:105B48009DF80F1004A804F0F7F80C49074B0A68F1
:105B58001868074B013218600948009B0A600370F7
:105B6800ECE700BF06540020F6530020C453002081
:105B7800CC450020A82F0020C93400206849002007
:105B8800CB34002010B50C4686B0112800F299805D
:105B9800DFE800F0101D2A2F33383D435153555B81
:105BA80061737C82870904F04DFA002800F0878031
:105BB800454B11E004F04CFA444AB7EEC00A1421F0
:105BC80020468DED000B1BF0DFFB06B010BD04F086
:105BD80063FA04F06DFA03463D4A1421204606B0E4
:105BE800BDE810401BF0D0BB04F038FA394A034630
:105BF800F3E704F039FA384ADFE704F03BFA374AAA
:105C08000346EAE704F03CFA354A0346E5E7354B34
:105C18001421354A20461B78E1E7344B93ED007A8E
:105C28001421334A2046B7EEC77A8DED007B1BF06E
:105C3800ABFB06B010BD2F4BF0E72F4BEEE72F4B19
:105C480014212F4A20461B78C9E72E4B14212E4ACF
:105C580020461B68C3E72D4B0DF1180C0FCB0CE940
:105C68000F002B4B14211A4A20461B7803F003031C
:105C78000CEB830353F8103CB1E7264B1B68E3B1E8
:105C8800254A264B126803EB0213A5E7244B14217F
:105C98001D4A20461B68A2E704F0C8F9214A0346BA
:105CA8009BE704F0C9F930B91F4B03CB1B78206080
:105CB8006160237289E71D4BF7E71D4B8CE71D4B8D
:105CC8008AE700230B7080E7700B0020780B002018
:105CD800840B0020880B00208C0B0020980B0020E0
:105CE800A00B0020CA340020A80B0020142F00208D
:105CF800B00B0020A42F0020AC2F0020CC340020B3
:105D0800B80B0020202F0020C00B0020B803002073
:105D1800F2530020E047002070490020E4470020AB
:105D2800A82F0020C80B0020640B0020580B00206F
:105D3800500B0020740B00202DE9F04F7B4D002202
:105D48007B4BF5B0287893F800A01A70072812D872
:105D5800DFE810F07E009C00A9008B000800B4006A
:105D6800C4004E00734B1B78002B40F0CF80BAF173
:105D7800000F40F0C48004AB14AA194603920293A2
:105D8800FFF7DEFD0021029B039ACDE92411CDE93E
:105D98002611CDE928111978002900F0A980664D4F
:105DA8002C6894FBF1F601FB1644005D112800F203
:105DB800A280624951F8204024A9CDE90223FFF7C7
:105DC800E1FE039B029A1B78002B00F0AD80296846
:105DD80091FBF3F003FB1011CDF804A020461568E1
:105DE8000A4624A90095FEF7CBFF75B0BDE8F08FF1
:105DF800534C0DF1100824AF0DF1500914F8012B84
:105E0800504B112A02D84D4B53F8223048F8043B26
:105E1800394614F8010CFFF7B5FE4B4B49F8047BE3
:105E28001437A342EAD1444C04A8CDF800A014A921
:105E38002368464C84FB0324DA17C2EBA40202EB66
:105E48008202A3EB42030A22FEF792F9287805E0C2
:105E58003F4B51461868FEF75FFB2878072801D0AA
:105E6800002888D175B0BDE8F08F3A4B1B68002B2D
:105E780043D0394B39481B6800EB0310384A534666
:105E880011680022FEF7D0FE2878E7E7354B36493F
:105E9800364A086893ED000A534612783449FFF7EA
:105EA80037F82878DAE7304B1C68FDF705F85246D2
:105EB80001462046FEF738FE2878CFE72D4B2E4ABC
:105EC800D3ED000A2D492E4B2E4893ED000A534678
:105ED80012680968FEF7D4FB2878BFE72A495346B9
:105EE8002A4A086812782A49FEF7D2FC2878B5E7CA
:105EF8000B46284C70E7134C5EE72748BEE7274857
:105F0800274A2849FEF744FA2878A7E72649274A66
:105F1800086851461268264B801AA3FB0030800996
:105F2800FEF75CFD287899E7194655E7F1530020FC
:105F3800C9340020EB530020DC47002098040020DF
:105F480020070020DC0B00202A0700206766666611
:105F580074490020E047002070490020E4470020F1
:105F680068490020102F0020C8450020EA5300206F
:105F7800C4460020AC2F00209C2F0020A02F00201A
:105F8800142F002084460020BC450020F453002034
:105F9800BC440020B80A0020D00B0020B80900201B
:105FA800E00B0020F80B0020C4530020C04500205F
:105FB800D34D621010B5164C207817F04BFB011E1C
:105FC800637818BF0121134A9942D2F800C00BD058
:105FD8006268ACEB0202192A06D9C4F804C06170E1
:105FE80088B92072002010BD002BFBD1237A002B2A
:105FF800F8D16368ACEB030CBCF5FA7FF2D301234C
:106008000220237210BD207A80F0010010BD00BF6D
:10601800842F0020C453002000B583B018F0BEF8C8
:10602800DFED197A194BB4EEE70A83ED000AF1EEB9
:1060380010FA19DADFED167AB4EEE70AF1EE10FA83
:1060480020DD30EE670A9FED137AB3EE076ADFEDC5
:10605800127AC0EE066AE6EE877AFCEEE77ACDEDB4
:10606800017A9DF8043000E0FF230C4902200C4A15
:1060780009781370994238BF194603B05DF804EBEC
:1060880017F036BE8C23F0E700009C4264490020DC
:1060980000005C420000E64200000C43F35300207D
:1060A800EE53002038B5134C2378022B15D0042B5F
:1060B80018D0032B1BD0104A0025104B0220117852
:1060C8001D7017F015FE01230D490E4A25700B703F
:1060D8001370BDE8384003F0B9BDFDF77FF82378A9
:1060E800042BE6D103F0C2FE2378032BE3D1FDF79E
:1060F8003FFBE0E7F1530020EE530020F35300206C
:10610800CB340020C9340020F8B50122434D444E59
:1061180000232A70441E3270424A434F1370434A88
:10612800387002201360424A1360424A1370424B8F
:10613800197817F0DDFD052C11D8DFE804F02611D9
:106148000332362A00233D483D4A18213D4C03605E
:106158003D4823701360FDF7ABFB3C4B1860F8BD5E
:10616800FCF76CFD18B1FCF76FFD002843D1384AE5
:1061780038493948FEF70CF94FF4966017F0C8F91A
:106188000123002233702B703A70BDE8F84003F009
:106198005DBD002331483249324A03700B601370E9
:1061A800F8BD314B00221A70F8BD402280212F48DB
:1061B8001BF0A2FA2E4B2F4993ED007AD1ED007A0D
:1061C8002D4A37EE677A2D4BD2ED006A4FF0FF3239
:1061D800C7EE267A1A60FDEEE77A17EE903A002BA2
:1061E80005DD402B16DD264B40221A60F8BD244BF6
:1061F80001221A60F8BD03F029FD0F4B0D4A022059
:1062080019788C239942137038BF1946BDE8F840B5
:1062180017F06EBD1A4AC2ED007AF8BDCB340020E3
:10622800C9340020EA530020F1530020C84500205B
:10623800DC470020F3530020EE5300207049002073
:106248006849002006540020E4470020E047002069
:106258000C0C0020300C0020FC090020F553002015
:10626800BC450020F4530020EB5300208446002056
:10627800A42F0020142F0020AC2F00209C2F0020DA
:10628800A02F002030B5CDB003AC2046FFF77AF838
:10629800B0B12378013B092B0DD8DFE803F01A05CC
:1062A800253649515E71771394ED020A03F0E6FB37
:1062B8004148FFF753FA01234049414A0B701370D4
:1062C8004DB030BD207903F06FFC3E48FFF746FA29
:1062D800F1E76068431E062BEDD8C0B2FFF714FF44
:1062E8003948FFF73BFAE6E7247903F0BDFE8DED68
:1062F800010A03F0BFFE9DED010A0146204603F0A6
:10630800E7FB3248FFF72AFAD5E703F0A7FE94ED3A
:10631800020A05468DED010A03F0ACFE9DED010A67
:106328000146284603F0D4FB2948FFF717FAC2E7CD
:1063380094F9040003F04EFC2648FFF70FFABAE779
:10634800254B1B787BB394F80B1106A803F0F4FCDB
:1063580068B32248FFF7E8F9ADE70320FFF7D4FE5A
:1063680046A8FCF7F3FFD0B11D48012400231D49BE
:106378001D4A04701D480B601360FFF7EFF99AE798
:10638800FFF790FE1A48FFF7E9F994E72079194BCF
:10639800187003F02FFC1848FFF7E0F98BE717484F
:1063A800FFF7C2F987E71648FFF7BEF983E71548F4
:1063B800FFF7D4F97FE700BFC8100020CB340020D6
:1063C800C9340020CC0A0020BC0A0020C40A0020DE
:1063D800E4100020C80A0020F6530020380B0020E3
:1063E8000654002068490020CC4500201C0A0020E3
:1063F800E40A0020CA340020D40A0020440C0020FB
:106408003C0C0020DC0A00201D4BD3F8D820106873
:106418009168006810B40842137C546814BF0121C5
:10642800002103F00303D4F800C0D06843EA8103D5
:106438001CEA000F43F0080118BF0B469908013BFE
:1064480011740D2B0BD8DFE803F0110C070C0A169A
:106458001111160A0C070C1153690233536110BC51
:1064680070475369013B10BC53617047536901334E
:1064780010BC536170475369023B10BC53617047AD
:10648800384F00201D4BD3F8D4201068916800685D
:1064980010B40842137C546814BF0121002103F092
:1064A8000303D4F800C0D06843EA81031CEA000F54
:1064B80043F0080118BF0B469908013B11740D2BD6
:1064C8000BD8DFE803F0110C070C0A161111160A95
:1064D8000C070C1153690233536110BC70475369A0
:1064E800013B10BC536170475369013310BC5361C1
:1064F80070475369023B10BC53617047384F002006
:106508001D4BD3F8D02010689168006810B4084279
:10651800137C546814BF0121002103F00303D4F84D
:1065280000C0D06843EA81031CEA000F43F0080169
:1065380018BF0B469908013B11740D2B0BD8DFE8E7
:1065480003F0110C070C0A161111160A0C070C118E
:1065580053690233536110BC70475369013B10BC47
:10656800536170475369013310BC536170475369D5
:10657800023B10BC53617047384F00201D4BD3F8C5
:10658800CC2010689168006810B40842137C5468E5
:1065980014BF0121002103F00303D4F800C0D06820
:1065A80043EA81031CEA000F43F0080118BF0B46B9
:1065B8009908013B11740D2B0BD8DFE803F0110C7F
:1065C800070C0A161111160A0C070C11536902332D
:1065D800536110BC70475369013B10BC536170474D
:1065E8005369013310BC536170475369023B10BCB7
:1065F80053617047384F00201D4BD3F8C8201068EE
:106608009168006810B40842137C546814BF0121D3
:10661800002103F00303D4F800C0D06843EA8103E3
:106628001CEA000F43F0080118BF0B469908013B0C
:1066380011740D2B0BD8DFE803F0110C070C0A16A8
:106648001111160A0C070C1153690233536110BC5F
:1066580070475369013B10BC53617047536901335C
:1066680010BC536170475369023B10BC53617047BB
:10667800384F00201D4BD3F8C4201068916800687B
:1066880010B40842137C546814BF0121002103F0A0
:106698000303D4F800C0D06843EA81031CEA000F62
:1066A80043F0080118BF0B469908013B11740D2BE4
:1066B8000BD8DFE803F0110C070C0A161111160AA3
:1066C8000C070C1153690233536110BC70475369AE
:1066D800013B10BC536170475369013310BC5361CF
:1066E80070475369023B10BC53617047384F002014
:1066F8001D4BD3F8C02010689168006810B4084298
:10670800137C546814BF0121002103F00303D4F85B
:1067180000C0D06843EA81031CEA000F43F0080177
:1067280018BF0B469908013B11740D2B0BD8DFE8F5
:1067380003F0110C070C0A161111160A0C070C119C
:1067480053690233536110BC70475369013B10BC55
:10675800536170475369013310BC536170475369E3
:10676800023B10BC53617047384F00201D4BD3F8D3
:10677800BC2010689168006810B40842137C546803
:1067880014BF0121002103F00303D4F800C0D0682E
:1067980043EA81031CEA000F43F0080118BF0B46C7
:1067A8009908013B11740D2B0BD8DFE803F0110C8D
:1067B800070C0A161111160A0C070C11536902333B
:1067C800536110BC70475369013B10BC536170475B
:1067D8005369013310BC536170475369023B10BCC5
:1067E80053617047384F00201D4BD3F8B82010680C
:1067F8009168006810B40842137C546814BF0121E2
:10680800002103F00303D4F800C0D06843EA8103F1
:106818001CEA000F43F0080118BF0B469908013B1A
:1068280011740D2B0BD8DFE803F0110C070C0A16B6
:106838001111160A0C070C1153690233536110BC6D
:1068480070475369013B10BC53617047536901336A
:1068580010BC536170475369023B10BC53617047C9
:10686800384F00201D4BD3F8B42010689168006899
:1068780010B40842137C546814BF0121002103F0AE
:106888000303D4F800C0D06843EA81031CEA000F70
:1068980043F0080118BF0B469908013B11740D2BF2
:1068A8000BD8DFE803F0110C070C0A161111160AB1
:1068B8000C070C1153690233536110BC70475369BC
:1068C800013B10BC536170475369013310BC5361DD
:1068D80070475369023B10BC53617047384F002022
:1068E8001D4BD3F8B02010689168006810B40842B6
:1068F800137C546814BF0121002103F00303D4F86A
:1069080000C0D06843EA81031CEA000F43F0080185
:1069180018BF0B469908013B11740D2B0BD8DFE803
:1069280003F0110C070C0A161111160A0C070C11AA
:1069380053690233536110BC70475369013B10BC63
:10694800536170475369013310BC536170475369F1
:10695800023B10BC53617047384F00201D4BD3F8E1
:10696800AC2010689168006810B40842137C546821
:1069780014BF0121002103F00303D4F800C0D0683C
:1069880043EA81031CEA000F43F0080118BF0B46D5
:106998009908013B11740D2B0BD8DFE803F0110C9B
:1069A800070C0A161111160A0C070C115369023349
:1069B800536110BC70475369013B10BC5361704769
:1069C8005369013310BC536170475369023B10BCD3
:1069D80053617047384F00201D4BD3F8A82010682A
:1069E8009168006810B40842137C546814BF0121F0
:1069F800002103F00303D4F800C0D06843EA810300
:106A08001CEA000F43F0080118BF0B469908013B28
:106A180011740D2B0BD8DFE803F0110C070C0A16C4
:106A28001111160A0C070C1153690233536110BC7B
:106A380070475369013B10BC536170475369013378
:106A480010BC536170475369023B10BC53617047D7
:106A5800384F00201D4BD3F8A420106891680068B7
:106A680010B40842137C546814BF0121002103F0BC
:106A78000303D4F800C0D06843EA81031CEA000F7E
:106A880043F0080118BF0B469908013B11740D2B00
:106A98000BD8DFE803F0110C070C0A161111160ABF
:106AA8000C070C1153690233536110BC70475369CA
:106AB800013B10BC536170475369013310BC5361EB
:106AC80070475369023B10BC53617047384F002030
:106AD8001D4BD3F8A02010689168006810B40842D4
:106AE800137C546814BF0121002103F00303D4F878
:106AF80000C0D06843EA81031CEA000F43F0080194
:106B080018BF0B469908013B11740D2B0BD8DFE811
:106B180003F0110C070C0A161111160A0C070C11B8
:106B280053690233536110BC70475369013B10BC71
:106B3800536170475369013310BC536170475369FF
:106B4800023B10BC53617047384F00201D4BD3F8EF
:106B58009C2010689168006810B40842137C54683F
:106B680014BF0121002103F00303D4F800C0D0684A
:106B780043EA81031CEA000F43F0080118BF0B46E3
:106B88009908013B11740D2B0BD8DFE803F0110CA9
:106B9800070C0A161111160A0C070C115369023357
:106BA800536110BC70475369013B10BC5361704777
:106BB8005369013310BC536170475369023B10BCE1
:106BC80053617047384F00201D4BD3F89820106848
:106BD8009168006810B40842137C546814BF0121FE
:106BE800002103F00303D4F800C0D06843EA81030E
:106BF8001CEA000F43F0080118BF0B469908013B37
:106C080011740D2B0BD8DFE803F0110C070C0A16D2
:106C18001111160A0C070C1153690233536110BC89
:106C280070475369013B10BC536170475369013386
:106C380010BC536170475369023B10BC53617047E5
