:0200000460009A
:100000004643464200000156000000000101020084
:1000100000000000000000000000000000000000E0
:1000200000000000000000000000000000000000D0
:1000300000000000000000000000000000000000C0
:1000400000000000010406010000000000000000A4
:100050000000800000000000000000000000000020
:100060000000000000000000000000000000000090
:100070000000000000000000000000000000000080
:10008000EB04180AFF1E04320126000000000000E5
:100090000000000000000000000000000000000060
:1000A0000000000000000000000000000000000050
:1000B0000000000000000000000000000000000040
:1000C0000000000000000000000000000000000030
:1000D0000000000000000000000000000000000020
:1000E0000000000000000000000000000000000010
:1000F0000000000000000000000000000000000000
:1001000000000000000000000000000000000000EF
:1001100000000000000000000000000000000000DF
:1001200000000000000000000000000000000000CF
:1001300000000000000000000000000000000000BF
:1001400000000000000000000000000000000000AF
:10015000000000000000000000000000000000009F
:10016000000000000000000000000000000000008F
:10017000000000000000000000000000000000007F
:10018000000000000000000000000000000000006F
:10019000000000000000000000000000000000005F
:1001A000000000000000000000000000000000004F
:1001B000000000000000000000000000000000003F
:1001C000000100000010000001000000000000001D
:1001D000000001000000000000000000000000001E
:1001E000000000000000000000000000000000000F
:1001F00000000000000000000000000000000000FF
:10020000FFFFFFFFFFFFFFFFFFFFFFFFFFFFFFFFFE
:10021000FFFFFFFFFFFFFFFFFFFFFFFFFFFFFFFFEE
:10100000D1002043F1150060000000000000000046
:10101000201000600010006000000360000000006D
:1010200000000060000C030000000000FFFFFFFF55
:10103000FFFFFFFFFFFFFFFFFFFFFFFFFFFFFFFFC0
:10104000FFFFFFFFFFFFFFFFFFFFFFFFFFFFFFFFB0
:10105000FFFFFFFFFFFFFFFFFFFFFFFFFFFFFFFFA0
:10106000FFFFFFFFFFFFFFFFFFFFFFFFFFFFFFFF90
:10140000824205D051F8043B40F8043B8242F9D8AF
:10141000704700BF044A05494FF0000342F8043BFF
:101420009142FBD8704700BFC0420020005E002000
:1014300008B5BFF34F8F00F011FA544C544B0820FD
:101440005449C3F85401544AC3F800115348C3F82F
:10145000F0405349FFF7D4FF524A53495348FFF72E
:10146000CFFF534CFFF7D6FF4FF470004FF0E02151
:101470000023504AC1F8880D44F823200133B02BD3
:10148000FAD14D4B80214D4A03F8011B9342FBD109
:101490004FF0E0254A4E4B4A4FF0FF31C5F8084D5A
:1014A000D5F8243D43F4E023C5F8243DF36923F047
:1014B0007F0343F04003F361736A23F07F0343F03B
:1014C000400373629166D1661167516700F0CEF9EF
:1014D0003D4A3E4BA2636322E36300246A61032317
:1014E0003B4AAC612B61C5F8202DD5F8FC2D394B5A
:1014F00042F080723849C5F8FC2D1A6842F00102AA
:101500001A605B680B6000F081FB344800F034FD2A
:10151000F16E334B334A41F44051F1661C60C3F81D
:101520000841C3F81841C3F82841C3F83841936B08
:10153000DB0708D442F615632B4951651365936B9D
:1015400043F001039363274A284C936843F0011347
:10155000936000F019FA00F0C5FC00F0F1FC00F017
:1015600087FB00F07DF92368132BFCD900F01CFCED
:101570002368B3F5967FFBD300F076F900F072F99B
:1015800000F0E6FC00F0E0FC30BFFDE70C0D1113AD
:1015900000800D401B101820389802000000000049
:1015A00018230060C042002054BB026000000020ED
:1015B0000040002071EF010000E400E0A0E400E042
:1015C00000C00F4000C00A4059CE01005DCE0100AE
:1015D00000002020001000E0745D00200046C323BE
:1015E0000040084000400D400000C056785D0020DB
:1015F000054B4FF42A01054A05485A641864054A08
:1016000099639546FFF714FF00C00A40FFAFAAAAEE
:1016100007002000000005200346094A09485B69CD
:1016200003EB01110B7A02EB0313D3E901321060D3
:10163000CA681A600B690BB14A691A60704700BF2B
:101640009821002061F801004369027E03EB021239
:1016500092F808C08C450FD01A7AFF2A0CD091421C
:101660001CD01A7EFF2A07D00121D3E9002312687B
:101670001A4202D1017670477047094B052203EBED
:101680000C135B6800B583B01A60CDE90001FFF769
:10169000C3FFDDE90001017603B000BD0021E4E7EE
:1016A000982100200346094A09485B6903EB0111B0
:1016B00091F8283002EB0313D3E901321060CA6AB3
:1016C0001A600B6B0BB14A6B1A60704798210020AF
:1016D00061F801004369427E03EB021292F828C0D0
:1016E0008C4511D093F82820FF2A0DD091421DD0AF
:1016F00093F83820FF2A07D00121D3E9002312688C
:101700001A4202D1417670477047094B052203EB1C
:101710000C135B6800B583B01A60CDE90001FFF7D8
:10172000C1FFDDE90001417603B000BD0021E4E71F
:10173000982100201A4942698B6BDFF86CC023F4B2
:101740007C0343F4802300B583B08B63D2E900139C
:1017500001900A681A4303690A60022200211A6193
:10176000104A19619A6401225A62C3F828C04FF4E2
:10177000303CC3F82CC04FF0011CD3F848E0C3F84C
:1017800050E01962C3F858C01A61017EFFF744FFA8
:101790000198417E03B05DF804EBFFF783BF00BF03
:1017A00000C00F403B372819B80B0505294A002116
:1017B0000123C2F8A000C2F8A410C2F8B0305369E7
:1017C000D907FCD501234FF4803C22495361C2F86C
:1017D000A000C2F8A4C0C2F8B0304B69DB07FCD54A
:1017E00001234FF4003C1B4A4B61C1F8A000C1F833
:1017F000A4C0C1F8B0305369D907FCD50123DFF884
:1018000058C014495361C2F8A000C2F8A4C0C2F87D
:10181000B0304B69DB07FCD5D1F8003145F60D50EF
:101820004FF0210C9AB2C1F814C0824210D045F694
:101830009D518A420AD1C3F34253032B08D0A3F12E
:101840000403B3FA83F35B09180170470020704763
:101850000820704700402A4004000300704700BF82
:10186000704700BF704700BF00BF70474FF0E023D4
:1018700000214FF0100C3448C3F8941DC3F89CCDE0
:101880004FF0110CC3F8A00D3048C3F89CCD4FF0B9
:10189000120CC3F8A00D2E48C3F89CCD2D4AC3F8F6
:1018A000A00DDFF8D0C042F015022B48C3F89CCD44
:1018B000C3F8A00DDFF8C0C02848C3F89CCDC3F81A
:1018C000A00DDFF8B8C0C3F89C2D2548254AC3F801
:1018D000A0CDC3F89C0DC3F8A02D02F5A022DFF81F
:1018E000A0C00C322048C3F89CCDC3F8A02D1F4ADD
:1018F000C3F89C0DC3F8A02D02F14062DFF884C04C
:1019000002321B48C3F89CCDC3F8A02D0A32C3F89D
:101910009C0DC3F8A02D00BF00BF00BF00BF00BFDB
:101920000122C3F8942DBFF34F8FBFF36F8FC3F81D
:10193000501FBFF34F8FBFF36F8FD3F8142D42F4B6
:101940004032C3F8142D70473F00001025000807EF
:1019500009001000005E0020210002072500081386
:101960001600202027000B13180000602F000B0723
:101970001A0000801300200014000020090000104D
:10198000170000401900007030B5864B85B0DFF8B5
:1019900074E21822844D0120C3F85CE28349C3F845
:1019A0006052A5F58055DFF860C2814CC3F864E24F
:1019B000C3F868522125C3F86CC2C3F870C2C3F8DB
:1019C00074C2C3F878C248F20C7CDA661A675A67A8
:1019D0009A67DA67C3F88020C3F88420C3F88820A8
:1019E000C1F82C03734AC1F83003C1F83403C1F8BD
:1019F0003803C1F83C03C1F85003A1696E4B0A409B
:101A00006E486F4913436F4AA361D4F8843043F0A2
:101A10000C03C4F884304FF0FF34036843F0020332
:101A20000360036803EA0C031A43674B02604460D7
:101A30008A68664C1340664A43F000538360C3686B
:101A400023F07803C360036A23401A43604B0262A9
:101A5000026A22405F4C1343002243628462C462E4
:101A600040F20564D1F8B83023F03F0343F001039E
:101A7000C0F8B830D1F8BC30574923F03F0343F0E9
:101A80000103C0F8BC3002610567C0F880404567BB
:101A9000C0F884400224036823F0020303608161DC
:101AA0004E4B4F49C46143F8042B8B42FBD1434C4E
:101AB000236843F001032360256815F00105FBD17D
:101AC0004548022240F2F561A06140F29940E2618E
:101AD00040F26642C4F8001242F20141C4F81022FA
:101AE000404AC4F82002C4F8302240F23542C4F81B
:101AF00034123D48C4F840223C4AC4F850022846FB
:101B0000C4F8542242F201223949C4F86012C4F8E0
:101B10006422FFF74BFE0246002839D081020123E0
:101B20004FF4802021662549C4F8A050C4F8A400D1
:101B3000C4F8B0304B69D807FCD5150501240392D1
:101B400028464C61FFF732FE039A2A4B0244D2B278
:101B50001A7080B1194980024FF480234866084604
:101B6000C1F8A050C1F8A430C1F8B0404369DB0708
:101B7000FCD501234361204900242048012300941F
:101B8000401A00EB02521E4800F0EEF905B030BDDD
:101B90001B4B184918600870D860C3E9010005B0F4
:101BA00030BD00BF00801F40F910010000841F40BD
:101BB00000C00F40FFFCFF1F0003008000402A40D0
:101BC00000802A401200FFFFFF37F70000FFF07C83
:101BD00040000080FF000F83F05AF05A00422A4074
:101BE00000432A409F041830EB06180A06320126EB
:101BF0003806180ABC5D002000000070000000706C
:101C0000805C0020F9B00100F970010010B5174A9E
:101C10004FF480544FF4005E4FF4404C4FF480304A
:101C200043F24201136913F0020F0DD113F4005F68
:101C30000FD013F4805F0FD0002BF3DA13F4803F42
:101C40000CD15B060ED510BDC2F818C05061916171
:101C5000E8E7C2F814E0E5E75461E3E74FF48033C6
:101C60009361DFE740235361DCE700BF00800D4054
:101C7000414A03204149F3EE095AD2F880309FEDE2
:101C8000406A23F001039FED3F5ADFF814C100B50D
:101C9000C2F88030C2F89000D1F8E010DFF804E11B
:101CA000CBB23948CEF8003007EE903A0B0DC1F3B5
:101CB0000B21F8EEE77A06EE903A07EE101A334B56
:101CC000B8EEC77ACCF80010F8EEE66A304937EE85
:101CD000C66A37EEC55A76EEC76A77EEE57A26EE23
:101CE000266AC3ED006A25EE265AD2F8803067EEE8
:101CF000A64AC0ED007AC6EE275A264885EE276A26
:101D0000C4EEA76A75EE875AFCEEE55A36EE076A0E
:101D100015EE90CABCEEC66A43EA0C5376EE877A9B
:101D2000C2F8803016EE103AD2F890C1FCEEE77A95
:101D300001EA034141EA0C014FF0000C17EE903A22
:101D4000C2F89011C3F30B03D2F890110B43124960
:101D5000C2F89031D2F8803043F00203C2F88030EC
:101D60000E4B80F840C0C1F840314FF0E023012213
:101D7000C3F8082100BD00BF00810D4000441F4092
:101D80000000AA420000B442E85C0020EC5C0020A5
:101D90000000FF0F00E400E00040002055F10100CA
:101DA000E05C0020E45C0020314B40F6617210B52D
:101DB000C3F8202140F2044400F0CEF82D4A2E4909
:101DC000D2F880302D4843F00303C2F880302C4B0A
:101DD000C1F8604102681A4203D1D1F8A8319A07CC
:101DE0001BD0254A4FF00041244B5963D2F84031B3
:101DF00043F00203C2F84031D2F840319B07FBD4D4
:101E00004FF400304FF0E0211C4B4FF00042C1F87E
:101E10008C0219209A6300F0A3F8184B0021164C8D
:101E20004FF080420A209A634FF420721960C4F880
:101E3000A801144800F09CF84FF4800203464FF4C8
:101E4000810040F243111860C4F858311A640E4BF7
:101E50000E4AC4F84811C3F804224FF0E0224FF4B0
:101E600000310123C2F80C11C4F8403110BD00BF8D
:101E700000800D4000C00F4000002E4000900D403B
:101E8000001C1E00000000200040002059F301004B
:101E900008B50E4B1B6E9B0700D4FBBE72B60C4BF5
:101EA00000200C4AC3F8400103F160430A49A3F53E
:101EB0005F2311649D46BFF34F8F4FF40013074A11
:101EC0000748DB6902609B68984700BF00441F40D9
:101ED00000002E4000C00A4003002000000012EB6A
:101EE000008020200F4B40F2376C0F4AA020D96EA3
:101EF00041F44031D966D96E41F44071D966C2F8D7
:101F000044C09064936C1B06FCD4084A40F23761CD
:101F1000A02351649364936C13F08003FBD1044AB3
:101F20001370704700C00F4000400C4000800C4010
:101F3000BB5D0020F8B500BFF8BC08BC9E467047EA
:101F40005FF800F059EE01005FF800F0F9E80100D9
:101F50005FF800F01D2D02005FF800F0C5FA0100E7
:101F60005FF800F091E001005FF800F04506020024
:101F70005FF800F0092A02005FF800F07DDD010043
:101F800005010000792A0000B92A000041980000EC
:101F9000EDA60000B5B5000035700100EDB10100FF
:0C1FA0000DCB010069DC0100C905020046
:101FAC006CC00F40030000000E0D0000C5A7000020
:101FBC002A3600001400000013000000010000008D
:101FCC00F4841F402B3200001400000013000000AA
:101FDC0001000000F8841F402D31000014000000A7
:101FEC001300000001000000F0841F402CFFFF00D4
:101FFC0014000000000000000000000001000000C0
:10200C0000000000EC841F400000000000000000F5
:10201C006CC00F4030000000100F0000C5A700007E
:10202C000127000017000000120000000001000052
:10203C0014851F401AFF0000120000000000000071
:10204C000100000018851F401BFF0000120000005B
:10205C00000000000100000010851F400026FF005A
:10206C001700000012000000000000000101000039
:10207C00010000000C851F400C851F400000000073
:10208C006CC00F40C0000000504F000099A8000029
:10209C000CFF000013000000000000000000000016
:1020AC0024851F400BFF00001300000000000000FF
:1020BC000000000028851F400DFF000013000000E9
:1020CC00000000000000000020851F400A252400AD
:1020DC0013000000120000001200000001020300B7
:1020EC0000000000000000000000000000000000E4
:1020FC00090180961180FF3A81550A3601082A049D
:10210C00000000F02B040000014021800A13800A1B
:10211C002980FF0080C00F40000000031900000060
:10212C0010000000E8841F4001000000FF000000C8
:10213C00FF0000000000000000000000180000007C
:10214C0010000000E4841F4001000000FF000000AC
:10215C00FF00000000000000000000001F00000055
:10216C00997C010070C00F40000C000011000000B1
:10217C0011000000E0841F40020000002C00000051
:10218C0012000000E0841F4001000000100000005D
:10219C0011000000DC841F40020000002D00000034
:1021AC0012000000DC841F40010000001E00000033
:1021BC008D7C010070C00F40C000000012000000B8
:1021CC0013000000D0841F4001000000FF0000003D
:1021DC00FF000000000000000000000013000000E1
:1021EC0013000000CC841F4001000000FF00000021
:1021FC00FF00000000000000000000001C000000B8
:10220C00817C01001603550053004200200053004E
:10221C0065007200690061006C0000001803540036
:10222C00650065006E00730079006400750069003C
:10223C006E006F000403090409026200030100C070
:10224C0032080B0002020201000904000001020224
:10225C0001000524001001052401010104240206DB
:10226C000524060001070582031000100904010073
:10227C00020A000000070503024000000705840263
:10228C004000000904020002FF6AFF0007058102FA
:10229C004000010705010240000100000902620034
:1022AC00030100C032080B00020202010009040005
:1022BC0000010202010005240010010524010101A6
:1022CC0004240206052406000107058203100005FC
:1022DC0009040100020A00000007050302000200C5
:1022EC00070584020002000904020002FF6AC7000D
:1022FC00070581020002010705010200020100002E
:0C230C000A060002EF0201400100000080
:1023180000000000000000000000000000000000B5
:1023280000000000000000000000000000000000A5
:10233800F8B54FF084439D695A6915400DD0254F73
:1023480001269D6195FAA5F4B4FA84F457F824306F
:1023580006FA04F49847A543F4D11F4B9D695A69BE
:1023680015400DD01D4F01269D6195FAA5F4B4FACC
:1023780084F457F8243006FA04F49847A543F4D1B6
:10238800174B9D695A6915400DD0164F01269D615E
:1023980095FAA5F4B4FA84F457F8243006FA04F44C
:1023A8009847A543F4D1104B9D695A6915400DD043
:1023B8000E4F01269D6195FAA5F4B4FA84F457F8F6
:1023C800243006FA04F49847A543F4D1BFF34F8F9D
:1023D800F8BD00BF3C3A002000400042BC3A002053
:1023E800008000423C3B002000C00042BC3B002073
:1023F8000548064B1B1AD90F01EBA301491002D05F
:10240800034B03B118477047C0420020C042002068
:102418000000000008B5054B1BB105490548AFF39E
:102428000080BDE80840FFF7E3BF00BF00000000E0
:10243800905C0020000C036000207047704700BFCC
:10244800036D0BB101207047406DC01A18BF012001
:10245800704700BF0346806D80B100B583B001931B
:1024680020F078FC0022019B9A651A6D62B103F195
:10247800180003B05DF804EB0FF046BF1A6D42B1C7
:1024880003F118000FF040BF5A6D002AEFD103B0D6
:1024980000BD5A6D002AF3D1704700BF10B5046D16
:1024A8006CB10BB1002010BD114620460DF0FEFCAA
:1024B8000028F7D02046BDE810400EF0F9B9446D69
:1024C800002CEFD020460BF0BFFB0028EAD02046B6
:1024D800BDE810400CF07ABA8A79A2F150031B06C5
:1024E80028D4D0F850C002F26C7230B54B7985B060
:1024F80091F804E001338C784D78DBB20978BCF1AF
:10250800000F0AD060460194CDF800E0CDE90251F1
:1025180002210EF057F905B030BD406D0028FAD001
:102528000194CDF800E0CDE9025102210CF084F9C4
:1025380005B030BD00207047816D09B1084670476D
:1025480000B583B001904FF4807020F0FBFB019B35
:1025580001469865B8B10022186D0A7040B14FF471
:1025680080720FF025FB019B996D084603B000BDF2
:10257800586D0028F9D04FF4807201930CF058FF81
:10258800019B996DF1E7024A11469A65EDE700BF94
:10259800BA5D00200246006D0B4600B585B040B319
:1025A80001910DF10E0203A90EF0EAF8019B58B350
:1025B800BDF80C20BDF80E1052EA010024D0C1F37A
:1025C800451E01F01F00C90AC2F3431C400083F8EE
:1025D80001E09970510A0CF1FF3C02F01F0201F56D
:1025E800EA611870012083F805C01A71997105B065
:1025F80000BD506D40B10DF10E0203A901930BF01F
:10260800D1F9019B0028D3D1002005B000BD00BF3F
:102618000246006D0B4600B585B040B301910DF13F
:102628000E0203A90EF08AF8019B58B3BDF80C20DE
:10263800BDF80E1052EA010024D0C1F3451E01F086
:102648001F00C90AC2F3431C400083F801E09970D7
:10265800510A0CF1FF3C02F01F0201F5EA61187003
:10266800012083F805C01A71997105B000BD506D3D
:1026780040B10DF10E0203A901930BF081F9019B02
:102688000028D3D1002005B000BD00BF10B50369F4
:1026980082B08DF80710C3B11968114AC968914210
:1026A8000C4615D1186D30B101220DF107010EF05D
:1026B8003DF902B010BD586D0028FAD001220DF185
:1026C80007010CF0F7F902B010BD184602B010BDB2
:1026D80001220DF107011846A04702B010BD00BF46
:1026E80065070000036963B11A68074992698A425D
:1026F80008D1186D08B10DF003BD586D08B10BF085
:1027080017BF70471846104751070000006990B17D
:102718000368154A1B69934225D1036D63B1187884
:1027280010F0080007D0D8695B69C01A48BF6FF07D
:102738000040704718467047436D002BFAD093F855
:10274800310010F00800F6D0186919685A69401A63
:102758005B6862EB0303B0F1004F73F10003EAD347
:102768006FF000407047184709080000036D13B167
:10277800586900217047436D13B1D3E900017047D0
:1027880018461946704700BF036D13B1D869002178
:102798007047436D13B1D3E90401704718461946D1
:1027A800704700BF036D13B118460DF001BB406DB3
:1027B80008B10BF033BA4FF0FF307047026D82B1A9
:1027C800137813F0700F00D1704700B583B0002163
:1027D800019010460DF06AFB019B586D70B903B06B
:1027E80000BD406D0028EFD090F8313013F0500F45
:1027F80003D0002200230BF027BA704700220023E1
:1028080003B05DF804EB0BF01FBA00BF036973B1A6
:102818001A68084952698A4207D1186D08B10DF043
:10282800C7BA586D18B10BF0F9B9184610474FF0F0
:10283800FF30704795040000836C13B118460DF003
:10284800B7BAC06C08B10BF0E9B94FF0FF30704768
:1028580070B59FED297B94B000224FF47A76284D0D
:102868000446183104A88DF80C200095CDE90126FE
:102878008DED127B0FF0ACFD129B002B2FD05C204E
:102888001EF064FA1F4900220646016018300199BB
:1028980040F8142C40F80C1C1B4940F8101C0299F5
:1028A80040F8081C9DF80C1000F8041C04A90FF04F
:1028B800E5FC00224FF47A71B560B265626022735C
:1028C800124AA16022607268266101327260104B60
:1028D80004A800930FF018FD204614B070BD139B98
:1028E800002BCCD1094A237322602361C4E9013645
:1028F800EDE700BFAFF3008000000000000000001B
:10290800A01B0020C41B0020301E0020741B0020C8
:102918003C190020036D13B118460DF05FB9406DE6
:1029280008B10BF0B1B84FF0FF307047836C00B5B9
:1029380083B05BB101220DF1070118460DF04EF985
:1029480001280BD19DF8070003B000BDC06C28B169
:1029580001220DF107010BF097F8F1E74FF0FF3076
:10296800F2E700BF036D33B11B7813F0700F14BF8B
:10297800012000207047406D30B190F8313013F0DD
:10298800500F14BF01200020704700BF03693BB3FC
:1029980018680021144A10B5846882B094428DF8F2
:1029A800071014D1186D48B101220DF107010DF07F
:1029B80015F990B19DF8070002B010BD586D0028B8
:1029C800FAD001220DF107010BF05EF8F1E70122C0
:1029D8000DF107011846A047EBE74FF0FF30EBE792
:1029E8004FF0FF30704700BF050600008A79A2F15A
:1029F80050031B0628D4D0F850C002F26C7230B5D0
:102A08004B7985B091F804E001338C784D78DBB2CE
:102A18000978BCF1000F0AD060460194CDF800E0B7
:102A2800CDE9025104210DF0CDFE05B030BD406D59
:102A38000028FAD00194CDF800E0CDE90251042134
:102A48000BF0FAFE05B030BD00207047836C13B15F
:102A580018460DF055BBC06C08B10BF069BD704746
:102A6800036D13B118460DF04BBB406D08B10BF068
:102A78005FBD7047036D13B118460DF057BF406D29
:102A880008B10CF017B87047836C13B118460DF0F5
:102A98004DBFC06C08B10CF00DB8704700B5836C21
:102AA80083B08DF807103BB101220DF107011846DC
:102AB8000DF03CFF03B000BDC06C0028FAD0012225
:102AC8000DF107010BF0F6FF03B000BD836C53B1A5
:102AD800187810F008000DD0D8695B69C01A48BF93
:102AE8006FF000407047C36CA3B193F8310010F049
:102AF800080000D17047186919685A69401A5B685C
:102B080062EB0303B0F1004F73F10003F2D36FF0EF
:102B1800004070471846EDE7036D53B1187810F080
:102B280008000DD0D8695B69C01A48BF6FF0004033
:102B38007047436DA3B193F8310010F0080000D13D
:102B48007047186919685A69401A5B6862EB030391
:102B5800B0F1004F73F10003F2D36FF000407047FB
:102B68001846EDE70369CBB10D4810B51C68D4F8D9
:102B78000CE086450DD1186D18B1BDE810400DF078
:102B8800D5BE586D18B1BDE810400BF093BF0020BA
:102B980010BD18467346BDE810401847002070471E
:102BA8006507000010B5104B0446806D82B02360A5
:102BB80018B120F0CFF80023A365236D73B104F199
:102BC8001803184601930FF09FFB019B074A18460C
:102BD800A2600FF099FB204602B010BD636D002B78
:102BE800EDD104F11803F1E7C41B00203C190020C3
:102BF80010B5124B0446806D82B0236018B120F0E6
:102C0800A9F80023A365236D93B104F118031846AE
:102C180001930FF079FB019B094A1846A2600FF057
:102C280073FB20465C211EF097F8204602B010BDC9
:102C3800636D002BE9D104F11803EDE7C41B0020F4
:102C48003C19002010B5029994469E4629B10129E5
:102C58001ED002290FD0002010BD046D0CB34FF018
:102C6800FF33934271EB0E03F5D320461146BDE8BE
:102C780010400DF01BB9036D23B3D96989184EF1C3
:102C88000002002AE7D11846BDE810400DF00EB941
:102C9800036D6BB1596989184EF10002002ADAD127
:102CA800F1E7406D0028D6D0BDE810400AF0CCBF4F
:102CB800406D0028CFD0D0E900231CEB020243EB83
:102CC8000E03F1E7406D0028C5D0D0E904231CEBC2
:102CD800020243EB0E03BDE810400AF0B5BF00BF87
:102CE8000269002A66D00B46116830B58968044627
:102CF8003C4887B081425FD1106D00284DD00D222D
:102D080002A901930CF06AFF019B0D284FD1BDF871
:102D18000C20F2EE047A029906EE902ABDF80F20F4
:102D2800196006EE102ABDF91120F8EEE66A9DF842
:102D38000E1007EE102AB8EEC66A9DF81320B8EEFA
:102D4800C77A1972C6EE275A1A759DF814205A7553
:102D5800206986EEA76AC7EE276AC3ED035A83ED9A
:102D6800016AC3ED046A00282ED0046803F1160135
:102D78001C4DA468AC4232D1D0F850C0BCF1000F51
:102D880026D0604601930CF029FF019B5A7D101A4A
:102D9800B0FA80F0400907B030BD506D38B10D224F
:102DA80002A901930AF070FE0D28019BAFD0002004
:102DB80007B030BD00207047104601930D220B4626
:102DC80002A99847019BA0E7B2FA82F04009EFE711
:102DD800406D0028ECD001930AF056FED5E7019328
:102DE800A047D2E70506000036490346026901609C
:102DF800002A50D051680139516000294BD132481E
:102E080010B5146884B0E46A84424AD1906D40B128
:102E18000391CDE901231FF09DFF019A0399029BBD
:102E28009165116D002938D002F1180001930FF057
:102E38006BFA019B1A695AB31168244849688142A0
:102E48003AD12349906D116038B1CDE901231FF0C3
:102E580081FF0021019A029B9165116D31B302F146
:102E6800180103930292084601910FF04DFA019957
:102E7800DDE90223DFF85CC008460293C2F808C007
:102E880001920FF041FA5C2101981DF065FF029B49
:102E9800184604B010BD18467047516D0029C3D1BB
:102EA800C8E701931046A047019BC3E7516D00296D
:102EB800D5D102F11801DDE7019310468847019B3F
:102EC800E6E700BF741B002045010000E108000090
:102ED800C41B00203C1900202F4A036910B5044682
:102EE80082B00260002B3FD05A68013A5A60002A2B
:102EF8003AD119682948C96A814240D1986D30B1E0
:102F0800CDE900321FF026FFDDE900329A651A6D1F
:102F1800002A30D003F118000FF0F6F923691BB32B
:102F28001A681F4952688A4232D11E4A986D1A603F
:102F380028B100931FF00EFF0022009B9A651A6DBE
:102F480002B303F118020193104600920FF0DCF966
:102F5800DDE9002314491046009399600FF0D4F975
:102F68005C2100981DF0F8FE204614211DF0F4FEA7
:102F7800204602B010BD5A6D002ACBD1CEE71846C4
:102F88008847CBE75A6D002ADBD103F11802E1E745
:102F980018469047E8E700BF741B00204501000071
:102FA800E1080000C41B00203C19002038B50824A3
:102FB800FE2107480AF002FC054696201DB91DF0BF
:102FC800EFF9013CF4D1034B28461D7038BD00BF12
:102FD800E4470020B75D0020014B1878704700BF18
:102FE800B75D00200023064A06490748096810B45F
:102FF800064C1360064A23600370116010BC7047CA
:1030080064580020785D0020B65D002060580020DC
:103018005C580020002303480349044A03600B60FE
:10302800137070476058002064580020B65D002077
:10303800014B1868704700BF64580020014B18689E
:10304800704700BF60580020014B1878704700BFD8
:10305800B65D00200449054A08681268044B801AC6
:10306800A3FB003080097047785D00205C58002081
:10307800D34D6210F8B5284D2C68B4F5007F0BD2FB
:10308800264B90F8FF201B6803F10D0C0CEB020691
:10309800B6F5C03F374604D9214B012200201A70EB
:1030A800F8BDF6EE007A90ED407AF2EE045A8C46BE
:1030B800014690ED416AF0EE676A1A4827EE257AD4
:1030C800D1F80C61E0EEA57AE0EE256AC650BDEEB7
:1030D800C77A0344BDEEC66A83F806C017EE100A25
:1030E8001A73FCEEE77A16EE10EAFCEEE66AA3F82D
:1030F800090083F80BE016EE900A988017EE900A04
:10310800A3F8070003F10D001DF086FD0120034B15
:1031180004441F602C60F8BD6458002060580020EB
:10312800B65D0020000020208E4BF0B51D7899B0C8
:103138001DB90025284619B0F0BD024600238A496A
:1031480004A80FF0F1F9169B002B00F023815C20F6
:103158001DF0FCFD0023854A044608A9C0E90023A8
:10316800059A183040F80C2C814A40F8102C069A21
:1031780040F8082C9DF81C2000F8042C0FF07EF86D
:10318800002308A8A365636801336360794B04933F
:103198001E46794BA3600FF0B7F8784B1A692AB12D
:1031A800516801395160002900F088801C6122684B
:1031B8007349126B8A4240F00481226D002A00F0A4
:1031C800CB801C69002CB4D022686E499068884274
:1031D800074640F01681206D002800F0FA8004A907
:1031E800072201930CF0FAFC019B072804D1664AD8
:1031F8000499914200F0F8801C69002C99D022684B
:10320800D26A62498A4240F01981A06D28B10193BF
:103218001FF0A0FD0022019BA265226D002A00F08C
:10322800018104F1180001930FF06EF8019B1D69EC
:103238006C68013C6C60002C3DD12A685349D26A05
:103248008A4240F00A81A86D20B101931FF082FDE7
:10325800019BAC652A6D002A00F0FA8005F1180080
:1032680001930FF051F8019B1C6924B32268484967
:1032780052688A4240F0FD803C4AA06D226028B125
:1032880001931FF067FD0022019BA265226D002AB1
:1032980000F0E88004F11805019328460FF034F88F
:1032A800019B2846A66001930FF02EF85C2120466A
:1032B8001DF052FD019B00221A613AE7116833485C
:1032C800C96A814240F0A980906D38B1CDE90123E7
:1032D8001FF040FD0021019A029B9165116D0029A4
:1032E80000F0968002F1180001930FF00DF8019B91
:1032F8001A69002A2BD0116825484968814240F094
:10330800A2801A49906D116038B1CDE901231FF0F0
:1033180021FD0021019A029B9165116D002900F0A1
:10332800868002F1180103930292084601910EF07B
:10333800EBFF0199DDE902230846966002930192AA
:103348000EF0E2FF01985C211DF006FD029B1C6156
:10335800002C3FF4EEAE2AE7626D002A7FF431AF0D
:10336800E7E600BFB75D0020E8470020C41B002047
:10337800301E00203C190020A01B00209837002098
:1033880031010000050600004C5043414501000092
:10339800E1080000179C002C7FF4D9AE374B08A831
:1033A8001E4604930EF0B0FF354B1A69002A3FF40D
:1033B800C0AE51680139516000293FF47FAF1C61EC
:1033C800B7E6019320469047019B00283FF4B1AE31
:1033D800F7E6606D00283FF413AF04A907220193B4
:1033E8000AF052FB019B00E7BDF8141043F250129B
:1033F80091427FF401AF9DF816200A2A7FF4FCAEB3
:1034080098E6019304A920460722B847019BECE6F9
:10341800516D00297FF466AF6AE70193104688472B
:10342800019B65E7626D002A7FF4FBAEFFE6516DF4
:1034380000297FF476AF02F118017DE70193204659
:103448009047019BF3E6019310468847019B7EE76E
:103458006A6D002A7FF402AF06E701932846904779
:10346800019B01E7626D002A7FF414AF04F118058F
:1034780017E7019320469047019B1CE73C19002061
:1034880098370020F0B52E4C85B02369002B31D039
:103498001A680D4606462B48116B814225D1196DD5
:1034A80059B39268284917468A4232D1186D40B3F9
:1034B8000D2269460CF092FB0D281BD19DF80C20BB
:1034C8002A70BAB12369002B2ED019688C681E495E
:1034D8008C422BD1186D08B331460CF07FFB2B784A
:1034E800181AB0FA80F0400905E01846884708B174
:1034F800236913BB002005B0F0BD596D0029D0D158
:10350800F8E7586D0028F5D00D2269460AF0BCFA94
:10351800D2E718460D226946B847CDE7586D48B13D
:1035280031460AF0B1FADAE71846E4E731461846B8
:10353800A047D4E74FF0FF30D1E71A68B1E700BFE2
:1035480098370020310100000506000010B5484CEE
:1035580082B02369002B60D0196846480A6B824202
:1035680065D1186D00285AD0C96A434A91426BD177
:10357800986D28B100931FF0EDFB0021009B996521
:10358800196D00295CD003F118000EF0BDFE216909
:103598004B68013B4B60002B3DD10868C26A364836
:1035A80082425ED1886D30B1CDE900131FF0D2FBA5
:1035B800DDE900138B650B6D002B4ED001F118006F
:1035C8000EF0A2FE236933B319682C48496881427A
:1035D8004AD12B49986D196028B100931FF0BAFBA6
:1035E8000021009B9965196D002930D003F118015D
:1035F8000193084600910EF087FEDDE90013DFF81D
:1036080084C008460093C3F808C00EF07DFE5C2114
:1036180000981DF0A1FB0023236102B010BD586D76
:103628000028FAD0C96A144A9142A1D00CE0184681
:1036380090470028F1D02369002BEED0196893E752
:10364800596D00299FD1A2E7184688479FE7596D11
:103658000029CBD103F11801D1E74B6D002BADD177
:10366800B0E708469047ADE718468847D3E700BF5C
:10367800983700203101000045010000E1080000F2
:10368800C41B00203C1900207B4A002312782DE936
:10369800F043D1B00B60002A00F0A7800AAD0246C3
:1036A8008946764928460EF03FFFAB6C002B00F0A8
:1036B800A2805C2000271DF049FB714B04460EA92F
:1036C800036018306B6840F8147C40F80C3C6D4B74
:1036D80040F8103CAB6840F8083C2B7B00F8043CF1
:1036E8000EF0CCFD63680EA8A765013306978DF828
:1036F80020706360644BA3604FF47A730793634B45
:103708000593634B2B600EF0FFFD236861491A6B2C
:103718008A4240F09C80226D002A76D09A6A5E49DF
:103728008A4240F01981206D9F6800287DD0C369C6
:10373800C9F80030594B9F4240F0268103A907225F
:1037480001910CF04BFA0199072804D10A68544BEF
:103758009A4200F082802368DB6A524EB34240F0FE
:103768002A81A06D18B11FF0F5FA0023A365236D17
:10377800002B00F01B8104F118000EF0C5FD6568F0
:10378800013D6560002D30D12368DB6AB34249D121
:10379800A06D10B11FF0DEFAA565236D002B00F0B7
:1037A800D68004F118000EF0AFFD23683E4A5B682E
:1037B800934240F0F880324BA06D236018B11FF09F
:1037C800C9FA0023A365236D002B00F0E78004F1FC
:1037D80018000EF099FD2E4B04F11800A3600EF0AE
:1037E80093FD5C2120461DF0B7FA4FF0FF373846AD
:1037F80051B0BDE8F083EB6C002B7FF45AAF244B3B
:103808000EA82B600EF080FDEFE7626D002A85D1CF
:103818006568013D6560002DE7D12368214ADB6AB0
:103828009342B5D020469847BFE7606D002800F066
:10383800A5800369C9F80030184B9F4240F0A48066
:1038480003A9072201910AF01FF901997CE7204694
:1038580090470028DCD0236860E7BDF8102043F2C9
:1038680050139A427FF477AF9DF812300A2B7FF4F9
:1038780072AF00271BE000BFB75D0020E8470020BB
:10388800C41B0020301E0020A01B0020741B002039
:103898003C190020310100007904000005060000F1
:1038A8004C50434145010000E1080000013729461A
:1038B80005A80994FFF714FA03460028F6D12268F0
:1038C800494ED26AB2427DD1A06D20B101931FF05A
:1038D80041FA019BA365236D002B6FD004F11800FA
:1038E8000EF012FD6568013D6560002D7FF47FAF25
:1038F8002368DB6AB3426CD1A06D10B11FF02AFABD
:10390800A565236D002B60D004F118000EF0FCFCB7
:103918002368364A5B68934262D1354BA06D2360B9
:1039280018B11FF017FA0023A365236D002B53D09D
:1039380004F118000EF0E8FC2E4B04F11800A36007
:103948000EF0E2FC5C2120461DF006FA4FE7636D9D
:10395800002B7FF426AF28E7204690472368264AA5
:103968009F68C9F8000097420ED1206D00287FF4A7
:10397800E5AE606D00287FF463AFEDE61E4AC9F836
:10398800000097423FF4E8AE03A9072220460191C0
:10399800B847072801993FF4D9AEDCE6636D002BE0
:1039A8007FF415AF17E7204698471EE7636D002B95
:1039B8007FF4E1AEE3E620469847E0E6636D002B2E
:1039C8008CD18FE7204690478CE7636D002B9BD105
:1039D8009EE7204698479BE7636D002BA8D1ABE78D
:1039E8002046984703E700BF45010000E1080000B2
:1039F800C41B00203C19002005060000764B1B78EC
:103A08000BB9184670472DE9F047D0B0002392460D
:103A180088460AAD0246714928460EF085FDAB6C12
:103A2800002B00F0A7805C2000271DF08FF96C4B5D
:103A380004460EA9036018306B6840F8147C40F8FF
:103A48000C3C684B40F8103CAB6840F8083C2B7BBA
:103A580000F8043C0EF012FC63680EA8A765013359
:103A680006978DF8207063605F4BA3604FF47A73FC
:103A780007935E4B05935E4B2B600EF045FC226866
:103A88005C49136B8B427FD1236D002B33D0936835
:103A980059498B4240F08780206D00287AD003AFC7
:103AA800072239460CF09AF8072804D13A68534B94
:103AB8009A4200F083802268D36A514EB34240F0A4
:103AC8001E81A06D18B11FF045F90023A365236D71
:103AD800002B00F00F8104F118000EF015FC65684A
:103AE800013D6560002D40D12368DB6AB3420FD0E9
:103AF8002046984719E0636D002BC8D16568013DE1
:103B08006560002D31D123683D4ADB6A9342EFD1CD
:103B1800A06D10B11FF01EF9A565236D002B00F0F4
:103B2800DC8004F118000EF0EFFB2368354A5B686F
:103B3800934240F0DC802A4BA06D236018B11FF03F
:103B480009F90023A365236D002B00F0CB8004F155
:103B580018000EF0D9FB264B04F11800A3600EF0F4
:103B6800D3FB5C2120461DF0F7F80023184650B01F
:103B7800BDE8F087EB6C002B7FF455AF1C4B0EA80B
:103B88002B600EF0C1FBF0E7204698470028B5D01F
:103B980022687CE7606D00288ED003AF0722394683
:103BA80009F072FF80E70722204603A998470728F3
:103BB80081D1039A114B9A427FF47DAFBDF8102052
:103BC80043F250139A427FF476AF9DF812300A2BD5
:103BD8007FF471AF00271BE0B75D0020E8470020A5
:103BE800C41B0020301E0020A01B0020741B0020D6
:103BF8003C19002031010000050600004C504341EB
:103C080045010000E1080000474507F101075BD0C6
:103C1800294605A80994FFF763F803460028F3D15D
:103C28002268464ED26AB24270D1A06D28B1019383
:103C38001FF090F80022019BA265226D002A61D036
:103C480004F1180001930EF05FFB019B6568013DCC
:103C58006560002D8AD12268D26AB2425FD1A06D18
:103C680020B101931FF076F8019BA565226D002A0B
:103C780051D004F1180001930EF046FB019B226815
:103C88002F4952688A4253D12E4AA06D226028B12A
:103C980001931FF05FF80022019BA265226D002AA4
:103CA80042D004F1180001930EF02EFB019B019302
:103CB80004F11800244BA3600EF026FB5C2120467B
:103CC8001DF04AF8019B51E7294650464FF48C7283
:103CD80001931CF0A1FF019BA2E7636D002B7FF409
:103CE80020AF22E7636D002B7FF431AF33E7204626
:103CF80098473AE7636D002B7FF4EDAEEFE6204678
:103D08009847ECE6626D002A9AD19FE70193204616
:103D18009047019B9AE7626D002AAAD1AFE7019309
:103D280020469047019BAAE7626D002AB9D1BEE7F9
:103D3800019320469047019B18E700BF450100000A
:103D4800E1080000C41B00203C190020164B1B781A
:103D58000BB900207047154B0246D3F8840400B510
:103D68008FB058B14FF0000C014601236846CDF8DA
:103D780000C00CF0ADFA68B90FB000BDD3F88814D4
:103D880029B10C90012368460AF050FA30B9002096
:103D98000FB000BD68460DF067FAEDE768460AF017
:103DA800ADFA0028F3D0E7E7B75D0020E44700202C
:103DB800104B187880B1104B93F8D00460B1D3F849
:103DC80084245AB193794FF40070D169984001392D
:103DD80080B2A0FB0101704701467047D3F8880400
:103DE8000028F9D0D0F83014D0F83C04A1FB000129
:103DF800704700BFB75D0020E44700206A4B1B787E
:103E0800002B54D0694B93F8D024002A4FD0D3F814
:103E1800841470B582B0002961D088794FF4007C91
:103E2800CA690CFA00FCD3F8900402F1FF3E1FFAAD
:103E38008CFC7246ACFB0E4500287ED001680192CE
:103E4800C96B8847019A594B002833D0D3F890049E
:103E580000285BD001680192096C8847019A534B8E
:103E6800002831D1D3F8900400284FD0016801927E
:103E78004B6C01219847019A4C4B002846D0D3F847
:103E8800840400287CD00EF075F8019A0646474B4A
:103E9800D3F89004002839D0016801924B6C0021B6
:103EA8009847019A414B002830D0921B2EE0002001
:103EB80001467047D3F8841400293ED1D3F88814FA
:103EC800E9B900231A462BE0D3F88404002844D02B
:103ED80001920EF04FF8019A344B121A16E0D3F8FB
:103EE8008814002944D0D1F83024D1F83C04A0FB30
:103EF800020425460446D3F8900400289ED10846BB
:103F080001920BF0DBFC019A284B121AD3F88414A7
:103F1800D9B189794FF400738B409BB2A3FB02326D
:103F2800A34272EB050104D2E01A65EB020102B06C
:103F380070BD0020014602B070BD084601920EF027
:103F480019F8019A194B121AE0E7D3F8883443B3E9
:103F5800D3F83C34A3FB0232E2E7D3F88804002804
:103F6800AFD001920BF0AAFC019A104B121ACDE7C0
:103F7800D3F890040028DCD00A460C460D465DE7CD
:103F8800D3F8881439B1084601920BF097FC019ACE
:103F98000646064B7CE7D3F89004002891D00E46DD
:103FA8007AE71A46BCE700BFB75D0020E447002067
:103FB8002DE9F04F164D9BB02B68002B00F0BB810C
:103FC800144E8246337893B90824FE21124809F02A
:103FD800F5FB0346962043B91CF0E2F9013CF4D105
:103FE800022034701BB0BDE8F08F012333700B4EF4
:103FF800FFF704FF33680733984271F10001C0F0FE
:104008009E810124DFF810804FF0000912E000BF04
:1040180064580020B75D0020E44700206058002065
:10402800CDF818900CF054F9E8B1013442F210734D
:104038009C4218D02346A04A102102A820F0B4FCC4
:10404800D8F88474002302AA06A83946002FE7D1BD
:10405800D8F888143B4602AA06A821B112970AF09C
:10406800E5F80028E1D144F2022302AA934906A800
:104078000EF05AFA189B002B00F0A1815C20002753
:104088001CF064FE079B00F118084760C3600446F3
:104098008B4B0AA9DFF8509203608A4B8360089B18
:1040A80003619DF82430037540460EF0E7F8636815
:1040B800A7650AA801336360834BA360CDF8189005
:1040C8000EF022F92168814A0B6B934240F08281FD
:1040D800236D002B00F03781CB687D4FBB4240F049
:1040E8000582206D002800F07B81072279490CF0B9
:1040F8001DFC072800F07D814FF0000B2168764AEF
:104108008B69934240F09081206D002800F0E38194
:104118000BF0F6FF2168CB6A704A934240F0E381C6
:10412800A06D18B11EF016FE0023A365236D002BA9
:1041380000F0C28140460EF0E7F86768013F67600B
:10414800002F2FD12368654ADB6A934240F0E18152
:10415800A06D10B11EF0FEFDA765236D002B00F0C9
:104168006B8140460EF0D0F823685D4A5B68934245
:1041780040F0F581524BA06D236018B11EF0EAFDA6
:104188000023A365236D002B00F0CC8140460EF080
:10419800BBF84046C4F808900EF0B6F820465C21FB
:1041A8001CF0DAFDBBF1000F00F00581002306A822
:1041B80002AA42490EF0B8F9189B002B00F0818141
:1041C8005C204FF000081CF0C1FD3D4B3D4A00F15A
:1041D800180403600746079B0AA9C0F80480C0E9D1
:1041E8000223089B03619DF82430037520460EF0D6
:1041F80045F8354BC7F858800AA8BB607B6801337F
:104208007B60CDF818900EF07FF83B682F491A6B49
:104218008A4240F081813A6D002A00F012819A6A40
:1042280030498A4240F0C081326802F1070B3A6D8A
:10423800002A00F09C81D2F81C80DB6A274A93424E
:1042480040F09B81B86D18B11EF084FD0023BB655A
:104258003B6D002B00F0868120460EF055F87B68F8
:10426800013B7B60002B4DD13A681C49D26A8A42D7
:1042780040F0C881B86D20B101931EF06BFD019B21
:10428800BB653B6D002B00F0B88120460EF03CF872
:104298003B68134A5B68934240F0BE81084BB86D97
:1042A8003B6018B11EF056FD0023BB653B6D002B2B
:1042B80000F0AB811AE000BFEC080020E8470020BE
:1042C800C41B0020301E0020A01B0020310100006C
:1042D80065070000C41800205107000045010000D0
:1042E800E1080000790400003C19002020460EF087
:1042F8000BF82046C7F808900EF006F838465C21FF
:104308001CF02AFDC34540F0D580BAF1000F00F03B
:104318000E810F2202A9504620F0A2FD984A0023E0
:10432800984912688AF80F3033602B600B70964BEF
:1043380000201A6056E601201BB0BDE8F08F03206C
:104348001BB0BDE8F08F636D002B7FF4C5AE6568C8
:10435800013D6560002D2ED123688C4ADB6A9342AB
:1043680040F0D180A06D10B11EF0F4FCA565236D5E
:10437800002B00F0C38040460DF0C6FF2368844A36
:104388005B68934240F0C280824BA06D236018B1F5
:104398001EF0E0FC0023A365236D002B48D04046A7
:1043A8000DF0B2FF4046C4F808900DF0ADFF5C2157
:1043B80020461CF0D1FC04201BB0BDE8F08F199BEF
:1043C800002B7FF45BAE744B0AA806930DF09CFF9C
:1043D800042007E6204698470028B8D021687BE6E5
:1043E800606DD8B107226D490AF064FB07287FF495
:1043F80083AE21683268CB68BB4240F0E280206D12
:10440800002800F09E8066490CF090FA3368A3EB10
:10441800000BBBFA8BFB4FEA5B1B6FE683468B698D
:10442800604A93423FF477AE20469847216872E687
:10443800636D002BB3D1B5E7636D002B7FF491AEAC
:1044480092E67A6D002A7FF4EAAE7D68013D7D60D0
:10445800002D2FD13B684D4ADB6A934240F0BC8067
:10446800B86D10B11EF076FCBD653B6D002B00F0F9
:10447800A38020460DF048FF3B68454A5B6893429D
:1044880040F0B880434BB86D3B6018B11EF062FC39
:104498000023BB653B6D002B00F0A78020460DF084
:1044A80033FF2046C7F808900DF02EFF5C213846F0
:1044B8001CF052FC052095E5636D002B7FF43AAEA5
:1044C8003BE6199B002B7FF47BAE0AA8CDF8189029
:1044D8000DF01AFFEEE7606D00283FF41CAE0AF0FD
:1044E80027F8216817E62046984726E607222B4931
:1044F8002046984707287FF4FFAD7AE7636D002BC5
:104508007FF439AF3AE72046984737E7204698477F
:1045180051E72046984727E638469047002894D028
:104528003B687CE6636D002B7FF430AE31E6154BBB
:10453800134AC6F800A01268C5F800A083F800A0C6
:10454800F5E6606D00284AD015490AF0B3FA3368D9
:10455800A3EB000BBBFA8BFB4FEA5B1BCEE52046B7
:1045680098471FE67B6D002B7FF476AE77E67A6D71
:10457800002A4FD0D2F810805FE6384698476EE69A
:10458800785D0020B65D00205C58002045010000E1
:10459800E1080000C41B00203C190020C4180020BA
:1045A80000002020510700003846904733688046B5
:1045B80003F1070B3B6840E67B6D002B7FF459AF96
:1045C8005AE71749204698473368A3EB000BBBFA14
:1045D8008BFB4FEA5B1B91E5384698474CE73368FD
:1045E800B3FA83FB4FEA5B1B19E77B6D002B7FF463
:1045F80055AF56E7384698475CE77B6D002B7FF44C
:1046080044AE45E63846904742E67B6D002B7FF482
:104618006DAE6EE6904610E63846984772E600BFE3
:104628000000202000000000044B2DE9F04F1E7808
:10463800A3B02EB9304623B0BDE8F08FB75D002097
:10464800002302908A46A44AA4490EA80DF06CFFE4
:10465800209B002B00F0FF825C2000241CF076FBDE
:104668009F4B054612A903600F9B4460C3609D4B96
:104678009D4F8360109BDFF88C9203619DF8443056
:10468800037500F11803184601930DF0F7FD6B68E8
:1046980012A8AC650133AF60CDF838906B600DF0AF
:1046A80033FE2B6891491A6B8A4240F007832A6DC2
:1046B800002A00F0B581DB6B8D4A934240F00583F8
:1046C80000224FF47A74019912A80E970F928DF870
:1046D800442010949FED7E7B8DED207B0DF078FEBD
:1046E800209B002B00F009835C2000261CF02EFB89
:1046F8007B4B04464660036012A97A4B183040F899
:10470800103C0F9B40F80C3C109B40F8083C9DF86F
:10471800443000F8043C0DF0B1FD6368A760013334
:10472800A665059663604FF47A738DF81C6006934E
:10473800704B0894049312A8CDF838900DF0E4FD5E
:104748000898002800F0C9820026DFF8BC81AB4633
:104758000368664A1B6B934240F02082036D002B6E
:1047680000F09C81B245089C40F38C82002C66D0F6
:104778002368614A5B6B934240F01E82A36D002B55
:1047880000F0418225685D49AA6B8A4240F0278281
:10479800226D002A00F0DB81127812F0700F00F011
:1047A8004B82EB6A434540F0F681A06D18B11EF0CC
:1047B800D1FA0023A365236D002B00F0C38104F117
:1047C80018000DF0A1FD089D6C68013C6C60002C80
:1047D80033D12B68DB6A434540F04782A86D10B19E
:1047E8001EF0B8FAAC652B6D002B00F02F8205F196
:1047F80018000DF089FD089CFCB12368404A5B68ED
:10480800934240F04482364BA06D236018B11EF0ED
:10481800A1FA0023A365236D04F11805002B00F00D
:104828002C8228460DF070FD2846C4F808900DF03B
:104838006BFD20465C211CF08FFA00230893DBF8FF
:1048480000302B4ADB6B934240F0D88100224FF4B2
:104858007A74019912A80E970F928DF8442010943B
:104868009FED1B7B8DED207B0DF0B2FD209B002B77
:1048780000F05C815C2000251CF068FA184B0446A7
:104888004560036012A9174B183040F8103C0F9B85
:1048980040F80C3C109B40F8083C9DF8443000F868
:1048A800043C0DF0EBFC6368A7600133A5650A952D
:1048B80063604FF47A738DF830500B930D4B0D9461
:1048C800099312A8CDF838900DF01EFD1EE000BF28
:1048D8000000000000000000FC080020E84700205D
:1048E800C41B0020301E0020A01B00203101000046
:1048F80041050000741B0020290200005506000035
:10490800E10800003C19002045010000089C002C2B
:1049180038D06568013D6560002D33D12368DB6AB6
:10492800434540F0B181A06D10B11EF013FAA565A2
:10493800236D002B00F09C8104F118000DF0E4FCBD
:10494800089CFCB12368974A5B68934240F0B381A6
:10495800954BA06D236018B11EF0FCF90023A365E8
:10496800236D04F11805002B00F0A08128460DF0F6
:10497800CBFC2846C4F808900DF0C6FC20465C2104
:104988001CF0EAF90D98089000287FF4E1AE5D4626
:104998002B68DB6A434540F0C181A86D18B11EF051
:1049A800D9F90023AB652B6D002B00F0B28101987B
:1049B8000DF0AAFC6C68013C6C60002C7FF43AAEE8
:1049C8002B68DB6A434540F0BC81A86D10B11EF02E
:1049D800C1F9AC652B6D002B00F0858101980DF0B5
:1049E80093FC2B686F4A5B68934240F0B5816E4B2D
:1049F800A86D2B6018B11EF0ADF90023AB652B6DC7
:104A0800002B00F0A18101980DF07EFC0198C5F8FB
:104A180008900DF079FC5C2128461CF09DF909E608
:104A28006A6D002A7FF447AE6C68013C6C60002C0C
:104A38002FD12B685D4ADB6A934240F07781A86DDD
:104A480010B11EF087F9AC652B6D002B00F0698161
:104A580001980DF059FC2B68524A5B68934240F06C
:104A68006D81514BA86D2B6018B11EF073F90023AE
:104A7800AB652B6D002B00F05C8101980DF044FCB8
:104A88000198C5F808900DF03FFC5C2128461CF001
:104A980063F90026304623B0BDE8F08F436D002B44
:104AA8007FF460AE5D46089C414B0493002C3FF4B4
:104AB8006FAF6768013F6760002F7FF469AF2368B5
:104AC800DB6A434540F04581A06D10B11EF042F904
:104AD800A765236D002B00F00B8104F118000DF081
:104AE80013FC089C002C3FF453AF23682D4A5B68E5
:104AF800934240F039812C4BA06D236018B11EF011
:104B080029F90023A365236D04F11807002B00F091
:104B1800268138460DF0F8FB3846C4F808900DF0A9
:104B2800F3FB20465C211CF017F931E7219B002B91
:104B38007FF4A0AE8DF830300D93CDE90A341C4BCC
:104B48000993BEE6636D002B7FF439AE3BE6626DD8
:104B58002AB192F8312012F0500F7FF422AE184695
:104B680004221449039320F03FF9039B00287FF4A3
:104B780018AE1946029B0F2203EB0610013620F0EF
:104B88006FF90022C273002C3FF459AE2568EB6A16
:104B980043453FF40AAE2046984714E69847002854
:104BA80080D0DFE5E1080000C41B002045010000BB
:104BB800741B00200009002020469847089C0346E3
:104BC800002C7FF4DFAD04226A491846039320F0D5
:104BD8000BF900287FF433AE089C039BC9E72046F5
:104BE80003939047089C0028CDD10422614903987B
:104BF80020F0FAF8039B0028C5D1BAE700225946ED
:104C080009A8984782E64FF4807003931EF09AF83B
:104C18000146A065002800F0AA80039B0370206D60
:104C2800002837D04FF480720CF0C2FFA36D089CA7
:104C3800002C7FF4A7ADC6E7184604224D4903931C
:104C480020F0D2F8039B0028A0D192E76B6D002BCF
:104C58007FF4CDADCFE5219B002B7FF4FDAC464B17
:104C680012A80E930DF050FB13E728469847C2E5AB
:104C7800636D002B7FF460AE62E6636D002B7FF4FA
:104C8800D0ADD1E55D460FE72046984758E6204667
:104C98009847D2E5606D20B34FF480720AF0C8FBE4
:104CA800A36D089C002C7FF46DAD8CE7636D002B21
:104CB8007FF45CAE5DE62046984763E62846904759
:104CC80000283FF4B1AE2B68F5E404A80022294679
:104CD8009847089800287FF437AD0646DFF8A48087
:104CE80056E6A36D4EE56B6D002B7FF477AE78E644
:104CF800636D002B7FF4F1AEF3E6219B002B7FF46C
:104D0800F3AC8DF81C300893CDE905341B4B0493A4
:104D180011E56B6D002B7FF44AAE4BE628469847A9
:104D280048E66B6D002B7FF493AE94E628469847CF
:104D380091E66B6D002B7FF4A0AEA1E6284698475C
:104D4800A7E6284698474CE66B6D002B7FF45BAED0
:104D58005CE620469847C4E6284698476AE4636DAF
:104D6800002B7FF4D6AED7E62046984710E6044BD2
:104D7800A36507E5000900203C190020741B0020EA
:104D8800BA5D002045010000024A034903481DF0AE
:104D980021BE00BFB8370020D90A0000983700208C
:104DA800014606201CF00AB910B5054C05482178C3
:104DB80081F00101217011F00DFC207810BD00BFB9
:104DC800AF5D0020D0520020052309220A210148A6
:104DD80014F03EBCD052002008B5012106201BF07B
:104DE80093FB9FED0F0A06201CF04CF9FF210620CB
:104DF8001CF0E4F800234FF4A072F021094814F0E5
:104E0800F5FC0321074814F0BFFA074B0548197849
:104E180011F0E0FB00210348BDE8084011F0CABBCF
:104E280000409C46D0520020AF5D002010B54FF4E2
:104E3800A07386B00022162104462648CDE9001347
:104E4800114611F0D5F94FF4A0724FF4FC612148D6
:104E580011F030FE02221F48114611F01FFE0023F8
:104E6800032204211B4811F0BDFD3CB1204620F06F
:104E78006FF921460246174814F04EF907F024FD51
:104E8800B7EEC00A0C21144A8DED000B0DEB0100A2
:104E98001FF08AFD4FF4A0724FF4BC610D4811F069
:104EA80009FE03A820F054F90023A0EB8001032297
:104EB8000848890001F59E7109B211F093FD03A815
:104EC80020F046F903A90246024814F025F906B075
:104ED80010BD00BFD0520020080900202DE9F04F76
:104EE80097B01C460D4617469DF88430DDF880A023
:104EF800002B40F0F680092C40F3DC80AAF1040B6B
:104F0800A4F1080302227B482BEAEB7B4FF0090946
:104F180011465B45D8BFA4F1090B11F0BFFD14235E
:104F2800D022043FD9441C26059405EB890907EBD8
:104F38008B0705EB8B05CDE9032345E014230021FE
:104F48006C48CDE900314FF4A073002111F050F9FD
:104F580000224FF44871674811F0ACFD0023424627
:104F68000421644811F03EFD2C68002C5ED02046D8
:104F780020F0EEF8214602465E4814F0CDF8786835
:104F880020F0E6F8002200EB40004FF4BC618400FA
:104F9800584811F08FFDC4F59E714246002309B2AE
:104FA800544811F01FFD57F8044F3CB1204620F03B
:104FB800CFF8214602464F4814F0AEF804350BF1FD
:104FC800010B1436A9453BD0721EDA450FFA86F854
:104FD80012B2B3D114234FF4487400214548CDE9E7
:104FE80000344FF4A07311F003F922464AF6E57134
:104FF800404811F05FFD0421002342463D4811F06E
:10500800F1FC296841B10846029120F0A1F8029903
:105018000246384814F080F8786820F099F822465B
:1050280000EB40004AF6E5718400B1E7786820F0AB
:105038008FF8224600EB40004FF4BC618400A7E7DC
:10504800DDE90323059C002500932A484FF4A0734B
:105058002946019511F0CCF801222648114611F095
:105068001DFD0C224FF4A07329462248CDE90025E6
:10507800E42211F0BDF82A464FF448711D4811F09A
:1050880019FD0AF101031C4A402106A800941FF0EB
:105098008BFC2B46E4220421164811F0A3FC06A839
:1050A80020F056F806A90246124814F035F817B051
:1050B800BDE8F08F02220F48114611F0EFFC002CDA
:1050C80004EB840C4FEA8C0C0CF11C0ECCF1C80CD0
:1050D8000FFA8EF20FFA8CF3B5DDA1464FF0000BF4
:1050E8001FE706460021034811F064FA3046FFF72F
:1050F8009DFE00E7D05200201009002070B506463A
:105108000D461A480021144611F054FA3046FFF7AC
:105118008DFE02221548114611F0C0FC00224FF402
:10512800BC61124811F0C6FC6DB13C220621002377
:105138000E4811F057FC284620F00AF82946024686
:105148000A4813F0E9FF7CB15A22062100230748D8
:1051580011F048FC20461FF0FBFF21460246034899
:10516800BDE8704013F0D8BF70BD00BFD05200201A
:105178002DE9F0413D4C8AB04FF0B80802AB05ADBF
:1051880002AF05AE94E807000C3403C31A800FCCB5
:105198000FC523680024002135482B6011F00AFA56
:1051A80037F8025B3F23002221B23148CDE9008560
:1051B80011F01EF801222E48114611F06FFC4FF62F
:1051C800FF7200212A4811F075FCA11C2848002311
:1051D800BC2209B211F006FC56F8045B284635B12A
:1051E8001FF0B6FF29460246214813F095FF4034C8
:1051F800A4B2B4F5A07FD3D102221D48114611F004
:105208004DFC00224FF4FC61194811F053FC0023B7
:10521800C8220421164811F0E5FB0E22154914484E
:1052280013F07AFF01221248114611F037FC0022D0
:105238004FF6FF710E4811F03DFC0023E4220421D3
:105248000B4811F0CFFB0C4B1B783BB109220B49E3
:1052580007480AB0BDE8F04113F05EBF0A220849CA
:1052680003480AB0BDE8F04113F056BF9803002088
:10527800D052002050090020AF5D002038090020DE
:10528800440900202DE9F0432DED048B85B008EE8C
:10529800103AF0EE408A0F469DF85030B0EE609A12
:1052A800F0EE419A91469DF840609DF944509DF872
:1052B8004880002B40F0D7800024C8231C226E4869
:1052C8002146CDE900344FF4A07310F091FF02227B
:1052D8006948114611F0E2FB22464FF4FC6166482A
:1052E80011F0E8FB23461E220621634811F07AFBE1
:1052F80004226249604813F00FFF791C5E481AF0D7
:105308001BFB01225E495C4813F006FF49465A48D8
:105318001AF012FB22464FF4BC61574811F0CAFB41
:1053280001225548114611F0B9FB234636220621C1
:10533800514811F057FB022252494F4813F0ECFE36
:10534800F8EE487A9FED507A02214B4887EE870A9B
:10535800B7EEC00A1AF034FB04224C49464813F051
:10536800DBFEB7EEE80A012143481AF029FB0822C0
:105378004749414813F0D0FE234631460A223E48A9
:105388001AF00EFB032243493B4813F0C5FEB7EE63
:10539800C90A214638481AF013FB2346442206213D
:1053A800354811F01FFB05223B49334813F0B4FE82
:1053B800B7EEE90A214630481AF002FB0B223749BA
:1053C8002D4813F0A9FE29462B481AF0B5FA0A22EF
:1053D8003349294813F0A0FE23460A2241462648AD
:1053E8001AF0DEFAB8F1000F27D0139B56260625CF
:1053F8005F1E03E0A04520D9602C1ED017F8013F9E
:105408000421284A03A81FF0CFFA002329B21A481A
:1054180032B2123511F0E6FA03A81FF099FE03A97B
:1054280002461548013413F077FEB5F5977FE4B2CC
:10543800E0DD0C360625D82EDCDD00224FF448715D
:105448000D4811F037FB0023E42204210A4811F02B
:10545800C9FA21221449084813F05EFE05B0BDECD4
:10546800048BBDE8F08304460021034811F0A2F83C
:105478002046FFF7DBFC1FE7D05200206009002020
:10548800FC0800206809002000007A446C0900200C
:105498007409002080090020840900208C0900205C
:1054A80098090020A4090020AC0900202DE9F0414A
:1054B800054684B00E469046002B5FD1022249482B
:1054C8000024114611F0EAFA102322224821454807
:1054D800CDE90034F82310F08BFE22464FF4FC612E
:1054E800404811F0E7FA2346222248213D4811F0AE
:1054F80079FA234629460A223A481AF051FA8E22A6
:105508004FF4A07321463748CDE900244E2210F00D
:105518006FFE01223348114611F0C0FA22464FF4BB
:10552800BC61304811F0C6FAB8F1000F23D0013E33
:105538005027062516F8013F04212B4A03A81FF01F
:1055480033FA002329B227483AB2123511F04AFA41
:1055580003A81FF0FDFD03A902462248013413F0F9
:10556800DBFDB5F5977FE4B201DD0C370625A045D4
:1055780001D9402CDED104B0BDE8F08100211948E2
:1055880011F018F81948FFF751FC02221548114686
:1055980011F084FA00224FF44871124811F08AFA87
:1055A8000023222206210F4811F01CFA0522104977
:1055B8000C4813F0B1FD01220A48114611F06EFAA9
:1055C80000224FF44871074811F074FA0023402272
:1055D8000621044811F006FA0D220649014813F085
:1055E8009BFD6BE7D0520020A4090020D0090020C1
:1055F800D8090020E00900202DE9F04F824695B037
:10560800002967D10222AAF1030857481F2411462E
:1056180088F3020811F042FA544B554E03EB8809FF
:1056280026E00027CDE9005710F0E2FD3A464FF496
:10563800BC614D4811F03EFA0E213B465A464A4895
:1056480011F0D0F931460222474813F065FD59F8A8
:10565800045B284635B11FF07BFD294602464248C7
:1056680013F05AFD1A3408F10108A4B2D52C24D03D
:1056780004F1030CD0454FF018054FF4A0733A48D5
:105688004FF0000122B20FFA8CFBCAD118234FF455
:105698004875CDE900354FF4A07310F0A9FD2A46EE
:1056A8004AF6E571304811F005FA0E215A460023F2
:1056B8002D4811F097F92F49C5E700210B204FF429
:1056C800A0732246CDE90001274810F091FD15B0DE
:1056D800BDE8F08F00214FF44874234810F06AFFAA
:1056E8002548FFF7A3FB4FF4A0730094DC220021A8
:1056F8001D4810F08DFC01221B48114611F0CEF90F
:1057080021460022184811F0D5F90023E22204218D
:10571800154811F067F907F0FBF807F005F9054699
:1057280007F0D8F8044607F0DBF8B7EEC00A8DEDAD
:10573800060B07F0DBF8064607F0DEF82B460F4AA3
:10574800302100949DED060BCDE9046008A88DED8D
:10575800020B1FF029F908A81FF0FAFC08A9024655
:10576800014813F0D9FC4DE7D052002084080020EE
:10577800C00B0020F0090020F4090020FC090020DB
:105788002DE9F04F044685B093460E46002B40F0B5
:10579800CC80092E40F39A80ABF10407A6F10803E8
:1057A80002224FF0120827EAE777D225114663480C
:1057B800BB42D8BFA6F10907092611F06FF906EB1D
:1057C800070A4FF01D0904EB0A1A04EB0714CDE988
:1057D8000258B84625E00026CDE9007610F008FD0D
:1057E80032464FF4BC61554811F064F9062133463E
:1057F8002A46524811F0F6F8514902224F4813F050
:105808008BFC204634B11FF0A3FC214602464B48CE
:1058180013F082FC103408F1010809F11409544509
:1058280024D009F10105C3454FF014074FF4A073C4
:1058380042484FF000010FFA89F22DB2CBD1142360
:105848004FF44877CDE900374FF4A07310F0D0FC3F
:105858003A464AF6E571394811F02CF906212A46EC
:105868000023364811F0BEF83649C6E7DDE902588C
:1058780000244FF4A0732A4630482146CDF8008012
:10588800019410F0B5FC01222C48114611F006F9DC
:105898000C204FF4A0732146E422CDE900042748E8
:1058A80010F0A6FC22464FF44871244811F002F982
:1058B8002346E4220421214811F094F81F222249AA
:1058C8001E4805B0BDE8F04F13F026BC02221B4865
:1058D800114611F0E3F8A6B932464FF4487117485B
:1058E80011F0E8F81E2206211448334611F07AF820
:1058F8000D221649114813F00FFC4FF0B20832255B
:10590800B6E7012EB046B8BF4FF00108002E08EBED
:1059180088084FEA880808F11E05C8F1C6082DB2A4
:105928000FFA88F8E9DD002749E70021034810F05D
:1059380041FE0748FFF77AFA2BE700BFD052002054
:10594800C00B0020F0090020380A0020280A002097
:105958001C0A002070B5064682B0002947D10222F1
:10596800002410254748114611F098F8F0235622D4
:1059780006214448CDE9005410F03AFC22464FF481
:10598800BC61404811F096F82346562206213D484E
:1059980011F028F806F0B0FF01463A4819F0CCFF9C
:1059A8000D223949374813F0B7FB782370226C2150
:1059B8003448CDE9005410F01BFC22464FF4BC617A
:1059C800304811F077F8234670226C212D4811F0E9
:1059D80009F8314623460A222A4819F0E1FF012234
:1059E8002A49284802B0BDE8704013F095BB002151
:1059F800244810F0DFFD2648FFF718FA0322214853
:105A0800114611F04BF800224FF478411D4811F06F
:105A180051F8002328221E211A4810F0E3FF05221E
:105A28001C49184813F078FB02221648114611F059
:105A380035F800224FF44871124811F03BF8002362
:105A4800702206210F4810F0CDFF082212490D4898
:105A580013F062FB01220B48114611F01FF80022D7
:105A68004FF47841074811F025F80023CE2206218B
:105A7800044810F0B7FF11220849024813F04CFB04
:105A88006DE700BFD0520020840A0020940A00204D
:105A9800580A00205C0A0020640A0020700A0020CE
:105AA80070B50D4682B0164623BB02224C4800242E
:105AB800114610F0F3FF1022F82348214848CDE999
:105AC8000024422210F094FB22464FF4FC61444823
:105AD80010F0F0FF234642224821414810F082FF8F
:105AE80023460A2229463E4819F05AFF002E36D18D
:105AF80002B070BD00210446394810F05BFD3948FA
:105B0800FFF794F902223648114610F0C7FF002229
:105B18004FF4BC61324810F0CDFF00232222062149
:105B28002F4810F05FFF002C56D020461FF010FBC6
:105B3800024621462A4813F0EFFA002342220621A2
:105B4800274810F04FFF00224FF44871244810F006
:105B5800B1FF05222449224813F0DEFAA5E7032203
:105B680022491F4813F0D8FA234631460A221C4816
:105B780019F016FF4FF448710E224FF49A73184823
:105B8800CDE900216222062110F000FF07EE905AAD
:105B98009FED176A0C23F8EE676A07EE906A009388
:105BA8004AF6E570F8EE677A6322019007210C48FF
:105BB80086EEA77A67EE067AFDEEE77A17EE903A58
:105BC800B3F5997FA8BF4FF4997323EAE3731BB227
:105BD80010F00EFB02B070BD0122064CA9E700BF11
:105BE800D05200209C0A0020D8090020A40A0020D6
:105BF80000009943980A00202DE9F04F2DED048B01
:105C080085B016469846F0EE408A9DF85830B0EEBA
:105C1800609AF0EE419A8146B0EE618A0F46DDF84F
:105C280048A09DF85440DDE913B20392002B40F0E0
:105C38002181D42300251C2292482946CDE900352C
:105C48004FF4A07310F0D4FA02228E48114610F0D7
:105C580025FFB9F1000F00F0E9802A464FF4FC61F6
:105C6800884810F027FF2B461E220621854810F091
:105C7800B9FEB7EEE80A0221824819F0A1FE032214
:105C88008149804813F048FAB7EEC90A03217D48D4
:105C980019F096FE03227D497A4813F03DFA022155
:105CA800B7EEE90A774819F08BFE01227849754862
:105CB80013F032FA00224FF4BC61724804EB8404FA
:105CC80010F0F8FE0023362206216E4804EB840407
:105CD80010F088FE04226F496A4813F01DFAB7EEE7
:105CE800C80A0121674819F06BFE08226A4965480D
:105CF80013F012FA694BA1006248A3FB0131C909EC
:105D080019F01AFE012266495E4813F005FA002FC1
:105D180078D000224FF4FC615A4810F0CBFE0023E3
:105D28004C220621574810F05DFE06225D49554871
:105D380013F0F2F903225C49524813F0EDF93EB131
:105D480030461FF005FA314602464E4813F0E4F992
:105D5800B8F1000F7CD000224FF4BC61494810F024
:105D6800A9FE002362220621464810F03BFE0322CA
:105D78004E49444813F0D0F900230A2259464148B5
:105D880019F00EFE01224A493E4813F0C5F90A22CD
:105D9800039900233B4819F003FE0222454939487C
:105DA80013F0BAF900224FF44871364810F082FE19
:105DB800002378220621334810F014FE09223E49B8
:105DC800304813F0A9F951462E4819F0B5FD0122C3
:105DD8002C48114610F062FE00224FF44871294801
:105DE80010F068FE0023E4220421264810F0FAFD92
:105DF80008223249234805B0BDEC048BBDE8F04FBA
:105E080013F08AB93A464FF478411E4810F052FE12
:105E18003B464C2206211B4810F0E4FD062221498E
:105E2800184813F079F90522254985E74A464FF4C1
:105E38007841144810F03EFE4B461E2206211148B8
:105E480010F0D0FD13221F490E4813F065F931E711
:105E580042464FF478410B4810F02CFE434662222C
:105E68000621084810F0BEFD0E221749054813F018
:105E780053F997E70021034810F09CFB1348FEF7FD
:105E8800D5FFD6E6D0520020BC0A0020C00A002068
:105E9800C40A0020DC0A0020E40A002081808080F7
:105EA800F00A0020140B0020A80A0020000B002094
:105EB800FC08002000130020F40A00202C09002010
:105EC800AC0A0020C80A0020040B0020B40A0020F5
:105ED8002DE9F04300248BB0984612234FF44877FD
:105EE80006460D46594821469146DE22CDE9003442
:105EF8004FF4A07310F07CF94FF4A073DD22214613
:105F08005248009710F084F801225048114610F0CA
:105F1800C5FDA04540F3898009F101034C4A1C21C5
:105F280003A8CDF800801EF03FFD394622464748B9
:105F380010F0C0FD2346E0220221444810F052FD33
:105F480003A81FF005F903A90246404813F0E4F836
:105F580003A81FF0FDF802234FF006024AF6E57188
:105F680010FB02372246394810F0A4FD2346E022F0
:105F780039B2364810F036FD3EB130461FF0E8F829
:105F880031460246314813F0C7F8012231492F48FB
:105F980013F0C2F830461FF0DBF8013000224FF44E
:105FA800FC6100EB400007EB4004284810F082FD3C
:105FB8000023E11CE022254809B210F013FD3DB191
:105FC80028461FF0C5F829460246204813F0A4F8D1
:105FD800129B0BB11B7813B90BB0BDE8F083129B71
:105FE80018211D4A03A81EF0DFFC03A81FF0B0F813
:105FF800044600224FF4FC61144810F05BFD0023B6
:1060080004EB4401E02211484900C1F59F7109B22F
:1060180010F0E8FC03A81FF09BF803A902460B4800
:1060280013F07AF80BB0BDE8F083224639460748EA
:1060380010F040FD2346E0220221044810F0D2FC73
:106048000B220649014813F067F8C1E7D052002037
:106058001C0B0020EC090020300B0020240B002032
:106068002DE9F0472DED028B82B01E46B0EE408A36
:1060780080469DF8383089461746DDF830A00D9DDA
:10608800002B40F0D680142300241E228848214685
:10609800CDE900344FF4A07310F0AAF80222844826
:1060A800114610F0FBFC002E40F0B180002F00F0EC
:1060B8009A8032464FF4FC617D4810F0FBFC2022A8
:1060C80006217B48334610F08DFC11227949784827
:1060D80013F022F80222002410267548114610F009
:1060E800DDFCF2233A224E217148CDE9006410F01C
:1060F8007FF822464FF4FC616D4810F0DBFC234624
:106108003A224E216A4810F06DFC234641460A2285
:10611800674819F045FCF22350224E216448CDE926
:10612800006410F065F822464FF4BC61604810F036
:10613800C1FC234650224E215D4810F053FC2346F3
:1061480049460A225A4819F02BFC01225A49584854
:1061580012F0E2FFF22366224E215548CDE9006491
:1061680010F046F822464FF4BC61514810F0A2FCEA
:10617800234666224E214E4810F034FCB7EEC80A7A
:1061880001214B4819F01CFC04224C49484812F0E4
:10619800C3FFF2237C224E214548CDE9006410F06C
:1061A80027F822464FF44871414810F083FC2346F3
:1061B8007C224E213E4810F015FC35B364202A4657
:1061C8002346AAFB00011CF00BFC0146384819F0D5
:1061D800B3FB01223A49364802B0BDEC028BBDE858
:1061E800F04712F099BF3A464FF47841304810F022
:1061F80061FC3B46202206212D4810F0F3FB0E22BD
:1062080030492B4812F088FF64E72946DEE722462A
:106218004FF47841264810F04DFC234620220621F1
:10622800234810F0DFFB12222749214812F074FF9F
:1062380050E700211E4810F0BDF92448FEF7F6FD8E
:1062480002221B48114610F029FC00224FF4487125
:10625800174810F02FFC00233A220621144810F0AA
:10626800C1FB05221A49124812F056FF002350229A
:1062780006210F4810F0B6FB052216490C4812F00B
:106288004BFF002366220621094810F0ABFB0522CC
:106298001149074812F040FF00237C2206210448D8
:1062A80010F0A0FB04220D49014812F035FFEAE680
:1062B800D0520020840B0020940A0020100D0020EA
:1062C800F00A0020740B0020600B0020380B00201F
:1062D800400B0020480B0020500B0020580B0020DA
:1062E8002DE9F04F2DED088B83B09A46F0EE40AAC9
:1062F80083469DF85830B0EE60BA0F469046149D1C
:10630800DDF85490002B40F06C8107EE907AF0EEA7
:106318006ABAB8EEE78AE8EE0BBA17B3642606FB4A
:106328000AF696FBF7F6002412231622B9482146EE
:10633800CDE900344FF4A0730FF05AFF0122B5489D
:10634800114610F0ABFB234618220621B14810F085
:1063580049FB6B1E032B00F25081DFE803F0AFA36B
:106368001C043E46DFE700224FF47841A94810F0AC
:10637800A1FBB9F1000F00F03C8199F80030002B27
:1063880000F0378148461EF0E3FE02464946A14820
:1063980012F0C2FE13E000224AF6E5719D4810F0A3
:1063A80089FB0A229C499B4812F0B6FE3946994857
:1063B80019F0C2FA04229949964812F0ADFEA423B6
:1063C8004FF44872062193480024CDE900324FF477
:1063D8009A73302210F0DAFAA223312207218D486D
:1063E800CDE900344FF499730FF002FFA74240F350
:1063F80090804FF49976A5F101099FED89AA0BF1D8
:10640800FF35B9FA89F9DFED879A9FED879A4FEA48
:106418005919DFED868A96FBF7F6022EB8BF0226D9
:10642800013E36B215E0A2454FF4487E6EDCB9F164
:10643800000F6BD0CCF1D3020FFA8CFC0134334639
:1064480009B2744812B2CDE900CE0FF0D1FEA742CE
:106458005FD015F9013F07EE904A06EE903AF8EE44
:10646800E77AF8EEE66A87EE887A76EEA96AC6EEEB
:10647800897A27EE0A7ABDEEC77A17EE101A67EE08
:10648800A87A0731FDEEE77A17EE90CABCF1A20FA1
:10649800A8BF4FF0A20CA0452CEAEC7CC3D14AF669
:1064A800E57EC7E700224FF448715A4810F002FB16
:1064B80007225F49574812F02FFE80E707EE90AA9F
:1064C800F0EE6A8A00224FF4FC61F8EEE77A514850
:1064D800E7EE8B8A10F0EEFA0C2256494D4812F07E
:1064E8001BFE01214B48B7EEE80A19F069FA0222AF
:1064F8005149484812F010FE3146464819F01CFA36
:1065080001224E49434812F007FE58E74FF4FC6E4B
:1065180090E7012200240A253E48114610F0BEFAF1
:1065280000224FF4BC613B4810F0C4FA2C23D72258
:1065380006213848CDE900540FF05AFE2346D722E9
:106548000621344810F04EFAB7EEEA0A0121314824
:1065580019F036FA2C23D7224FF48A712D48CDE949
:1065680000540FF045FE2346D7224FF48C7129487A
:1065780010F038FAB7EEEB0A0121264819F020FA94
:10658800A023D7226E212348CDE900540FF030FE16
:10659800A04504DA03B0BDEC088BBDE8F08F2246B5
:1065A8004AF6E5711B4810F085FA2346D7226E217A
:1065B800184810F017FA05222149164812F0ACFDC8
:1065C80007EE908A02211348F8EEE77AE7EE8BAAE5
:1065D800B7EEEA0A03B0BDEC088BBDE8F04F19F03E
:1065E800EFB900210B480FF0E5FF1648FEF71EFC37
:1065F8008BE60522DFF85490C8E600224FF4487174
:10660800044810F057FA21220F49024812F084FD7D
:10661800D5E600BFD0520020B80B0020C40B0020E4
:1066280000009943000000430000C44200002243D8
:10663800CC0B0020A80B0020C00B0020F00A002083
:10664800F80B0020A00B0020D40B0020980B002092
:106658002DE9F043994680460E4615462DED028BEE
:10666800B0EE408A85B0F0EE608A002B40F04A8197
:10667800022200241027BF48114610F00FFAF22317
:106688001C224E21BB48CDE900740FF0B1FD224613
:106698004FF4FC61B74810F00DFA23461C224E2136
:1066A800B44810F09FF923460A224146B14819F030
:1066B80077F9002D41D1E02332226021AD48CDE9A0
:1066C80000750FF095FD2A464FF4FC61A94810F0BB
:1066D800F1F932222B466021A64810F083F92946A9
:1066E800B7EEC80AA34819F06BF90422A249A148D9
:1066F80012F012FDB9F1000F04D105B0BDEC028B08
:10670800BDE8F08302229B48114610F0C7F92B46DA
:1067180054220621974810F065F92A464FF448712B
:10672800944810F0C7F90C229449924805B0BDEC82
:10673800028BBDE8F04312F0EFBC22464FF44871DB
:106748008C4810F0B7F923461C22AA21894810F07A
:1067580049F905228A49874812F0DEFCB7EEE80AB3
:106768000121844819F02CF901228649814812F048
:10677800D3FCE023322260217E48CDE900740FF07B
:1067880037FD22464FF4FC617A4810F093F9322223
:1067980023466021774810F025F92146B7EEC80A4C
:1067A800744819F00DF904227349724812F0B4FCC8
:1067B800002EA2D0744B1A6842459ED094214822DC
:1067C8006C480194C3F800804FF4A07300912146EF
:1067D8000FF00EFD02226748114610F05FF92346BC
:1067E8004A220621634810F0FDF822464FF4FC6166
:1067F800604810F05FF9052264495E4812F08CFC8D
:1068080096ED400A21465B48B7EEC00A19F0D8F861
:1068180004225949574812F07FFC2346602206217A
:10682800544810F0DFF822464FF4BC61514810F08C
:1068380041F9052256494F4812F06EFC96ED410A7F
:1068480001214C48B7EEC00A19F0BAF803225149A1
:10685800484812F061FC234676220621454810F08C
:10686800C1F822464FF44871424810F023F9042237
:106878004949404812F050FC0A22234696F8FF1076
:106888003C4819F08DF896F81021002A67D00122AB
:106898003848114610F002F900224FF4BC6135481F
:1068A80010F008F996F8FF30002B3FF426AF0024CB
:1068B8008C27062502E0302B3FF41FAF335D0421FF
:1068C800364A03A81EF070F8002329B229483AB2C4
:1068D800123510F087F803A81EF03AFC03A9024607
:1068E800244812F019FC0134B5F5977FE3B204DDB2
:1068F8000C370625D22F3FF700AF96F8FF209A42B3
:10690800D9D8FAE600211B480FF054FE2448FEF7B8
:106918008DFA02221748114610F0C0F800224FF4F1
:106928004871144810F0C6F800231C2206211148AB
:1069380010F058F805221B490E4812F0EDFB002311
:10694800322206210B4810F04DF806221649094854
:1069580012F0E2FB0C4B4FF0FF321A6088E64FF45E
:106968007841044810F0A6F806221049014812F0B0
:10697800D3FB8CE7D0520020180C00203C0C0020E0
:10698800100C0020940A0020AC3700208409002055
:10699800200C0020280C00202C0C0020A40900202A
:1069A800000C0020400B0020080C0020340C0020B4
:1069B8002DE9F04FC5B006460DF1E00A03AC1E21E3
:1069C8006FF0170019F022FB44F8040F5445F6D174
:1069D80000214E480FF0EEFD01224C48114610F000
:1069E8005DF84B4BD3F800801B68A3EB08039E426D
:1069F80050D94FF0000B03AD0027CDE9028612E015
:106A0800B8F1EF0F4DD9EF2E7CD9B8F5987F2C60EF
:106A180005DD00216FF0170019F0F8FA28605545D8
:106A280007F106071DD055F8044FE6000134A6F11A
:106A38005002A6F10808EF2AE2D808230FFA87F9CE
:106A480012B23248009349460623CDF804B00FF03D
:106A5800CFFBB8F1EF0F26DD554507F106072C608F
:106A6800E1D12C4B2C4859682C4B1A6840F6AC5392
:106A7800A0FB0202920CDDE9028603FB02F2254B21
:106A88005B685B1A9A42FAD8214B1B68A3EB080390
:106A9800B342B0D300211D4845B0BDE8F04F0FF018
:106AA80089BD0FFA87F900224FF44871174810F092
:106AB80001F800230FFA88F2494614480FF092FFB4
:106AC8005E2019F06BFA00F121011048C9B212F0EA
:106AD80023FCEF2EC0D800224AF6E5710B480FF0D0
:106AE800E9FF494632B2002308480FF07BFF5E20D9
:106AF80019F054FA00F121010448C9B212F00CFC53
:106B08002C608CE70FFA87F9E5E700BFD052002028
:106B1800785D0020001000E083DE1B43C4310020B4
:106B280000220449044808B518F024FC034B00224D
:106B38001A8008BD40420F00C8320020945D002032
:106B48002DE9F84305468D4E8D4F8E4818F030FBE1
:106B580003468C48002B51D018F07AFB40F256229D
:106B6800C0B20D2818BF0A280CBF4FF001084FF01B
:106B7800000833D13C78002C47D13388002BE4D06F
:106B8800002281488149C4542C706C60AA60A5F821
:106B98000B4134801EF09AF9064678B320467C49AA
:106BA8001EF094F9044600285AD00378092B01D026
:106BB800202B05D114F8013F202BFBD0092BF9D04D
:106BC800744930461EF0ECF820BB012320462B7098
:106BD8001CF0B4F868604046BDE8F88333880121AA
:106BE800694C934203EB01020DD8E05465483280AA
:106BF80018F0DEFA03466348002BADD14FF00008C9
:106C08004046BDE8F88339709FE700235B4A3B7034
:106C180013809AE7604930461EF0C2F8B8B15F4960
:106C280030461EF0BDF8A0B15D4930461EF0B8F8F8
:106C3800002840F00D81042320462B701CF07AF8C0
