:0200000460009A
:100000004643464200000156000000000101020084
:1000100000000000000000000000000000000000E0
:1000200000000000000000000000000000000000D0
:1000300000000000000000000000000000000000C0
:1000400000000000010406010000000000000000A4
:100050000000800000000000000000000000000020
:100060000000000000000000000000000000000090
:100070000000000000000000000000000000000080
:10008000EB04180AFF1E04320126000000000000E5
:100090000000000000000000000000000000000060
:1000A0000000000000000000000000000000000050
:1000B0000000000000000000000000000000000040
:1000C0000000000000000000000000000000000030
:1000D0000000000000000000000000000000000020
:1000E0000000000000000000000000000000000010
:1000F0000000000000000000000000000000000000
:1001000000000000000000000000000000000000EF
:1001100000000000000000000000000000000000DF
:1001200000000000000000000000000000000000CF
:1001300000000000000000000000000000000000BF
:1001400000000000000000000000000000000000AF
:10015000000000000000000000000000000000009F
:10016000000000000000000000000000000000008F
:10017000000000000000000000000000000000007F
:10018000000000000000000000000000000000006F
:10019000000000000000000000000000000000005F
:1001A000000000000000000000000000000000004F
:1001B000000000000000000000000000000000003F
:1001C000000100000010000001000000000000001D
:1001D000000001000000000000000000000000001E
:1001E000000000000000000000000000000000000F
:1001F00000000000000000000000000000000000FF
:10020000FFFFFFFFFFFFFFFFFFFFFFFFFFFFFFFFFE
:10021000FFFFFFFFFFFFFFFFFFFFFFFFFFFFFFFFEE
:10100000D1002043F1150060000000000000000046
:10101000201000600010006000D40260000000009A
:101020000000006000E0020000000000FFFFFFFF82
:10103000FFFFFFFFFFFFFFFFFFFFFFFFFFFFFFFFC0
:10104000FFFFFFFFFFFFFFFFFFFFFFFFFFFFFFFFB0
:10105000FFFFFFFFFFFFFFFFFFFFFFFFFFFFFFFFA0
:10106000FFFFFFFFFFFFFFFFFFFFFFFFFFFFFFFF90
:10140000824205D051F8043B40F8043B8242F9D8AF
:10141000704700BF044A05494FF0000342F8043BFF
:101420009142FBD8704700BFC03E002040580020CA
:1014300008B5BFF34F8F00F047F9544C544B0820C8
:101440005449C3F85401544AC3F800115348C3F82F
:10145000F0405349FFF7D4FF524A53495348FFF72E
:10146000CFFF534CFFF7D6FF4FF470004FF0E02151
:101470000023504AC1F8880D44F823200133B02BD3
:10148000FAD14D4B80214D4A03F8011B9342FBD109
:101490004FF0E0254A4E4B4A4FF0FF31C5F8084D5A
:1014A000D5F8243D43F4E023C5F8243DF36923F047
:1014B0007F0343F04003F361736A23F07F0343F03B
:1014C000400373629166D1661167516700F004F9B9
:1014D0003D4A3E4BA2636322E36300246A61032317
:1014E0003B4AAC612B61C5F8202DD5F8FC2D394B5A
:1014F00042F080723849C5F8FC2D1A6842F00102AA
:101500001A605B680B6000F0B7FA344800F060FCCA
:10151000F16E334B334A41F44051F1661C60C3F81D
:101520000841C3F81841C3F82841C3F83841936B08
:10153000DB0708D442F615632B4951651365936B9D
:1015400043F001039363274A284C936843F0011347
:10155000936000F04FF900F0FBFB00F031FC00F06D
:10156000BDFA00F0B3F82368132BFCD900F052FB4E
:101570002368B3F5967FFBD300F0ACF800F0A8F831
:1015800000F01AFC00F030FC30BFFDE70C0D111329
:1015900000800D401B101820B871020000000000F0
:1015A00098200060C03E002054920260000000209D
:1015B000003C00201DCC010000E400E0A0E400E0BD
:1015C00000C00F4000C00A4041AF010045AF01001C
:1015D00000002020001000E0C05700200046C32378
:1015E0000040084000400D400000C056C457002095
:1015F000054B4FF42A01054A05485A641864054A08
:1016000099639546FFF714FF00C00A40FFABAAAAF2
:101610000700200000800520294A00210123C2F88C
:10162000A000C2F8A410C2F8B0305369D907FCD5A5
:1016300001234FF4803C22495361C2F8A000C2F854
:10164000A4C0C2F8B0304B69DB07FCD501234FF4CE
:10165000003C1B4A4B61C1F8A000C1F8A4C0C1F80E
:10166000B0305369D907FCD50123DFF858C01449BD
:101670005361C2F8A000C2F8A4C0C2F8B0304B69F0
:10168000DB07FCD5D1F8003145F60D504FF0210CA9
:101690009AB2C1F814C0824210D045F69D518A42D8
:1016A0000AD1C3F34253032B08D0A3F10403B3FAC6
:1016B00083F35B09180170470020704708207047CA
:1016C00000402A4004000300704700BF704700BF7D
:1016D000704700BF00BF70474FF0E02300214FF07C
:1016E000100C3448C3F8941DC3F89CCD4FF0110C76
:1016F000C3F8A00D3048C3F89CCD4FF0120CC3F8CE
:10170000A00D2E48C3F89CCD2D4AC3F8A00DDFF8DC
:10171000D0C042F015022B48C3F89CCDC3F8A00DF1
:10172000DFF8C0C02848C3F89CCDC3F8A00DDFF88F
:10173000B8C0C3F89C2D2548254AC3F8A0CDC3F8EE
:101740009C0DC3F8A02D02F5A022DFF8A0C00C323A
:101750002048C3F89CCDC3F8A02D1F4AC3F89C0DA8
:10176000C3F8A02D02F14062DFF884C002321B48AA
:10177000C3F89CCDC3F8A02D0A32C3F89C0DC3F862
:10178000A02D00BF00BF00BF00BF00BF0122C3F8F3
:10179000942DBFF34F8FBFF36F8FC3F8501FBFF36C
:1017A0004F8FBFF36F8FD3F8142D42F44032C3F83C
:1017B000142D70473F000010250008070900100095
:1017C00040580020210002072500081316002020A1
:1017D00027000B13180000602F000B071A00008071
:1017E0001300200014000020090000101700004022
:1017F0001900007030B5864B85B0DFF874E218220E
:10180000844D0120C3F85CE28349C3F86052A5F51A
:101810008055DFF860C2814CC3F864E2C3F86852B7
:101820002125C3F86CC2C3F870C2C3F874C2C3F8F0
:1018300078C248F20C7CDA661A675A679A67DA67E8
:10184000C3F88020C3F88420C3F88820C1F82C0393
:10185000734AC1F83003C1F83403C1F83803C1F842
:101860003C03C1F85003A1696E4B0A406E486F49B2
:1018700013436F4AA361D4F8843043F00C03C4F8D7
:1018800084304FF0FF34036843F0020303600368C1
:1018900003EA0C031A43674B026044608A68664C93
:1018A0001340664A43F000538360C36823F0780313
:1018B000C360036A23401A43604B0262026A2240FB
:1018C0005F4C1343002243628462C46240F20564A9
:1018D000D1F8B83023F03F0343F00103C0F8B8302B
:1018E000D1F8BC30574923F03F0343F00103C0F85F
:1018F000BC3002610567C0F880404567C0F884408D
:101900000224036823F00203036081614E4B4F49B8
:10191000C46143F8042B8B42FBD1434C236843F052
:1019200001032360256815F00105FBD1454802221B
:1019300040F2F561A06140F29940E26140F26642F6
:10194000C4F8001242F20141C4F81022404AC4F81F
:101950002002C4F8302240F23542C4F834123D4827
:10196000C4F840223C4AC4F850022846C4F8542225
:1019700042F201223949C4F86012C4F86422FFF728
:101980004BFE0246002839D0810201234FF480200B
:1019900021662549C4F8A050C4F8A400C4F8B030AA
:1019A0004B69D807FCD515050124039228464C61E4
:1019B000FFF732FE039A2A4B0244D2B21A7080B16A
:1019C000194980024FF4802348660846C1F8A050A8
:1019D000C1F8A430C1F8B0404369DB07FCD501234E
:1019E000436120490024204801230094401A00EB61
:1019F00002521E4800F0F0F905B030BD1B4B1849EB
:101A000018600870D860C3E9010005B030BD00BFA0
:101A100000801F40F910010000841F4000C00F40EB
:101A2000FFFCFF1F0003008000402A4000802A4086
:101A30001200FFFFFF37F70000FFF07C400000803E
:101A4000FF000F83F05AF05A00422A4000432A4018
:101A50009F041830EB06180A063201263806180AC9
:101A60000658002000000070000000704C57002055
:101A7000F9B00100F970010010B5174A4FF4805415
:101A80004FF4005E4FF4404C4FF4803043F242017B
:101A9000136913F0020F0DD113F4005F0FD013F48C
:101AA000805F0FD0002BF3DA13F4803F0CD15B067C
:101AB0000ED510BDC2F818C050619161E8E7C2F8B8
:101AC00014E0E5E75461E3E74FF480339361DFE727
:101AD00040235361DCE700BF00800D40414A0320F2
:101AE0004149F3EE095AD2F880309FED406A23F065
:101AF00001039FED3F5ADFF814C100B5C2F88030F2
:101B0000C2F89000D1F8E010DFF804E1CBB2394818
:101B1000CEF8003007EE903A0B0DC1F30B21F8EE32
:101B2000E77A06EE903A07EE101A334BB8EEC77A12
:101B3000CCF80010F8EEE66A304937EEC66A37EEA8
:101B4000C55A76EEC76A77EEE57A26EE266AC3EDC9
:101B5000006A25EE265AD2F8803067EEA64AC0ED1C
:101B6000007AC6EE275A264885EE276AC4EEA76A91
:101B700075EE875AFCEEE55A36EE076A15EE90CA06
:101B8000BCEEC66A43EA0C5376EE877AC2F8803020
:101B900016EE103AD2F890C1FCEEE77A01EA034162
:101BA00041EA0C014FF0000C17EE903AC2F8901188
:101BB000C3F30B03D2F890110B431249C2F89031D2
:101BC000D2F8803043F00203C2F880300E4B80F828
:101BD00040C0C1F840314FF0E0230122C3F8082192
:101BE00000BD00BF00810D4000441F400000AA421C
:101BF0000000B442B4570020B85700200000FF0F87
:101C000000E400E0003C002001CE0100AC570020C1
:101C1000B0570020314B40F6617210B5C3F8202157
:101C200040F2044400F0D0F82D4A2E49D2F880301A
:101C30002D4843F00303C2F880302C4BC1F86041BB
:101C400002681A4203D1D1F8A8319A071BD0254A5D
:101C50004FF00041244B5963D2F8403143F0020366
:101C6000C2F84031D2F840319B07FBD44FF400302A
:101C70004FF0E0211C4B4FF00042C1F88C021920BC
:101C80009A6300F0ADF8184B0021164C4FF08042DB
:101C90000A209A634FF420721960C4F8A80114480E
:101CA00000F086F84FF4800203464FF4810040F2C2
:101CB00043111860C4F858311A640E4B0E4AC4F828
:101CC0004811C3F804224FF0E0224FF40031012301
:101CD000C2F80C11C4F8403110BD00BF00800D40A7
:101CE00000C00F4000002E4000900D40001C1E0060
:101CF00000000020003C002005D0010008B50E4B7C
:101D00001B6E9B0700D4FBBE72B60C4B00200C4A26
:101D1000C3F8400103F160430A49A3F55F2311644E
:101D20009D46BFF34F8F4FF40013074A0748DB6906
:101D300002609B68984700BF00441F4000002E408F
:101D400000C00A4003002000000012EB00802020A9
:101D50000F4B40F2376C0F4AA020D96E41F440314E
:101D6000D966D96E41F44071D966C2F844C0906416
:101D7000936C1B06FCD4084A40F23761A0235164DF
:101D80009364936C13F08003FBD1044A1370704783
:101D900000C00F4000400C4000800C40055800205F
:101DA000F8B500BFF8BC08BC9E46704700000000B4
:101DB0005FF800F0610302005FF800F075060200B2
:101DC0005FF800F005CB01005FF800F071D701006B
:101DD0005FF800F065BE01005FF800F0F1E201007D
:101DE0005FF800F079C101005FF800F0A5C50100BF
:101DF00005010000811F0000CD1F00004D7E000086
:101E0000018F0000C99D0000355701002593010096
:0C1E1000F5AB010051BD010075E20100BE
:101E1C006CC00F40030000000E0D0000D98F0000B5
:101E2C002A3600001400000013000000010000001E
:101E3C00F4841F402B32000014000000130000003B
:101E4C0001000000F8841F402D3100001400000038
:101E5C001300000001000000F0841F402CFFFF0065
:101E6C001400000000000000000000000100000051
:101E7C0000000000EC841F40000000000000000087
:101E8C006CC00F4030000000100F0000D98F000014
:101E9C0001270000170000001200000000010000E4
:101EAC0014851F401AFF0000120000000000000003
:101EBC000100000018851F401BFF000012000000ED
:101ECC00000000000100000010851F400026FF00EC
:101EDC0017000000120000000000000001010000CB
:101EEC00010000000C851F400C851F400000000005
:101EFC006CC00F40C0000000504F0000AD900000BF
:101F0C000CFF0000130000000000000000000000A7
:101F1C0024851F400BFF0000130000000000000090
:101F2C000000000028851F400DFF0000130000007A
:101F3C00000000000000000020851F400A2524003E
:101F4C001300000012000000120000000102030048
:101F5C000000000000000000000000000000000075
:101F6C00090180961180FF3A81550A3601082A042E
:101F7C00000000F02B040000014021800A13800AAD
:101F8C002980FF0016035500530042002000530027
:101F9C0065007200690061006C00000018035400B9
:101FAC00650065006E0073007900640075006900BF
:101FBC006E006F000403090409026200030100C0F3
:101FCC0032080B00020202010009040000010202A7
:101FDC00010005240010010524010101042402065E
:101FEC0005240600010705820310001009040100F6
:101FFC00020A0000000705030240000007058402E6
:10200C004000000904020002FF6AFF00070581027C
:10201C0040000107050102400001000009026200B6
:10202C00030100C032080B00020202010009040087
:10203C000001020201000524001001052401010128
:10204C00042402060524060001070582031000057E
:10205C0009040100020A0000000705030200020047
:10206C00070584020002000904020002FF6AC7008F
:10207C0007058102000201070501020002010000B0
:0C208C000A060002EF0201400100000003
:102098000000000000000000000000000000000038
:1020A8000000000000000000000000000000000028
:1020B800F8B54FF084439D695A6915400DD0254FF6
:1020C80001269D6195FAA5F4B4FA84F457F82430F2
:1020D80006FA04F49847A543F4D11F4B9D695A6941
:1020E80015400DD01D4F01269D6195FAA5F4B4FA4F
:1020F80084F457F8243006FA04F49847A543F4D139
:10210800174B9D695A6915400DD0164F01269D61E0
:1021180095FAA5F4B4FA84F457F8243006FA04F4CE
:102128009847A543F4D1104B9D695A6915400DD0C5
:102138000E4F01269D6195FAA5F4B4FA84F457F878
:10214800243006FA04F49847A543F4D1BFF34F8F1F
:10215800F8BD00BF8C380020004000420C39002038
:10216800008000428C39002000C000420C3A002058
:102178000548064B1B1AD90F01EBA301491002D0E1
:10218800034B03B118477047C03E0020C03E0020F3
:102198000000000008B5054B1BB105490548AFF321
:1021A8000080BDE80840FFF7E3BF00BF0000000063
:1021B8005C57002000E0026000207047704700BFB5
:1021C800036D0BB101207047406DC01A18BF012084
:1021D800704700BF0346806D80B100B583B001939E
:1021E8001EF024F90022019B9A651A6D62B103F171
:1021F800180003B05DF804EB0EF050BB1A6D42B145
:1022080003F118000EF04ABB5A6D002AEFD103B053
:1022180000BD5A6D002AF3D1704700BF10B5046D98
:102228006CB10BB1002010BD114620460CF008F926
:102238000028F7D02046BDE810400CF003BE446DDE
:10224800002CEFD0204609F0C9FF0028EAD020462C
:10225800BDE810400AF084BE8A79A2F150031B063B
:1022680028D4D0F850C002F26C7230B54B7985B0E2
:1022780091F804E001338C784D78DBB20978BCF131
:10228800000F0AD060460194CDF800E0CDE9025174
:1022980002210CF061FD05B030BD406D0028FAD078
:1022A8000194CDF800E0CDE9025102210AF08EFD3B
:1022B80005B030BD00207047816D09B108467047F0
:1022C80000B583B001904FF480701EF0A7F8019B11
:1022D80001469865B8B10022186D0A7040B14FF4F4
:1022E80080720DF02FFF019B996D084603B000BD69
:1022F800586D0028F9D04FF4807201930BF062FBFF
:10230800019B996DF1E7024A11469A65EDE700BF16
:10231800045800200246006D0B4600B585B040B356
:1023280001910DF10E0203A90CF0F4FC019B58B3C6
:10233800BDF80C20BDF80E1052EA010024D0C1F3FC
:10234800451E01F01F00C90AC2F3431C400083F870
:1023580001E09970510A0CF1FF3C02F01F0201F5EF
:10236800EA611870012083F805C01A71997105B0E7
:1023780000BD506D40B10DF10E0203A9019309F0A3
:10238800DBFD019B0028D3D1002005B000BD00BFB4
:102398000246006D0B4600B585B040B301910DF1C2
:1023A8000E0203A90CF094FC019B58B3BDF80C2055
:1023B800BDF80E1052EA010024D0C1F3451E01F009
:1023C8001F00C90AC2F3431C400083F801E099705A
:1023D800510A0CF1FF3C02F01F0201F5EA61187086
:1023E800012083F805C01A71997105B000BD506DC0
:1023F80040B10DF10E0203A9019309F08BFD019B79
:102408000028D3D1002005B000BD00BF10B5036976
:1024180082B08DF80710C3B11968114AC968914292
:102428000C4615D1186D30B101220DF107010CF0E1
:1024380047FD02B010BD586D0028FAD001220DF1F9
:1024480007010AF001FE02B010BD184602B010BD27
:1024580001220DF107011846A04702B010BD00BFC8
:1024680065070000036963B11A68074992698A42DF
:1024780008D1186D08B10CF00DB9586D08B10AF003
:1024880021BB70471846104751070000006990B1FA
:102498000368154A1B69934225D1036D63B1187807
:1024A80010F0080007D0D8695B69C01A48BF6FF000
:1024B8000040704718467047436D002BFAD093F8D8
:1024C800310010F00800F6D0186919685A69401AE6
:1024D8005B6862EB0303B0F1004F73F10003EAD3CA
:1024E8006FF000407047184709080000036D13B1EA
:1024F800586900217047436D13B1D3E90001704753
:1025080018461946704700BF036D13B1D8690021FA
:102518007047436D13B1D3E9040170471846194653
:10252800704700BF036D13B118460BF00BBF406D29
:1025380008B109F03DBE4FF0FF307047026D82B11F
:10254800137813F0700F00D1704700B583B00021E5
:10255800019010460BF074FF019B586D70B903B0E1
:1025680000BD406D0028EFD090F8313013F0500FC7
:1025780003D00022002309F031BE70470022002357
:1025880003B05DF804EB09F029BE00BF036973B11D
:102598001A68084952698A4207D1186D08B10BF0C8
:1025A800D1BE586D18B109F003BE184610474FF058
:1025B800FF30704795040000836C13B118460BF088
:1025C800C1BEC06C08B109F0F3BD4FF0FF307047D1
:1025D80070B59FED297B94B000224FF47A76284D90
:1025E8000446183104A88DF80C200095CDE9012681
:1025F8008DED127B0EF0B6F9129B002B2FD05C20CC
:102608001CF0BAF81F4900220646016018300199EB
:1026180040F8142C40F80C1C1B4940F8101C029977
:1026280040F8081C9DF80C1000F8041C04A90EF0D2
:10263800EFF800224FF47A71B560B26562602273D8
:10264800124AA16022607268266101327260104BE2
:1026580004A800930EF022F9204614B070BD139B15
:10266800002BCCD1094A237322602361C4E90136C7
:10267800EDE700BFAFF3008000000000000000009D
:10268800641D0020881D0020F41F0020381D002034
:10269800001B0020036D13B118460BF069BD406D97
:1026A80008B109F0BBBC4FF0FF307047836C00B530
:1026B80083B05BB101220DF1070118460BF058FDFC
:1026C80001280BD19DF8070003B000BDC06C28B1EC
:1026D80001220DF1070109F0A1FCF1E74FF0FF30ED
:1026E800F2E700BF036D33B11B7813F0700F14BF0E
:1026F800012000207047406D30B190F8313013F060
:10270800500F14BF01200020704700BF03693BB37E
:1027180018680021144A10B5846882B094428DF874
:10272800071014D1186D48B101220DF107010BF003
:102738001FFD90B19DF8070002B010BD586D00282C
:10274800FAD001220DF1070109F068FCF1E7012236
:102758000DF107011846A047EBE74FF0FF30EBE714
:102768004FF0FF30704700BF050600008A79A2F1DC
:1027780050031B0628D4D0F850C002F26C7230B552
:102788004B7985B091F804E001338C784D78DBB251
:102798000978BCF1000F0AD060460194CDF800E03A
:1027A800CDE9025104210CF0D7FA05B030BD406DD7
:1027B8000028FAD00194CDF800E0CDE902510421B7
:1027C8000AF004FB05B030BD00207047836C13B1DC
:1027D80018460BF05FBFC06C08B10AF073B97047B8
:1027E800036D13B118460BF055BF406D08B10AF0E0
:1027F80069B97047036D13B118460CF061BB406DA1
:1028080008B10AF021BC7047836C13B118460CF06C
:1028180057BBC06C08B10AF017BC704700B5836C91
:1028280083B08DF807103BB101220DF1070118465E
:102838000CF046FB03B000BDC06C0028FAD00122A2
:102848000DF107010AF000FC03B000BD836C53B121
:10285800187810F008000DD0D8695B69C01A48BF15
:102868006FF000407047C36CA3B193F8310010F0CB
:10287800080000D17047186919685A69401A5B68DE
:1028880062EB0303B0F1004F73F10003F2D36FF072
:10289800004070471846EDE7036D53B1187810F003
:1028A80008000DD0D8695B69C01A48BF6FF00040B6
:1028B8007047436DA3B193F8310010F0080000D1C0
:1028C8007047186919685A69401A5B6862EB030314
:1028D800B0F1004F73F10003F2D36FF0004070477E
:1028E8001846EDE70369CBB10D4810B51C68D4F85C
:1028F8000CE086450DD1186D18B1BDE810400CF0FC
:10290800DFBA586D18B1BDE810400AF09DBB002031
:1029180010BD18467346BDE81040184700207047A0
:102928006507000010B5104B0446806D82B0236027
:1029380018B11DF07BFD0023A365236D73B104F16D
:102948001803184601930DF0A9FF019B074A184682
:10295800A2600DF0A3FF204602B010BD636D002BEE
:10296800EDD104F11803F1E7881D0020001B0020B9
:1029780010B5124B0446806D82B0236018B11DF06B
:1029880055FD0023A365236D93B104F11803184680
:1029980001930DF083FF019B094A1846A2600DF0D0
:1029A8007DFF20465C211BF0EDFE204602B010BDE5
:1029B800636D002BE9D104F11803EDE7881D0020B1
:1029C800001B002010B5029994469E4629B10129A2
:1029D8001ED002290FD0002010BD046D0CB34FF09B
:1029E800FF33934271EB0E03F5D320461146BDE841
:1029F80010400BF025BD036D23B3D96989184EF13A
:102A08000002002AE7D11846BDE810400BF018BDB7
:102A1800036D6BB1596989184EF10002002ADAD1A9
:102A2800F1E7406D0028D6D0BDE8104009F0D6BBCC
:102A3800406D0028CFD0D0E900231CEB020243EB05
:102A48000E03F1E7406D0028C5D0D0E904231CEB44
:102A5800020243EB0E03BDE8104009F0BFBB00BF04
:102A68003649034602690160002A50D0516801398D
:102A7800516000294BD1324810B5146884B0E46A1B
:102A880084424AD1906D40B10391CDE901231DF0F4
:102A9800CDFC019A0399029B9165116D002938D0EC
:102AA80002F1180001930DF0F9FE019B1A695AB35F
:102AB80011682448496881423AD12349906D1160D0
:102AC80038B1CDE901231DF0B1FC0021019A029B28
:102AD8009165116D31B302F1180103930292084612
:102AE80001910DF0DBFE0199DDE90223DFF85CC0FE
:102AF80008460293C2F808C001920DF0CFFE5C218F
:102B080001981BF03FFE029B184604B010BD184602
:102B18007047516D0029C3D1C8E701931046A047FB
:102B2800019BC3E7516D0029D5D102F11801DDE7FA
:102B3800019310468847019BE6E700BF381D002037
:102B480045010000E1080000881D0020001B00204E
:102B58002F4A036910B5044682B00260002B3FD0AB
:102B68005A68013A5A60002A3AD119682948C96A4C
:102B7800814240D1986D30B1CDE900321DF056FC4C
:102B8800DDE900329A651A6D002A30D003F1180089
:102B98000DF084FE23691BB31A681F4952688A42E4
:102BA80032D11E4A986D1A6028B100931DF03EFC80
:102BB8000022009B9A651A6D02B303F11802019373
:102BC800104600920DF06AFEDDE900231449104614
:102BD800009399600DF062FE5C2100981BF0D2FD15
:102BE800204614211BF0CEFD204602B010BD5A6DC0
:102BF800002ACBD1CEE718468847CBE75A6D002A82
:102C0800DBD103F11802E1E718469047E8E700BF77
:102C1800381D002045010000E1080000881D002043
:102C2800001B002008B5FE21024809F091F8024B6C
:102C3800187008BDE443002001580020014B1878A3
:102C4800704700BF015800208A4B2DE9F0411F78DA
:102C580096B0002F00F095800124874E08E002937B
:102C68000BF000FEE8B1013442F210739C4218D018
:102C78002346824A102182481FF002FAD6F884546B
:102C88007F4A02A800232946002DE8D1D6F88814E7
:102C98002B467B4A02A821B10E9509F091FD002828
:102CA800E1D144F20223764A764902A80DF006FFE4
:102CB800149B002B00F094805C2000251BF05CFD29
:102CC800039B714A0446C36006A9049B6F4E0361C7
:102CD8009DF81430C0E900256D4A183000F8043C0E
:102CE80040F8102C0DF094FD63686A4A06A8013379
:102CF800A565A2606360684B984602930DF0CEFD0F
:102D08003569002D42D06B68013B6B60002B3DD1CB
:102D18002B68624ADB6A934240F09E80A86D18B126
:102D28001DF084FB0023AB652B6D002B00F08F801A
:102D380005F118000DF0B2FD356905B32B68584A46
:102D48005B68934240F092804F4BA86D2B6018B19E
:102D58001DF06CFB0023AB652B6D002B7FD005F1BC
:102D68001803184601930DF099FD019B1846C5F804
:102D780008800DF093FD5C2128461BF003FD3461AB
:102D88002CB90027384616B0BDE8F08134612368B5
:102D9800444A1B6B93423CD1236D002B35D03369D9
:102DA800BBB11A684049D4688C4244D1186D0028D8
:102DB8003AD007223D490CF083F833694BB11A68C1
:102DC8003B4992698A423FD1186D002826D00BF002
:102DD80061FC384B002238461A6016B0BDE8F08115
:102DE800159C002C7FF468AF2B4B06A8274E9846FD
:102DF80002930DF053FD3569002DC2D06B68013B7D
:102E08006B60002B84D03461BBE7636D002BC6D1A7
:102E1800B7E7204698470028B3D0C0E7586D002888
:102E2800D7D009F04FFED4E7586D48B107221F49A3
:102E38000AF00AF9C1E7072218461C49A047BCE76F
:102E480092691B498A42E9D018469047C1E76B6DE1
:102E5800002B7FF46DAF6FE7284698476CE76B6DE2
:102E6800002B7FF47CAF05F118037FE728469847CD
:102E780085E700BF01580020E4430020A408002093
:102E880024530020E8430020881D0020D43500206A
:102E9800F41F0020641D0020001B002045010000D5
:102EA800E10800003101000065070000881A0020D1
:102EB8005107000034530020004870472453002075
:102EC800F0B5A64D89B02B698DF80F10002B00F0D6
:102ED800D9801A680446A249126B8A4240F0C5801C
:102EE8001A6D002A00F0D180F6EE007A94ED407A4F
:102EF800F2EE045AD4ED416AD4F80C21B0EE676AB8
:102F080094F8FF10E0EEA57A079227EE257A8DF85F
:102F18001510A0EE256AFDEEE66ABDEEC77AFCEE56
:102F2800E77A16EE902A17EE101ABCEEC66A8DF8EC
:102F38001420ADF81A1017EE902A16EE101AADF8F4
:102F48001820ADF81610002B00F086801A68854E00
:102F5800D268B242174640F0F780186D002800F09A
:102F68009980042207A90BF0ABFF2B69002B73D0C3
:102F78001A68D268B242174640F01081186D0028CE
:102F880000F0D38002220DF116010BF099FF2B6996
:102F9800002B61D01A68D268B242174640F0F88018
:102FA800186D002800F0B08001220DF10F010BF020
:102FB80087FF2B69002B4FD01A68D268B242174698
:102FC80040F0E180186D002800F0A780022206A9D1
:102FD8000BF076FF2B69002B3ED01A68D268B242FC
:102FE800174640F0CA80186D002800F0848002223D
:102FF8000DF11A010BF064FF2B69002B2CD01A6815
:10300800D268B242174640F0B380186D00286AD0E3
:10301800012205A90BF054FF2B69EBB11A68D2689D
:10302800B242174640F08A80186D002852D001221B
:103038000DF115010BF044FF2B699DF815205BB1CC
:103048001968C968B1420F4640F08380186D00289E
:1030580039D021460BF034FF434A1368013313601B
:103068001B0720D0012009B0F0BDCDED020A18469B
:103078008DED010A90479DED010ADDED020A002859
:1030880040F0A780002009B0F0BD5A6D002A7FF4F7
:103098002BAFF7E7586D00283FF470AF042207A95B
:1030A80009F0D2FF61E72B69002BDBD01A682F49A2
:1030B80092698A4240F08F80186D002800F0828063
:1030C8000BF0E8FACEE7586D0028C5D0214609F084
:1030D800BBFFC1E7586D002870D001220DF1150122
:1030E80009F0B2FFA8E7586D002861D0012205A9B0
:1030F80009F0AAFF90E7586D002855D002220DF17B
:103108001A0109F0A1FF77E7586D002852D0012273
:103118000DF10F0109F098FF4BE7586D002845D0D5
:10312800022206A909F090FF54E7586D002843D001
:1031380002220DF1160109F087FF28E7184601223F
:103148000DF11501B84777E71846042207A9B847D3
:103158000BE721461846B8477EE700BFD435002064
:1031680031010000650700003453002051070000BA
:103178001846012205A9B8474EE7184602220DF164
:103188001A01B84738E71846022206A9B84721E7C6
:10319800184601220DF10F01B8470AE71846022226
:1031A8000DF11601B847F2E62B6928E72B6914E7F9
:1031B8002B6933E72B69FFE62B69EBE69DF81520B1
:1031C8002B693DE7586D00283FF44CAF09F07AFCB5
:1031D80048E72B6988E61846904743E710B5534CF3
:1031E80082B0206900286CD0036851491A6B8A4262
:1031F80074D1026D002A69D09B694E4A93427ED1F0
:10320800036D002B72D018460BF044FA2369002B8B
:1032180057D01A684849D26A8A427AD1986D28B13B
:1032280000931DF003F90022009B9A651A6D002A8D
:1032380061D003F118000DF031FB22695368013B9E
:103248005360002B3BD111683B48C96A814267D162
:10325800906D30B1CDE900231DF0E8F8DDE90023D9
:103268009365136D002B57D002F118000DF016FB73
:10327800236923B31A68314952688A4253D1304AC4
:10328800986D1A6028B100931DF0D0F80022009BB9
:103298009A651A6D002A36D003F118020193104678
:1032A80000920DF0FBFADDE9002326491046009351
:1032B80099600DF0F3FA5C2100981BF063FA002383
:1032C8002361214B00221A7002B010BD426D002A02
:1032D800F7D09B69174A934292D010E09047002894
:1032E800EFD020690028ECD0036885E7406D40B135
:1032F80009F0E8FB8AE75A6D002A9AD19DE79847BA
:1033080084E7236985E75A6D002AC5D103F11802BD
:10331800CBE71846904790E7536D002BA4D1A7E759
:1033280010468847A4E718469047C8E7D4350020D8
:10333800310100005107000045010000E1080000CC
:10334800881D0020001B0020245300208E4BF0B560
:103358001D7899B01DB90025284619B0F0BD024660
:1033680000238A4904A80DF0A9FB169B002B00F046
:1033780023815C201BF000FA0023854A044608A933
:10338800C0E90023059A183040F80C2C814A40F80F
:10339800102C069A40F8082C9DF81C2000F8042CE4
:1033A8000DF036FA002308A8A3656368013363604B
:1033B800794B04931E46794BA3600DF06FFA784B56
:1033C8001A692AB1516801395160002900F08880D2
:1033D8001C6122687349126B8A4240F00481226D95
:1033E800002A00F0CB801C69002CB4D022686E49FA
:1033F80090688842074640F01681206D002800F04A
:10340800FA8004A9072201930AF0B2FE019B07285B
:1034180004D1664A0499914200F0F8801C69002C96
:1034280099D02268D26A62498A4240F01981A06D17
:1034380028B101931CF0FAFF0022019BA265226DBE
:10344800002A00F0018104F1180001930DF026FA1A
:10345800019B1D696C68013C6C60002C3DD12A6899
:103468005349D26A8A4240F00A81A86D20B101937B
:103478001CF0DCFF019BAC652A6D002A00F0FA8085
:1034880005F1180001930DF009FA019B1C6924B39A
:103498002268484952688A4240F0FD803C4AA06D43
:1034A800226028B101931CF0C1FF0022019BA26594
:1034B800226D002A00F0E88004F1180501932846DF
:1034C8000DF0ECF9019B2846A66001930DF0E6F992
:1034D8005C2120461BF056F9019B00221A613AE74D
:1034E80011683348C96A814240F0A980906D38B1AB
:1034F800CDE901231CF09AFF0021019A029B9165F6
:10350800116D002900F0968002F1180001930DF06A
:10351800C5F9019B1A69002A2BD01168254849680A
:10352800814240F0A2801A49906D116038B1CDE90E
:1035380001231CF07BFF0021019A029B9165116D0C
:10354800002900F0868002F11801039302920846D0
:1035580001910DF0A3F90199DDE90223084696606F
:10356800029301920DF09AF901985C211BF00AF977
:10357800029B1C61002C3FF4EEAE2AE7626D002A24
:103588007FF431AFE7E600BF01580020E843002090
:10359800881D0020F41F0020001B0020641D00204F
:1035A800E835002031010000050600004C50434179
:1035B80045010000E1080000179C002C7FF4D9AEFB
:1035C800374B08A81E4604930DF068F9354B1A6965
:1035D800002A3FF4C0AE51680139516000293FF418
:1035E8007FAF1C61B7E6019320469047019B0028F6
:1035F8003FF4B1AEF7E6606D00283FF413AF04A9BD
:103608000722019308F00AFD019B00E7BDF814109A
:1036180043F2501291427FF401AF9DF816200A2A16
:103628007FF4FCAE98E6019304A920460722B84728
:10363800019BECE6516D00297FF466AF6AE70193C0
:1036480010468847019B65E7626D002A7FF4FBAE50
:10365800FFE6516D00297FF476AF02F118017DE78E
:10366800019320469047019BF3E601931046884753
:10367800019B7EE76A6D002A7FF402AF06E701939B
:1036880028469047019B01E7626D002A7FF414AF3A
:1036980004F1180517E7019320469047019B1CE7A2
:1036A800001B0020E8350020F0B52E4C85B02369BA
:1036B800002B31D01A680D4606462B48116B814203
:1036C80025D1196D59B39268284917468A4232D1D3
:1036D800186D40B30D2269460AF04AFD0D281BD12A
:1036E8009DF80C202A70BAB12369002B2ED01968D6
:1036F8008C681E498C422BD1186D08B331460AF0EC
:1037080037FD2B78181AB0FA80F0400905E0184602
:10371800884708B1236913BB002005B0F0BD596D77
:103728000029D0D1F8E7586D0028F5D00D22694658
:1037380008F074FCD2E718460D226946B847CDE771
:10374800586D48B1314608F069FCDAE71846E4E7F5
:1037580031461846A047D4E74FF0FF30D1E71A6842
:10376800B1E700BFE8350020310100000506000080
:1037780010B5484C82B02369002B60D019684648C0
:103788000A6B824265D1186D00285AD0C96A434A2B
:1037980091426BD1986D28B100931CF047FE00212F
:1037A800009B9965196D00295CD003F118000DF094
:1037B80075F821694B68013B4B60002B3DD10868C7
:1037C800C26A364882425ED1886D30B1CDE90013B5
:1037D8001CF02CFEDDE900138B650B6D002B4ED021
:1037E80001F118000DF05AF8236933B319682C4811
:1037F800496881424AD12B49986D196028B10093D4
:103808001CF014FE0021009B9965196D002930D029
:1038180003F118010193084600910DF03FF8DDE926
:103828000013DFF884C008460093C3F808C00DF001
:1038380035F85C2100981AF0A5FF0023236102B037
:1038480010BD586D0028FAD0C96A144A9142A1D017
:103858000CE0184690470028F1D02369002BEED0E1
:10386800196893E7596D00299FD1A2E71846884740
:103878009FE7596D0029CBD103F11801D1E74B6DB2
:10388800002BADD1B0E708469047ADE7184688470A
:10389800D3E700BFE83500203101000045010000F2
:1038A800E1080000881D0020001B00200000000027
:1038B800044B2DE9F04F1E78A3B02EB9304623B043
:1038C800BDE8F08F01580020002302908A46A44AE0
:1038D800A4490EA80DF0F2F8209B002B00F0FF82FF
:1038E8005C2000241AF048FF9F4B054612A903608C
:1038F8000F9B4460C3609D4B9D4F8360109BDFF816
:103908008C9203619DF84430037500F11803184642
:1039180001930CF07DFF6B6812A8AC650133AF60B2
:10392800CDF838906B600CF0B9FF2B6891491A6B91
:103938008A4240F007832A6D002A00F0B581DB6BCC
:103948008D4A934240F0058300224FF47A7401991E
:1039580012A80E970F928DF8442010949FED7E7B4D
:103968008DED207B0CF0FEFF209B002B00F00983DF
:103978005C2000261AF000FF7B4B0446466003607B
:1039880012A97A4B183040F8103C0F9B40F80C3CB9
:10399800109B40F8083C9DF8443000F8043C0CF0BB
:1039A80037FF6368A7600133A665059663604FF427
:1039B8007A738DF81C600693704B0894049312A8D0
:1039C800CDF838900CF06AFF0898002800F0C982FA
:1039D8000026DFF8BC81AB460368664A1B6B93423E
:1039E80040F02082036D002B00F09C81B245089CBA
:1039F80040F38C82002C66D02368614A5B6B93424B
:103A080040F01E82A36D002B00F0418225685D49BD
:103A1800AA6B8A4240F02782226D002A00F0DB81DF
:103A2800127812F0700F00F04B82EB6A434540F0B9
:103A3800F681A06D18B11CF0F9FC0023A365236D75
:103A4800002B00F0C38104F118000CF027FF089D3B
:103A58006C68013C6C60002C33D12B68DB6A4345F1
:103A680040F04782A86D10B11CF0E0FCAC652B6DEE
:103A7800002B00F02F8205F118000CF00FFF089CB6
:103A8800FCB12368404A5B68934240F04482364B5D
:103A9800A06D236018B11CF0C9FC0023A365236D39
:103AA80004F11805002B00F02C8228460CF0F6FED5
:103AB8002846C4F808900CF0F1FE20465C211AF064
:103AC80061FE00230893DBF800302B4ADB6B93423E
:103AD80040F0D88100224FF47A74019912A80E9709
:103AE8000F928DF8442010949FED1B7B8DED207B69
:103AF8000CF038FF209B002B00F05C815C20002537
:103B08001AF03AFE184B04464560036012A9174B99
:103B1800183040F8103C0F9B40F80C3C109B40F8C4
:103B2800083C9DF8443000F8043C0CF071FE6368D2
:103B3800A7600133A5650A9563604FF47A738DF821
:103B480030500B930D4B0D94099312A8CDF8389073
:103B58000CF0A4FE1EE000BF000000000000000002
:103B68009C0A0020E8430020881D0020F41F002044
:103B7800641D00203101000041050000381D0020AF
:103B88002902000055060000E1080000001B002083
:103B980045010000089C002C38D06568013D65602F
:103BA800002D33D12368DB6A434540F0B181A06D15
:103BB80010B11CF03BFCA565236D002B00F09C8127
:103BC80004F118000CF06AFE089CFCB12368974ABF
:103BD8005B68934240F0B381954BA06D236018B1A8
:103BE8001CF024FC0023A365236D04F11805002BA9
:103BF80000F0A08128460CF051FE2846C4F8089031
:103C08000CF04CFE20465C211AF0BCFD0D98089083
:103C180000287FF4E1AE5D462B68DB6A434540F03F
:103C2800C181A86D18B11CF001FC0023AB652B6D98
:103C3800002B00F0B28101980CF030FE6C68013C5A
:103C48006C60002C7FF43AAE2B68DB6A434540F089
:103C5800BC81A86D10B11CF0E9FBAC652B6D002B85
:103C680000F0858101980CF019FE2B686F4A5B689B
:103C7800934240F0B5816E4BA86D2B6018B11CF0D3
:103C8800D5FB0023AB652B6D002B00F0A1810198BB
:103C98000CF004FE0198C5F808900CF0FFFD5C21BB
:103CA80028461AF06FFD09E66A6D002A7FF447AED0
:103CB8006C68013C6C60002C2FD12B685D4ADB6A74
:103CC800934240F07781A86D10B11CF0AFFBAC6552
:103CD8002B6D002B00F0698101980CF0DFFD2B683B
:103CE800524A5B68934240F06D81514BA86D2B603E
:103CF80018B11CF09BFB0023AB652B6D002B00F06B
:103D08005C8101980CF0CAFD0198C5F808900CF088
:103D1800C5FD5C2128461AF035FD0026304623B043
:103D2800BDE8F08F436D002B7FF460AE5D46089CC4
:103D3800414B0493002C3FF46FAF6768013F676005
:103D4800002F7FF469AF2368DB6A434540F0458163
:103D5800A06D10B11CF06AFBA765236D002B00F065
:103D68000B8104F118000CF099FD089C002C3FF41D
:103D780053AF23682D4A5B68934240F039812C4B3E
:103D8800A06D236018B11CF051FB0023A365236DBF
:103D980004F11807002B00F0268138460CF07EFD50
:103DA8003846C4F808900CF079FD20465C211AF0DA
:103DB800E9FC31E7219B002B7FF4A0AE8DF8303071
:103DC8000D93CDE90A341C4B0993BEE6636D002BB5
:103DD8007FF439AE3BE6626D2AB192F8312012F0D9
:103DE800500F7FF422AE18460422144903931EF0A4
:103DF80067FB039B00287FF418AE1946029B0F222D
:103E080003EB061001361EF097FB0022C273002C4C
:103E18003FF459AE2568EB6A43453FF40AAE2046A5
:103E2800984714E69847002880D0DFE5E1080000AD
:103E3800881D002045010000381D0020B40800201E
:103E480020469847089C0346002C7FF4DFAD0422E7
:103E58006A49184603931EF033FB00287FF433AEFB
:103E6800089C039BC9E7204603939047089C0028B9
:103E7800CDD10422614903981EF022FB039B002840
:103E8800C5D1BAE70022594609A8984782E64FF4F7
:103E9800807003931CF0C2FA0146A065002800F068
:103EA800AA80039B0370206D002837D04FF48072DE
:103EB8000CF048F9A36D089C002C7FF4A7ADC6E769
:103EC800184604224D4903931EF0FAFA039B002872
:103ED800A0D192E76B6D002B7FF4CDADCFE5219B90
:103EE800002B7FF4FDAC464B12A80E930CF0D6FCC9
:103EF80013E728469847C2E5636D002B7FF460AE50
:103F080062E6636D002B7FF4D0ADD1E55D460FE727
:103F18002046984758E620469847D2E5606D20B37A
:103F28004FF4807209F04EFDA36D089C002C7FF4BD
:103F38006DAD8CE7636D002B7FF45CAE5DE62046CB
:103F4800984763E62846904700283FF4B1AE2B68AF
:103F5800F5E404A8002229469847089800287FF429
:103F680037AD0646DFF8A48056E6A36D4EE56B6DC7
:103F7800002B7FF477AE78E6636D002B7FF4F1AE0B
:103F8800F3E6219B002B7FF4F3AC8DF81C300893EB
:103F9800CDE905341B4B049311E56B6D002B7FF4C1
:103FA8004AAE4BE62846984748E66B6D002B7FF4EF
:103FB80093AE94E62846984791E66B6D002B7FF404
:103FC800A0AEA1E628469847A7E6284698474CE6BB
:103FD8006B6D002B7FF45BAE5CE620469847C4E629
:103FE800284698476AE4636D002B7FF4D6AED7E67F
:103FF8002046984710E6044BA36507E5B40800205F
:10400800001B0020381D0020045800204501000036
:10401800064A0749074808B51CF0F2F9034A04495B
:104028000548BDE808401CF0EBB900BF0836002081
:10403800D1090000D4350020E835002010B5054C22
:104048000548217881F00101217010F003FD2078E6
:1040580010BD00BFFB570020A44D002005230922F6
:104068000A21014813F034BDA44D002008B50121F0
:1040780006201AF07DF99FED0F0A06201AF018FDA8
:10408800FF2106201AF0B0FC00234FF4A072F021A3
:10409800094813F0EBFD0321074813F0B5FB074B64
:1040A8000548197810F0D6FC00210348BDE80840FF
:1040B80010F0C0BC00409C46A44D0020FB570020D7
:1040C80010B54FF4A07386B0002216210446264886
:1040D800CDE90013114610F0CBFA4FF4A0724FF45B
:1040E800FC61214810F026FF02221F48114610F0FB
:1040F80015FF0023032204211B4810F0B3FE3CB136
:1041080020461EF0A5FB21460246174813F044FA44
:1041180006F0A4FEB7EEC00A0C21144A8DED000B80
:104128000DEB01001DF0ACFF4FF4A0724FF4BC6121
:104138000D4810F0FFFE03A81EF08AFB0023A0EB39
:10414800800103220848890001F59E7109B210F028
:1041580089FE03A81EF07CFB03A90246024813F05F
:104168001BFA06B010BD00BFA44D0020BC080020FB
:1041780070B506460D461A480021144610F05AFC40
:104188003046FFF79DFF02221548114610F0C6FE83
:1041980000224FF4BC61124810F0CCFE6DB13C22F5
:1041A800062100230E4810F05DFE28461EF050FB45
:1041B800294602460A4813F0EFF97CB15A22062133
:1041C8000023074810F04EFE20461EF041FB214612
:1041D80002460348BDE8704013F0DEB970BD00BF69
:1041E800A44D00202DE9F0413D4C8AB04FF0B808AD
:1041F80002AB05AD02AF05AE94E807000C3403C36B
:104208001A800FCC0FC523680024002135482B6085
:1042180010F010FC37F8025B3F23002221B231482E
:10422800CDE9008510F024FA01222E48114610F03D
:1042380075FE4FF6FF7200212A4810F07BFEA11C84
:1042480028480023BC2209B210F00CFE56F8045B83
:10425800284635B11EF0FCFA29460246214813F0DB
:104268009BF94034A4B2B4F5A07FD3D102221D48F3
:10427800114610F053FE00224FF4FC61194810F06B
:1042880059FE0023C8220421164810F0EBFD0E2227
:104298001549144813F080F901221248114610F00C
:1042A8003DFE00224FF6FF710E4810F043FE00233A
:1042B800E42204210B4810F0D5FD0C4B1B783BB1D0
:1042C80009220B4907480AB0BDE8F04113F064B968
:1042D8000A22084903480AB0BDE8F04113F05CB966
:1042E80098030020A44D0020DC080020FB57002084
:1042F800C4080020D00800202DE9F04F834695B06F
:10430800002956D102225048DFF850914FF000089A
:10431800114622244D4E10F001FE25E00027CDE97C
:10432800005710F0A5F93A464FF4BC61464810F022
:1043380001FE0E213B4622B2434810F093FD314660
:104348000222414813F028F959F8045F284635B18C
:104358001EF07EFA294602463B4813F01DF91A342E
:1043680008F10108D82C21D0E21EC3454FF01805EA
:104378004FF4A07334484FF0000112B2CED1182385
:104388004FF44875CDE900354FF4A07310F070F97B
:104398002A464AF6E5712C4810F0CCFD0E2122B2CF
:1043A8000023294810F05EFD2949C9E715B0BDE88A
:1043B800F08F00214FF44874234810F03BFB254848
:1043C800FFF77EFE4FF4A0730094DC2200211E4804
:1043D80010F05EF801221C48114610F09FFD21469E
:1043E8000022194810F0A6FD0023E22204211648F5
:1043F80010F038FD06F056FD06F060FD054606F0A3
:1044080033FD044606F036FDB7EEC00A8DED060B07
:1044180006F036FD064606F039FD2B460E4A3021D9
:1044280000949DED060BCDE9046008A88DED020B04
:104438001DF026FE08A81EF00BFA08A9024602483D
:1044480013F0AAF85EE700BFA44D0020F008002092
:10445800EC080020F4080020FC0800204408002094
:104468002DE9F04305460F4690462DED088BB0EE3A
:1044780040AA83B0F0EE60AA002B40F0E180012250
:10448800002473480A26114610F048FD00224FF414
:10449800BC616F4810F04EFD2C23D52206216C48D4
:1044A800CDE9006410F0E4F82346D52206216848D7
:1044B80010F0D8FCB7EECA0A0121654819F0B4F922
:1044C8002C23D5224FF48A716148CDE9006410F09D
:1044D800CFF82346D5224FF48C715D4810F0C2FC0A
:1044E80007EE907AB0EE4A0A0121B8EEE78A5848FA
:1044F800A8EE2A0AB7EEC00A19F096F9B0234FF4CD
:10450800487206215248CDE900324FF49A732222AC
:1045180010F07CFCAE23232207214D48CDE900345E
:104528004FF4997310F0A4F8A7424CDD4FF4997634
:10453800013D9FED48BA4AF6E579DFED479A9FEDD0
:10454800479ADFED478A96FBF7F6022EB8BF022698
:10455800013E36B215F9013F07EE904AA0450CBF5F
:104568004A464FF4FC62013406EE903AF8EEE77AD8
:1045780001923346F8EEE66A354887EE887A76EE99
:10458800A96AC6EE897A27EE0B7ABDEEC77A17EECE
:10459800101A67EEA87A073109B2FDEEE77A17EE2E
:1045A80090CABCF1AE0FA8BF4FF0AE0C2CEAEC7C61
:1045B800CCF1D1020FFA8CFC12B2CDF800C010F089
:1045C80057F8A742C6D100240A21BE23D522204885
:1045D800CDE900145A2110F04BF8A04504DA03B0D5
:1045E800BDEC088BBDE8F08301221948114610F094
:1045F80095FC22464AF6E571154810F09BFC2346C7
:10460800D5225A21124810F02DFC052215491048D0
:1046180012F0C2FF07EE908A02210D48F8EEE77A01
:10462800A7EEAAAAB7EECA0A19F0FEF803220E49A5
:10463800074803B0BDEC088BBDE8F04312F0ACBFEF
:104648000021034810F0F6F90848FFF739FD16E78E
:10465800A44D002000009943000000430000C4421C
:1046680000002E43240900202C0900201C090020EA
:104678002DE9F041054684B00E469046002B5FD1E7
:10468800022249480024114610F048FC1023222237
:1046980048214548CDE90034F8230FF0E9FF2246C8
:1046A8004FF4FC61404810F045FC23462222482183
:1046B8003D4810F0D7FB234629460A223A4819F00C
:1046C800A3F88E224FF4A07321463748CDE9002481
:1046D8004E220FF0CDFF01223348114610F01EFC88
:1046E80022464FF4BC61304810F024FCB8F1000FAA
:1046F80023D0013E5027062516F8013F04212B4AF6
:1047080003A81DF0BDFC002329B227483AB2123590
:1047180010F0A8FB03A81EF09BF803A90246224844
:10472800013412F039FFB5F5977FE4B201DD0C379B
:104738000625A04501D9402CDED104B0BDE8F081A2
:104748000021194810F076F91948FFF7B9FC022240
:104758001548114610F0E2FB00224FF44871124848
:1047680010F0E8FB0023222206210F4810F07AFB04
:10477800052210490C4812F00FFF01220A48114681
:1047880010F0CCFB00224FF44871074810F0D2FB20
:10479800002340220621044810F064FB0D2206493C
:1047A800014812F0F9FE6BE7A44D002050090020E3
:1047B80030090020380900204009002070B506465D
:1047C80082B0002947D1022200241025474811460B
:1047D80010F0A4FBF023562206214448CDE90054EA
:1047E8000FF046FF22464FF4BC61404810F0A2FB90
:1047F8002346562206213D4810F034FB06F046FBBE
:1048080001463A4818F0CCFF0D223949374812F0D2
:10481800C3FE782370226C213448CDE900540FF090
:1048280027FF22464FF4BC61304810F083FB234633
:1048380070226C212D4810F015FB314623460A22C0
:104848002A4818F0E1FF01222A49284802B0BDE8A9
:10485800704012F0A1BE0021244810F0EBF8264861
:10486800FFF72EFC03222148114610F057FB0022C7
:104878004FF478411D4810F05DFB002328221E21CB
:104888001A4810F0EFFA05221C49184812F084FE65
:1048980002221648114610F041FB00224FF44871DD
:1048A800124810F047FB0023702206210F4810F031
:1048B800D9FA082212490D4812F06EFE01220B485F
:1048C800114610F02BFB00224FF47841074810F0F6
:1048D80031FB0023CE220621044810F0C3FA11222E
:1048E8000849024812F058FE6DE700BFA44D0020A9
:1048F8008409002094090020580900205C09002040
:10490800640900207009002030B5054683B01ABB41
:10491800022238480024114610F000FB1021F82329
:104928005E223448CDE9001448210FF0A1FE22464A
:104938004FF4FC612F4810F0FDFA23465E2248210F
:104948002C4810F08FFA23460A222946294803B03A
:10495800BDE8304018F058BF0C462648002110F03A
:1049680069F82548FFF7ACFB02222248114610F0EF
:10497800D5FA00224FF4FC611E4810F0DBFA002340
:10498800222206211B4810F06DFA0D221B491948F6
:1049980012F002FE00224FF4BC61164810F0CAFA69
:1049A80002221448114610F0B9FA00233E220621CB
:1049B800104810F057FACCB120461DF049FF0246C6
:1049C80021460C4812F0E8FD00235E220621094822
:1049D80010F048FA00224FF44871064810F0AAFA7D
:1049E80005220749034812F0D7FD91E70122054C3B
:1049F800E6E700BFA44D00209C090020A409002080
:104A0800B4090020980900202DE9F04F8046A3B092
:104A18000E46002A40F0C680714D02AC4FF0000AE5
:104A28004FF016090FCD0FC495E8070084E807007A
:104A380006F014FAB7EEC00A6A4A0E2109A802ADB8
:104A48001E248DED000B1DF01BFB06F02BFA06F063
:104A580035FA654A03460E210DF132001DF010FBB0
:104A680006F002FA614A03460E2110A81DF008FB61
:104A780006F000FAB7EEC00A5D4A0E210DF14E00AD
:104A88008DED000B1DF0FCFA06F0FAF9574A0346C3
:104A98000E2117A81DF0F4FA06F0F8F9534A034658
:104AA8000E210DF16A001DF0EBFA3346514A0E2132
:104AB8001EA81DF0E5FA02224F48114610F02EFA02
:104AC8003DE00027CDE900970FF0D2FD3A464FF4BC
:104AD8004871494810F02EFA47483B4632460621AD
:104AE80010F0C0F9D5F800B05846BBF1000F06D059
:104AF8001DF0AEFE594602463F4812F04DFD002219
:104B08004FF4BC613C481A3410F014FA3246B42110
:104B180000233948CAEBCA0610F0A4F909AB0AF118
:104B2800010A043503EB460630461DF091FE314676
:104B38000246314812F030FDBAF1070F2FD0A21EFD
:104B4800D0454FF4A0734FF0000112B22A4826B2A4
:104B5800B7D14FF4487BCDF80090CDF804B00FF0F2
:104B680087FD5A464AF6E571234810F0E3F9002319
:104B780032460621204810F075F9D5F800B0BBF18F
:104B8800000F07D058461DF063FE594602461A48E2
:104B980012F002FD4FF448724AF6E571B2E723B00D
:104BA800BDE8F08F002114480FF044FF1348FFF7C9
:104BB80087FA01221048114610F0B0F900224FF48C
:104BC80048710D4810F0B6F90023E42206210A487E
:104BD80010F048F91F220A49074812F0DDFC1BE7CC
:104BE800B8030020E4090020EC0900207C14002010
:104BF800F0090020F8090020A44D0020BC0900207D
:104C0800C409002070B50D4682B0164623BB0222A7
:104C18004C480024114610F081F91022F82348214D
:104C28004848CDE9002442220FF022FD22464FF4E5
:104C3800FC61444810F07EF923464222482141484D
:104C480010F010F923460A2229463E4818F0DCFDE8
:104C5800002E36D102B070BD0021044639480FF04D
:104C6800E9FE3948FFF72CFA02223648114610F0BF
:104C780055F900224FF4BC61324810F05BF900236B
:104C8800222206212F4810F0EDF8002C56D020469D
:104C98001DF0DEFD024621462A4812F07DFC002365
:104CA80042220621274810F0DDF800224FF448710F
:104CB800244810F03FF905222449224812F06CFCE0
:104CC800A5E7032222491F4812F066FC2346314615
:104CD8000A221C4818F098FD4FF448710E224FF430
:104CE8009A731848CDE900216222062110F08EF847
:104CF80007EE905A9FED176A0C23F8EE676A07EEE5
:104D0800906A00934AF6E570F8EE677A632201909C
:104D180007210C4886EEA77A67EE067AFDEEE77A59
:104D280017EE903AB3F5997FA8BF4FF4997323EA29
:104D3800E3731BB20FF09CFC02B070BD0122064C5D
:104D4800A9E700BFA44D0020000A00203809002070
:104D5800080A002000009943980900202DE9F04333
:104D680000248BB0984612234FF4487706460D4628
:104D7800594821469146DE22CDE900344FF4A0730C
:104D88000FF076FC4FF4A073DD22214652480097BD
:104D98000FF07EFB01225048114610F0BFF8A045E5
:104DA80040F3898009F101034C4A1C2103A8CDF87E
:104DB80000801DF065F939462246474810F0BAF8D8
:104DC8002346E0220221444810F04CF803A81DF0C5
:104DD8003FFD03A90246404812F0DEFB03A81DF080
:104DE80037FD02234FF006024AF6E57110FB023741
:104DF8002246394810F09EF82346E02239B2364858
:104E080010F030F83EB130461DF022FD3146024622
:104E1800314812F0C1FB012231492F4812F0BCFB86
:104E280030461DF015FD013000224FF4FC6100EB07
:104E3800400007EB4004284810F07CF80023E11CF0
:104E4800E022254809B210F00DF83DB128461DF0C2
:104E5800FFFC29460246204812F09EFB129B0BB12C
:104E68001B7813B90BB0BDE8F083129B18211D4ABB
:104E780003A81DF005F903A81DF0EAFC044600226A
:104E88004FF4FC61144810F055F8002304EB44017A
:104E9800E02211484900C1F59F7109B20FF0E2FF05
:104EA80003A81DF0D5FC03A902460B4812F074FBB9
:104EB8000BB0BDE8F08322463946074810F03AF8AF
:104EC8002346E022022104480FF0CCFF0B220649BA
:104ED800014812F061FBC1E7A44D00200C0A002034
:104EE8004C090020200A0020140A00202DE9F04374
:104EF800994607460E4690462DED028BB0EE408A45
:104F080085B0002B40F01181022200241025A3480F
:104F1800114610F003F8F2231C224E219F48CDE9D8
:104F280000540FF0A5FB22464FF4FC619B4810F09B
:104F380001F823461C224E2198480FF093FF234680
:104F48000A223946954818F05FFCE0233222602196
:104F58009248CDE900540FF08BFB22464FF4FC61D8
:104F68008E480FF0E7FF3222234660218B480FF06E
:104F780079FF2146B7EEC80A884818F055FC042284
:104F88008749864812F008FB5EB1B8F1000F08D0D7
:104F9800844B1A68BA4225D105B0BDEC028BBDE836
:104FA800F083B8F1010FF7D0B9F1000FF4D0022265
:104FB8007A4811460FF0B2FF0023542206217748A1
:104FC8000FF050FF00224FF4487174480FF0B2FF01
:104FD8000C227549714805B0BDEC028BBDE8F04361
:104FE80012F0DABA942148226C4801941F604FF4F9
:104FF800A073009121460FF03BFB0222674811463F
:105008000FF08CFF23464A22062164480FF02AFF3E
:1050180022464FF4FC6161480FF08CFF052263497A
:105028005E4812F0B9FA96ED400A21465B48B7EEA1
:10503800C00A18F0F9FB04225949584812F0ACFA92
:1050480023466022062155480FF00CFF22464FF4F4
:10505800BC6152480FF06EFF052255494F4812F0C7
:105068009BFA96ED410A01214C48B7EEC00A18F0A8
:10507800DBFB03224F49494812F08EFA2346762279
:10508800062146480FF0EEFE22464FF44871434889
:105098000FF050FF04224849404812F07DFA0A22D6
:1050A800234696F8FF103D4818F0AEFB96F81021FD
:1050B800002A67D00122394811460FF02FFF00223D
:1050C8004FF4BC6135480FF035FF96F8FF30002BE0
:1050D8003FF462AF00248C27062502E0302B3FF412
:1050E8005BAF335D0421354A03A81CF0C9FF0023D8
:1050F80029B22A483AB212350FF0B4FE03A81DF0BF
:10510800A7FB03A90246254812F046FA0134B5F573
:10511800977FE3B204DD0C370625D22F3FF73CAF6B
:1051280096F8FF209A42D9D836E700211B480FF09D
:1051380081FC2348FEF7C4FF0222184811460FF0ED
:10514800EDFE00224FF4487114480FF0F3FE0023DF
:105158001C22062111480FF085FE052219490F4827
:1051680012F01AFA0023322206210C480FF07AFEB8
:1051780006221549094812F00FFA0A4B4FF0FF3280
:105188001A60C1E64FF4784104480FF0D3FE0622B6
:105198000E49024812F000FA8CE700BFA44D002027
:1051A800380A0020FC350020640A0020400A00204C
:1051B800480A0020500A0020540A00205009002004
:1051C800280A0020B4090020300A00205C0A0020C8
:1051D8002DE9F04FC5B006460DF1E00A03AC1E21DB
:1051E8006FF0170018F046FE44F8040F5445F6D146
:1051F80000214E480FF01EFC01224C4811460FF0CA
:105208008DFE4B4BD3F800801B68A3EB08039E422E
:1052180050D94FF0000B03AD0027CDE9028612E00C
:10522800B8F1EF0F4DD9EF2E7CD9B8F5987F2C60E7
:1052380005DD00216FF0170018F01CFE28605545A9
:1052480007F106071DD055F8044FE6000134A6F112
:105258005002A6F10808EF2AE2D808230FFA87F9C6
:1052680012B23248009349460623CDF804B00FF035
:10527800FFF9B8F1EF0F26DD554507F106072C6059
:10528800E1D12C4B2C4859682C4B1A6840F6AC538A
:10529800A0FB0202920CDDE9028603FB02F2254B19
:1052A8005B685B1A9A42FAD8214B1B68A3EB080388
:1052B800B342B0D300211D4845B0BDE8F04F0FF010
:1052C800B9BB0FFA87F900224FF4487117480FF05D
:1052D80031FE00230FFA88F2494614480FF0C2FD48
:1052E8005E2018F08FFD00F121011048C9B212F0BC
:1052F80053FAEF2EC0D800224AF6E5710B480FF09A
:1053080019FE494632B2002308480FF0ABFD5E2073
:1053180018F078FD00F121010448C9B212F03CFAF6
:105328002C608CE70FFA87F9E5E700BFA44D002051
:10533800C4570020001000E083DE1B43C433002064
:1053480000220449044808B517F048FF034B00221F
:105358001A8008BD40420F00C8340020E0570020E2
:105368002DE9F84305468D4E8D4F8E4817F054FEB3
:1053780003468C48002B51D017F09EFE40F256226F
:10538800C0B20D2818BF0A280CBF4FF001084FF013
:10539800000833D13C78002C47D13388002BE4D067
:1053A800002281488149C4542C706C60AA60A5F819
:1053B8000B4134801DF0F6F8064678B320467C4948
:1053C8001DF0F0F8044600285AD00378092B01D0C4
:1053D800202B05D114F8013F202BFBD0092BF9D045
:1053E800744930461DF048F820BB012320462B7035
:1053F8001BF010F868604046BDE8F8833388012147
:10540800694C934203EB01020DD8E05465483280A1
:1054180017F002FE03466348002BADD14FF0000899
:105428004046BDE8F88339709FE700235B4A3B702C
:1054380013809AE7604930461DF01EF8B8B15F49FD
:1054480030461DF019F8A0B15D4930461DF014F83A
:10545800002840F00D81042320462B701AF0D6FF57
:10546800B7EEC00B404685ED020ABDE8F88302237B
:10547800F2E7032320462B701AF0CCFF6860BAE7E6
:105488004C4930461CF0F8FF81464C4930461CF028
:10549800F3FF0746B9F1000F4CD1C8B1484930466F
:1054A8001CF0EAFF58B1474930461CF0E5FF30B11F
:1054B800454930461CF0E0FF002840F0058143498B
:1054C80030461CF0D9FF0028A8D108232B7092E79A
:1054D8003B4930461CF0D0FF0028F0D0394930460F
:1054E8001CF0CAFF0028EAD0374930461CF0C4FF38
:1054F8000028E4D0364930461CF0BEFF0028DED034
:10550800344930461CF0B8FF0028D8D0324930461C
:105518001CF0B2FF002CD2D00028D0D107231722CC
:10552800214605F586702B701DF006F8002385F8D6
:10553800233160E7204930461CF09EFF002840F0E8
:10554800A380002FC4D01E4930461CF095FF0028C8
:10555800B5D01C4930461CF08FFF0028AFD01A493F
:1055680030461CF089FF0028A9D0194930461CF0A4
:1055780083FF0028A3D0174930461CF07DFF014661
:105588000028C3D1002C9AD006232B702378002B37
:1055980000F0AD8005F10C0646E000BFE0570020A2
:1055A80003580020C8340020B84E0020D80A002034
:1055B800BC170020E00A0020E4160020880A00201A
:1055C80000170020E80A0020EC0A0020040B002045
:1055D800F40A0020FC0A0020000A0020A3F1610060
:1055E800C0B205283CD9A3F14100C0B205283BD977
:1055F8000023A2F13000C0B2092823D9A2F161002A
:10560800C0B2052829D9A2F13700A2F1410743EA1F
:105618000002F8B2D2B2052898BF1346735401317C
:10562800A378C9B2B3B1023462789AB1FF2911D014
:10563800202B09D0A3F13000C0B20928CED8000130
:10564800C3B2D6E70343E9E7A0781346013402461C
:105658000028EDD185F80B11CDE6573A1343DDE765
:10566800573B1B01DBB2C4E7373B1B01DBB2C0E78A
:10567800204930461CF000FFB8B9052320462B709E
:105688001AF0C8FE6860B6E6002F3FF421AF1A4949
:1056980030461CF0F1FE00283FF411AF15493046A2
:1056A8001CF0EAFE00283FF40AAF144930461CF00B
:1056B800E3FE48B9002C3FF402AF0A2320462B70C2
:1056C8001AF0A8FE686096E60D4930461CF0D4FE34
:1056D800014600287FF44FAF002C3FF4F0AE0923B9
:1056E800204610222B701CF0C5FB686083E6194623
:1056F800B0E700BFE80A002000170020EC0A0020ED
:10570800F40A002010B5044604220949094818F093
:105718001FF83CB120461DF09BF82146024605487B
:1057280018F016F80348BDE8104018F045B800BF57
:105738000C0B0020C834002010B504460422094987
:10574800094818F005F83CB120461DF081F82146BB
:105758000246054817F0FCFF0348BDE8104018F062
:105768002BB800BF140B0020C834002030B52DED35
:10577800028B83B004220D4604462A49B0EE608AA3
:1057880029488DED001A8DED010A17F0E1FF9DED16
:10579800010A03212448B7EEC00A18F045F8202171
:1057A800214817F0EFFEB7EEC80A01211E4818F08D
:1057B8003BF820211C4817F0E5FE9DED001A012159
:1057C8001948B7EEC10A18F02FF82021164817F02B
:1057D800D9FE294600230A22134818F015F820217B
:1057E800114817F0CFFE9DB1254406E00023102292
:1057F8000D4818F009F8AC420AD014F8011B0F291B
:10580800F4D83021084817F0BDFE14F8011CEDE764
:105818000A21054803B0BDEC028BBDE8304017F003
:10582800B1BE00BF1C0B0020C834002000B52DED10
:10583800028B83B004221149B0EE608A10488DEDC6
:10584800010A17F085FF9DED010A03210C48B7EE08
:10585800C00A17F0E9FF2021094817F093FEB7EEB8
:10586800C80A0121064817F0DFFF0A21044803B0DF
:10587800BDEC028B5DF804EB17F084BE240B00200E
:10588800C834002070B506460D4614462149042246
:1058980021482DED028B82B0B0EE608A8DED010AB1
:1058A80017F056FF00230A2231461B4817F0ACFFB9
:1058B8002021194817F066FE9DED010A03211648BC
:1058C800B7EEC00A17F0B0FF2021134817F05AFEB0
:1058D80000230A222946104817F096FF20210E4877
:1058E80017F050FEB7EEC80A01210B4817F09CFFCD
:1058F8002021094817F046FE2146074817F050FFB7
:105908000A21054802B0BDEC028BBDE8704017F0D3
:1059180039BE00BF2C0B0020C834002001380628EF
:105928004ED8DFE800F00C12223E2D3504004FF06F
:105938000A0C0023244881F800C01360704709232B
:105948000B700023214813607047092300B583B00A
:105958000B700192FDF7B0FA0378019A002B29D059
:105968001B4B1C48136003B000BD1B4B08201B7861
:105978000870012B19480CBF194B1A4B136070475C
:105988004FF0040C184B194881F800C01360704799
:10599800174B0C201B78087073B1114B1548136016
:1059A8007047154B02201B7808703BB1134B144805
:1059B80013607047134BD4E7134BEFE7134BF6E72D
:1059C80000230B70BDE700BFF4060020E4060020AA
:1059D800340B002030080020075800200007002062
:1059E800040B0020600B0020680B0020F00600204C
:1059F800F6570020D8060020EB5700204C0B00205B
:105A0800D4060020400B00205C0B0020540B002023
:105A180010B5044624482DED028B82B005F096F8A7
:105A280050B92249224A0B6810681B1AFA2B1BD856
:105A380002B0BDEC028B10BD01211E4A1E4B19702D
:105A480013680B44136005F009FA174B93F8FF101D
:105A5800184693ED411AD3ED400AFFF787FE8CB93B
:105A6800164B01221A70DCE70B68136005F028F961
:105A780013490122114B81ED000A1A7002B0BDECE6
:105A8800028B10BD05F0EAF9B0EE408A05F0ECF99A
:105A9800019005F0EFF90199F0EE400A0248B0EEE6
:105AA800480AFDF70DFADBE7C44A0020C457002076
:105AB80020540020C8490020EA570020E33A00207B
:105AC800283500201E4A1378012B00D070471D4945
:105AD80009780029FAD01C491C4809680068091A85
:105AE8001B4800688142F1D300B5C5B00DF10F0124
:105AF80004A80093FDF7D8FD009B78B9CDE90030E4
:105B0800FDF736FE009BDFF854C012490C4A019895
:105B18008CF8003010700B7045B000BD9DF80F1068
:105B280004A805F069F80C49074B0A681868074B80
:105B3800013218600948009B0A600370ECE700BF57
:105B480007580020F7570020C4570020CC490020F0
:105B5800C0350020E13A0020684D0020E33A0020DB
:105B680010B5164C207818F0F1FB011E637818BFA9
:105B78000121134A9942D2F800C00BD06268ACEBFD
:105B88000202192A06D9C4F804C0617088B92072C3
:105B9800002010BD002BFBD1237A002BF8D16368BD
:105BA800ACEB030CBCF5FA7FF2D30123022023727D
:105BB80010BD207A80F0010010BD00BF9C35002088
:105BC800C457002038B5134C2378022B15D0042B6A
:105BD80018D0032B1BD0104A0025104B0220117837
:105BE8001D7018F001FF01230D490E4A25700B7036
:105BF8001370BDE8384004F089BFFDF7EFFA237849
:105C0800042BE6D105F038F82378032BE3D1FDF710
:105C1800AFFDE0E7F1570020EE570020F4570020D1
:105C2800E33A0020E13A002000B583B019F032F9D8
:105C3800284A2949137881ED000A83B9DFED277ACC
:105C4800B4EEE70AF1EE10FA36DA254A1178254A59
:105C58000220137003B05DF804EB18F0C5BEDFED49
:105C6800227A1F4BB4EEE70A1978F1EE10FA09D43C
:105C78009FED1E7AB4EEC70AF1EE10FA06DBFF219B
:105C88000B46E4E7002003461070E0E730EE670AB1
:105C98009FED177AB3EE0B6ADFED167AC0EE066A4F
:105CA800E6EE877AFCEEE77ACDED017A9DF80430CE
:105CB800994238BF1946CAE7FF214FF0010C094B3A
:105CC800022082F800C0197003B05DF804EB18F0E8
:105CD8008BBE00BFF2570020644D002000005C42DC
:105CE800F4570020EE57002000004C4200009C4270
:105CF800000011430000DC42F8B50122434D444E38
:105D080000232A70441E3270424A434F1370434A9C
:105D1800387002201360424A1360424A1370424BA3
:105D2800197818F061FE052C11D8DFE804F0261167
:105D38000332362A00233D483D4A18213D4C036072
:105D48003D4823701360FDF7B3FD3C4B1860F8BD68
:105D5800FCF774FF18B1FCF777FF002843D1384AE5
:105D680038493948FEF704FA4FF4966018F04CFAAF
:105D78000123002233702B703A70BDE8F84004F01C
:105D8800C5BE002331483249324A03700B60137094
:105D9800F8BD314B00221A70F8BD402280212F48EF
:105DA8001CF026FB2E4B2F4993ED007AD1ED007A9B
:105DB8002D4A37EE677A2D4BD2ED006A4FF0FF324D
:105DC800C7EE267A1A60FDEEE77A17EE903A002BB6
:105DD80005DD402B16DD264B40221A60F8BD244B0A
:105DE80001221A60F8BD04F091FE0F4B0D4A022003
:105DF80019788C239942137038BF1946BDE8F840CA
:105E080018F0F2BD1A4AC2ED007AF8BDE33A002054
:105E1800E13A0020EA570020F1570020C849002045
:105E2800DC4B0020F4570020EE570020704D002076
:105E3800684D002007580020E44B0020E04B00206C
:105E4800700B0020940B00209C090020F6570020BE
:105E5800BC490020F5570020EB570020844A002059
:105E6800BC3500202C350020C4350020B435002076
:105E7800B835002030B5CDB003AC2046FFF770FA36
:105E8800B0B12378013B092B0DD8DFE803F01A05E0
:105E9800253649515E71771394ED020A04F04EFDE0
:105EA8004148FFF749FC01234049414A0B701370F0
:105EB8004DB030BD207904F0D7FD3E48FFF73CFCDB
:105EC800F1E76068431E062BEDD8C0B2FFF714FF58
:105ED8003948FFF731FCE6E7247904F0CBFF8DED74
:105EE800010A04F0CDFF9DED010A0146204604F0A9
:105EF8004FFD3248FFF720FCD5E704F0B5FF94EDDD
:105F0800020A05468DED010A04F0BAFF9DED010A6B
:105F18000146284604F03CFD2948FFF70DFCC2E77E
:105F280094F9040004F0B6FD2648FFF705FCBAE72B
:105F3800254B1B787BB394F80B1106A804F05CFE84
:105F480068B32248FFF7DEFBADE70320FFF7D4FE76
:105F580046A8FDF7FBF9D0B11D48012400231D49CF
:105F68001D4A04701D480B601360FFF7E5FB9AE7B4
:105F7800FFF728FE1A48FFF7DFFB94E72079194B53
:105F8800187004F097FD1848FFF7D6FB8BE7174801
:105F9800FFF7B8FB87E71648FFF7B4FB83E7154818
:105FA800FFF7CAFB7FE700BFE4160020E33A0020B2
:105FB800E13A0020EC0A0020E00A0020880A0020CC
:105FC80000170020E80A0020F7570020580B00208F
:105FD80007580020684D0020CC490020000A002006
:105FE800040B0020E23A0020F40A0020A80B00204D
:105FF800A00B0020FC0A00201D4BD3F8D820106805
:106008009168006810B40842137C546814BF0121D9
:10601800002103F00303D4F800C0D06843EA8103E9
:106028001CEA000F43F0080118BF0B469908013B12
:1060380011740D2B0BD8DFE803F0110C070C0A16AE
:106048001111160A0C070C1153690233536110BC65
:1060580070475369013B10BC536170475369013362
:1060680010BC536170475369023B10BC53617047C1
:10607800385300201D4BD3F8D4201068916800686D
:1060880010B40842137C546814BF0121002103F0A6
:106098000303D4F800C0D06843EA81031CEA000F68
:1060A80043F0080118BF0B469908013B11740D2BEA
:1060B8000BD8DFE803F0110C070C0A161111160AA9
:1060C8000C070C1153690233536110BC70475369B4
:1060D800013B10BC536170475369013310BC5361D5
:1060E80070475369023B10BC536170473853002016
:1060F8001D4BD3F8D02010689168006810B408428E
:10610800137C546814BF0121002103F00303D4F861
:1061180000C0D06843EA81031CEA000F43F008017D
:1061280018BF0B469908013B11740D2B0BD8DFE8FB
:1061380003F0110C070C0A161111160A0C070C11A2
:1061480053690233536110BC70475369013B10BC5B
:10615800536170475369013310BC536170475369E9
:10616800023B10BC53617047385300201D4BD3F8D5
:10617800CC2010689168006810B40842137C5468F9
:1061880014BF0121002103F00303D4F800C0D06834
:1061980043EA81031CEA000F43F0080118BF0B46CD
:1061A8009908013B11740D2B0BD8DFE803F0110C93
:1061B800070C0A161111160A0C070C115369023341
:1061C800536110BC70475369013B10BC5361704761
:1061D8005369013310BC536170475369023B10BCCB
:1061E80053617047385300201D4BD3F8C8201068FE
:1061F8009168006810B40842137C546814BF0121E8
:10620800002103F00303D4F800C0D06843EA8103F7
:106218001CEA000F43F0080118BF0B469908013B20
:1062280011740D2B0BD8DFE803F0110C070C0A16BC
:106238001111160A0C070C1153690233536110BC73
:1062480070475369013B10BC536170475369013370
:1062580010BC536170475369023B10BC53617047CF
:10626800385300201D4BD3F8C4201068916800688B
:1062780010B40842137C546814BF0121002103F0B4
:106288000303D4F800C0D06843EA81031CEA000F76
:1062980043F0080118BF0B469908013B11740D2BF8
:1062A8000BD8DFE803F0110C070C0A161111160AB7
:1062B8000C070C1153690233536110BC70475369C2
:1062C800013B10BC536170475369013310BC5361E3
:1062D80070475369023B10BC536170473853002024
:1062E8001D4BD3F8C02010689168006810B40842AC
:1062F800137C546814BF0121002103F00303D4F870
:1063080000C0D06843EA81031CEA000F43F008018B
:1063180018BF0B469908013B11740D2B0BD8DFE809
:1063280003F0110C070C0A161111160A0C070C11B0
:1063380053690233536110BC70475369013B10BC69
:10634800536170475369013310BC536170475369F7
:10635800023B10BC53617047385300201D4BD3F8E3
:10636800BC2010689168006810B40842137C546817
:1063780014BF0121002103F00303D4F800C0D06842
:1063880043EA81031CEA000F43F0080118BF0B46DB
:106398009908013B11740D2B0BD8DFE803F0110CA1
:1063A800070C0A161111160A0C070C11536902334F
:1063B800536110BC70475369013B10BC536170476F
:1063C8005369013310BC536170475369023B10BCD9
:1063D80053617047385300201D4BD3F8B82010681C
:1063E8009168006810B40842137C546814BF0121F6
:1063F800002103F00303D4F800C0D06843EA810306
:106408001CEA000F43F0080118BF0B469908013B2E
:1064180011740D2B0BD8DFE803F0110C070C0A16CA
:106428001111160A0C070C1153690233536110BC81
:1064380070475369013B10BC53617047536901337E
:1064480010BC536170475369023B10BC53617047DD
:10645800385300201D4BD3F8B420106891680068A9
:1064680010B40842137C546814BF0121002103F0C2
:106478000303D4F800C0D06843EA81031CEA000F84
:1064880043F0080118BF0B469908013B11740D2B06
:106498000BD8DFE803F0110C070C0A161111160AC5
:1064A8000C070C1153690233536110BC70475369D0
:1064B800013B10BC536170475369013310BC5361F1
:1064C80070475369023B10BC536170473853002032
:1064D8001D4BD3F8B02010689168006810B40842CA
:1064E800137C546814BF0121002103F00303D4F87E
:1064F80000C0D06843EA81031CEA000F43F008019A
:1065080018BF0B469908013B11740D2B0BD8DFE817
:1065180003F0110C070C0A161111160A0C070C11BE
:1065280053690233536110BC70475369013B10BC77
:10653800536170475369013310BC53617047536905
:10654800023B10BC53617047385300201D4BD3F8F1
:10655800AC2010689168006810B40842137C546835
:1065680014BF0121002103F00303D4F800C0D06850
:1065780043EA81031CEA000F43F0080118BF0B46E9
:106588009908013B11740D2B0BD8DFE803F0110CAF
:10659800070C0A161111160A0C070C11536902335D
:1065A800536110BC70475369013B10BC536170477D
:1065B8005369013310BC536170475369023B10BCE7
:1065C80053617047385300201D4BD3F8A82010683A
:1065D8009168006810B40842137C546814BF012104
:1065E800002103F00303D4F800C0D06843EA810314
:1065F8001CEA000F43F0080118BF0B469908013B3D
:1066080011740D2B0BD8DFE803F0110C070C0A16D8
:106618001111160A0C070C1153690233536110BC8F
:1066280070475369013B10BC53617047536901338C
:1066380010BC536170475369023B10BC53617047EB
:10664800385300201D4BD3F8A420106891680068C7
:1066580010B40842137C546814BF0121002103F0D0
:106668000303D4F800C0D06843EA81031CEA000F92
:1066780043F0080118BF0B469908013B11740D2B14
:106688000BD8DFE803F0110C070C0A161111160AD3
:106698000C070C1153690233536110BC70475369DE
:1066A800013B10BC536170475369013310BC5361FF
:1066B80070475369023B10BC536170473853002040
:1066C8001D4BD3F8A02010689168006810B40842E8
:1066D800137C546814BF0121002103F00303D4F88C
:1066E80000C0D06843EA81031CEA000F43F00801A8
:1066F80018BF0B469908013B11740D2B0BD8DFE826
:1067080003F0110C070C0A161111160A0C070C11CC
:1067180053690233536110BC70475369013B10BC85
:10672800536170475369013310BC53617047536913
:10673800023B10BC53617047385300201D4BD3F8FF
:106748009C2010689168006810B40842137C546853
:1067580014BF0121002103F00303D4F800C0D0685E
:1067680043EA81031CEA000F43F0080118BF0B46F7
:106778009908013B11740D2B0BD8DFE803F0110CBD
:10678800070C0A161111160A0C070C11536902336B
:10679800536110BC70475369013B10BC536170478B
:1067A8005369013310BC536170475369023B10BCF5
:1067B80053617047385300201D4BD3F89820106858
:1067C8009168006810B40842137C546814BF012112
:1067D800002103F00303D4F800C0D06843EA810322
:1067E8001CEA000F43F0080118BF0B469908013B4B
:1067F80011740D2B0BD8DFE803F0110C070C0A16E7
:106808001111160A0C070C1153690233536110BC9D
:1068180070475369013B10BC53617047536901339A
:1068280010BC536170475369023B10BC53617047F9
:10683800385300201D4BD3F89420106891680068E5
:1068480010B40842137C546814BF0121002103F0DE
:106858000303D4F800C0D06843EA81031CEA000FA0
:1068680043F0080118BF0B469908013B11740D2B22
:106878000BD8DFE803F0110C070C0A161111160AE1
:106888000C070C1153690233536110BC70475369EC
:10689800013B10BC536170475369013310BC53610D
:1068A80070475369023B10BC53617047385300204E
:1068B8001D4BD3F8902010689168006810B4084206
:1068C800137C546814BF0121002103F00303D4F89A
:1068D80000C0D06843EA81031CEA000F43F00801B6
:1068E80018BF0B469908013B11740D2B0BD8DFE834
:1068F80003F0110C070C0A161111160A0C070C11DB
:1069080053690233536110BC70475369013B10BC93
:10691800536170475369013310BC53617047536921
:10692800023B10BC53617047385300201D4BD3F80D
:106938008C2010689168006810B40842137C546871
:1069480014BF0121002103F00303D4F800C0D0686C
:1069580043EA81031CEA000F43F0080118BF0B4605
:106968009908013B11740D2B0BD8DFE803F0110CCB
:10697800070C0A161111160A0C070C115369023379
:10698800536110BC70475369013B10BC5361704799
:106998005369013310BC536170475369023B10BC03
:1069A80053617047385300201D4BD3F88820106876
:1069B8009168006810B40842137C546814BF012120
:1069C800002103F00303D4F800C0D06843EA810330
:1069D8001CEA000F43F0080118BF0B469908013B59
:1069E80011740D2B0BD8DFE803F0110C070C0A16F5
:1069F8001111160A0C070C1153690233536110BCAC
:106A080070475369013B10BC5361704753690133A8
:106A180010BC536170475369023B10BC5361704707
:106A2800385300201D4BD3F8842010689168006803
:106A380010B40842137C546814BF0121002103F0EC
:106A48000303D4F800C0D06843EA81031CEA000FAE
:106A580043F0080118BF0B469908013B11740D2B30
:106A68000BD8DFE803F0110C070C0A161111160AEF
:106A78000C070C1153690233536110BC70475369FA
:106A8800013B10BC536170475369013310BC53611B
:106A980070475369023B10BC53617047385300205C
:106AA8001D4BD3F8802010689168006810B4084224
:106AB800137C546814BF0121002103F00303D4F8A8
:106AC80000C0D06843EA81031CEA000F43F00801C4
:106AD80018BF0B469908013B11740D2B0BD8DFE842
:106AE80003F0110C070C0A161111160A0C070C11E9
:106AF80053690233536110BC70475369013B10BCA2
:106B0800536170475369013310BC5361704753692F
:106B1800023B10BC53617047385300201D4BDA6F9D
:106B280010689168006810B40842137C546814BF58
:106B38000121002103F00303D4F800C0D06843EA20
:106B480081031CEA000F43F0080118BF0B4699089F
:106B5800013B11740D2B0BD8DFE803F0110C070C67
:106B68000A161111160A0C070C11536902335361E6
:106B780010BC70475369013B10BC5361704753699F
:106B8800013310BC536170475369023B10BC536119
:106B9800704700BF385300201D4B9A6F10689168EA
:106BA800006810B40842137C546814BF0121002106
:106BB80003F00303D4F800C0D06843EA81031CEA59
:106BC800000F43F0080118BF0B469908013B1174E8
:106BD8000D2B0BD8DFE803F0110C070C0A16111166
:106BE800160A0C070C1153690233536110BC704725
:106BF8005369013B10BC536170475369013310BCA2
:106C0800536170475369023B10BC5361704700BF22
:106C1800385300201D4B5A6F10689168006810B4F3
:106C28000842137C546814BF0121002103F00303B8
:106C3800D4F800C0D06843EA81031CEA000F43F08F
