:0200000460009A
:100000004643464200000156000000000101020084
:1000100000000000000000000000000000000000E0
:1000200000000000000000000000000000000000D0
:1000300000000000000000000000000000000000C0
:1000400000000000010406010000000000000000A4
:100050000000800000000000000000000000000020
:100060000000000000000000000000000000000090
:100070000000000000000000000000000000000080
:10008000EB04180AFF1E04320126000000000000E5
:100090000000000000000000000000000000000060
:1000A0000000000000000000000000000000000050
:1000B0000000000000000000000000000000000040
:1000C0000000000000000000000000000000000030
:1000D0000000000000000000000000000000000020
:1000E0000000000000000000000000000000000010
:1000F0000000000000000000000000000000000000
:1001000000000000000000000000000000000000EF
:1001100000000000000000000000000000000000DF
:1001200000000000000000000000000000000000CF
:1001300000000000000000000000000000000000BF
:1001400000000000000000000000000000000000AF
:10015000000000000000000000000000000000009F
:10016000000000000000000000000000000000008F
:10017000000000000000000000000000000000007F
:10018000000000000000000000000000000000006F
:10019000000000000000000000000000000000005F
:1001A000000000000000000000000000000000004F
:1001B000000000000000000000000000000000003F
:1001C000000100000010000001000000000000001D
:1001D000000001000000000000000000000000001E
:1001E000000000000000000000000000000000000F
:1001F00000000000000000000000000000000000FF
:10020000FFFFFFFFFFFFFFFFFFFFFFFFFFFFFFFFFE
:10021000FFFFFFFFFFFFFFFFFFFFFFFFFFFFFFFFEE
:10100000D1002043F1150060000000000000000046
:10101000201000600010006000BC026000000000B2
:101020000000006000C8020000000000FFFFFFFF9A
:10103000FFFFFFFFFFFFFFFFFFFFFFFFFFFFFFFFC0
:10104000FFFFFFFFFFFFFFFFFFFFFFFFFFFFFFFFB0
:10105000FFFFFFFFFFFFFFFFFFFFFFFFFFFFFFFFA0
:10106000FFFFFFFFFFFFFFFFFFFFFFFFFFFFFFFF90
:10140000824205D051F8043B40F8043B8242F9D8AF
:10141000704700BF044A05494FF0000342F8043BFF
:101420009142FBD8704700BFC03A002060530020B3
:1014300008B5BFF34F8F00F047F9544C544B0820C8
:101440005449C3F85401544AC3F800115348C3F82F
:10145000F0405349FFF7D4FF524A53495348FFF72E
:10146000CFFF534CFFF7D6FF4FF470004FF0E02151
:101470000023504AC1F8880D44F823200133B02BD3
:10148000FAD14D4B80214D4A03F8011B9342FBD109
:101490004FF0E0254A4E4B4A4FF0FF31C5F8084D5A
:1014A000D5F8243D43F4E023C5F8243DF36923F047
:1014B0007F0343F04003F361736A23F07F0343F03B
:1014C000400373629166D1661167516700F004F9B9
:1014D0003D4A3E4BA2636322E36300246A61032317
:1014E0003B4AAC612B61C5F8202DD5F8FC2D394B5A
:1014F00042F080723849C5F8FC2D1A6842F00102AA
:101500001A605B680B6000F0B7FA344800F050FCDA
:10151000F16E334B334A41F44051F1661C60C3F81D
:101520000841C3F81841C3F82841C3F83841936B08
:10153000DB0708D442F615632B4951651365936B9D
:1015400043F001039363274A284C936843F0011347
:10155000936000F04FF900F0FBFB00F045FC00F059
:10156000BDFA00F0B3F82368132BFCD900F052FB4E
:101570002368B3F5967FFBD300F0ACF800F0A8F831
:1015800000F01AFC00F024FC30BFFDE70C0D111335
:1015900000800D401B101820B85C02000000000005
:1015A00098200060C03A0020547D026000000020B6
:1015B0000038002035B7010000E400E0A0E400E0BE
:1015C00000C00F4000C00A40599A01005D9A010016
:1015D00000002020001000E0E05200200046C3235D
:1015E0000040084000400D400000C056E45200207A
:1015F000054B4FF42A01054A05485A641864054A08
:1016000099639546FFF714FF00C00A40FFABAAAAF2
:101610000700200000800520294A00210123C2F88C
:10162000A000C2F8A410C2F8B0305369D907FCD5A5
:1016300001234FF4803C22495361C2F8A000C2F854
:10164000A4C0C2F8B0304B69DB07FCD501234FF4CE
:10165000003C1B4A4B61C1F8A000C1F8A4C0C1F80E
:10166000B0305369D907FCD50123DFF858C01449BD
:101670005361C2F8A000C2F8A4C0C2F8B0304B69F0
:10168000DB07FCD5D1F8003145F60D504FF0210CA9
:101690009AB2C1F814C0824210D045F69D518A42D8
:1016A0000AD1C3F34253032B08D0A3F10403B3FAC6
:1016B00083F35B09180170470020704708207047CA
:1016C00000402A4004000300704700BF704700BF7D
:1016D000704700BF00BF70474FF0E02300214FF07C
:1016E000100C3448C3F8941DC3F89CCD4FF0110C76
:1016F000C3F8A00D3048C3F89CCD4FF0120CC3F8CE
:10170000A00D2E48C3F89CCD2D4AC3F8A00DDFF8DC
:10171000D0C042F015022B48C3F89CCDC3F8A00DF1
:10172000DFF8C0C02848C3F89CCDC3F8A00DDFF88F
:10173000B8C0C3F89C2D2548254AC3F8A0CDC3F8EE
:101740009C0DC3F8A02D02F5A022DFF8A0C00C323A
:101750002048C3F89CCDC3F8A02D1F4AC3F89C0DA8
:10176000C3F8A02D02F14062DFF884C002321B48AA
:10177000C3F89CCDC3F8A02D0A32C3F89C0DC3F862
:10178000A02D00BF00BF00BF00BF00BF0122C3F8F3
:10179000942DBFF34F8FBFF36F8FC3F8501FBFF36C
:1017A0004F8FBFF36F8FD3F8142D42F44032C3F83C
:1017B000142D70473F000010250008070900100095
:1017C0006053002021000207250008131600202086
:1017D00027000B13180000602F000B071A00008071
:1017E0001300200014000020090000101700004022
:1017F0001900007030B5864B85B0DFF874E218220E
:10180000844D0120C3F85CE28349C3F86052A5F51A
:101810008055DFF860C2814CC3F864E2C3F86852B7
:101820002125C3F86CC2C3F870C2C3F874C2C3F8F0
:1018300078C248F20C7CDA661A675A679A67DA67E8
:10184000C3F88020C3F88420C3F88820C1F82C0393
:10185000734AC1F83003C1F83403C1F83803C1F842
:101860003C03C1F85003A1696E4B0A406E486F49B2
:1018700013436F4AA361D4F8843043F00C03C4F8D7
:1018800084304FF0FF34036843F0020303600368C1
:1018900003EA0C031A43674B026044608A68664C93
:1018A0001340664A43F000538360C36823F0780313
:1018B000C360036A23401A43604B0262026A2240FB
:1018C0005F4C1343002243628462C46240F20564A9
:1018D000D1F8B83023F03F0343F00103C0F8B8302B
:1018E000D1F8BC30574923F03F0343F00103C0F85F
:1018F000BC3002610567C0F880404567C0F884408D
:101900000224036823F00203036081614E4B4F49B8
:10191000C46143F8042B8B42FBD1434C236843F052
:1019200001032360256815F00105FBD1454802221B
:1019300040F2F561A06140F29940E26140F26642F6
:10194000C4F8001242F20141C4F81022404AC4F81F
:101950002002C4F8302240F23542C4F834123D4827
:10196000C4F840223C4AC4F850022846C4F8542225
:1019700042F201223949C4F86012C4F86422FFF728
:101980004BFE0246002839D0810201234FF480200B
:1019900021662549C4F8A050C4F8A400C4F8B030AA
:1019A0004B69D807FCD515050124039228464C61E4
:1019B000FFF732FE039A2A4B0244D2B21A7080B16A
:1019C000194980024FF4802348660846C1F8A050A8
:1019D000C1F8A430C1F8B0404369DB07FCD501234E
:1019E000436120490024204801230094401A00EB61
:1019F00002521E4800F0F4F905B030BD1B4B1849E7
:101A000018600870D860C3E9010005B030BD00BFA0
:101A100000801F40F910010000841F4000C00F40EB
:101A2000FFFCFF1F0003008000402A4000802A4086
:101A30001200FFFFFF37F70000FFF07C400000803E
:101A4000FF000F83F05AF05A00422A4000432A4018
:101A50009F041830EB06180A063201263806180AC9
:101A60002153002000000070000000706C52002024
:101A7000F9B00100F970010010B5174A4FF4805415
:101A80004FF4005E4FF4404C4FF4803043F242017B
:101A9000136913F0020F0DD113F4005F0FD013F48C
:101AA000805F0FD0002BF3DA13F4803F0CD15B067C
:101AB0000ED510BDC2F818C050619161E8E7C2F8B8
:101AC00014E0E5E75461E3E74FF480339361DFE727
:101AD00040235361DCE700BF00800D40414A0320F2
:101AE0004149F3EE095AD2F880309FED406A23F065
:101AF00001039FED3F5ADFF814C100B5C2F88030F2
:101B0000C2F89000D1F8E010DFF804E1CBB2394818
:101B1000CEF8003007EE903A0B0DC1F30B21F8EE32
:101B2000E77A06EE903A07EE101A334BB8EEC77A12
:101B3000CCF80010F8EEE66A304937EEC66A37EEA8
:101B4000C55A76EEC76A77EEE57A26EE266AC3EDC9
:101B5000006A25EE265AD2F8803067EEA64AC0ED1C
:101B6000007AC6EE275A264885EE276AC4EEA76A91
:101B700075EE875AFCEEE55A36EE076A15EE90CA06
:101B8000BCEEC66A43EA0C5376EE877AC2F8803020
:101B900016EE103AD2F890C1FCEEE77A01EA034162
:101BA00041EA0C014FF0000C17EE903AC2F8901188
:101BB000C3F30B03D2F890110B431249C2F89031D2
:101BC000D2F8803043F00203C2F880300E4B80F828
:101BD00040C0C1F840314FF0E0230122C3F8082192
:101BE00000BD00BF00810D4000441F400000AA421C
:101BF0000000B442D4520020D85200200000FF0F51
:101C000000E400E00038002019B90100CC520020A7
:101C1000D0520020314B40F6617210B5C3F820213C
:101C200040F2044400F0CCF82D4A2E49D2F880301E
:101C30002D4843F00303C2F880302C4BC1F86041BB
:101C400002681A4203D1D1F8A8319A071BD0254A5D
:101C50004FF00041244B5963D2F8403143F0020366
:101C6000C2F84031D2F840319B07FBD44FF400302A
:101C70004FF0E0211C4B4FF00042C1F88C021920BC
:101C80009A6300F0A1F8184B0021164C4FF08042E7
:101C90000A209A634FF420721960C4F8A80114480E
:101CA00000F09AF84FF4800203464FF4810040F2AE
:101CB00043111860C4F858311A640E4B0E4AC4F828
:101CC0004811C3F804224FF0E0224FF40031012301
:101CD000C2F80C11C4F8403110BD00BF00800D40A7
:101CE00000C00F4000002E4000900D40001C1E0060
:101CF00000000020003800201DBB010008B50E4B7D
:101D00001B6E9B0700D4FBBE72B60C4B00200C4A26
:101D1000C3F8400103F160430A49A3F55F2311644E
:101D20009D46BFF34F8F4FF40013074A0748DB6906
:101D300002609B68984700BF00441F4000002E408F
:101D400000C00A4003002000000012EB00802020A9
:101D50000F4B40F2376C0F4AA020D96E41F440314E
:101D6000D966D96E41F44071D966C2F844C0906416
:101D7000936C1B06FCD4084A40F23761A0235164DF
:101D80009364936C13F08003FBD1044A1370704783
:101D900000C00F4000400C4000800C402053002049
:101DA000F8B500BFF8BC08BC9E46704700000000B4
:101DB0005FF800F07DA901005FF800F08DF10100EF
:101DC0005FF800F089C201005FF800F091AC0100FB
:101DD0005FF800F0BDB001005FF800F079EE01009F
:101DE0005FF800F009CE01005FF800F01DB60100B9
:101DF00005010000E11E00002D1F0000E56E00003F
:101E00008D7A000055890000D1420100C17E010099
:0C1E10001197010069A801008DCD0100B0
:101E1C006CC00F40030000000E0D0000657B00003D
:101E2C002A3600001400000013000000010000001E
:101E3C00F4841F402B32000014000000130000003B
:101E4C0001000000F8841F402D3100001400000038
:101E5C001300000001000000F0841F402CFFFF0065
:101E6C001400000000000000000000000100000051
:101E7C0000000000EC841F40000000000000000087
:101E8C006CC00F4030000000100F0000657B00009C
:101E9C0001270000170000001200000000010000E4
:101EAC0014851F401AFF0000120000000000000003
:101EBC000100000018851F401BFF000012000000ED
:101ECC00000000000100000010851F400026FF00EC
:101EDC0017000000120000000000000001010000CB
:101EEC00010000000C851F400C851F400000000005
:101EFC006CC00F40C0000000504F0000397C000047
:101F0C000CFF0000130000000000000000000000A7
:101F1C0024851F400BFF0000130000000000000090
:101F2C000000000028851F400DFF0000130000007A
:101F3C00000000000000000020851F400A2524003E
:101F4C001300000012000000120000000102030048
:101F5C000000000000000000000000000000000075
:101F6C00090180961180FF3A81550A3601082A042E
:101F7C00000000F02B040000014021800A13800AAD
:101F8C002980FF0016035500530042002000530027
:101F9C0065007200690061006C00000018035400B9
:101FAC00650065006E0073007900640075006900BF
:101FBC006E006F000403090409026200030100C0F3
:101FCC0032080B00020202010009040000010202A7
:101FDC00010005240010010524010101042402065E
:101FEC0005240600010705820310001009040100F6
:101FFC00020A0000000705030240000007058402E6
:10200C004000000904020002FF6AFF00070581027C
:10201C0040000107050102400001000009026200B6
:10202C00030100C032080B00020202010009040087
:10203C000001020201000524001001052401010128
:10204C00042402060524060001070582031000057E
:10205C0009040100020A0000000705030200020047
:10206C00070584020002000904020002FF6AC7008F
:10207C0007058102000201070501020002010000B0
:0C208C000A060002EF0201400100000003
:102098000000000000000000000000000000000038
:1020A8000000000000000000000000000000000028
:1020B800F8B54FF084439D695A6915400DD0254FF6
:1020C80001269D6195FAA5F4B4FA84F457F82430F2
:1020D80006FA04F49847A543F4D11F4B9D695A6941
:1020E80015400DD01D4F01269D6195FAA5F4B4FA4F
:1020F80084F457F8243006FA04F49847A543F4D139
:10210800174B9D695A6915400DD0164F01269D61E0
:1021180095FAA5F4B4FA84F457F8243006FA04F4CE
:102128009847A543F4D1104B9D695A6915400DD0C5
:102138000E4F01269D6195FAA5F4B4FA84F457F878
:10214800243006FA04F49847A543F4D1BFF34F8F1F
:10215800F8BD00BFC43300200040004244340020D2
:1021680000800042C434002000C0004244350020F2
:102178000548064B1B1AD90F01EBA301491002D0E1
:10218800034B03B118477047C03A0020C03A0020FB
:102198000000000008B5054B1BB105490548AFF321
:1021A8000080BDE80840FFF7E3BF00BF0000000063
:1021B8007C52002000C8026000207047704700BFB2
:1021C800036D0BB101207047406DC01A18BF012084
:1021D800704700BF0346806D80B100B583B001939E
:1021E8001CF0B0FE0022019B9A651A6D62B103F1E2
:1021F800180003B05DF804EB0DF016B91A6D42B182
:1022080003F118000DF010B95A6D002AEFD103B090
:1022180000BD5A6D002AF3D1704700BF10B5046D98
:102228006CB10BB1002010BD114620460AF0CEFE5D
:102238000028F7D02046BDE810400BF0C9BB446D1C
:10224800002CEFD0204608F08FFD0028EAD0204669
:10225800BDE8104009F04ABC8A79A2F150031B0678
:1022680028D4D0F850C002F26C7230B54B7985B0E2
:1022780091F804E001338C784D78DBB20978BCF131
:10228800000F0AD060460194CDF800E0CDE9025174
:1022980002210BF027FB05B030BD406D0028FAD0B5
:1022A8000194CDF800E0CDE90251022109F054FB78
:1022B80005B030BD00207047816D09B108467047F0
:1022C80000B583B001904FF480701CF033FE019B81
:1022D80001469865B8B10022186D0A7040B14FF4F4
:1022E80080720CF0F5FC019B996D084603B000BDA7
:1022F800586D0028F9D04FF4807201930AF028F93C
:10230800019B996DF1E7024A11469A65EDE700BF16
:102318001F5300200246006D0B4600B585B040B340
:1023280001910DF10E0203A90BF0BAFA019B58B303
:10233800BDF80C20BDF80E1052EA010024D0C1F3FC
:10234800451E01F01F00C90AC2F3431C400083F870
:1023580001E09970510A0CF1FF3C02F01F0201F5EF
:10236800EA611870012083F805C01A71997105B0E7
:1023780000BD506D40B10DF10E0203A9019308F0A4
:10238800A1FB019B0028D3D1002005B000BD00BFF0
:102398000246006D0B4600B585B040B301910DF1C2
:1023A8000E0203A90BF05AFA019B58B3BDF80C2092
:1023B800BDF80E1052EA010024D0C1F3451E01F009
:1023C8001F00C90AC2F3431C400083F801E099705A
:1023D800510A0CF1FF3C02F01F0201F5EA61187086
:1023E800012083F805C01A71997105B000BD506DC0
:1023F80040B10DF10E0203A9019308F051FB019BB6
:102408000028D3D1002005B000BD00BF10B5036976
:1024180082B08DF80710C3B11968114AC968914292
:102428000C4615D1186D30B101220DF107010BF0E2
:102438000DFB02B010BD586D0028FAD001220DF135
:10244800070109F0C7FB02B010BD184602B010BD65
:1024580001220DF107011846A04702B010BD00BFC8
:1024680065070000036963B11A68074992698A42DF
:1024780008D1186D08B10AF0D3BE586D08B109F03B
:10248800E7B870471846104751070000006990B137
:102498000368154A1B69934225D1036D63B1187807
:1024A80010F0080007D0D8695B69C01A48BF6FF000
:1024B8000040704718467047436D002BFAD093F8D8
:1024C800310010F00800F6D0186919685A69401AE6
:1024D8005B6862EB0303B0F1004F73F10003EAD3CA
:1024E8006FF000407047184709080000036D13B1EA
:1024F800586900217047436D13B1D3E90001704753
:1025080018461946704700BF036D13B1D8690021FA
:102518007047436D13B1D3E9040170471846194653
:10252800704700BF036D13B118460AF0D1BC406D67
:1025380008B108F003BC4FF0FF307047026D82B15C
:10254800137813F0700F00D1704700B583B00021E5
:10255800019010460AF03AFD019B586D70B903B01E
:1025680000BD406D0028EFD090F8313013F0500FC7
:1025780003D00022002308F0F7BB70470022002395
:1025880003B05DF804EB08F0EFBB00BF036973B15B
:102598001A68084952698A4207D1186D08B10AF0C9
:1025A80097BC586D18B108F0C9BB184610474FF0D2
:1025B800FF30704795040000836C13B118460AF089
:1025C80087BCC06C08B108F0B9BB4FF0FF3070474A
:1025D80070B59FED297B94B000224FF47A76284D90
:1025E8000446183104A88DF80C200095CDE9012681
:1025F8008DED127B0CF07CFF129B002B2FD05C2002
:102608001AF046FE1F49002206460160183001995B
:1026180040F8142C40F80C1C1B4940F8101C029977
:1026280040F8081C9DF80C1000F8041C04A90CF0D4
:10263800B5FE00224FF47A71B560B265626022730C
:10264800124AA16022607268266101327260104BE2
:1026580004A800930CF0E8FE204614B070BD139B4C
:10266800002BCCD1094A237322602361C4E90136C7
:10267800EDE700BFAFF3008000000000000000009D
:10268800B8180020DC180020481B00208C180020F7
:1026980054160020036D13B118460AF02FBB406D85
:1026A80008B108F081BA4FF0FF307047836C00B56D
:1026B80083B05BB101220DF1070118460AF01EFB39
:1026C80001280BD19DF8070003B000BDC06C28B1EC
:1026D80001220DF1070108F067FAF1E74FF0FF302A
:1026E800F2E700BF036D33B11B7813F0700F14BF0E
:1026F800012000207047406D30B190F8313013F060
:10270800500F14BF01200020704700BF03693BB37E
:1027180018680021144A10B5846882B094428DF874
:10272800071014D1186D48B101220DF107010AF004
:10273800E5FA90B19DF8070002B010BD586D002869
:10274800FAD001220DF1070108F02EFAF1E7012273
:102758000DF107011846A047EBE74FF0FF30EBE714
:102768004FF0FF30704700BF050600008A79A2F1DC
:1027780050031B0628D4D0F850C002F26C7230B552
:102788004B7985B091F804E001338C784D78DBB251
:102798000978BCF1000F0AD060460194CDF800E03A
:1027A800CDE9025104210BF09DF805B030BD406D14
:1027B8000028FAD00194CDF800E0CDE902510421B7
:1027C80009F0CAF805B030BD00207047836C13B11A
:1027D80018460AF025BDC06C08B108F039BF70472B
:1027E800036D13B118460AF01BBD406D08B108F01F
:1027F8002FBF7047036D13B118460BF027B9406D12
:1028080008B109F0E7B97047836C13B118460BF0AB
:102818001DB9C06C08B109F0DDB9704700B5836C0B
:1028280083B08DF807103BB101220DF1070118465E
:102838000BF00CF903B000BDC06C0028FAD00122DF
:102848000DF1070109F0C6F903B000BD836C53B15F
:10285800187810F008000DD0D8695B69C01A48BF15
:102868006FF000407047C36CA3B193F8310010F0CB
:10287800080000D17047186919685A69401A5B68DE
:1028880062EB0303B0F1004F73F10003F2D36FF072
:10289800004070471846EDE7036D53B1187810F003
:1028A80008000DD0D8695B69C01A48BF6FF00040B6
:1028B8007047436DA3B193F8310010F0080000D1C0
:1028C8007047186919685A69401A5B6862EB030314
:1028D800B0F1004F73F10003F2D36FF0004070477E
:1028E8001846EDE70369CBB10D4810B51C68D4F85C
:1028F8000CE086450DD1186D18B1BDE810400BF0FD
:10290800A5B8586D18B1BDE8104009F063B90020AA
:1029180010BD18467346BDE81040184700207047A0
:102928006507000010B5104B0446806D82B0236027
:1029380018B11CF007FB0023A365236D73B104F1E4
:102948001803184601930CF06FFD019B074A1846BF
:10295800A2600CF069FD204602B010BD636D002B2B
:10296800EDD104F11803F1E7DC180020541600201B
:1029780010B5124B0446806D82B0236018B11CF06C
:10298800E1FA0023A365236D93B104F118031846F7
:1029980001930CF049FD019B094A1846A2600CF00E
:1029A80043FD20465C211AF079FC204602B010BD98
:1029B800636D002BE9D104F11803EDE7DC18002062
:1029C8005416002010B5029994469E4629B1012953
:1029D8001ED002290FD0002010BD046D0CB34FF09B
:1029E800FF33934271EB0E03F5D320461146BDE841
:1029F80010400AF0EBBA036D23B3D96989184EF178
:102A08000002002AE7D11846BDE810400AF0DEBAF5
:102A1800036D6BB1596989184EF10002002ADAD1A9
:102A2800F1E7406D0028D6D0BDE8104008F09CB909
:102A3800406D0028CFD0D0E900231CEB020243EB05
:102A48000E03F1E7406D0028C5D0D0E904231CEB44
:102A5800020243EB0E03BDE8104008F085B900BF41
:102A68003649034602690160002A50D0516801398D
:102A7800516000294BD1324810B5146884B0E46A1B
:102A880084424AD1906D40B10391CDE901231CF0F5
:102A980059FA019A0399029B9165116D002938D062
:102AA80002F1180001930CF0BFFC019B1A695AB39C
:102AB80011682448496881423AD12349906D1160D0
:102AC80038B1CDE901231CF03DFA0021019A029B9F
:102AD8009165116D31B302F1180103930292084612
:102AE80001910CF0A1FC0199DDE90223DFF85CC03B
:102AF80008460293C2F808C001920CF095FC5C21CC
:102B080001981AF0CBFB029B184604B010BD18467A
:102B18007047516D0029C3D1C8E701931046A047FB
:102B2800019BC3E7516D0029D5D102F11801DDE7FA
:102B3800019310468847019BE6E700BF8C180020E8
:102B480045010000E1080000DC18002054160020B0
:102B58002F4A036910B5044682B00260002B3FD0AB
:102B68005A68013A5A60002A3AD119682948C96A4C
:102B7800814240D1986D30B1CDE900321CF0E2F9C4
:102B8800DDE900329A651A6D002A30D003F1180089
:102B98000CF04AFC23691BB31A681F4952688A4221
:102BA80032D11E4A986D1A6028B100931CF0CAF9F8
:102BB8000022009B9A651A6D02B303F11802019373
:102BC800104600920CF030FCDDE900231449104651
:102BD800009399600CF028FC5C2100981AF05EFBC9
:102BE800204614211AF05AFB204602B010BD5A6D37
:102BF800002ACBD1CEE718468847CBE75A6D002A82
:102C0800DBD103F11802E1E718469047E8E700BF77
:102C18008C18002045010000E1080000DC180020A5
:102C28005416002008B5FE21024807F057FE024B53
:102C3800187008BDE43F00201D530020014B187890
:102C4800704700BF1D5300208A4B2DE9F0411F78C3
:102C580096B0002F00F095800124874E08E002937B
:102C68000AF0C6FBE8B1013442F210739C4218D056
:102C78002346824A102182481DF08EFFD6F88454DC
:102C88007F4A02A800232946002DE8D1D6F88814E7
:102C98002B467B4A02A821B10E9508F057FB002865
:102CA800E1D144F20223764A764902A80CF0CCFC22
:102CB800149B002B00F094805C2000251AF0E8FAA1
:102CC800039B714A0446C36006A9049B6F4E0361C7
:102CD8009DF81430C0E900256D4A183000F8043C0E
:102CE80040F8102C0CF05AFB63686A4A06A80133B6
:102CF800A565A2606360684B984602930CF094FB4C
:102D08003569002D42D06B68013B6B60002B3DD1CB
:102D18002B68624ADB6A934240F09E80A86D18B126
:102D28001CF010F90023AB652B6D002B00F08F8091
:102D380005F118000CF078FB356905B32B68584A83
:102D48005B68934240F092804F4BA86D2B6018B19E
:102D58001CF0F8F80023AB652B6D002B7FD005F134
:102D68001803184601930CF05FFB019B1846C5F841
:102D780008800CF059FB5C2128461AF08FFA346160
:102D88002CB90027384616B0BDE8F08134612368B5
:102D9800444A1B6B93423CD1236D002B35D03369D9
:102DA800BBB11A684049D4688C4244D1186D0028D8
:102DB8003AD007223D490AF049FE33694BB11A68F7
:102DC8003B4992698A423FD1186D002826D00AF003
:102DD80027FA384B002238461A6016B0BDE8F08151
:102DE800159C002C7FF468AF2B4B06A8274E9846FD
:102DF80002930CF019FB3569002DC2D06B68013BBA
:102E08006B60002B84D03461BBE7636D002BC6D1A7
:102E1800B7E7204698470028B3D0C0E7586D002888
:102E2800D7D008F015FCD4E7586D48B107221F49E0
:102E380008F0D0FEC1E7072218461C49A047BCE7A6
:102E480092691B498A42E9D018469047C1E76B6DE1
:102E5800002B7FF46DAF6FE7284698476CE76B6DE2
:102E6800002B7FF47CAF05F118037FE728469847CD
:102E780085E700BF1D530020E43F00206C080020B8
:102E8800504E0020E83F0020DC18002010310020C0
:102E9800481B0020B81800205416002045010000E7
:102EA800E10800003101000065070000DC15002082
:102EB80051070000604E002000487047504E002027
:102EC800F0B5A64D89B02B698DF80F10002B00F0D6
:102ED800D9801A680446A249126B8A4240F0C5801C
:102EE8001A6D002A00F0D180F6EE007A94ED407A4F
:102EF800F2EE045AD4ED416AD4F80C21B0EE676AB8
:102F080094F8FF10E0EEA57A079227EE257A8DF85F
:102F18001510A0EE256AFDEEE66ABDEEC77AFCEE56
:102F2800E77A16EE902A17EE101ABCEEC66A8DF8EC
:102F38001420ADF81A1017EE902A16EE101AADF8F4
:102F48001820ADF81610002B00F086801A68854E00
:102F5800D268B242174640F0F780186D002800F09A
:102F68009980042207A90AF071FD2B69002B73D000
:102F78001A68D268B242174640F01081186D0028CE
:102F880000F0D38002220DF116010AF05FFD2B69D3
:102F9800002B61D01A68D268B242174640F0F88018
:102FA800186D002800F0B08001220DF10F010AF021
:102FB8004DFD2B69002B4FD01A68D268B2421746D4
:102FC80040F0E180186D002800F0A780022206A9D1
:102FD8000AF03CFD2B69002B3ED01A68D268B24239
:102FE800174640F0CA80186D002800F0848002223D
:102FF8000DF11A010AF02AFD2B69002B2CD01A6852
:10300800D268B242174640F0B380186D00286AD0E3
:10301800012205A90AF01AFD2B69EBB11A68D268DA
:10302800B242174640F08A80186D002852D001221B
:103038000DF115010AF00AFD2B699DF815205BB109
:103048001968C968B1420F4640F08380186D00289E
:1030580039D021460AF0FAFC434A13680133136059
:103068001B0720D0012009B0F0BDCDED020A18469B
:103078008DED010A90479DED010ADDED020A002859
:1030880040F0A780002009B0F0BD5A6D002A7FF4F7
:103098002BAFF7E7586D00283FF470AF042207A95B
:1030A80008F098FD61E72B69002BDBD01A682F49DF
:1030B80092698A4240F08F80186D002800F0828063
:1030C8000AF0AEF8CEE7586D0028C5D0214608F0C2
:1030D80081FDC1E7586D002870D001220DF115015E
:1030E80008F078FDA8E7586D002861D0012205A9ED
:1030F80008F070FD90E7586D002855D002220DF1B8
:103108001A0108F067FD77E7586D002852D00122B0
:103118000DF10F0108F05EFD4BE7586D002845D012
:10312800022206A908F056FD54E7586D002843D03E
:1031380002220DF1160108F04DFD28E7184601227C
:103148000DF11501B84777E71846042207A9B847D3
:103158000BE721461846B8477EE700BF103100202C
:103168003101000065070000604E00205107000093
:103178001846012205A9B8474EE7184602220DF164
:103188001A01B84738E71846022206A9B84721E7C6
:10319800184601220DF10F01B8470AE71846022226
:1031A8000DF11601B847F2E62B6928E72B6914E7F9
:1031B8002B6933E72B69FFE62B69EBE69DF81520B1
:1031C8002B693DE7586D00283FF44CAF08F040FAF2
:1031D80048E72B6988E61846904743E710B5524CF4
:1031E80082B0206900286CD0036850491A6B8A4263
:1031F80071D1026D002A66D09B694D4A93427BD1FA
:10320800036D002B6FD018460AF00AF82369002BCB
:1032180057D01A684749D26A8A4277D1986D28B13F
:1032280000931BF08FFE0022009B9A651A6D002AFE
:103238005ED003F118000CF0F7F822695368013BDF
:103248005360002B3BD111683A48C96A814264D166
:10325800906D30B1CDE900231BF074FEDDE9002349
:103268009365136D002B54D002F118000CF0DCF8B4
:10327800236923B31A68304952688A4250D12F4AC9
:10328800986D1A6028B100931BF05CFE0022009B29
:103298009A651A6D002A33D003F11802019310467B
:1032A80000920CF0C1F8DDE900232549104600938F
:1032B80099600CF0B9F85C21009819F0EFFF002331
:1032C800236102B010BD426D002AFAD09B69184AEA
:1032D800934295D010E090470028F2D0206900284A
:1032E800EFD0036888E7406D40B108F0B1F98DE789
:1032F8005A6D002A9DD1A0E7984787E7236988E798
:103308005A6D002AC8D103F11802CEE71846904733
:1033180093E7536D002BA7D1AAE710468847A7E784
:1033280018469047CBE700BF10310020310100005C
:103338005107000045010000E1080000DC180020EA
:1033480054160020944BF0B51D7897B01DB9002590
:10335800284617B0F0BD02460023904902A80CF099
:1033680073F9149B002B00F0E4805C20002619F010
:103378008FFF8B4B044606A9C0E90036039B183023
:1033880040F80C3C874B40F8103C049B40F8083C44
:103398009DF8143000F8043C0CF000F86368A6654A
:1033A80006A80133804E6360804B02931F46804B12
:1033B800A3600CF039F8336923B15A68013A5A60AE
:1033C800002A71D0346123687A4A1B6B934240F01B
:1033D800C680236D002B00F0A7803469002CB6D07E
:1033E8002368754A9968914240F0CB80206D002887
:1033F80000F0BB8002A9072209F080FC0728A7D0AB
:103408003469002CA3D02368DB6A6C4A934240F0ED
:10341800B580A06D18B11BF095FD0023A365236D41
:10342800002B00F0DB8004F118000BF0FDFF35697C
:103438006C68013C6C60002C33D12B685F4ADB6AF6
:10344800934240F0D580A86D10B11BF07BFDAC65B0
:103458002B6D002B00F0C78005F118000BF0E4FF7E
:103468003469F4B12368564A5B68934240F0C880D7
:103478004B4BA06D236018B11BF064FD0023A365BE
:10348800236D04F11805002B00F0B58028460BF0D9
:10349800CBFF2846A7600BF0C7FF5C21204619F038
:1034A800FDFE0023336152E71A684449D26A8A4212
:1034B80040F08880986D28B100931BF043FD0022EE
:1034C800009B9A651A6D002A61D003F118000BF071
:1034D800ABFF33691BB31A68394952688A427AD1FB
:1034E8002F4A986D1A6028B100931BF02BFD00221B
:1034F800009B9A651A6D002A67D003F118020193A0
:10350800104600920BF090FFDDE9002310469F6003
:1035180000930BF089FF00985C2119F0BFFE34611D
:10352800002C3FF414AF4EE7636D002B7FF455AFCA
:103538000DE7159C002C7FF418AF1C4B06A81A4EFB
:103548001F4602930BF070FF3369002B3FF4FFAE68
:103558005A68013A5A60002AA6D03461F7E6204634
:10356800984700283FF4F3AE37E7606D00283FF432
:103578004BAF02A9072207F017FB3FE72046984701
:1035880055E70B46204602A90722984736E75A6DA9
:10359800002A9AD19DE700BF1D530020E83F002074
:1035A800DC180020481B002024310020541600207D
:1035B800B818002031010000050600004501000090
:1035C800E10800001846904783E75A6D002A94D115
:1035D80003F118029AE718469047A0E7636D002B9D
:1035E8007FF421AF23E76B6D002B7FF435AF37E70E
:1035F8002846984734E7636D002B7FF447AF48E7C8
:10360800204698474DE700BFF0B52E4C85B023699A
:10361800002B31D01A680D4606462B48116B8142A3
:1036280025D1196D59B39268284917468A4232D173
:10363800186D40B30B2201A909F060FB0B281BD1C0
:103648009DF80E202A70BAB12369002B2ED0196874
:103658008C681E498C422BD1186D08B3314609F08D
:103668004DFB2B78181AB0FA80F0400905E018468F
:10367800884708B1236913BB002005B0F0BD596D18
:103688000029D0D1F8E7586D0028F5D00B2201A900
:1036980007F08AFAD2E718460B2201A9B847CDE706
:1036A800586D48B1314607F07FFADAE71846E4E783
:1036B80031461846A047D4E74FF0FF30D1E71A68E3
:1036C800B1E700BF243100203101000005060000E9
:1036D80010B5484C82B02369002B60D01968464861
:1036E8000A6B824265D1186D00285AD0C96A434ACC
:1036F80091426BD1986D28B100931BF023FC0021F7
:10370800009B9965196D00295CD003F118000BF036
:103718008BFE21694B68013B4B60002B3DD108684B
:10372800C26A364882425ED1886D30B1CDE9001355
:103738001BF008FCDDE900138B650B6D002B4ED0E8
:1037480001F118000BF070FE236933B319682C4897
:10375800496881424AD12B49986D196028B1009374
:103768001BF0F0FB0021009B9965196D002930D0F2
:1037780003F118010193084600910BF055FEDDE9AD
:103788000013DFF884C008460093C3F808C00BF0A4
:103798004BFE5C21009819F081FD0023236102B0E3
:1037A80010BD586D0028FAD0C96A144A9142A1D0B8
:1037B8000CE0184690470028F1D02369002BEED082
:1037C800196893E7596D00299FD1A2E718468847E1
:1037D8009FE7596D0029CBD103F11801D1E74B6D53
:1037E800002BADD1B0E708469047ADE718468847AB
:1037F800D3E700BF2431002031010000450100005B
:10380800E1080000DC180020541600200000000029
:10381800044B2DE9F04F1E78A3B02EB9304623B0E3
:10382800BDE8F08F1D530020002302908A46A44A69
:10383800A4490EA80BF008FF209B002B00F0FF8284
:103848005C20002419F024FD9F4B054612A9036053
:103858000F9B4460C3609D4B9D4F8360109BDFF8B6
:103868008C9203619DF84430037500F118031846E3
:1038780001930BF093FD6B6812A8AC650133AF6040
:10388800CDF838906B600BF0CFFD2B6891491A6B1F
:103898008A4240F007832A6D002A00F0B581DB6B6D
:1038A8008D4A934240F0058300224FF47A740199BF
:1038B80012A80E970F928DF8442010949FED7E7BEE
:1038C8008DED207B0BF014FE209B002B00F009836C
:1038D8005C20002619F0DCFC7B4B04464660036044
:1038E80012A97A4B183040F8103C0F9B40F80C3C5A
:1038F800109B40F8083C9DF8443000F8043C0BF05D
:103908004DFD6368A7600133A665059663604FF4B3
:103918007A738DF81C600693704B0894049312A870
:10392800CDF838900BF080FD0898002800F0C98287
:103938000026DFF8BC81AB460368664A1B6B9342DE
:1039480040F02082036D002B00F09C81B245089C5A
:1039580040F38C82002C66D02368614A5B6B9342EB
:1039680040F01E82A36D002B00F0418225685D495E
:10397800AA6B8A4240F02782226D002A00F0DB8180
:10398800127812F0700F00F04B82EB6A434540F05A
:10399800F681A06D18B11BF0D5FA0023A365236D3D
:1039A800002B00F0C38104F118000BF03DFD089DC9
:1039B8006C68013C6C60002C33D12B68DB6A434592
:1039C80040F04782A86D10B11BF0BCFAAC652B6DB6
:1039D800002B00F02F8205F118000BF025FD089C44
:1039E800FCB12368404A5B68934240F04482364BFE
:1039F800A06D236018B11BF0A5FA0023A365236D01
:103A080004F11805002B00F02C8228460BF00CFD61
:103A18002846C4F808900BF007FD20465C2119F0F1
:103A28003DFC00230893DBF800302B4ADB6B934204
:103A380040F0D88100224FF47A74019912A80E97A9
:103A48000F928DF8442010949FED1B7B8DED207B09
:103A58000BF04EFD209B002B00F05C815C200025C4
:103A680019F016FC184B04464560036012A9174B61
:103A7800183040F8103C0F9B40F80C3C109B40F865
:103A8800083C9DF8443000F8043C0BF087FC636860
:103A9800A7600133A5650A9563604FF47A738DF8C2
:103AA80030500B930D4B0D94099312A8CDF8389014
:103AB8000BF0BAFC1EE000BF000000000000000090
:103AC800400A0020E83F0020DC180020481B0020A6
:103AD800B818002031010000410500008C180020B2
:103AE8002902000055060000E108000054160020D5
:103AF80045010000089C002C38D06568013D6560D0
:103B0800002D33D12368DB6A434540F0B181A06DB5
:103B180010B11BF017FAA565236D002B00F09C81EE
:103B280004F118000BF080FC089CFCB12368974A4C
:103B38005B68934240F0B381954BA06D236018B148
:103B48001BF000FA0023A365236D04F11805002B70
:103B580000F0A08128460BF067FC2846C4F80890BE
:103B68000BF062FC20465C2119F098FB0D98089038
:103B780000287FF4E1AE5D462B68DB6A434540F0E0
:103B8800C181A86D18B11BF0DDF90023AB652B6D61
:103B9800002B00F0B28101980BF046FC6C68013CE8
:103BA8006C60002C7FF43AAE2B68DB6A434540F02A
:103BB800BC81A86D10B11BF0C5F9AC652B6D002B4D
:103BC80000F0858101980BF02FFC2B686F4A5B6829
:103BD800934240F0B5816E4BA86D2B6018B11BF075
:103BE800B1F90023AB652B6D002B00F0A181019882
:103BF8000BF01AFC0198C5F808900BF015FC5C2135
:103C0800284619F04BFB09E66A6D002A7FF447AE97
:103C18006C68013C6C60002C2FD12B685D4ADB6A14
:103C2800934240F07781A86D10B11BF08BF9AC6519
:103C38002B6D002B00F0698101980BF0F5FB2B68C8
:103C4800524A5B68934240F06D81514BA86D2B60DE
:103C580018B11BF077F90023AB652B6D002B00F032
:103C68005C8101980BF0E0FB0198C5F808900BF017
:103C7800DBFB5C21284619F011FB0026304623B0F7
:103C8800BDE8F08F436D002B7FF460AE5D46089C65
:103C9800414B0493002C3FF46FAF6768013F6760A6
:103CA800002F7FF469AF2368DB6A434540F0458104
:103CB800A06D10B11BF046F9A765236D002B00F02D
:103CC8000B8104F118000BF0AFFB089C002C3FF4AB
:103CD80053AF23682D4A5B68934240F039812C4BDF
:103CE800A06D236018B11BF02DF90023A365236D87
:103CF80004F11807002B00F0268138460BF094FBDE
:103D08003846C4F808900BF08FFB20465C2119F068
:103D1800C5FA31E7219B002B7FF4A0AE8DF8303037
:103D28000D93CDE90A341C4B0993BEE6636D002B55
:103D38007FF439AE3BE6626D2AB192F8312012F079
:103D4800500F7FF422AE18460422144903931DF045
:103D580043F9039B00287FF418AE1946029B0F22F3
:103D680003EB061001361DF073F90022C273002C14
:103D78003FF459AE2568EB6A43453FF40AAE204646
:103D8800984714E69847002880D0DFE5E10800004E
:103D9800DC180020450100008C1800207C08002059
:103DA80020469847089C0346002C7FF4DFAD042288
:103DB8006A49184603931DF00FF900287FF433AEC3
:103DC800089C039BC9E7204603939047089C00285A
:103DD800CDD10422614903981DF0FEF8039B002809
:103DE800C5D1BAE70022594609A8984782E64FF498
:103DF800807003931BF09EF80146A065002800F030
:103E0800AA80039B0370206D002837D04FF480727E
:103E18000AF05EFFA36D089C002C7FF4A7ADC6E7EF
:103E2800184604224D4903931DF0D6F8039B002839
:103E3800A0D192E76B6D002B7FF4CDADCFE5219B30
:103E4800002B7FF4FDAC464B12A80E930BF0ECFA56
:103E580013E728469847C2E5636D002B7FF460AEF0
:103E680062E6636D002B7FF4D0ADD1E55D460FE7C8
:103E78002046984758E620469847D2E5606D20B31B
:103E88004FF4807208F064FBA36D089C002C7FF44B
:103E98006DAD8CE7636D002B7FF45CAE5DE620466C
:103EA800984763E62846904700283FF4B1AE2B6850
:103EB800F5E404A8002229469847089800287FF4CA
:103EC80037AD0646DFF8A48056E6A36D4EE56B6D68
:103ED800002B7FF477AE78E6636D002B7FF4F1AEAC
:103EE800F3E6219B002B7FF4F3AC8DF81C3008938C
:103EF800CDE905341B4B049311E56B6D002B7FF462
:103F08004AAE4BE62846984748E66B6D002B7FF48F
:103F180093AE94E62846984791E66B6D002B7FF4A4
:103F2800A0AEA1E628469847A7E6284698474CE65B
:103F38006B6D002B7FF45BAE5CE620469847C4E6C9
:103F4800284698476AE4636D002B7FF4D6AED7E61F
:103F58002046984710E6044BA36507E57C08002037
:103F6800541600208C1800201F5300204501000023
:103F7800064A0749074808B51AF0CEFF034A04491C
:103F88000548BDE808401AF0C7BF00BF403100200F
:103F9800D1090000103100202431002010B5054C53
:103FA8000548217881F0010121700FF019FB207874
:103FB80010BD00BF17530020D04800200523092258
:103FC8000A21014812F052BBD048002008B501214F
:103FD800062018F059FF9FED0F0A062019F0F4FA91
:103FE800FF21062019F08CFA00234FF4A072F0216B
:103FF800094812F009FC0321074812F0D3F9074BCE
:10400800054819780FF0ECFA00210348BDE808408C
:104018000FF0D6BA00409C46D04800201753002025
:1040280010B54FF4A07386B04FF0160C0022019320
:1040380004461146CDF800C022480FF0DFF84FF4CF
:10404800FC6120480FF03CFD02221E4811460FF08B
:104058002BFD0023032204211A480FF0C9FC3CB1B0
:1040680020461DF075F921460246164812F062F8FE
:1040780005F0BAFCB7EEC00A0C21134A8DED000B0F
:104088000DEB01001CF088FD4FF4BC610D480FF0EA
:1040980017FD03A81DF05CF90023A0EB80010322A3
:1040A8000848890001F59E7109B20FF0A1FC03A828
:1040B8001DF04EF903A90246024812F03BF806B07B
:1040C80010BD00BFD0480020840800202DE9F04131
:1040D800044682B034480E46002190460FF070FA2C
:1040E8003248FFF79DFF02222F4811460FF0DCFCF3
:1040F8004FF4BC612C480FF0E3FC00232222062178
:1041080029480FF075FC05222949274812F012F8B2
:1041180000230A222146244818F002F901222248E5
:1041280011460FF0C1FC4FF448711F480FF0C8FC4E
:104138000023402206211C480FF05AFC1D490D227D
:10414800194811F0F7FF4FF4BC6117480FF0B8FC9D
:10415800B8F1000F25D0013E002450270625042180
:1041680016F8013F144A01340DEB01001CF014FD50
:10417800002329B20C483AB212350FF039FC01A8D5
:104188001DF0E6F801A90246074811F0D3FFB5F57E
:10419800977FE4B201DD0C370625A04501D9302C04
:1041A800DDD102B0BDE8F081D04800208C080020A5
:1041B800940800209C080020AC08002010B50021BD
:1041C800044631480FF0FCF93048FFF729FF032275
:1041D8002D4811460FF068FC4FF478412A480FF03B
:1041E8006FFC002328221E2127480FF001FC05221E
:1041F8002749254811F09EFF0222234811460FF057
:1042080053FC4FF4BC6120480FF05AFC002356229F
:1042180006211D480FF0ECFB05F0FEFB01461A488D
:1042280018F04AF80D221B49174811F083FF0023A4
:104238007022062114480FF0DBFB082216491248A9
:1042480011F078FF002321460A220F4818F068F879
:10425800012212490C4811F06DFF01220A4811464B
:104268000FF022FC4FF4784107480FF029FCCE22CA
:104278000621054800230FF0BBFB1122084902481C
:10428800BDE8104011F056BFD0480020B408002007
:10429800B8080020C0080020D0080020DC08002052
:1042A800E008002070B50C460546002124480FF0B0
:1042B80087F92448FFF7B4FE0222214811460FF07F
:1042C800F3FB4FF4FC611E480FF0FAFB0023222297
:1042D80006211B480FF08CFB0D221B49184811F0D2
:1042E80029FF4FF4BC6116480FF0EAFB022214487C
:1042F80011460FF0D9FB00233E22062110480FF08B
:1043080077FBD4B120461DF023F8024621460C481D
:1043180011F010FF00235E22062109480FF068FB08
:1043280009220A49064811F005FF294600230A22F6
:104338000348BDE8704017F0F3BF0122044CE5E7DD
:10434800D0480020F80800200009002010090020AB
:10435800F40800202DE9F043002181464748002653
:10436800DFF82C812224464F2DED028B93B00FF0FD
:1043780027F94448FFF754FE0222404811460FF03F
:1043880093FBB1454FF4BC613C485DD00FF098FBFE
:104398000E21002322B239480FF02AFB39460222A7
:1043A800364811F0C7FE58F8045F284635B11CF0AE
:1043B800CFFF29460246314811F0BCFE1A340136B7
:1043C800D82CDED14FF448744FF4A073DC220021BE
:1043D80000942A480EF022FE0122284811460FF0C8
:1043E80063FB214625480FF06BFB0023E2220421E2
:1043F80022480FF0FDFA05F01BFB05F025FB0646E9
:1044080005F0F8FA044605F0FBFAB7EEC08A05F0A5
:10441800FDFA054605F000FB33461B4A302105909E
:1044280006A8049500948DED028B1CF0B5FB06A838
:104438001CF08EFF06A90246104811F07BFE13B04F
:10444800BDEC028BBDE8F08318234FF44871E21EDF
:10445800CDE9003112B24FF4A07300210EF0CEFE68
:104468004AF6E57105480FF02BFB0E2122B2002316
:1044780002480FF0BDFA054991E700BFD048002077
:1044880020090020240900202C0900201C090020F4
:104498000C08002070B506460D4619480021144640
:1044A8000FF08EF83046FFF7BBFD02221448114684
:1044B8000FF0FAFA4FF4BC6111480FF001FB6DB12F
:1044C8003C22062100230E480FF092FA28461CF0E1
:1044D8003FFF294602460A4811F02CFE7CB15A22B9
:1044E8000621002306480FF083FA20461CF030FF0F
:1044F800214602460248BDE8704011F01BBE70BD5F
:10450800D04800202DE9F0470E46A2B00021814690
:10451800634D02AC63480DF124080FF051F862486E
:10452800FFF77EFD02AF0FCD0FC495E8070084E8C2
:10453800070005F059FAB7EEC00A5C4A0E2140465A
:1045480000248DED000B1CF027FB05F071FA05F037
:104558007BFA574A03460E210DF132001CF01CFB72
:1045680005F048FA534A03460E2110A81CF014FB24
:1045780005F046FAB7EEC00A4F4A0E210DF14E007B
:104588008DED000B1CF008FB05F040FA494A034684
:104598000E2117A81CF000FB05F03EFA454A034619
:1045A8000E210DF16A001CF0F7FA3346434A0E213A
:1045B8001EA81E261CF0F0FA02223A4811460FF0F7
:1045C80073FAA1454FF4487136480FFA86FA45D078
:1045D8000FF076FA33480023524606210FF008FA06
:1045E8003D68284635B11CF0B3FE294602462D48E1
:1045F80011F0A0FD4FF4BC61C4EBC40529480FF0CD
:104608005FFA00235246B42126481A360FF0F0F913
:10461800013408EB450004371CF09AFE024608EB0B
:104628004501204811F086FDD42ECAD101221D482B
:1046380011460FF039FA4FF448711A480FF040FA52
:104648000023E422062117480FF0D2F91F221C4943
:10465800144811F06FFD22B0BDE8F0871623B21E92
:104668000191002112B200934FF4A0730EF0C6FD21
:104678004AF6E5710B480FF023FA0023524606214B
:1046880008480FF0B5F93D683DB128461CF060FEBA
:1046980029460246034811F04DFD4AF6E571ABE79D
:1046A80098030020D04800204C090020540900201D
:1046B8005C09002060090020640900206C090020C2
:1046C800740900202DE9F0413D4C8AB04FF0B8083C
:1046D80002AB05AD02AF05AE94E807000C3403C386
:1046E8001A800FCC0FC523680024002135482B60A1
:1046F8000EF066FF37F8025B3F23002221B23148F3
:10470800CDE900850EF07AFD01222E4811460FF002
:10471800CBF94FF6FF7200212A480FF0D9F9A11CF6
:1047280028480023BC2209B20FF062F956F8045B4E
:10473800284635B11CF00CFE29460246214811F0E6
:10474800F9FC4034A4B2B4F5A07FD3D102221D48AD
:1047580011460FF0A9F900224FF4FC6119480FF037
:10476800B7F90023C822042116480FF041F90E2298
:104778001549144811F0DEFC0122124811460FF0C9
:1047880093F900224FF6FF710E480FF0A1F90023AC
:10479800E42204210B480FF02BF90C4B1B783BB19A
:1047A80009220B4907480AB0BDE8F04111F0C2BC24
:1047B8000A22084903480AB0BDE8F04111F0BABC22
:1047C800B4030020D0480020AC0900201753002073
:1047D80094090020A009002070B5044682B037482B
:1047E8000E46002115460EF0EBFE3548FFF718FC83
:1047F8000222324811460FF057F94FF4BC612F4896
:104808000FF05EF90023222206212C480FF0F0F861
:10481800002C50D020461CF09BFD0246214627481C
:1048280011F088FC00234222062124480FF0E0F80A
:1048380005222449214811F07DFC00230A22314633
:104848001E4817F06DFD0DB902B070BD03221E4958
:104858001A480E2411F06EFC294600230A22174834
:1048680017F05EFD4FF448724FF49A73062113480F
:10487800CDE9004262220FF08FF807EE906A9FEDB3
:10488800136A4AF6E573B8EE677A07EE905A622221
:104898000621F8EE677A0948CDE90043C7EE276A92
:1048A80066EE867AFDEEE77A17EE903A1BB20EF0C6
:1048B800A5FC02B070BD0122054CAFE7D04800202E
:1048C800BC09002094080020C409002000009A4375
:1048D800F40800202DE9F0430F46054600216448FE
:1048E80090462DED088B83B0B0EE40AAF0EE60AA9A
:1048F8000EF066FE5F48FFF793FBB0234FF4487253
:1049080006215B48CDE900324FF49A7322220FF05A
:1049180043F8002F40F3A7804FF49A7607EE907A79
:10492800013D0024B8EEE78A9FED53BADFED539AB4
:104938004AF6E5799FED529ADFED528A96FBF7F633
:10494800022EB8BF0226013E36B215F9013F07EE26
:10495800904AA0450CBF4A464FF4FC62013406EE6B
:10496800903AF8EEE77A01923346F8EEE66A404864
:1049780087EE887A76EEA96AC6EE897A27EE0B7AF0
:10498800BDEEC77A17EE101A67EEA87A063109B29B
:10499800FDEEE77A17EE90CABCF1B00FA8BF4FF052
:1049A800B00C2CEAEC7CCCF1D2020FFA8CFC12B2DF
:1049B800CDF800C00EF022FCA742C6D101222C4837
:1049C80011460FF071F84FF4BC6129480FF078F8E0
:1049D8000023D522062126480FF00AF8B7EECA0AA6
:1049E8000121234817F0ACFC0023D5224FF48C7129
:1049F8001F480EF0FDFFB0EE4A0A01211C48A8EE40
:104A08002A0AB7EEC00A17F09BFCB8F1000F04DAC7
:104A180003B0BDEC088BBDE8F0834AF6E571144895
:104A28000FF04EF80023D5225A2111480EF0E0FF6E
:104A3800052215490E4811F07DFB07EE908A0221E8
:104A48000B48F8EEE77AA7EEAAAAB7EECA0A17F05B
:104A580077FC03220D49064803B0BDEC088BBDE87E
:104A6800F04311F067BB07EE907AB8EEE78AA5E746
:104A7800D0480020C809002000009A4300000043E5
:104A88000000C44200003043D0090020D8090020AB
:104A9800F0B5044683B061480E46002115460EF075
:104AA8008FFD5F48FFF7BCFA02225C4811460EF002
:104AB800FBFF4FF4BC6159480FF002F800231E2297
:104AC800062156480EF094FF09225649534811F022
:104AD80031FB00230A222146504817F021FC00230D
:104AE800002E00F08980002D00F0868038220621F3
:104AF8004A480EF07DFF4FF4FC6148480EF0E0FF95
:104B080005224949454811F015FB96ED400A002158
:104B18004248B7EEC00A17F013FC042243493F4845
:104B280011F008FB00234E2206213C480EF060FFDE
:104B38004FF4FC6139480EF0C3FF05223C49374861
:104B480011F0F8FA96ED410A01213448B7EEC00A8F
:104B580017F0F6FB03223749304811F0EBFA00232F
:104B6800642206212D480EF043FF4FF448712B486C
:104B78000EF0A6FF04223049284811F0DBFA002382
:104B88000A2296F8FF10254817F0CAFB012223488D
:104B980011460EF089FF4FF4BC6120480EF090FFDB
:104BA80096F8FF3033B300247C27062501E0202B3C
:104BB80020D00421335D214A01340DEB01001BF0A4
:104BC800EBFF002329B215483AB212350EF010FF58
:104BD80001A81CF0BDFB01A90246104811F0AAFA71
:104BE800B5F5977FE3B201DD0C37062596F8FF206F
:104BF8009A42DCD803B0F0BD4022062107480EF0E7
:104C0800F7FE4FF4487105480EF05AFF0C220C4984
:104C1800024803B0BDE8F04011F08CBAD04800203B
:104C2800DC09002010090020E4090020EC0900201C
:104C3800F4090020FC090020000A0020AC0800202C
:104C4800080A00202DE9F04FC5B006460DF1E00A2C
:104C580003AC1E216FF0170017F098FE44F8040FFC
:104C68005445F6D100214E480EF0AAFC01224C48CA
:104C780011460EF019FF4B4BD3F800801B68A3EBCD
:104C880008039E4250D94FF0000B03AD0027CDE931
:104C9800028612E0B8F1EF0F4DD9EF2E7CD9B8F5A6
:104CA800987F2C6005DD00216FF0170017F06EFE6D
:104CB8002860554507F106071DD055F8044FE60052
:104CC8000134A6F15002A6F10808EF2AE2D8082319
:104CD8000FFA87F912B23248009349460623CDF8F5
:104CE80004B00EF08BFAB8F1EF0F26DD554507F149
:104CF80006072C60E1D12C4B2C4859682C4B1A68BC
:104D080040F6AC53A0FB0202920CDDE9028603FBDD
:104D180002F2254B5B685B1A9A42FAD8214B1B6852
:104D2800A3EB0803B342B0D300211D4845B0BDE84A
:104D3800F04F0EF045BC0FFA87F900224FF4487186
:104D480017480EF0C5FE00230FFA88F249461448AA
:104D58000EF04EFE5E2017F0E1FD00F12101104833
:104D6800C9B211F0E7FAEF2EC0D800224AF6E57171
:104D78000B480EF0ADFE494632B2002308480EF04B
:104D880037FE5E2017F0CAFD00F121010448C9B2C0
:104D980011F0D0FA2C608CE70FFA87F9E5E700BF2D
:104DA800D0480020E4520020001000E083DE1B43BE
:104DB8001C2F002000220449044808B516F09AFF69
:104DC800034B00221A8008BD40420F00203000200B
:104DD80000530020F8B506469F4C40F256279F48DE
:104DE80016F0A6FE03469D48002B3ED016F0F0FEB6
:104DF8002388C0B20D2818BF0A280CBF012500253A
:104E080025D1002BEBD00027954A9649D75400238B
:104E1800104637707760A6F80B71B36027801CF0D6
:104E28004DF9044608B38F4938461CF047F98E49B6
:104E3800074620461CF0ACF8E0B9002F3AD0012311
:104E4800384633701AF072F870602846F8BDBB42D5
:104E580003F1010282490BD8C8548048228016F019
:104E680067FE03467D48002BC0D100252846F8BDC3
:104E78002580B4E77D4920461CF08AF858B9CFB19F
:104E88000223384633701AF04DF8B7EEC00B2846A7
:104E980086ED020AF8BD764920461CF079F800280C
:104EA80040F09C8067B10323384633701AF03EF80F
:104EB8007060DBE76E4920461CF06AF8002865D16F
:104EC8006C4920461CF064F8002873D16A492046D2
:104ED8001CF05EF8002800F09680684920461CF017
:104EE80057F8002800F08580654920461CF050F8E6
:104EF800002840F09280002F00F0A3800623337032
:104F08003B78002B00F0D98006F10C042CE0A3F1CB
:104F18006101C9B2052940F2C580A3F14101C9B2B6
:104F2800052940F2C6800023A2F13001C9B209293F
:104F380040F28580A2F16101C9B2052940F2B6802C
:104F4800A2F13701A2F1410C43EA01025FFA8CF1A8
:104F5800D2B2052998BF134623540130BB78C0B29A
:104F6800002B00F09C8002377A78002A00F09780A6
:104F7800FF2800F09480202B00F08A80A3F13001F4
:104F8800C9B20929C3D80901CBB2CDE739492046AE
:104F98001BF0FEFF002899D03A4920461BF0F8FF85
:104FA80070B9002F92D005233846337019F0BEFF30
:104FB80070605BE7334920461BF0EAFF002885D084
:104FC8002D4920461BF0E4FF002886D1DFB10A23D3
:104FD8003846337019F0AAFF706047E72549204624
:104FE8001BF0D6FF0028D7D1002F3FF46FAF042362
:104FF80047E737B3092301461022384633701BF0C0
:10500800C5FC706032E71D4920461BF0C1FFC0B1E6
:105018001B4920461BF0BCFF98B11B4920461BF0DA
:10502800B7FF70B96FB107231722394606F58670A6
:1050380033701CF00DF8002386F8233116E70B4374
:105048008AE7124920461BF0A3FF00287FF40DAF22
:10505800082333700AE700BF0053002020300020E7
:10506800E44900207C0A0020840A0020381200202D
:105078002C0A002054120020900A0020980A0020D0
:10508800A00A00208C0A0020BC090020A80A0020E1
:10509800B978134601370A4600297FF46CAF86F8C1
:1050A8000B01E3E6573B1B01DBB23DE7573A1343DD
:1050B80052E7373B1B01DBB236E71846EFE700BF84
:1050C80010B5044604220949094817F0CDF83CB147
:1050D80020461CF03DF921460246054817F0C4F861
:1050E8000348BDE8104017F0F3B800BFB00A00202D
:1050F8002030002010B5044604220949094817F059
:10510800B3F83CB120461CF023F921460246054875
:1051180017F0AAF80348BDE8104017F0D9B800BF47
:10512800B80A00202030002030B52DED028B83B066
:1051380004220D4604462A49B0EE608A29488DEDBE
:10514800001A8DED010A17F08FF89DED010A032171
:105158002448B7EEC00A17F0F3F82021214816F0CA
:105168009DFFB7EEC80A01211E4817F0E9F8202173
:105178001C4816F093FF9DED001A01211948B7EE5F
:10518800C10A17F0DDF82021164816F087FF2946D6
:1051980000230A22134817F0C3F82021114816F0FB
:1051A8007DFF9DB1254406E0002310220D4817F02D
:1051B800B7F8AC420AD014F8011B0F29F4D83021F3
:1051C800084816F06BFF14F8011CEDE70A210548A2
:1051D80003B0BDEC028BBDE8304016F05FBF00BFE6
:1051E800C00A00202030002000B52DED028B83B0CE
:1051F80004221149B0EE608A10488DED010A17F0BB
:1052080033F89DED010A03210C48B7EEC00A17F0E8
:1052180097F82021094816F041FFB7EEC80A012186
:10522800064817F08DF80A21044803B0BDEC028B3C
:105238005DF804EB16F032BFC80A002020300020C9
:1052480070B506460D4614462149042221482DED25
:10525800028B82B0B0EE608A8DED010A17F004F877
:1052680000230A2231461B4817F05AF82021194812
:1052780016F014FF9DED010A03211648B7EEC00A87
:1052880017F05EF82021134816F008FF00230A22C1
:105298002946104817F044F820210E4816F0FEFE63
:1052A800B7EEC80A01210B4817F04AF8202109482F
:1052B80016F0F4FE2146074816F0FEFF0A210548BD
:1052C80002B0BDEC028BBDE8704016F0E7BE00BF2F
:1052D800D00A00202030002010B5294B04460122B6
:1052E800284800211A700470013C274A0220274BE5
:1052F8001170196018F004F9062C0CD8DFE804F0D6
:105308001014243236040C00002321482149224A73
:1053180003700B60137010BD204B00221A6010BD83
:10532800BDE8104004F090BAFDF788FC0028F2D0E0
:10533800FDF78AFC0028EED004F086FA8C210220C2
:10534800BDE8104018F0DCB800231548154A1821AC
:10535800154C0360154823701360FEF759FA144B77
:10536800186010BD134B00221A7010BD3422802122
:1053780011481BF0C9FD114B4FF0FF321A6010BDE8
:1053880018360020105300200A530020084500203A
:1053980012530020FC4400201153002090480020A4
:1053A8009C480020944800202253002010470020E9
:1053B8000C4700200B530020C4450020FC3000207F
:1053C80010B5114C2378022B10D0042B13D0032BCB
:1053D80016D00021022018F093F800210B4B01226F
:1053E80021701A70BDE8104004F02EBAFDF7F6FEE1
:1053F8002378042BEBD104F0B7FA2378032BE8D1F8
:10540800FEF766F9E5E700BF1053002018360020C4
:105418001D4BD3F8D82010689168006810B4084272
:10542800137C546814BF0121002103F00303D4F84E
:1054380000C0D06843EA81031CEA000F43F008016A
:1054480018BF0B469908013B11740D2B0BD8DFE8E8
:1054580003F0110C070C0A161111160A0C070C118F
:1054680053690233536110BC70475369013B10BC48
:10547800536170475369013310BC536170475369D6
:10548800023B10BC53617047644E00201D4BD3F89B
:10549800D42010689168006810B40842137C5468DE
:1054A80014BF0121002103F00303D4F800C0D06821
:1054B80043EA81031CEA000F43F0080118BF0B46BA
:1054C8009908013B11740D2B0BD8DFE803F0110C80
:1054D800070C0A161111160A0C070C11536902332E
:1054E800536110BC70475369013B10BC536170474E
:1054F8005369013310BC536170475369023B10BCB8
:1055080053617047644E00201D4BD3F8D0201068BB
:105518009168006810B40842137C546814BF0121D4
:10552800002103F00303D4F800C0D06843EA8103E4
:105538001CEA000F43F0080118BF0B469908013B0D
:1055480011740D2B0BD8DFE803F0110C070C0A16A9
:105558001111160A0C070C1153690233536110BC60
:1055680070475369013B10BC53617047536901335D
:1055780010BC536170475369023B10BC53617047BC
:10558800644E00201D4BD3F8CC2010689168006849
:1055980010B40842137C546814BF0121002103F0A1
:1055A8000303D4F800C0D06843EA81031CEA000F63
:1055B80043F0080118BF0B469908013B11740D2BE5
:1055C8000BD8DFE803F0110C070C0A161111160AA4
:1055D8000C070C1153690233536110BC70475369AF
:1055E800013B10BC536170475369013310BC5361D0
:1055F80070475369023B10BC53617047644E0020EA
:105608001D4BD3F8C82010689168006810B4084290
:10561800137C546814BF0121002103F00303D4F85C
:1056280000C0D06843EA81031CEA000F43F0080178
:1056380018BF0B469908013B11740D2B0BD8DFE8F6
:1056480003F0110C070C0A161111160A0C070C119D
:1056580053690233536110BC70475369013B10BC56
:10566800536170475369013310BC536170475369E4
:10567800023B10BC53617047644E00201D4BD3F8A9
:10568800C42010689168006810B40842137C5468FC
:1056980014BF0121002103F00303D4F800C0D0682F
:1056A80043EA81031CEA000F43F0080118BF0B46C8
:1056B8009908013B11740D2B0BD8DFE803F0110C8E
:1056C800070C0A161111160A0C070C11536902333C
:1056D800536110BC70475369013B10BC536170475C
:1056E8005369013310BC536170475369023B10BCC6
:1056F80053617047644E00201D4BD3F8C0201068DA
:105708009168006810B40842137C546814BF0121E2
:10571800002103F00303D4F800C0D06843EA8103F2
:105728001CEA000F43F0080118BF0B469908013B1B
:1057380011740D2B0BD8DFE803F0110C070C0A16B7
:105748001111160A0C070C1153690233536110BC6E
:1057580070475369013B10BC53617047536901336B
:1057680010BC536170475369023B10BC53617047CA
:10577800644E00201D4BD3F8BC2010689168006867
:1057880010B40842137C546814BF0121002103F0AF
:105798000303D4F800C0D06843EA81031CEA000F71
:1057A80043F0080118BF0B469908013B11740D2BF3
:1057B8000BD8DFE803F0110C070C0A161111160AB2
:1057C8000C070C1153690233536110BC70475369BD
:1057D800013B10BC536170475369013310BC5361DE
:1057E80070475369023B10BC53617047644E0020F8
:1057F8001D4BD3F8B82010689168006810B40842AF
:10580800137C546814BF0121002103F00303D4F86A
:1058180000C0D06843EA81031CEA000F43F0080186
:1058280018BF0B469908013B11740D2B0BD8DFE804
:1058380003F0110C070C0A161111160A0C070C11AB
:1058480053690233536110BC70475369013B10BC64
:10585800536170475369013310BC536170475369F2
:10586800023B10BC53617047644E00201D4BD3F8B7
:10587800B42010689168006810B40842137C54681A
:1058880014BF0121002103F00303D4F800C0D0683D
:1058980043EA81031CEA000F43F0080118BF0B46D6
:1058A8009908013B11740D2B0BD8DFE803F0110C9C
:1058B800070C0A161111160A0C070C11536902334A
:1058C800536110BC70475369013B10BC536170476A
:1058D8005369013310BC536170475369023B10BCD4
:1058E80053617047644E00201D4BD3F8B0201068F8
:1058F8009168006810B40842137C546814BF0121F1
:10590800002103F00303D4F800C0D06843EA810300
:105918001CEA000F43F0080118BF0B469908013B29
:1059280011740D2B0BD8DFE803F0110C070C0A16C5
:105938001111160A0C070C1153690233536110BC7C
:1059480070475369013B10BC536170475369013379
:1059580010BC536170475369023B10BC53617047D8
:10596800644E00201D4BD3F8AC2010689168006885
:1059780010B40842137C546814BF0121002103F0BD
:105988000303D4F800C0D06843EA81031CEA000F7F
:1059980043F0080118BF0B469908013B11740D2B01
:1059A8000BD8DFE803F0110C070C0A161111160AC0
:1059B8000C070C1153690233536110BC70475369CB
:1059C800013B10BC536170475369013310BC5361EC
:1059D80070475369023B10BC53617047644E002006
:1059E8001D4BD3F8A82010689168006810B40842CD
:1059F800137C546814BF0121002103F00303D4F879
:105A080000C0D06843EA81031CEA000F43F0080194
:105A180018BF0B469908013B11740D2B0BD8DFE812
:105A280003F0110C070C0A161111160A0C070C11B9
:105A380053690233536110BC70475369013B10BC72
:105A4800536170475369013310BC53617047536900
:105A5800023B10BC53617047644E00201D4BD3F8C5
:105A6800A42010689168006810B40842137C546838
:105A780014BF0121002103F00303D4F800C0D0684B
:105A880043EA81031CEA000F43F0080118BF0B46E4
:105A98009908013B11740D2B0BD8DFE803F0110CAA
:105AA800070C0A161111160A0C070C115369023358
:105AB800536110BC70475369013B10BC5361704778
:105AC8005369013310BC536170475369023B10BCE2
:105AD80053617047644E00201D4BD3F8A020106816
:105AE8009168006810B40842137C546814BF0121FF
:105AF800002103F00303D4F800C0D06843EA81030F
:105B08001CEA000F43F0080118BF0B469908013B37
:105B180011740D2B0BD8DFE803F0110C070C0A16D3
:105B28001111160A0C070C1153690233536110BC8A
:105B380070475369013B10BC536170475369013387
:105B480010BC536170475369023B10BC53617047E6
:105B5800644E00201D4BD3F89C20106891680068A3
:105B680010B40842137C546814BF0121002103F0CB
:105B78000303D4F800C0D06843EA81031CEA000F8D
:105B880043F0080118BF0B469908013B11740D2B0F
:105B98000BD8DFE803F0110C070C0A161111160ACE
:105BA8000C070C1153690233536110BC70475369D9
:105BB800013B10BC536170475369013310BC5361FA
:105BC80070475369023B10BC53617047644E002014
:105BD8001D4BD3F8982010689168006810B40842EB
:105BE800137C546814BF0121002103F00303D4F887
:105BF80000C0D06843EA81031CEA000F43F00801A3
:105C080018BF0B469908013B11740D2B0BD8DFE820
:105C180003F0110C070C0A161111160A0C070C11C7
:105C280053690233536110BC70475369013B10BC80
:105C3800536170475369013310BC5361704753690E
:105C4800023B10BC53617047644E00201D4BD3F8D3
:105C5800942010689168006810B40842137C546856
:105C680014BF0121002103F00303D4F800C0D06859
:105C780043EA81031CEA000F43F0080118BF0B46F2
:105C88009908013B11740D2B0BD8DFE803F0110CB8
:105C9800070C0A161111160A0C070C115369023366
:105CA800536110BC70475369013B10BC5361704786
:105CB8005369013310BC536170475369023B10BCF0
:105CC80053617047644E00201D4BD3F89020106834
:105CD8009168006810B40842137C546814BF01210D
:105CE800002103F00303D4F800C0D06843EA81031D
:105CF8001CEA000F43F0080118BF0B469908013B46
:105D080011740D2B0BD8DFE803F0110C070C0A16E1
:105D18001111160A0C070C1153690233536110BC98
:105D280070475369013B10BC536170475369013395
:105D380010BC536170475369023B10BC53617047F4
:105D4800644E00201D4BD3F88C20106891680068C1
:105D580010B40842137C546814BF0121002103F0D9
:105D68000303D4F800C0D06843EA81031CEA000F9B
:105D780043F0080118BF0B469908013B11740D2B1D
:105D88000BD8DFE803F0110C070C0A161111160ADC
:105D98000C070C1153690233536110BC70475369E7
:105DA800013B10BC536170475369013310BC536108
:105DB80070475369023B10BC53617047644E002022
:105DC8001D4BD3F8882010689168006810B4084209
:105DD800137C546814BF0121002103F00303D4F895
:105DE80000C0D06843EA81031CEA000F43F00801B1
:105DF80018BF0B469908013B11740D2B0BD8DFE82F
:105E080003F0110C070C0A161111160A0C070C11D5
:105E180053690233536110BC70475369013B10BC8E
:105E2800536170475369013310BC5361704753691C
:105E3800023B10BC53617047644E00201D4BD3F8E1
:105E4800842010689168006810B40842137C546874
:105E580014BF0121002103F00303D4F800C0D06867
:105E680043EA81031CEA000F43F0080118BF0B4600
:105E78009908013B11740D2B0BD8DFE803F0110CC6
:105E8800070C0A161111160A0C070C115369023374
:105E9800536110BC70475369013B10BC5361704794
:105EA8005369013310BC536170475369023B10BCFE
:105EB80053617047644E00201D4BD3F88020106852
:105EC8009168006810B40842137C546814BF01211B
:105ED800002103F00303D4F800C0D06843EA81032B
:105EE8001CEA000F43F0080118BF0B469908013B54
:105EF80011740D2B0BD8DFE803F0110C070C0A16F0
:105F08001111160A0C070C1153690233536110BCA6
:105F180070475369013B10BC5361704753690133A3
:105F280010BC536170475369023B10BC5361704702
:105F3800644E00201D4BDA6F10689168006810B439
:105F48000842137C546814BF0121002103F00303A5
:105F5800D4F800C0D06843EA81031CEA000F43F07C
:105F6800080118BF0B469908013B11740D2B0BD87B
:105F7800DFE803F0110C070C0A161111160A0C07BA
:105F88000C1153690233536110BC70475369013BCC
:105F980010BC536170475369013310BC536170479B
:105FA8005369023B10BC5361704700BF644E002028
:105FB8001D4B9A6F10689168006810B40842137CF2
:105FC800546814BF0121002103F00303D4F800C072
:105FD800D06843EA81031CEA000F43F0080118BFA8
:105FE8000B469908013B11740D2B0BD8DFE803F021
:105FF800110C070C0A161111160A0C070C1153691B
:106008000233536110BC70475369013B10BC5361A4
:1060180070475369013310BC536170475369023BA1
:1060280010BC5361704700BF644E00201D4B5A6F6F
:1060380010689168006810B40842137C546814BF53
:106048000121002103F00303D4F800C0D06843EA1B
:1060580081031CEA000F43F0080118BF0B4699089A
:10606800013B11740D2B0BD8DFE803F0110C070C62
:106078000A161111160A0C070C11536902335361E1
:1060880010BC70475369013B10BC5361704753699A
:10609800013310BC536170475369023B10BC536114
:1060A800704700BF644E00201D4B1A6F106891683E
:1060B800006810B40842137C546814BF0121002101
:1060C80003F00303D4F800C0D06843EA81031CEA54
:1060D800000F43F0080118BF0B469908013B1174E3
:1060E8000D2B0BD8DFE803F0110C070C0A16111161
:1060F800160A0C070C1153690233536110BC704720
:106108005369013B10BC536170475369013310BC9C
:10611800536170475369023B10BC5361704700BF1D
:10612800644E00201D4BDA6E10689168006810B448
:106138000842137C546814BF0121002103F00303B3
:10614800D4F800C0D06843EA81031CEA000F43F08A
:10615800080118BF0B469908013B11740D2B0BD889
:10616800DFE803F0110C070C0A161111160A0C07C8
:106178000C1153690233536110BC70475369013BDA
:1061880010BC536170475369013310BC53617047A9
:106198005369023B10BC5361704700BF644E002036
:1061A8001D4B9A6E10689168006810B40842137C01
:1061B800546814BF0121002103F00303D4F800C080
:1061C800D06843EA81031CEA000F43F0080118BFB6
:1061D8000B469908013B11740D2B0BD8DFE803F02F
:1061E800110C070C0A161111160A0C070C11536929
:1061F8000233536110BC70475369013B10BC5361B3
:1062080070475369013310BC536170475369023BAF
:1062180010BC5361704700BF644E00201D4B5A6E7E
:1062280010689168006810B40842137C546814BF61
:106238000121002103F00303D4F800C0D06843EA29
:1062480081031CEA000F43F0080118BF0B469908A8
:10625800013B11740D2B0BD8DFE803F0110C070C70
:106268000A161111160A0C070C11536902335361EF
:1062780010BC70475369013B10BC536170475369A8
:10628800013310BC536170475369023B10BC536122
:10629800704700BF644E00201D4B1A6E106891684D
:1062A800006810B40842137C546814BF012100210F
:1062B80003F00303D4F800C0D06843EA81031CEA62
:1062C800000F43F0080118BF0B469908013B1174F1
:1062D8000D2B0BD8DFE803F0110C070C0A1611116F
:1062E800160A0C070C1153690233536110BC70472E
:1062F8005369013B10BC536170475369013310BCAB
:10630800536170475369023B10BC5361704700BF2B
:10631800644E00201D4BDA6D10689168006810B457
:106328000842137C546814BF0121002103F00303C1
:10633800D4F800C0D06843EA81031CEA000F43F098
:10634800080118BF0B469908013B11740D2B0BD897
:10635800DFE803F0110C070C0A161111160A0C07D6
:106368000C1153690233536110BC70475369013BE8
:1063780010BC536170475369013310BC53617047B7
:106388005369023B10BC5361704700BF644E002044
:106398001D4B9A6D10689168006810B40842137C10
:1063A800546814BF0121002103F00303D4F800C08E
:1063B800D06843EA81031CEA000F43F0080118BFC4
:1063C8000B469908013B11740D2B0BD8DFE803F03D
:1063D800110C070C0A161111160A0C070C11536937
:1063E8000233536110BC70475369013B10BC5361C1
:1063F80070475369013310BC536170475369023BBE
:1064080010BC5361704700BF644E00201D4B5A6D8D
:1064180010689168006810B40842137C546814BF6F
:106428000121002103F00303D4F800C0D06843EA37
:1064380081031CEA000F43F0080118BF0B469908B6
:10644800013B11740D2B0BD8DFE803F0110C070C7E
:106458000A161111160A0C070C11536902335361FD
:1064680010BC70475369013B10BC536170475369B6
:10647800013310BC536170475369023B10BC536130
:10648800704700BF644E00201D4B1A6D106891685C
:10649800006810B40842137C546814BF012100211D
:1064A80003F00303D4F800C0D06843EA81031CEA70
:1064B800000F43F0080118BF0B469908013B1174FF
:1064C8000D2B0BD8DFE803F0110C070C0A1611117D
:1064D800160A0C070C1153690233536110BC70473C
:1064E8005369013B10BC536170475369013310BCB9
:1064F800536170475369023B10BC5361704700BF3A
:10650800644E00201D4BDA6C10689168006810B466
:106518000842137C546814BF0121002103F00303CF
:10652800D4F800C0D06843EA81031CEA000F43F0A6
:10653800080118BF0B469908013B11740D2B0BD8A5
:10654800DFE803F0110C070C0A161111160A0C07E4
:106558000C1153690233536110BC70475369013BF6
:1065680010BC536170475369013310BC53617047C5
:106578005369023B10BC5361704700BF644E002052
:106588001D4B9A6C10689168006810B40842137C1F
:10659800546814BF0121002103F00303D4F800C09C
:1065A800D06843EA81031CEA000F43F0080118BFD2
:1065B8000B469908013B11740D2B0BD8DFE803F04B
:1065C800110C070C0A161111160A0C070C11536945
:1065D8000233536110BC70475369013B10BC5361CF
:1065E80070475369013310BC536170475369023BCC
:1065F80010BC5361704700BF644E00201D4B5A6C9D
:1066080010689168006810B40842137C546814BF7D
:106618000121002103F00303D4F800C0D06843EA45
:1066280081031CEA000F43F0080118BF0B469908C4
:10663800013B11740D2B0BD8DFE803F0110C070C8C
:106648000A161111160A0C070C115369023353610B
:1066580010BC70475369013B10BC536170475369C4
:10666800013310BC536170475369023B10BC53613E
:10667800704700BF644E00201D4B1A6C106891686B
:10668800006810B40842137C546814BF012100212B
:1066980003F00303D4F800C0D06843EA81031CEA7E
:1066A800000F43F0080118BF0B469908013B11740D
:1066B8000D2B0BD8DFE803F0110C070C0A1611118B
:1066C800160A0C070C1153690233536110BC70474A
:1066D8005369013B10BC536170475369013310BCC7
:1066E800536170475369023B10BC5361704700BF48
:1066F800644E00201D4BDA6B10689168006810B476
:106708000842137C546814BF0121002103F00303DD
:10671800D4F800C0D06843EA81031CEA000F43F0B4
:10672800080118BF0B469908013B11740D2B0BD8B3
:10673800DFE803F0110C070C0A161111160A0C07F2
:106748000C1153690233536110BC70475369013B04
:1067580010BC536170475369013310BC53617047D3
:106768005369023B10BC5361704700BF644E002060
:106778001D4B9A6B10689168006810B40842137C2E
:10678800546814BF0121002103F00303D4F800C0AA
:10679800D06843EA81031CEA000F43F0080118BFE0
:1067A8000B469908013B11740D2B0BD8DFE803F059
:1067B800110C070C0A161111160A0C070C11536953
:1067C8000233536110BC70475369013B10BC5361DD
:1067D80070475369013310BC536170475369023BDA
:1067E80010BC5361704700BF644E00201D4B5A6BAC
:1067F80010689168006810B40842137C546814BF8C
:106808000121002103F00303D4F800C0D06843EA53
:1068180081031CEA000F43F0080118BF0B469908D2
:10682800013B11740D2B0BD8DFE803F0110C070C9A
:106838000A161111160A0C070C1153690233536119
:1068480010BC70475369013B10BC536170475369D2
:10685800013310BC536170475369023B10BC53614C
:10686800704700BF644E00201D4B1A6B106891687A
:10687800006810B40842137C546814BF0121002139
:1068880003F00303D4F800C0D06843EA81031CEA8C
:10689800000F43F0080118BF0B469908013B11741B
:1068A8000D2B0BD8DFE803F0110C070C0A16111199
:1068B800160A0C070C1153690233536110BC704758
:1068C8005369013B10BC536170475369013310BCD5
:1068D800536170475369023B10BC5361704700BF56
:1068E800644E00201D4BDA6A10689168006810B485
:1068F8000842137C546814BF0121002103F00303EC
:10690800D4F800C0D06843EA81031CEA000F43F0C2
:10691800080118BF0B469908013B11740D2B0BD8C1
:10692800DFE803F0110C070C0A161111160A0C0700
:106938000C1153690233536110BC70475369013B12
:1069480010BC536170475369013310BC53617047E1
:106958005369023B10BC5361704700BF644E00206E
:106968001D4B9A6A10689168006810B40842137C3D
:10697800546814BF0121002103F00303D4F800C0B8
:10698800D06843EA81031CEA000F43F0080118BFEE
:106998000B469908013B11740D2B0BD8DFE803F067
:1069A800110C070C0A161111160A0C070C11536961
:1069B8000233536110BC70475369013B10BC5361EB
:1069C80070475369013310BC536170475369023BE8
:1069D80010BC5361704700BF644E00201D4B5A6ABB
:1069E80010689168006810B40842137C546814BF9A
:1069F8000121002103F00303D4F800C0D06843EA62
:106A080081031CEA000F43F0080118BF0B469908E0
:106A1800013B11740D2B0BD8DFE803F0110C070CA8
:106A28000A161111160A0C070C1153690233536127
:106A380010BC70475369013B10BC536170475369E0
:106A4800013310BC536170475369023B10BC53615A
:106A5800704700BF644E00201D4B1A6A1068916889
:106A6800006810B40842137C546814BF0121002147
:106A780003F00303D4F800C0D06843EA81031CEA9A
:106A8800000F43F0080118BF0B469908013B117429
:106A98000D2B0BD8DFE803F0110C070C0A161111A7
:106AA800160A0C070C1153690233536110BC704766
:106AB8005369013B10BC536170475369013310BCE3
:106AC800536170475369023B10BC5361704700BF64
:106AD800644E00201D4BDA6910689168006810B494
:106AE8000842137C546814BF0121002103F00303FA
:106AF800D4F800C0D06843EA81031CEA000F43F0D1
:106B0800080118BF0B469908013B11740D2B0BD8CF
:106B1800DFE803F0110C070C0A161111160A0C070E
:106B28000C1153690233536110BC70475369013B20
:106B380010BC536170475369013310BC53617047EF
:106B48005369023B10BC5361704700BF644E00207C
:106B58001D4B9A6910689168006810B40842137C4C
:106B6800546814BF0121002103F00303D4F800C0C6
:106B7800D06843EA81031CEA000F43F0080118BFFC
:106B88000B469908013B11740D2B0BD8DFE803F075
:106B9800110C070C0A161111160A0C070C1153696F
:106BA8000233536110BC70475369013B10BC5361F9
:106BB80070475369013310BC536170475369023BF6
:106BC80010BC5361704700BF644E00201D4B5A69CA
:106BD80010689168006810B40842137C546814BFA8
:106BE8000121002103F00303D4F800C0D06843EA70
:106BF80081031CEA000F43F0080118BF0B469908EF
:106C0800013B11740D2B0BD8DFE803F0110C070CB6
:106C18000A161111160A0C070C1153690233536135
:106C280010BC70475369013B10BC536170475369EE
:106C3800013310BC536170475369023B10BC536168
